{
  "_format": "hh-sol-artifact-1",
  "contractName": "EVMAuthGroupAccessV2",
  "sourceName": "src/EVMAuthGroupAccessV2.sol",
  "abi": [
    {
      "inputs": [
        {
          "internalType": "address",
          "name": "_factory",
          "type": "address"
        },
        {
          "internalType": "string",
          "name": "_groupName",
          "type": "string"
        },
        {
          "internalType": "string",
          "name": "_groupDescription",
          "type": "string"
        },
        {
          "internalType": "string",
          "name": "_groupImageUrl",
          "type": "string"
        },
        {
          "internalType": "string",
          "name": "_salesGroupId",
          "type": "string"
        },
        {
          "internalType": "string",
          "name": "_premiumGroupId",
          "type": "string"
        },
        {
          "internalType": "address",
          "name": "_botAddress",
          "type": "address"
        },
        {
          "internalType": "address",
          "name": "_owner",
          "type": "address"
        }
      ],
      "stateMutability": "nonpayable",
      "type": "constructor"
    },
    {
      "anonymous": false,
      "inputs": [
        {
          "indexed": true,
          "internalType": "uint256",
          "name": "tokenId",
          "type": "uint256"
        },
        {
          "indexed": false,
          "internalType": "uint256",
          "name": "durationDays",
          "type": "uint256"
        },
        {
          "indexed": false,
          "internalType": "uint256",
          "name": "priceWei",
          "type": "uint256"
        },
        {
          "indexed": false,
          "internalType": "string",
          "name": "name",
          "type": "string"
        }
      ],
      "name": "AccessTierSetup",
      "type": "event"
    },
    {
      "anonymous": false,
      "inputs": [
        {
          "indexed": true,
          "internalType": "address",
          "name": "account",
          "type": "address"
        },
        {
          "indexed": true,
          "internalType": "address",
          "name": "operator",
          "type": "address"
        },
        {
          "indexed": false,
          "internalType": "bool",
          "name": "approved",
          "type": "bool"
        }
      ],
      "name": "ApprovalForAll",
      "type": "event"
    },
    {
      "anonymous": false,
      "inputs": [
        {
          "indexed": true,
          "internalType": "address",
          "name": "user",
          "type": "address"
        },
        {
          "indexed": true,
          "internalType": "string",
          "name": "inboxId",
          "type": "string"
        }
      ],
      "name": "InboxIdStored",
      "type": "event"
    },
    {
      "anonymous": false,
      "inputs": [
        {
          "indexed": true,
          "internalType": "address",
          "name": "previousOwner",
          "type": "address"
        },
        {
          "indexed": true,
          "internalType": "address",
          "name": "newOwner",
          "type": "address"
        }
      ],
      "name": "OwnershipTransferred",
      "type": "event"
    },
    {
      "anonymous": false,
      "inputs": [
        {
          "indexed": true,
          "internalType": "address",
          "name": "operator",
          "type": "address"
        },
        {
          "indexed": true,
          "internalType": "address",
          "name": "from",
          "type": "address"
        },
        {
          "indexed": true,
          "internalType": "address",
          "name": "to",
          "type": "address"
        },
        {
          "indexed": false,
          "internalType": "uint256[]",
          "name": "ids",
          "type": "uint256[]"
        },
        {
          "indexed": false,
          "internalType": "uint256[]",
          "name": "values",
          "type": "uint256[]"
        }
      ],
      "name": "TransferBatch",
      "type": "event"
    },
    {
      "anonymous": false,
      "inputs": [
        {
          "indexed": true,
          "internalType": "address",
          "name": "operator",
          "type": "address"
        },
        {
          "indexed": true,
          "internalType": "address",
          "name": "from",
          "type": "address"
        },
        {
          "indexed": true,
          "internalType": "address",
          "name": "to",
          "type": "address"
        },
        {
          "indexed": false,
          "internalType": "uint256",
          "name": "id",
          "type": "uint256"
        },
        {
          "indexed": false,
          "internalType": "uint256",
          "name": "value",
          "type": "uint256"
        }
      ],
      "name": "TransferSingle",
      "type": "event"
    },
    {
      "anonymous": false,
      "inputs": [
        {
          "indexed": false,
          "internalType": "string",
          "name": "value",
          "type": "string"
        },
        {
          "indexed": true,
          "internalType": "uint256",
          "name": "id",
          "type": "uint256"
        }
      ],
      "name": "URI",
      "type": "event"
    },
    {
      "anonymous": false,
      "inputs": [
        {
          "indexed": true,
          "internalType": "address",
          "name": "user",
          "type": "address"
        },
        {
          "indexed": true,
          "internalType": "string",
          "name": "userInboxId",
          "type": "string"
        },
        {
          "indexed": true,
          "internalType": "uint256",
          "name": "tokenId",
          "type": "uint256"
        },
        {
          "indexed": false,
          "internalType": "uint256",
          "name": "expiresAt",
          "type": "uint256"
        }
      ],
      "name": "UserAccessGranted",
      "type": "event"
    },
    {
      "anonymous": false,
      "inputs": [
        {
          "indexed": true,
          "internalType": "address",
          "name": "user",
          "type": "address"
        },
        {
          "indexed": true,
          "internalType": "string",
          "name": "userInboxId",
          "type": "string"
        },
        {
          "indexed": true,
          "internalType": "uint256",
          "name": "tokenId",
          "type": "uint256"
        },
        {
          "indexed": false,
          "internalType": "string",
          "name": "reason",
          "type": "string"
        }
      ],
      "name": "UserAccessRevoked",
      "type": "event"
    },
    {
      "anonymous": false,
      "inputs": [
        {
          "indexed": false,
          "internalType": "string",
          "name": "salesGroupId",
          "type": "string"
        },
        {
          "indexed": false,
          "internalType": "string",
          "name": "premiumGroupId",
          "type": "string"
        },
        {
          "indexed": true,
          "internalType": "address",
          "name": "botAddress",
          "type": "address"
        },
        {
          "indexed": false,
          "internalType": "uint256",
          "name": "timestamp",
          "type": "uint256"
        }
      ],
      "name": "XMTPGroupsLinked",
      "type": "event"
    },
    {
      "inputs": [
        {
          "internalType": "uint256",
          "name": "",
          "type": "uint256"
        }
      ],
      "name": "accessTiers",
      "outputs": [
        {
          "internalType": "uint256",
          "name": "durationDays",
          "type": "uint256"
        },
        {
          "internalType": "uint256",
          "name": "priceWei",
          "type": "uint256"
        },
        {
          "internalType": "string",
          "name": "name",
          "type": "string"
        },
        {
          "internalType": "string",
          "name": "description",
          "type": "string"
        },
        {
          "internalType": "string",
          "name": "imageHash",
          "type": "string"
        },
        {
          "internalType": "string",
          "name": "metadataUri",
          "type": "string"
        },
        {
          "internalType": "bool",
          "name": "isActive",
          "type": "bool"
        },
        {
          "internalType": "uint256",
          "name": "createdAt",
          "type": "uint256"
        }
      ],
      "stateMutability": "view",
      "type": "function"
    },
    {
      "inputs": [
        {
          "internalType": "address",
          "name": "account",
          "type": "address"
        },
        {
          "internalType": "uint256",
          "name": "id",
          "type": "uint256"
        }
      ],
      "name": "balanceOf",
      "outputs": [
        {
          "internalType": "uint256",
          "name": "",
          "type": "uint256"
        }
      ],
      "stateMutability": "view",
      "type": "function"
    },
    {
      "inputs": [
        {
          "internalType": "address[]",
          "name": "accounts",
          "type": "address[]"
        },
        {
          "internalType": "uint256[]",
          "name": "ids",
          "type": "uint256[]"
        }
      ],
      "name": "balanceOfBatch",
      "outputs": [
        {
          "internalType": "uint256[]",
          "name": "",
          "type": "uint256[]"
        }
      ],
      "stateMutability": "view",
      "type": "function"
    },
    {
      "inputs": [
        {
          "internalType": "address[]",
          "name": "users",
          "type": "address[]"
        }
      ],
      "name": "batchCheckAccess",
      "outputs": [
        {
          "internalType": "bool[]",
          "name": "",
          "type": "bool[]"
        }
      ],
      "stateMutability": "view",
      "type": "function"
    },
    {
      "inputs": [],
      "name": "factory",
      "outputs": [
        {
          "internalType": "address",
          "name": "",
          "type": "address"
        }
      ],
      "stateMutability": "view",
      "type": "function"
    },
    {
      "inputs": [],
      "name": "getActiveTiers",
      "outputs": [
        {
          "internalType": "uint256[]",
          "name": "",
          "type": "uint256[]"
        }
      ],
      "stateMutability": "view",
      "type": "function"
    },
    {
      "inputs": [
        {
          "internalType": "uint256",
          "name": "index",
          "type": "uint256"
        }
      ],
      "name": "getPurchaseRecord",
      "outputs": [
        {
          "components": [
            {
              "internalType": "address",
              "name": "user",
              "type": "address"
            },
            {
              "internalType": "string",
              "name": "userInboxId",
              "type": "string"
            },
            {
              "internalType": "uint256",
              "name": "tokenId",
              "type": "uint256"
            },
            {
              "internalType": "uint256",
              "name": "purchasePrice",
              "type": "uint256"
            },
            {
              "internalType": "uint256",
              "name": "purchasedAt",
              "type": "uint256"
            },
            {
              "internalType": "uint256",
              "name": "expiresAt",
              "type": "uint256"
            },
            {
              "internalType": "bool",
              "name": "isActive",
              "type": "bool"
            }
          ],
          "internalType": "struct EVMAuthGroupAccessV2.PurchaseRecord",
          "name": "",
          "type": "tuple"
        }
      ],
      "stateMutability": "view",
      "type": "function"
    },
    {
      "inputs": [
        {
          "internalType": "address",
          "name": "user",
          "type": "address"
        }
      ],
      "name": "getUserPurchases",
      "outputs": [
        {
          "internalType": "uint256[]",
          "name": "",
          "type": "uint256[]"
        }
      ],
      "stateMutability": "view",
      "type": "function"
    },
    {
      "inputs": [],
      "name": "groupDescription",
      "outputs": [
        {
          "internalType": "string",
          "name": "",
          "type": "string"
        }
      ],
      "stateMutability": "view",
      "type": "function"
    },
    {
      "inputs": [],
      "name": "groupImageUrl",
      "outputs": [
        {
          "internalType": "string",
          "name": "",
          "type": "string"
        }
      ],
      "stateMutability": "view",
      "type": "function"
    },
    {
      "inputs": [],
      "name": "groupName",
      "outputs": [
        {
          "internalType": "string",
          "name": "",
          "type": "string"
        }
      ],
      "stateMutability": "view",
      "type": "function"
    },
    {
      "inputs": [
        {
          "internalType": "address",
          "name": "user",
          "type": "address"
        }
      ],
      "name": "hasValidAccess",
      "outputs": [
        {
          "internalType": "bool",
          "name": "",
          "type": "bool"
        }
      ],
      "stateMutability": "view",
      "type": "function"
    },
    {
      "inputs": [
        {
          "internalType": "string",
          "name": "inboxId",
          "type": "string"
        }
      ],
      "name": "hasValidAccessByInboxId",
      "outputs": [
        {
          "internalType": "bool",
          "name": "",
          "type": "bool"
        }
      ],
      "stateMutability": "view",
      "type": "function"
    },
    {
      "inputs": [
        {
          "internalType": "string",
          "name": "",
          "type": "string"
        }
      ],
      "name": "inboxToAddress",
      "outputs": [
        {
          "internalType": "address",
          "name": "",
          "type": "address"
        }
      ],
      "stateMutability": "view",
      "type": "function"
    },
    {
      "inputs": [
        {
          "internalType": "address",
          "name": "account",
          "type": "address"
        },
        {
          "internalType": "address",
          "name": "operator",
          "type": "address"
        }
      ],
      "name": "isApprovedForAll",
      "outputs": [
        {
          "internalType": "bool",
          "name": "",
          "type": "bool"
        }
      ],
      "stateMutability": "view",
      "type": "function"
    },
    {
      "inputs": [],
      "name": "owner",
      "outputs": [
        {
          "internalType": "address",
          "name": "",
          "type": "address"
        }
      ],
      "stateMutability": "view",
      "type": "function"
    },
    {
      "inputs": [
        {
          "internalType": "uint256",
          "name": "tokenId",
          "type": "uint256"
        }
      ],
      "name": "purchaseAccess",
      "outputs": [],
      "stateMutability": "payable",
      "type": "function"
    },
    {
      "inputs": [
        {
          "internalType": "uint256",
          "name": "",
          "type": "uint256"
        }
      ],
      "name": "purchaseHistory",
      "outputs": [
        {
          "internalType": "address",
          "name": "user",
          "type": "address"
        },
        {
          "internalType": "string",
          "name": "userInboxId",
          "type": "string"
        },
        {
          "internalType": "uint256",
          "name": "tokenId",
          "type": "uint256"
        },
        {
          "internalType": "uint256",
          "name": "purchasePrice",
          "type": "uint256"
        },
        {
          "internalType": "uint256",
          "name": "purchasedAt",
          "type": "uint256"
        },
        {
          "internalType": "uint256",
          "name": "expiresAt",
          "type": "uint256"
        },
        {
          "internalType": "bool",
          "name": "isActive",
          "type": "bool"
        }
      ],
      "stateMutability": "view",
      "type": "function"
    },
    {
      "inputs": [],
      "name": "renounceOwnership",
      "outputs": [],
      "stateMutability": "nonpayable",
      "type": "function"
    },
    {
      "inputs": [
        {
          "internalType": "address",
          "name": "user",
          "type": "address"
        },
        {
          "internalType": "uint256",
          "name": "tokenId",
          "type": "uint256"
        },
        {
          "internalType": "string",
          "name": "reason",
          "type": "string"
        }
      ],
      "name": "revokeAccess",
      "outputs": [],
      "stateMutability": "nonpayable",
      "type": "function"
    },
    {
      "inputs": [
        {
          "internalType": "address",
          "name": "from",
          "type": "address"
        },
        {
          "internalType": "address",
          "name": "to",
          "type": "address"
        },
        {
          "internalType": "uint256[]",
          "name": "ids",
          "type": "uint256[]"
        },
        {
          "internalType": "uint256[]",
          "name": "amounts",
          "type": "uint256[]"
        },
        {
          "internalType": "bytes",
          "name": "data",
          "type": "bytes"
        }
      ],
      "name": "safeBatchTransferFrom",
      "outputs": [],
      "stateMutability": "nonpayable",
      "type": "function"
    },
    {
      "inputs": [
        {
          "internalType": "address",
          "name": "from",
          "type": "address"
        },
        {
          "internalType": "address",
          "name": "to",
          "type": "address"
        },
        {
          "internalType": "uint256",
          "name": "id",
          "type": "uint256"
        },
        {
          "internalType": "uint256",
          "name": "amount",
          "type": "uint256"
        },
        {
          "internalType": "bytes",
          "name": "data",
          "type": "bytes"
        }
      ],
      "name": "safeTransferFrom",
      "outputs": [],
      "stateMutability": "nonpayable",
      "type": "function"
    },
    {
      "inputs": [
        {
          "internalType": "address",
          "name": "operator",
          "type": "address"
        },
        {
          "internalType": "bool",
          "name": "approved",
          "type": "bool"
        }
      ],
      "name": "setApprovalForAll",
      "outputs": [],
      "stateMutability": "nonpayable",
      "type": "function"
    },
    {
      "inputs": [
        {
          "internalType": "uint256",
          "name": "tokenId",
          "type": "uint256"
        },
        {
          "internalType": "uint256",
          "name": "durationDays",
          "type": "uint256"
        },
        {
          "internalType": "uint256",
          "name": "priceWei",
          "type": "uint256"
        },
        {
          "internalType": "string",
          "name": "name",
          "type": "string"
        },
        {
          "internalType": "string",
          "name": "description",
          "type": "string"
        },
        {
          "internalType": "string",
          "name": "imageHash",
          "type": "string"
        },
        {
          "internalType": "string",
          "name": "metadataUri",
          "type": "string"
        }
      ],
      "name": "setupAccessTier",
      "outputs": [],
      "stateMutability": "nonpayable",
      "type": "function"
    },
    {
      "inputs": [
        {
          "internalType": "address",
          "name": "user",
          "type": "address"
        },
        {
          "internalType": "string",
          "name": "inboxId",
          "type": "string"
        }
      ],
      "name": "storeUserInboxId",
      "outputs": [],
      "stateMutability": "nonpayable",
      "type": "function"
    },
    {
      "inputs": [
        {
          "internalType": "bytes4",
          "name": "interfaceId",
          "type": "bytes4"
        }
      ],
      "name": "supportsInterface",
      "outputs": [
        {
          "internalType": "bool",
          "name": "",
          "type": "bool"
        }
      ],
      "stateMutability": "view",
      "type": "function"
    },
    {
      "inputs": [],
      "name": "toggleXMTPIntegration",
      "outputs": [],
      "stateMutability": "nonpayable",
      "type": "function"
    },
    {
      "inputs": [
        {
          "internalType": "address",
          "name": "newOwner",
          "type": "address"
        }
      ],
      "name": "transferOwnership",
      "outputs": [],
      "stateMutability": "nonpayable",
      "type": "function"
    },
    {
      "inputs": [
        {
          "internalType": "string",
          "name": "_salesGroupId",
          "type": "string"
        },
        {
          "internalType": "string",
          "name": "_premiumGroupId",
          "type": "string"
        },
        {
          "internalType": "address",
          "name": "_botAddress",
          "type": "address"
        }
      ],
      "name": "updateXMTPInfo",
      "outputs": [],
      "stateMutability": "nonpayable",
      "type": "function"
    },
    {
      "inputs": [
        {
          "internalType": "uint256",
          "name": "tokenId",
          "type": "uint256"
        }
      ],
      "name": "uri",
      "outputs": [
        {
          "internalType": "string",
          "name": "",
          "type": "string"
        }
      ],
      "stateMutability": "view",
      "type": "function"
    },
    {
      "inputs": [
        {
          "internalType": "address",
          "name": "",
          "type": "address"
        }
      ],
      "name": "userInboxIds",
      "outputs": [
        {
          "internalType": "string",
          "name": "",
          "type": "string"
        }
      ],
      "stateMutability": "view",
      "type": "function"
    },
    {
      "inputs": [
        {
          "internalType": "address",
          "name": "",
          "type": "address"
        },
        {
          "internalType": "uint256",
          "name": "",
          "type": "uint256"
        }
      ],
      "name": "userPurchases",
      "outputs": [
        {
          "internalType": "uint256",
          "name": "",
          "type": "uint256"
        }
      ],
      "stateMutability": "view",
      "type": "function"
    },
    {
      "inputs": [
        {
          "internalType": "address",
          "name": "",
          "type": "address"
        },
        {
          "internalType": "uint256",
          "name": "",
          "type": "uint256"
        }
      ],
      "name": "userTokenExpiry",
      "outputs": [
        {
          "internalType": "uint256",
          "name": "",
          "type": "uint256"
        }
      ],
      "stateMutability": "view",
      "type": "function"
    },
    {
      "inputs": [],
      "name": "withdraw",
      "outputs": [],
      "stateMutability": "nonpayable",
      "type": "function"
    },
    {
      "inputs": [],
      "name": "xmtpInfo",
      "outputs": [
        {
          "internalType": "string",
          "name": "salesGroupId",
          "type": "string"
        },
        {
          "internalType": "string",
          "name": "premiumGroupId",
          "type": "string"
        },
        {
          "internalType": "address",
          "name": "botAddress",
          "type": "address"
        },
        {
          "internalType": "bool",
          "name": "isActive",
          "type": "bool"
        },
        {
          "internalType": "uint256",
          "name": "linkedAt",
          "type": "uint256"
        }
      ],
      "stateMutability": "view",
      "type": "function"
    }
  ],
  "bytecode": "0x60806040523480156200001157600080fd5b506040516200463c3803806200463c8339810160408190526200003491620002f6565b6040805160208101909152600081526200004e81620001a8565b506200005a33620001ba565b6001600455600580546001600160a01b0319166001600160a01b038a1617905560066200008888826200049f565b5060076200009787826200049f565b506008620000a686826200049f565b506040805160a081018252858152602081018590526001600160a01b0384169181019190915260016060820152426080820152600980620000e887826200049f565b5060208201516001820190620000ff90826200049f565b50604082015160028201805460608501511515600160a01b026001600160a81b03199091166001600160a01b03938416171790556080909201516003909101558116331462000153576200015381620001ba565b816001600160a01b03167f5bd2d155ed1076bdd300b62402f71b052eff6f9ed7c9b91d25e3a9477c7f47b8858542604051620001929392919062000599565b60405180910390a25050505050505050620005d3565b6002620001b682826200049f565b5050565b600380546001600160a01b038381166001600160a01b0319831681179093556040519116919082907f8be0079c531659141344cd1fd0a4f28419497f9722a3daafe3b4186f6b6457e090600090a35050565b80516001600160a01b03811681146200022457600080fd5b919050565b634e487b7160e01b600052604160045260246000fd5b60005b838110156200025c57818101518382015260200162000242565b50506000910152565b600082601f8301126200027757600080fd5b81516001600160401b038082111562000294576200029462000229565b604051601f8301601f19908116603f01168101908282118183101715620002bf57620002bf62000229565b81604052838152866020858801011115620002d957600080fd5b620002ec8460208301602089016200023f565b9695505050505050565b600080600080600080600080610100898b0312156200031457600080fd5b6200031f896200020c565b60208a01519098506001600160401b03808211156200033d57600080fd5b6200034b8c838d0162000265565b985060408b01519150808211156200036257600080fd5b620003708c838d0162000265565b975060608b01519150808211156200038757600080fd5b620003958c838d0162000265565b965060808b0151915080821115620003ac57600080fd5b620003ba8c838d0162000265565b955060a08b0151915080821115620003d157600080fd5b50620003e08b828c0162000265565b935050620003f160c08a016200020c565b91506200040160e08a016200020c565b90509295985092959890939650565b600181811c908216806200042557607f821691505b6020821081036200044657634e487b7160e01b600052602260045260246000fd5b50919050565b601f8211156200049a57600081815260208120601f850160051c81016020861015620004755750805b601f850160051c820191505b81811015620004965782815560010162000481565b5050505b505050565b81516001600160401b03811115620004bb57620004bb62000229565b620004d381620004cc845462000410565b846200044c565b602080601f8311600181146200050b5760008415620004f25750858301515b600019600386901b1c1916600185901b17855562000496565b600085815260208120601f198616915b828110156200053c578886015182559484019460019091019084016200051b565b50858210156200055b5787850151600019600388901b60f8161c191681555b5050505050600190811b01905550565b60008151808452620005858160208601602086016200023f565b601f01601f19169290920160200192915050565b606081526000620005ae60608301866200056b565b8281036020840152620005c281866200056b565b915050826040830152949350505050565b61405980620005e36000396000f3fe6080604052600436106102035760003560e01c8063783cec8011610118578063c6e5d8f6116100a0578063e86609031161006f578063e86609031461060a578063e985e9c51461064b578063f242432a14610694578063f2fde38b146106b4578063f906b99c146106d457600080fd5b8063c6e5d8f61461058f578063cf2c0334146105af578063d0c2ed9f146105cf578063e3d2d03a146105f557600080fd5b8063a22cb465116100e7578063a22cb465146104fc578063a6b73de51461051c578063b2610aaa1461053c578063b91d0a2f1461055c578063c45a01551461056f57600080fd5b8063783cec801461046857806379146fbe1461047d5780638c09bb591461049d5780638da5cb5b146104ca57600080fd5b80632829fc531161019b5780634e1273f41161016a5780634e1273f4146103ae57806352394573146103ce5780635ff58cbb146103ee5780636ff8f2f714610426578063715018a61461045357600080fd5b80632829fc53146103315780632eb2c2d61461036457806335eb9f2e146103845780633ccfd60b1461039957600080fd5b8063030c61fb116101d7578063030c61fb146102af5780630a035284146102cf5780630e89341c146102ef57806321d8dc4c1461031c57600080fd5b8062fdd58e14610208578063016b51091461023b57806301ffc9a71461025d57806302f73f2d1461028d575b600080fd5b34801561021457600080fd5b506102286102233660046131c2565b610708565b6040519081526020015b60405180910390f35b34801561024757600080fd5b5061025b6102563660046132a3565b6107a1565b005b34801561026957600080fd5b5061027d610278366004613382565b61099c565b6040519015158152602001610232565b34801561029957600080fd5b506102a26109ec565b60405161023291906133da565b3480156102bb57600080fd5b5061025b6102ca3660046133ed565b610b1d565b3480156102db57600080fd5b5061027d6102ea36600461343c565b610d4b565b3480156102fb57600080fd5b5061030f61030a366004613478565b610df6565b60405161023291906134e1565b34801561032857600080fd5b5061030f6110b0565b34801561033d57600080fd5b5061035161034c366004613478565b61113e565b60405161023297969594939291906134f4565b34801561037057600080fd5b5061025b61037f3660046135d8565b611222565b34801561039057600080fd5b5061030f61126e565b3480156103a557600080fd5b5061025b61127b565b3480156103ba57600080fd5b506102a26103c93660046136f4565b611308565b3480156103da57600080fd5b5061025b6103e936600461374d565b611429565b3480156103fa57600080fd5b506102286104093660046131c2565b601060209081526000928352604080842090915290825290205481565b34801561043257600080fd5b50610446610441366004613478565b6114aa565b60405161023291906137c4565b34801561045f57600080fd5b5061025b611649565b34801561047457600080fd5b5061030f61165d565b34801561048957600080fd5b5061027d610498366004613833565b61166a565b3480156104a957600080fd5b506104bd6104b8366004613850565b6116f8565b6040516102329190613884565b3480156104d657600080fd5b506003546001600160a01b03165b6040516001600160a01b039091168152602001610232565b34801561050857600080fd5b5061025b6105173660046138d8565b61181d565b34801561052857600080fd5b5061025b610537366004613911565b611828565b34801561054857600080fd5b5061030f610557366004613833565b6119ab565b61025b61056a366004613478565b6119c4565b34801561057b57600080fd5b506005546104e4906001600160a01b031681565b34801561059b57600080fd5b506102a26105aa366004613833565b611fc9565b3480156105bb57600080fd5b506102286105ca3660046131c2565b612035565b3480156105db57600080fd5b506105e4612066565b604051610232959493929190613969565b34801561060157600080fd5b5061025b6121a8565b34801561061657600080fd5b506104e461062536600461343c565b8051602081830181018051600e825292820191909301209152546001600160a01b031681565b34801561065757600080fd5b5061027d6106663660046139b5565b6001600160a01b03918216600090815260016020908152604080832093909416825291909152205460ff1690565b3480156106a057600080fd5b5061025b6106af3660046139e3565b6121d1565b3480156106c057600080fd5b5061025b6106cf366004613833565b612216565b3480156106e057600080fd5b506106f46106ef366004613478565b61228c565b604051610232989796959493929190613a4b565b60006001600160a01b0383166107785760405162461bcd60e51b815260206004820152602a60248201527f455243313135353a2061646472657373207a65726f206973206e6f742061207660448201526930b634b21037bbb732b960b11b60648201526084015b60405180910390fd5b506000818152602081815260408083206001600160a01b03861684529091529020545b92915050565b6107a96124f1565b600086116107f95760405162461bcd60e51b815260206004820152601960248201527f4475726174696f6e206d75737420626520706f73697469766500000000000000604482015260640161076f565b600085116108425760405162461bcd60e51b81526020600482015260166024820152755072696365206d75737420626520706f73697469766560501b604482015260640161076f565b60008451116108835760405162461bcd60e51b815260206004820152600d60248201526c13985b59481c995c5d5a5c9959609a1b604482015260640161076f565b60408051610100810182528781526020808201888152828401888152606084018890526080840187905260a08401869052600160c085018190524260e086015260008d8152600f90945294909220835181559051938101939093555190919060028201906108f19082613b44565b50606082015160038201906109069082613b44565b506080820151600482019061091b9082613b44565b5060a082015160058201906109309082613b44565b5060c082015160068201805460ff191691151591909117905560e09091015160079091015560405187907f71ee33549aa6be67d7c282688e8b683bb21a476171c3bc5a6c8b17b2c9f82a529061098b90899089908990613c03565b60405180910390a250505050505050565b60006001600160e01b03198216636cdb3d1360e11b14806109cd57506001600160e01b031982166303a24d0760e21b145b8061079b57506301ffc9a760e01b6001600160e01b031983161461079b565b60408051600a8082526101608201909252606091600091906020820161014080368337019050509050600060015b600a8111610a7a576000818152600f602052604090206006015460ff1615610a685780838381518110610a4f57610a4f613c2b565b602090810291909101015281610a6481613c57565b9250505b80610a7281613c57565b915050610a1a565b506000816001600160401b03811115610a9557610a956131ee565b604051908082528060200260200182016040528015610abe578160200160208202803683370190505b50905060005b82811015610b1557838181518110610ade57610ade613c2b565b6020026020010151828281518110610af857610af8613c2b565b602090810291909101015280610b0d81613c57565b915050610ac4565b509392505050565b600b546001600160a01b0316331480610b4057506003546001600160a01b031633145b610b7d5760405162461bcd60e51b815260206004820152600e60248201526d139bdd08185d5d1a1bdc9a5e995960921b604482015260640161076f565b6000815111610bc15760405162461bcd60e51b815260206004820152601060248201526f125b9d985b1a59081a5b989bde08125160821b604482015260640161076f565b6001600160a01b0382166000908152600d602052604081208054610be490613abf565b80601f0160208091040260200160405190810160405280929190818152602001828054610c1090613abf565b8015610c5d5780601f10610c3257610100808354040283529160200191610c5d565b820191906000526020600020905b815481529060010190602001808311610c4057829003601f168201915b50505050509050600081511115610c9c57600e81604051610c7e9190613c70565b90815260405190819003602001902080546001600160a01b03191690555b6001600160a01b0383166000908152600d60205260409020610cbe8382613b44565b5082600e83604051610cd09190613c70565b90815260405190819003602001812080546001600160a01b03939093166001600160a01b031990931692909217909155610d0b908390613c70565b604051908190038120906001600160a01b038516907f8b4881c75a7edfc0e7b573ef45189a69862c36b7419abe831c60fcac34ed201e90600090a3505050565b600080600e83604051610d5e9190613c70565b908152604051908190036020019020546001600160a01b0316905080610d875750600092915050565b604051633c8a37df60e11b81526001600160a01b038216600482015230906379146fbe90602401602060405180830381865afa158015610dcb573d6000803e3d6000fd5b505050506040513d601f19601f82011682018060405250810190610def9190613c8c565b9392505050565b60606000600f6000848152602001908152602001600020604051806101000160405290816000820154815260200160018201548152602001600282018054610e3d90613abf565b80601f0160208091040260200160405190810160405280929190818152602001828054610e6990613abf565b8015610eb65780601f10610e8b57610100808354040283529160200191610eb6565b820191906000526020600020905b815481529060010190602001808311610e9957829003601f168201915b50505050508152602001600382018054610ecf90613abf565b80601f0160208091040260200160405190810160405280929190818152602001828054610efb90613abf565b8015610f485780601f10610f1d57610100808354040283529160200191610f48565b820191906000526020600020905b815481529060010190602001808311610f2b57829003601f168201915b50505050508152602001600482018054610f6190613abf565b80601f0160208091040260200160405190810160405280929190818152602001828054610f8d90613abf565b8015610fda5780601f10610faf57610100808354040283529160200191610fda565b820191906000526020600020905b815481529060010190602001808311610fbd57829003601f168201915b50505050508152602001600582018054610ff390613abf565b80601f016020809104026020016040519081016040528092919081815260200182805461101f90613abf565b801561106c5780601f106110415761010080835404028352916020019161106c565b820191906000526020600020905b81548152906001019060200180831161104f57829003601f168201915b5050509183525050600682015460ff161515602082015260079091015460409091015260a081015151909150156110a75760a0015192915050565b610def8361254b565b600880546110bd90613abf565b80601f01602080910402602001604051908101604052809291908181526020018280546110e990613abf565b80156111365780601f1061110b57610100808354040283529160200191611136565b820191906000526020600020905b81548152906001019060200180831161111957829003601f168201915b505050505081565b6011818154811061114e57600080fd5b6000918252602090912060079091020180546001820180546001600160a01b0390921693509061117d90613abf565b80601f01602080910402602001604051908101604052809291908181526020018280546111a990613abf565b80156111f65780601f106111cb576101008083540402835291602001916111f6565b820191906000526020600020905b8154815290600101906020018083116111d957829003601f168201915b505050600284015460038501546004860154600587015460069097015495969295919450925060ff1687565b6001600160a01b03851633148061123e575061123e8533610666565b61125a5760405162461bcd60e51b815260040161076f90613ca9565b61126785858585856125d5565b5050505050565b600780546110bd90613abf565b6112836124f1565b47806112ca5760405162461bcd60e51b81526020600482015260166024820152754e6f2062616c616e636520746f20776974686472617760501b604482015260640161076f565b6003546040516001600160a01b039091169082156108fc029083906000818181858888f19350505050158015611304573d6000803e3d6000fd5b5050565b6060815183511461136d5760405162461bcd60e51b815260206004820152602960248201527f455243313135353a206163636f756e747320616e6420696473206c656e677468604482015268040dad2e6dac2e8c6d60bb1b606482015260840161076f565b600083516001600160401b03811115611388576113886131ee565b6040519080825280602002602001820160405280156113b1578160200160208202803683370190505b50905060005b8451811015610b15576113fc8582815181106113d5576113d5613c2b565b60200260200101518583815181106113ef576113ef613c2b565b6020026020010151610708565b82828151811061140e5761140e613c2b565b602090810291909101015261142281613c57565b90506113b7565b6114316124f1565b600961143d8482613b44565b50600a61144a8382613b44565b50600b80546001600160a01b0319166001600160a01b0383169081179091556040517f5bd2d155ed1076bdd300b62402f71b052eff6f9ed7c9b91d25e3a9477c7f47b89061149d90869086904290613cf7565b60405180910390a2505050565b6114f56040518060e0016040528060006001600160a01b0316815260200160608152602001600081526020016000815260200160008152602001600081526020016000151581525090565b60115482106115365760405162461bcd60e51b815260206004820152600d60248201526c092dcecc2d8d2c840d2dcc8caf609b1b604482015260640161076f565b6011828154811061154957611549613c2b565b60009182526020918290206040805160e0810190915260079092020180546001600160a01b03168252600181018054929391929184019161158990613abf565b80601f01602080910402602001604051908101604052809291908181526020018280546115b590613abf565b80156116025780601f106115d757610100808354040283529160200191611602565b820191906000526020600020905b8154815290600101906020018083116115e557829003601f168201915b50505091835250506002820154602082015260038201546040820152600482015460608201526005820154608082015260069091015460ff16151560a09091015292915050565b6116516124f1565b61165b60006127b2565b565b600680546110bd90613abf565b600060015b600a81116116ef576000818152600f602052604090206006015460ff1680156116a15750600061169f8483610708565b115b80156116cf57506001600160a01b038316600090815260106020908152604080832084845290915290205442105b156116dd5750600192915050565b806116e781613c57565b91505061166f565b50600092915050565b6060600082516001600160401b03811115611715576117156131ee565b60405190808252806020026020018201604052801561173e578160200160208202803683370190505b50905060005b835181101561181657306001600160a01b03166379146fbe85838151811061176e5761176e613c2b565b60200260200101516040518263ffffffff1660e01b81526004016117a191906001600160a01b0391909116815260200190565b602060405180830381865afa1580156117be573d6000803e3d6000fd5b505050506040513d601f19601f820116820180604052508101906117e29190613c8c565b8282815181106117f4576117f4613c2b565b911515602092830291909101909101528061180e81613c57565b915050611744565b5092915050565b611304338383612804565b6118306124f1565b600061183c8484610708565b1161187e5760405162461bcd60e51b81526020600482015260126024820152715573657220686173206e6f20746f6b656e7360701b604482015260640161076f565b611892838361188d8686610708565b6128e4565b6001600160a01b03831660008181526010602090815260408083208684528252808320839055928252600d905290812080546118cd90613abf565b80601f01602080910402602001604051908101604052809291908181526020018280546118f990613abf565b80156119465780601f1061191b57610100808354040283529160200191611946565b820191906000526020600020905b81548152906001019060200180831161192957829003601f168201915b50505050509050828160405161195c9190613c70565b6040518091039020856001600160a01b03167f1f50cca6e190c91c85b4889563d4100095e7bdf0deab20ad9e944cf9009149fc8560405161199d91906134e1565b60405180910390a450505050565b600d60205260009081526040902080546110bd90613abf565b6119cc612a65565b6000600f6000838152602001908152602001600020604051806101000160405290816000820154815260200160018201548152602001600282018054611a1190613abf565b80601f0160208091040260200160405190810160405280929190818152602001828054611a3d90613abf565b8015611a8a5780601f10611a5f57610100808354040283529160200191611a8a565b820191906000526020600020905b815481529060010190602001808311611a6d57829003601f168201915b50505050508152602001600382018054611aa390613abf565b80601f0160208091040260200160405190810160405280929190818152602001828054611acf90613abf565b8015611b1c5780601f10611af157610100808354040283529160200191611b1c565b820191906000526020600020905b815481529060010190602001808311611aff57829003601f168201915b50505050508152602001600482018054611b3590613abf565b80601f0160208091040260200160405190810160405280929190818152602001828054611b6190613abf565b8015611bae5780601f10611b8357610100808354040283529160200191611bae565b820191906000526020600020905b815481529060010190602001808311611b9157829003601f168201915b50505050508152602001600582018054611bc790613abf565b80601f0160208091040260200160405190810160405280929190818152602001828054611bf390613abf565b8015611c405780601f10611c1557610100808354040283529160200191611c40565b820191906000526020600020905b815481529060010190602001808311611c2357829003601f168201915b5050509183525050600682015460ff161515602082015260079091015460409091015260c0810151909150611cb05760405162461bcd60e51b81526020600482015260166024820152754163636573732074696572206e6f742061637469766560501b604482015260640161076f565b8060200151341015611cfb5760405162461bcd60e51b8152602060048201526014602482015273125b9cdd59999a58da595b9d081c185e5b595b9d60621b604482015260640161076f565b8051600090611d0d9062015180613d2d565b611d179042613d44565b9050611d353384600160405180602001604052806000815250612abe565b3360008181526010602090815260408083208784528252808320859055928252600d90529081208054611d6790613abf565b80601f0160208091040260200160405190810160405280929190818152602001828054611d9390613abf565b8015611de05780601f10611db557610100808354040283529160200191611de0565b820191906000526020600020905b815481529060010190602001808311611dc357829003601f168201915b50506040805160e081018252338152602081018681529181018a905234606082015242608082015260a08101889052600160c0820181905260118054918201815560005281517f31ecc21a745e3968a04e9570e4425bc18fa8019c68028196b546d1669c200c68600790920291820180546001600160a01b0319166001600160a01b03909216919091178155925196975090959194507f31ecc21a745e3968a04e9570e4425bc18fa8019c68028196b546d1669c200c69019250611ea5915082613b44565b506040828101516002830155606083015160038301556080830151600483015560a0830151600583015560c0909201516006909101805460ff1916911515919091179055336000908152601260205220601154611f0490600190613d57565b81546001810183556000928352602090922090910155611f2334612bc9565b8260200151341115611f6e57602083015133906108fc90611f449034613d57565b6040518115909202916000818181858888f19350505050158015611f6c573d6000803e3d6000fd5b505b8381604051611f7d9190613c70565b6040519081900381208482529033907f832e3266eda251722a299e9cec6db5e6c82c1590615bf7f40f0d6f6651b403a19060200160405180910390a4505050611fc66001600455565b50565b6001600160a01b03811660009081526012602090815260409182902080548351818402810184019094528084526060939283018282801561202957602002820191906000526020600020905b815481526020019060010190808311612015575b50505050509050919050565b6012602052816000526040600020818154811061205157600080fd5b90600052602060002001600091509150505481565b60098054819061207590613abf565b80601f01602080910402602001604051908101604052809291908181526020018280546120a190613abf565b80156120ee5780601f106120c3576101008083540402835291602001916120ee565b820191906000526020600020905b8154815290600101906020018083116120d157829003601f168201915b50505050509080600101805461210390613abf565b80601f016020809104026020016040519081016040528092919081815260200182805461212f90613abf565b801561217c5780601f106121515761010080835404028352916020019161217c565b820191906000526020600020905b81548152906001019060200180831161215f57829003601f168201915b50505050600283015460039093015491926001600160a01b03811692600160a01b90910460ff16915085565b6121b06124f1565b600b805460ff60a01b198116600160a01b9182900460ff1615909102179055565b6001600160a01b0385163314806121ed57506121ed8533610666565b6122095760405162461bcd60e51b815260040161076f90613ca9565b6112678585858585612e22565b61221e6124f1565b6001600160a01b0381166122835760405162461bcd60e51b815260206004820152602660248201527f4f776e61626c653a206e6577206f776e657220697320746865207a65726f206160448201526564647265737360d01b606482015260840161076f565b611fc6816127b2565b600f60205260009081526040902080546001820154600283018054929391926122b490613abf565b80601f01602080910402602001604051908101604052809291908181526020018280546122e090613abf565b801561232d5780601f106123025761010080835404028352916020019161232d565b820191906000526020600020905b81548152906001019060200180831161231057829003601f168201915b50505050509080600301805461234290613abf565b80601f016020809104026020016040519081016040528092919081815260200182805461236e90613abf565b80156123bb5780601f10612390576101008083540402835291602001916123bb565b820191906000526020600020905b81548152906001019060200180831161239e57829003601f168201915b5050505050908060040180546123d090613abf565b80601f01602080910402602001604051908101604052809291908181526020018280546123fc90613abf565b80156124495780601f1061241e57610100808354040283529160200191612449565b820191906000526020600020905b81548152906001019060200180831161242c57829003601f168201915b50505050509080600501805461245e90613abf565b80601f016020809104026020016040519081016040528092919081815260200182805461248a90613abf565b80156124d75780601f106124ac576101008083540402835291602001916124d7565b820191906000526020600020905b8154815290600101906020018083116124ba57829003601f168201915b505050506006830154600790930154919260ff1691905088565b6003546001600160a01b0316331461165b5760405162461bcd60e51b815260206004820181905260248201527f4f776e61626c653a2063616c6c6572206973206e6f7420746865206f776e6572604482015260640161076f565b60606002805461255a90613abf565b80601f016020809104026020016040519081016040528092919081815260200182805461258690613abf565b80156120295780601f106125a857610100808354040283529160200191612029565b820191906000526020600020905b8154815290600101906020018083116125b65750939695505050505050565b81518351146126375760405162461bcd60e51b815260206004820152602860248201527f455243313135353a2069647320616e6420616d6f756e7473206c656e677468206044820152670dad2e6dac2e8c6d60c31b606482015260840161076f565b6001600160a01b03841661265d5760405162461bcd60e51b815260040161076f90613d6a565b3360005b845181101561274457600085828151811061267e5761267e613c2b565b60200260200101519050600085838151811061269c5761269c613c2b565b602090810291909101810151600084815280835260408082206001600160a01b038e1683529093529190912054909150818110156126ec5760405162461bcd60e51b815260040161076f90613daf565b6000838152602081815260408083206001600160a01b038e8116855292528083208585039055908b16825281208054849290612729908490613d44565b925050819055505050508061273d90613c57565b9050612661565b50846001600160a01b0316866001600160a01b0316826001600160a01b03167f4a39dc06d4c0dbc64b70af90fd698a233a518aa5d07e595d983b8c0526c8f7fb8787604051612794929190613df9565b60405180910390a46127aa818787878787612f4c565b505050505050565b600380546001600160a01b038381166001600160a01b0319831681179093556040519116919082907f8be0079c531659141344cd1fd0a4f28419497f9722a3daafe3b4186f6b6457e090600090a35050565b816001600160a01b0316836001600160a01b0316036128775760405162461bcd60e51b815260206004820152602960248201527f455243313135353a2073657474696e6720617070726f76616c20737461747573604482015268103337b91039b2b63360b91b606482015260840161076f565b6001600160a01b03838116600081815260016020908152604080832094871680845294825291829020805460ff191686151590811790915591519182527f17307eab39ab6107e8899845ad3d59bd9653f200f220920489ca2b5937696c31910160405180910390a3505050565b6001600160a01b0383166129465760405162461bcd60e51b815260206004820152602360248201527f455243313135353a206275726e2066726f6d20746865207a65726f206164647260448201526265737360e81b606482015260840161076f565b336000612952846130a7565b9050600061295f846130a7565b60408051602080820183526000918290528882528181528282206001600160a01b038b16835290522054909150848110156129e85760405162461bcd60e51b8152602060048201526024808201527f455243313135353a206275726e20616d6f756e7420657863656564732062616c604482015263616e636560e01b606482015260840161076f565b6000868152602081815260408083206001600160a01b038b81168086529184528285208a8703905582518b81529384018a90529092908816917fc3d58168c5ae7397731d063d5bbf3d657854427343f4c083240f7aacaa2d0f62910160405180910390a46040805160208101909152600090525b50505050505050565b600260045403612ab75760405162461bcd60e51b815260206004820152601f60248201527f5265656e7472616e637947756172643a207265656e7472616e742063616c6c00604482015260640161076f565b6002600455565b6001600160a01b038416612b1e5760405162461bcd60e51b815260206004820152602160248201527f455243313135353a206d696e7420746f20746865207a65726f206164647265736044820152607360f81b606482015260840161076f565b336000612b2a856130a7565b90506000612b37856130a7565b90506000868152602081815260408083206001600160a01b038b16845290915281208054879290612b69908490613d44565b909155505060408051878152602081018790526001600160a01b03808a1692600092918716917fc3d58168c5ae7397731d063d5bbf3d657854427343f4c083240f7aacaa2d0f62910160405180910390a4612a5c836000898989896130f2565b60055460408051600481526024810182526020810180516001600160e01b031663b8606eef60e01b179052905160009283926001600160a01b0390911691612c119190613c70565b6000604051808303816000865af19150503d8060008114612c4e576040519150601f19603f3d011682016040523d82523d6000602084013e612c53565b606091505b509150915081612ca55760405162461bcd60e51b815260206004820152601e60248201527f4661696c656420746f206765742066656520626173697320706f696e74730000604482015260640161076f565b600081806020019051810190612cbb9190613e1e565b60055460408051600481526024810182526020810180516001600160e01b031663011a412160e61b17905290519293506001600160a01b0390911691612d019190613c70565b6000604051808303816000865af19150503d8060008114612d3e576040519150601f19603f3d011682016040523d82523d6000602084013e612d43565b606091505b50909350915082612d965760405162461bcd60e51b815260206004820152601b60248201527f4661696c656420746f206765742066656520726563697069656e740000000000604482015260640161076f565b600082806020019051810190612dac9190613e37565b9050600082118015612dc657506001600160a01b03811615155b15611267576000612710612dda8488613d2d565b612de49190613e54565b905080156127aa576040516001600160a01b0383169082156108fc029083906000818181858888f19350505050158015612a5c573d6000803e3d6000fd5b6001600160a01b038416612e485760405162461bcd60e51b815260040161076f90613d6a565b336000612e54856130a7565b90506000612e61856130a7565b90506000868152602081815260408083206001600160a01b038c16845290915290205485811015612ea45760405162461bcd60e51b815260040161076f90613daf565b6000878152602081815260408083206001600160a01b038d8116855292528083208985039055908a16825281208054889290612ee1908490613d44565b909155505060408051888152602081018890526001600160a01b03808b16928c821692918816917fc3d58168c5ae7397731d063d5bbf3d657854427343f4c083240f7aacaa2d0f62910160405180910390a4612f41848a8a8a8a8a6130f2565b505050505050505050565b6001600160a01b0384163b156127aa5760405163bc197c8160e01b81526001600160a01b0385169063bc197c8190612f909089908990889088908890600401613e76565b6020604051808303816000875af1925050508015612fcb575060408051601f3d908101601f19168201909252612fc891810190613ed4565b60015b61307757612fd7613ef1565b806308c379a0036130105750612feb613f0d565b80612ff65750613012565b8060405162461bcd60e51b815260040161076f91906134e1565b505b60405162461bcd60e51b815260206004820152603460248201527f455243313135353a207472616e7366657220746f206e6f6e2d455243313135356044820152732932b1b2b4bb32b91034b6b83632b6b2b73a32b960611b606482015260840161076f565b6001600160e01b0319811663bc197c8160e01b14612a5c5760405162461bcd60e51b815260040161076f90613f96565b604080516001808252818301909252606091600091906020808301908036833701905050905082816000815181106130e1576130e1613c2b565b602090810291909101015292915050565b6001600160a01b0384163b156127aa5760405163f23a6e6160e01b81526001600160a01b0385169063f23a6e61906131369089908990889088908890600401613fde565b6020604051808303816000875af1925050508015613171575060408051601f3d908101601f1916820190925261316e91810190613ed4565b60015b61317d57612fd7613ef1565b6001600160e01b0319811663f23a6e6160e01b14612a5c5760405162461bcd60e51b815260040161076f90613f96565b6001600160a01b0381168114611fc657600080fd5b600080604083850312156131d557600080fd5b82356131e0816131ad565b946020939093013593505050565b634e487b7160e01b600052604160045260246000fd5b601f8201601f191681016001600160401b0381118282101715613229576132296131ee565b6040525050565b600082601f83011261324157600080fd5b81356001600160401b0381111561325a5761325a6131ee565b604051613271601f8301601f191660200182613204565b81815284602083860101111561328657600080fd5b816020850160208301376000918101602001919091529392505050565b600080600080600080600060e0888a0312156132be57600080fd5b87359650602088013595506040880135945060608801356001600160401b03808211156132ea57600080fd5b6132f68b838c01613230565b955060808a013591508082111561330c57600080fd5b6133188b838c01613230565b945060a08a013591508082111561332e57600080fd5b61333a8b838c01613230565b935060c08a013591508082111561335057600080fd5b5061335d8a828b01613230565b91505092959891949750929550565b6001600160e01b031981168114611fc657600080fd5b60006020828403121561339457600080fd5b8135610def8161336c565b600081518084526020808501945080840160005b838110156133cf578151875295820195908201906001016133b3565b509495945050505050565b602081526000610def602083018461339f565b6000806040838503121561340057600080fd5b823561340b816131ad565b915060208301356001600160401b0381111561342657600080fd5b61343285828601613230565b9150509250929050565b60006020828403121561344e57600080fd5b81356001600160401b0381111561346457600080fd5b61347084828501613230565b949350505050565b60006020828403121561348a57600080fd5b5035919050565b60005b838110156134ac578181015183820152602001613494565b50506000910152565b600081518084526134cd816020860160208601613491565b601f01601f19169290920160200192915050565b602081526000610def60208301846134b5565b6001600160a01b038816815260e060208201819052600090613518908301896134b5565b6040830197909752506060810194909452608084019290925260a0830152151560c09091015292915050565b60006001600160401b0382111561355d5761355d6131ee565b5060051b60200190565b600082601f83011261357857600080fd5b8135602061358582613544565b6040516135928282613204565b83815260059390931b85018201928281019150868411156135b257600080fd5b8286015b848110156135cd57803583529183019183016135b6565b509695505050505050565b600080600080600060a086880312156135f057600080fd5b85356135fb816131ad565b9450602086013561360b816131ad565b935060408601356001600160401b038082111561362757600080fd5b61363389838a01613567565b9450606088013591508082111561364957600080fd5b61365589838a01613567565b9350608088013591508082111561366b57600080fd5b5061367888828901613230565b9150509295509295909350565b600082601f83011261369657600080fd5b813560206136a382613544565b6040516136b08282613204565b83815260059390931b85018201928281019150868411156136d057600080fd5b8286015b848110156135cd5780356136e7816131ad565b83529183019183016136d4565b6000806040838503121561370757600080fd5b82356001600160401b038082111561371e57600080fd5b61372a86838701613685565b9350602085013591508082111561374057600080fd5b5061343285828601613567565b60008060006060848603121561376257600080fd5b83356001600160401b038082111561377957600080fd5b61378587838801613230565b9450602086013591508082111561379b57600080fd5b506137a886828701613230565b92505060408401356137b9816131ad565b809150509250925092565b602080825282516001600160a01b03168282015282015160e060408301526000906137f36101008401826134b5565b90506040840151606084015260608401516080840152608084015160a084015260a084015160c084015260c0840151151560e08401528091505092915050565b60006020828403121561384557600080fd5b8135610def816131ad565b60006020828403121561386257600080fd5b81356001600160401b0381111561387857600080fd5b61347084828501613685565b6020808252825182820181905260009190848201906040850190845b818110156138be5783511515835292840192918401916001016138a0565b50909695505050505050565b8015158114611fc657600080fd5b600080604083850312156138eb57600080fd5b82356138f6816131ad565b91506020830135613906816138ca565b809150509250929050565b60008060006060848603121561392657600080fd5b8335613931816131ad565b92506020840135915060408401356001600160401b0381111561395357600080fd5b61395f86828701613230565b9150509250925092565b60a08152600061397c60a08301886134b5565b828103602084015261398e81886134b5565b6001600160a01b039690961660408401525050911515606083015260809091015292915050565b600080604083850312156139c857600080fd5b82356139d3816131ad565b91506020830135613906816131ad565b600080600080600060a086880312156139fb57600080fd5b8535613a06816131ad565b94506020860135613a16816131ad565b9350604086013592506060860135915060808601356001600160401b03811115613a3f57600080fd5b61367888828901613230565b60006101008a8352896020840152806040840152613a6b8184018a6134b5565b90508281036060840152613a7f81896134b5565b90508281036080840152613a9381886134b5565b905082810360a0840152613aa781876134b5565b94151560c0840152505060e001529695505050505050565b600181811c90821680613ad357607f821691505b602082108103613af357634e487b7160e01b600052602260045260246000fd5b50919050565b601f821115613b3f57600081815260208120601f850160051c81016020861015613b205750805b601f850160051c820191505b818110156127aa57828155600101613b2c565b505050565b81516001600160401b03811115613b5d57613b5d6131ee565b613b7181613b6b8454613abf565b84613af9565b602080601f831160018114613ba65760008415613b8e5750858301515b600019600386901b1c1916600185901b1785556127aa565b600085815260208120601f198616915b82811015613bd557888601518255948401946001909101908401613bb6565b5085821015613bf35787850151600019600388901b60f8161c191681555b5050505050600190811b01905550565b838152826020820152606060408201526000613c2260608301846134b5565b95945050505050565b634e487b7160e01b600052603260045260246000fd5b634e487b7160e01b600052601160045260246000fd5b600060018201613c6957613c69613c41565b5060010190565b60008251613c82818460208701613491565b9190910192915050565b600060208284031215613c9e57600080fd5b8151610def816138ca565b6020808252602e908201527f455243313135353a2063616c6c6572206973206e6f7420746f6b656e206f776e60408201526d195c881bdc88185c1c1c9bdd995960921b606082015260800190565b606081526000613d0a60608301866134b5565b8281036020840152613d1c81866134b5565b915050826040830152949350505050565b808202811582820484141761079b5761079b613c41565b8082018082111561079b5761079b613c41565b8181038181111561079b5761079b613c41565b60208082526025908201527f455243313135353a207472616e7366657220746f20746865207a65726f206164604082015264647265737360d81b606082015260800190565b6020808252602a908201527f455243313135353a20696e73756666696369656e742062616c616e636520666f60408201526939103a3930b739b332b960b11b606082015260800190565b604081526000613e0c604083018561339f565b8281036020840152613c22818561339f565b600060208284031215613e3057600080fd5b5051919050565b600060208284031215613e4957600080fd5b8151610def816131ad565b600082613e7157634e487b7160e01b600052601260045260246000fd5b500490565b6001600160a01b0386811682528516602082015260a060408201819052600090613ea29083018661339f565b8281036060840152613eb4818661339f565b90508281036080840152613ec881856134b5565b98975050505050505050565b600060208284031215613ee657600080fd5b8151610def8161336c565b600060033d1115613f0a5760046000803e5060005160e01c5b90565b600060443d1015613f1b5790565b6040516003193d81016004833e81513d6001600160401b038160248401118184111715613f4a57505050505090565b8285019150815181811115613f625750505050505090565b843d8701016020828501011115613f7c5750505050505090565b613f8b60208286010187613204565b509095945050505050565b60208082526028908201527f455243313135353a204552433131353552656365697665722072656a656374656040820152676420746f6b656e7360c01b606082015260800190565b6001600160a01b03868116825285166020820152604081018490526060810183905260a060808201819052600090614018908301846134b5565b97965050505050505056fea2646970667358221220f9944f8535ae0a6a0def312879ddc961ecfab4ab5df0611f2666e28ef3c3ce6f64736f6c63430008140033",
  "linkReferences": {},
  "deployedLinkReferences": {}
}