{
  "_format": "hh-sol-artifact-1",
  "contractName": "SimpleFactoryV2",
  "sourceName": "src/SimpleFactoryV2.sol",
  "abi": [
    {
      "inputs": [
        {
          "internalType": "address",
          "name": "_feeRecipient",
          "type": "address"
        },
        {
          "internalType": "uint256",
          "name": "_feeBasisPoints",
          "type": "uint256"
        },
        {
          "internalType": "address",
          "name": "_initialOwner",
          "type": "address"
        }
      ],
      "stateMutability": "nonpayable",
      "type": "constructor"
    },
    {
      "inputs": [
        {
          "internalType": "address",
          "name": "owner",
          "type": "address"
        }
      ],
      "name": "OwnableInvalidOwner",
      "type": "error"
    },
    {
      "inputs": [
        {
          "internalType": "address",
          "name": "account",
          "type": "address"
        }
      ],
      "name": "OwnableUnauthorizedAccount",
      "type": "error"
    },
    {
      "inputs": [],
      "name": "ReentrancyGuardReentrantCall",
      "type": "error"
    },
    {
      "anonymous": false,
      "inputs": [
        {
          "indexed": true,
          "internalType": "address",
          "name": "creator",
          "type": "address"
        },
        {
          "indexed": true,
          "internalType": "address",
          "name": "contractAddress",
          "type": "address"
        },
        {
          "indexed": false,
          "internalType": "string",
          "name": "name",
          "type": "string"
        },
        {
          "indexed": false,
          "internalType": "uint256",
          "name": "timestamp",
          "type": "uint256"
        }
      ],
      "name": "ContractDeployed",
      "type": "event"
    },
    {
      "anonymous": false,
      "inputs": [
        {
          "indexed": true,
          "internalType": "address",
          "name": "baseContract",
          "type": "address"
        },
        {
          "indexed": true,
          "internalType": "address",
          "name": "extensionAddress",
          "type": "address"
        },
        {
          "indexed": false,
          "internalType": "uint256",
          "name": "timestamp",
          "type": "uint256"
        }
      ],
      "name": "ExtensionDeployed",
      "type": "event"
    },
    {
      "anonymous": false,
      "inputs": [
        {
          "indexed": true,
          "internalType": "address",
          "name": "newFeeRecipient",
          "type": "address"
        },
        {
          "indexed": false,
          "internalType": "uint256",
          "name": "newFeeBasisPoints",
          "type": "uint256"
        }
      ],
      "name": "FeeConfigurationUpdated",
      "type": "event"
    },
    {
      "anonymous": false,
      "inputs": [
        {
          "indexed": true,
          "internalType": "address",
          "name": "previousOwner",
          "type": "address"
        },
        {
          "indexed": true,
          "internalType": "address",
          "name": "newOwner",
          "type": "address"
        }
      ],
      "name": "OwnershipTransferred",
      "type": "event"
    },
    {
      "inputs": [
        {
          "internalType": "uint256",
          "name": "",
          "type": "uint256"
        }
      ],
      "name": "allContracts",
      "outputs": [
        {
          "internalType": "address",
          "name": "",
          "type": "address"
        }
      ],
      "stateMutability": "view",
      "type": "function"
    },
    {
      "inputs": [
        {
          "internalType": "address",
          "name": "",
          "type": "address"
        }
      ],
      "name": "contractCreators",
      "outputs": [
        {
          "internalType": "address",
          "name": "",
          "type": "address"
        }
      ],
      "stateMutability": "view",
      "type": "function"
    },
    {
      "inputs": [
        {
          "internalType": "address",
          "name": "",
          "type": "address"
        },
        {
          "internalType": "uint256",
          "name": "",
          "type": "uint256"
        }
      ],
      "name": "creatorContracts",
      "outputs": [
        {
          "internalType": "address",
          "name": "",
          "type": "address"
        }
      ],
      "stateMutability": "view",
      "type": "function"
    },
    {
      "inputs": [
        {
          "internalType": "string",
          "name": "name",
          "type": "string"
        },
        {
          "internalType": "string",
          "name": "version",
          "type": "string"
        },
        {
          "internalType": "string",
          "name": "uri",
          "type": "string"
        },
        {
          "internalType": "uint48",
          "name": "delay",
          "type": "uint48"
        },
        {
          "internalType": "address",
          "name": "megapotContract",
          "type": "address"
        },
        {
          "internalType": "address",
          "name": "referrer",
          "type": "address"
        }
      ],
      "name": "deployEVMAuthWithMegapot",
      "outputs": [
        {
          "internalType": "address",
          "name": "baseContract",
          "type": "address"
        },
        {
          "internalType": "address",
          "name": "megapotExtension",
          "type": "address"
        }
      ],
      "stateMutability": "payable",
      "type": "function"
    },
    {
      "inputs": [
        {
          "internalType": "string",
          "name": "name",
          "type": "string"
        },
        {
          "internalType": "string",
          "name": "version",
          "type": "string"
        },
        {
          "internalType": "string",
          "name": "uri",
          "type": "string"
        },
        {
          "internalType": "uint48",
          "name": "delay",
          "type": "uint48"
        },
        {
          "internalType": "string",
          "name": "salesGroupId",
          "type": "string"
        },
        {
          "internalType": "string",
          "name": "premiumGroupId",
          "type": "string"
        },
        {
          "internalType": "address",
          "name": "botAddress",
          "type": "address"
        }
      ],
      "name": "deployEVMAuthWithXMTP",
      "outputs": [
        {
          "internalType": "address",
          "name": "baseContract",
          "type": "address"
        },
        {
          "internalType": "address",
          "name": "xmtpExtension",
          "type": "address"
        }
      ],
      "stateMutability": "payable",
      "type": "function"
    },
    {
      "inputs": [
        {
          "internalType": "string",
          "name": "name",
          "type": "string"
        },
        {
          "internalType": "string",
          "name": "version",
          "type": "string"
        },
        {
          "internalType": "string",
          "name": "uri",
          "type": "string"
        },
        {
          "internalType": "uint48",
          "name": "delay",
          "type": "uint48"
        },
        {
          "internalType": "string",
          "name": "salesGroupId",
          "type": "string"
        },
        {
          "internalType": "string",
          "name": "premiumGroupId",
          "type": "string"
        },
        {
          "internalType": "address",
          "name": "botAddress",
          "type": "address"
        },
        {
          "internalType": "address",
          "name": "megapotContract",
          "type": "address"
        },
        {
          "internalType": "address",
          "name": "referrer",
          "type": "address"
        }
      ],
      "name": "deployFullGamifiedSystem",
      "outputs": [
        {
          "internalType": "address",
          "name": "baseContract",
          "type": "address"
        },
        {
          "internalType": "address",
          "name": "xmtpExtension",
          "type": "address"
        },
        {
          "internalType": "address",
          "name": "megapotExtension",
          "type": "address"
        }
      ],
      "stateMutability": "payable",
      "type": "function"
    },
    {
      "inputs": [],
      "name": "deploymentFee",
      "outputs": [
        {
          "internalType": "uint256",
          "name": "",
          "type": "uint256"
        }
      ],
      "stateMutability": "view",
      "type": "function"
    },
    {
      "inputs": [],
      "name": "feeBasisPoints",
      "outputs": [
        {
          "internalType": "uint256",
          "name": "",
          "type": "uint256"
        }
      ],
      "stateMutability": "view",
      "type": "function"
    },
    {
      "inputs": [],
      "name": "feeRecipient",
      "outputs": [
        {
          "internalType": "address",
          "name": "",
          "type": "address"
        }
      ],
      "stateMutability": "view",
      "type": "function"
    },
    {
      "inputs": [],
      "name": "getAllContracts",
      "outputs": [
        {
          "internalType": "address[]",
          "name": "",
          "type": "address[]"
        }
      ],
      "stateMutability": "view",
      "type": "function"
    },
    {
      "inputs": [
        {
          "internalType": "address",
          "name": "contractAddress",
          "type": "address"
        }
      ],
      "name": "getContractCreator",
      "outputs": [
        {
          "internalType": "address",
          "name": "",
          "type": "address"
        }
      ],
      "stateMutability": "view",
      "type": "function"
    },
    {
      "inputs": [
        {
          "internalType": "address",
          "name": "creator",
          "type": "address"
        }
      ],
      "name": "getCreatorContracts",
      "outputs": [
        {
          "internalType": "address[]",
          "name": "",
          "type": "address[]"
        }
      ],
      "stateMutability": "view",
      "type": "function"
    },
    {
      "inputs": [],
      "name": "getTotalContracts",
      "outputs": [
        {
          "internalType": "uint256",
          "name": "",
          "type": "uint256"
        }
      ],
      "stateMutability": "view",
      "type": "function"
    },
    {
      "inputs": [
        {
          "internalType": "address",
          "name": "contractAddress",
          "type": "address"
        }
      ],
      "name": "isFactoryContract",
      "outputs": [
        {
          "internalType": "bool",
          "name": "",
          "type": "bool"
        }
      ],
      "stateMutability": "view",
      "type": "function"
    },
    {
      "inputs": [],
      "name": "owner",
      "outputs": [
        {
          "internalType": "address",
          "name": "",
          "type": "address"
        }
      ],
      "stateMutability": "view",
      "type": "function"
    },
    {
      "inputs": [],
      "name": "renounceOwnership",
      "outputs": [],
      "stateMutability": "nonpayable",
      "type": "function"
    },
    {
      "inputs": [
        {
          "internalType": "address",
          "name": "newOwner",
          "type": "address"
        }
      ],
      "name": "transferOwnership",
      "outputs": [],
      "stateMutability": "nonpayable",
      "type": "function"
    },
    {
      "inputs": [
        {
          "internalType": "uint256",
          "name": "_deploymentFee",
          "type": "uint256"
        }
      ],
      "name": "updateDeploymentFee",
      "outputs": [],
      "stateMutability": "nonpayable",
      "type": "function"
    },
    {
      "inputs": [
        {
          "internalType": "address",
          "name": "_feeRecipient",
          "type": "address"
        },
        {
          "internalType": "uint256",
          "name": "_feeBasisPoints",
          "type": "uint256"
        }
      ],
      "name": "updateFeeConfiguration",
      "outputs": [],
      "stateMutability": "nonpayable",
      "type": "function"
    },
    {
      "inputs": [],
      "name": "withdrawFees",
      "outputs": [],
      "stateMutability": "nonpayable",
      "type": "function"
    }
  ],
  "bytecode": "0x6080346200018b57601f6200ca7038819003918201601f191683019291906001600160401b03841183851017620001905781606092849260409687528339810103126200018b576200005181620001a6565b6020820151916001600160a01b039081906200006f908601620001a6565b1690811562000173576000549260018060a01b031992808486161760005582875195167f8be0079c531659141344cd1fd0a4f28419497f9722a3daafe3b4186f6b6457e0600080a360018055169182156200013157506103e88311620000ed57600254161760025560035560006004555161c8b49081620001bc8239f35b835162461bcd60e51b815260206004820152601960248201527f46656520626173697320706f696e747320746f6f2068696768000000000000006044820152606490fd5b62461bcd60e51b815260206004820152601560248201527f496e76616c69642066656520726563697069656e7400000000000000000000006044820152606490fd5b8451631e4fbdf760e01b815260006004820152602490fd5b600080fd5b634e487b7160e01b600052604160045260246000fd5b51906001600160a01b03821682036200018b5756fe60806040818152600491823610156200001757600080fd5b600090813560e01c90816318d3ce961462001121575080634690484014620010f6578063476343ee146200106c578063499200db1462001046578063534860cc14620010255780635e1970f11462000b1a578063715018a61462000fc75780637b5dba201462000b59578063857147681462000b1a5780638da5cb5b1462000af0578063b8606eef1462000acf578063cc7449931462000a6f578063d0de6fa5146200077d578063d264e45314620006f0578063dc488ad614620006ab578063e54e26b9146200065e578063f0d74dff1462000558578063f2cff57f1462000538578063f2fde38b14620004a85763f5fea398146200011557600080fd5b60c0366003190112620004a55767ffffffffffffffff918335838111620004a15762000145903690860162001258565b6024358481116200049d576200015f903690870162001258565b9460443585811162000457576200017a903690830162001258565b62000184620012b4565b956084359160018060a01b039889841698898503620004985760a435998b8b168b036200049857620001df90620001ba6200159c565b620001c9885434101562001326565b620001d78951151562001373565b1515620015c0565b87519261615a9283850193858510878611176200048557916200020f93918695936200163387398a33946200143c565b039087f080156200045b57881696855192611ba880850193858510908511176200047257918493916200024b936200778d86398a339362001608565b039085f080156200046557861695853b1562000457578351630b2c391960e31b81527f9ea7c227479a2b8a76245ee635dafb0a22e7d33dc65fea966382e44786615e9a83820152602481018890528581604481838b5af180156200045b579186918895949362000437575b503382526005602052620002cd858784206200153a565b848252600660205285822080546001600160a01b03191633179055620002f385620014e5565b82549081159081158062000429575b620003e7575b505050505493843411620003a2575b506200039e93506000805160206200c85f8339815191526200034284519285845285840190620013fa565b914260208201528033930390a383837fdfc2369051f33f0dca92ca27ab2abfb01fe24977314fcb575e2ef5a15dff3f4f60208451428152a360018055516001600160a01b03928316815292909116602083015281906040820190565b0390f35b8080809450620003b6819496973462001578565b818115620003dd575b3390f115620003d2578291849162000317565b8251903d90823e3d90fd5b506108fc620003bf565b8394959650918392918392600254169083906200041f575bf11562000413579084918438808062000308565b505051903d90823e3d90fd5b506108fc620003ff565b508060025416151562000302565b6200044691939495506200120a565b6200045757908486939238620002b6565b8480fd5b85513d88823e3d90fd5b50505051903d90823e3d90fd5b634e487b7160e01b895260418652602489fd5b634e487b7160e01b8c526041895260248cfd5b600080fd5b8380fd5b8280fd5b80fd5b509134620004a1576020366003190112620004a157620004c7620011dc565b90620004d2620012f9565b6001600160a01b03918216928315620005225750506000548260018060a01b0319821617600055167f8be0079c531659141344cd1fd0a4f28419497f9722a3daafe3b4186f6b6457e0600080a380f35b51631e4fbdf760e01b8152908101849052602490fd5b509134620004a15782600319360112620004a15760209250549051908152f35b50919034620004a15780600319360112620004a15762000577620011dc565b906024359162000586620012f9565b6001600160a01b031692831562000624576103e88311620005e65750600280546001600160a01b031916841790556003829055519081527fe7ea49c723218b7833a88cfe39ddd33bd3d9463ab674ffb881940a05bd8cc97890602090a280f35b6020606492519162461bcd60e51b8352820152601960248201527808ccaca40c4c2e6d2e640e0ded2dce8e640e8dede40d0d2ced603b1b6044820152fd5b6020606492519162461bcd60e51b83528201526015602482015274125b9d985b1a5908199959481c9958da5c1a595b9d605a1b6044820152fd5b509134620004a1576020366003190112620004a15735600754811015620004a15760076000526000805160206200c83f833981519152015490516001600160a01b03909116815260209150f35b509034620006ec576020366003190112620006ec576020916001600160a01b0390829082620006d9620011dc565b1681526006855220541615159051908152f35b5080fd5b509034620006ec5760209081600319360112620004a1576001600160a01b0392836200071b620011dc565b16815260058352818120938251908194808754938481520196845280842093915b83831062000763576200039e878762000758828c038362001235565b519182918262001196565b84548116885296810196600194850194909201916200073c565b50829060e0366003190112620004a55767ffffffffffffffff928235848111620004a157620007b0903690850162001258565b6024358581116200049d57620007ca903690860162001258565b936044358681116200045757620007e5903690830162001258565b94620007f0620012b4565b9660843581811162000a6b576200080b903690850162001258565b9160a43582811162000a675762000826903690860162001258565b9762000831620011f3565b916200083c6200159c565b6200084b865434101562001326565b620008598751151562001373565b6001600160a01b039a62000871848d161515620013b7565b88519261615a92838501938585108886111762000a545791620008a193918695936200163387398b33946200143c565b039088f0801562000a4a5789169786519361350a808601948686109086111762000a375791620008de93918695936200933587398b33946200149a565b039085f080156200046557861695853b1562000457578351630b2c391960e31b81527f2b9a3e491cc6e781461af6c8ee3b2cf01aa84d293731bc8d11978c1bc55a6ab483820152602481018890528581604481838b5af180156200045b579186918895949362000a17575b50338252600560205262000960858784206200153a565b848252600660205285822080546001600160a01b031916331790556200098685620014e5565b82549081159081158062000a09575b620009d357505050505493843411620003a257506200039e93506000805160206200c85f8339815191526200034284519285845285840190620013fa565b839495965091839291839260025416908390620009ff575bf11562000413579084918488808062000308565b506108fc620009eb565b508060025416151562000995565b62000a2691939495506200120a565b620004575790848693928962000949565b634e487b7160e01b8a526041875260248afd5b86513d89823e3d90fd5b634e487b7160e01b8d5260418a5260248dfd5b8780fd5b8680fd5b509034620006ec5780600319360112620006ec5762000a8d620011dc565b6001600160a01b039081168352600560205281832080546024359490851015620004a5575060209362000ac091620012ca565b92905490519260031b1c168152f35b509034620006ec5781600319360112620006ec576020906003549051908152f35b509034620006ec5781600319360112620006ec57905490516001600160a01b039091168152602090f35b509034620006ec576020366003190112620006ec576020916001600160a01b039082908262000b48620011dc565b168152600685522054169051908152f35b5082610120366003190112620006ec5767ffffffffffffffff9281358481116200049d5762000b8c903690840162001258565b93602435818111620004575762000ba7903690850162001258565b60443582811162000fc35762000bc1903690860162001258565b9462000bcc620012b4565b608435848111620004a15762000be6903690880162001258565b60a4358581116200049d5762000c00903690890162001258565b9062000c0b620011f3565b986001600160a01b039560e435808816959086900362000a6b576101043595888716870362000a675762000c7190620001d78f8f8f8d9262000c5f62000c689262000c556200159c565b5434101562001326565b51151562001373565b161515620013b7565b89519261615a92838501938585108c86111762000faf57918f9162000ca2949287969462001633883933946200143c565b039085f0801562000f755785169887519261350a92838501938585108a86111762000f9c579162000ce093918695936200933587398d33946200149a565b039083f0801562000f9257831693855191611ba8808401928484109084111762000f7f579162000d1f9184936200778d853933918b60e4359162001608565b039082f0801562000f1957821694863b15620006ec578451630b2c391960e31b8082527f2b9a3e491cc6e781461af6c8ee3b2cf01aa84d293731bc8d11978c1bc55a6ab48383015260248201869052908381604481838d5af1801562000f755762000f5f575b50873b15620004a15785519081527f9ea7c227479a2b8a76245ee635dafb0a22e7d33dc65fea966382e44786615e9a828201528660248201528281604481838c5af1801562000f555790839162000f3d575b5050338252816020936005855262000df2898884206200153a565b8882526006855286822080546001600160a01b0319163317905562000e1789620014e5565b82549081159081158062000f2f575b62000ef5575b505050505480341162000eb7575b5050846060966000805160206200c85f83398151915262000e6486519287845287840190620013fa565b9142858201528033930390a3838582848287514281527fdfc2369051f33f0dca92ca27ab2abfb01fe24977314fcb575e2ef5a15dff3f4f938491a3838651428152a3600180558251948552840152820152f35b81808062000ec781943462001578565b81811562000eeb575b3390f11562000ee0578062000e3a565b8351903d90823e3d90fd5b506108fc62000ed0565b8392839283926002541690839062000f25575bf11562000f19578189808062000e2c565b508351903d90823e3d90fd5b506108fc62000f08565b508060025416151562000e26565b62000f48906200120a565b620006ec57818962000dd7565b86513d85823e3d90fd5b62000f6d909391936200120a565b918962000d85565b87513d86823e3d90fd5b634e487b7160e01b855260418952602485fd5b85513d84823e3d90fd5b634e487b7160e01b885260418c52602488fd5b50634e487b7160e01b895260418d52602489fd5b8580fd5b5034620004a55780600319360112620004a55762000fe4620012f9565b80546001600160a01b03198116825581906001600160a01b03167f8be0079c531659141344cd1fd0a4f28419497f9722a3daafe3b4186f6b6457e08280a380f35b509034620006ec5781600319360112620006ec576020906007549051908152f35b508234620006ec576020366003190112620006ec5762001065620012f9565b8035905580f35b509134620004a15782600319360112620004a1576200108a620012f9565b47908115620010bd5750825483918291829182916001600160a01b031682f115620010b3575080f35b51903d90823e3d90fd5b606490602084519162461bcd60e51b835282015260136024820152724e6f206665657320746f20776974686472617760681b6044820152fd5b509034620006ec5781600319360112620006ec5760025490516001600160a01b039091168152602090f35b90508234620004a15782600319360112620004a157600780548084529084526020808401946000805160206200c83f83398151915292915b82821062001175576200039e868662000758828b038362001235565b83546001600160a01b03168752958601956001938401939091019062001159565b6020908160408183019282815285518094520193019160005b828110620011be575050505090565b83516001600160a01b031685529381019392810192600101620011af565b600435906001600160a01b03821682036200049857565b60c435906001600160a01b03821682036200049857565b67ffffffffffffffff81116200121f57604052565b634e487b7160e01b600052604160045260246000fd5b90601f8019910116810190811067ffffffffffffffff8211176200121f57604052565b81601f82011215620004985780359067ffffffffffffffff82116200121f576040519262001291601f8401601f19166020018562001235565b828452602083830101116200049857816000926020809301838601378301015290565b6064359065ffffffffffff821682036200049857565b8054821015620012e35760005260206000200190600090565b634e487b7160e01b600052603260045260246000fd5b6000546001600160a01b031633036200130e57565b60405163118cdaa760e01b8152336004820152602490fd5b156200132e57565b60405162461bcd60e51b815260206004820152601b60248201527f496e73756666696369656e74206465706c6f796d656e742066656500000000006044820152606490fd5b156200137b57565b60405162461bcd60e51b81526020600482015260146024820152734e616d652063616e6e6f7420626520656d70747960601b6044820152606490fd5b15620013bf57565b60405162461bcd60e51b8152602060048201526013602482015272496e76616c696420626f74206164647265737360681b6044820152606490fd5b919082519283825260005b84811062001427575050826000602080949584010152601f8019910116010190565b60208183018101518483018201520162001405565b939594916080936200147662001485926200146765ffffffffffff9560a08a5260a08a0190620013fa565b9088820360208a0152620013fa565b908682036040880152620013fa565b951660608401526001600160a01b0316910152565b93959490620014d8608094620014c960018060a01b039586809516895260a060208a015260a0890190620013fa565b908782036040890152620013fa565b9616606085015216910152565b600754600160401b8110156200121f576001810180600755811015620012e35760076000526000805160206200c83f8339815191520180546001600160a01b0319166001600160a01b03909216919091179055565b8054600160401b8110156200121f576200155a91600182018155620012ca565b819291549060031b9160018060a01b03809116831b921b1916179055565b919082039182116200158657565b634e487b7160e01b600052601160045260246000fd5b600260015414620015ae576002600155565b604051633ee5aeb560e01b8152600490fd5b15620015c857565b60405162461bcd60e51b8152602060048201526018602482015277125b9d985b1a5908135959d85c1bdd0818dbdb9d1c9858dd60421b6044820152606490fd5b6001600160a01b03918216815291811660208301529182166040820152911660608201526080019056fe60a0604090808252346200034b576200615a803803809162000022828562000350565b833981019060a0818303126200034b5780516001600160401b0392908381116200034b57816200005491840162000399565b602091828401518581116200034b57816200007191860162000399565b9086850151908682116200034b576200008c91860162000399565b9260608501519465ffffffffffff861686036200034b57608001519360018060a01b0395868616978887036200034b57825190811162000335576002546001938482811c921680156200032a575b86831014620003145781601f849311620002bb575b508590601f8311600114620002515760009262000245575b5050600019600383901b1c191690831b176002555b87156200022d57600480546001600160d01b031660d09290921b6001600160d01b0319169190911790556005549586166200021c576001600160a01b03199586168717600555620001fc94939291620001cc916200017a86620003f4565b50620001868662000475565b5060075560006009558851809382620001a9818401978881519384920162000374565b8201620001bf8251809386808501910162000374565b0103808452018262000350565b519020608052620001dd8162000518565b50620001e981620005b6565b50620001f58162000654565b50620006f2565b50600a541617600a55516159a9908162000791823960805181611a640152f35b8751631fe1e13d60e11b8152600490fd5b8851636116401160e11b815260006004820152602490fd5b01519050388062000107565b90859350601f198316916002600052876000209260005b89828210620002a457505084116200028a575b505050811b016002556200011c565b015160001960f88460031b161c191690553880806200027b565b838501518655899790950194938401930162000268565b909150600260005285600020601f840160051c81019187851062000309575b84939291601f88920160051c01915b828110620002f9575050620000ef565b60008155859450879101620002e9565b9091508190620002da565b634e487b7160e01b600052602260045260246000fd5b91607f1691620000da565b634e487b7160e01b600052604160045260246000fd5b600080fd5b601f909101601f19168101906001600160401b038211908210176200033557604052565b60005b838110620003885750506000910152565b818101518382015260200162000377565b81601f820112156200034b5780516001600160401b038111620003355760405192620003d0601f8301601f19166020018562000350565b818452602082840101116200034b57620003f1916020808501910162000374565b90565b6001600160a01b031660008181527f3617319a054d772f909f7c479a2cebe5066e836a939412e32403c99029b92eff602052604081205490919060ff16620004715781805260036020526040822081835260205260408220600160ff1982541617905533916000805160206200613a8339815191528180a4600190565b5090565b6001600160a01b031660008181527f27869b03d97f61c857c7dfd10dbf3620fa30d8bb89bb221d094b39e07105269e60205260408120549091907ff988e4fb62b8e14f4820fed03192306ddf4d7dbfa215595ba1c6ba4b76b369ee9060ff16620005135780835260036020526040832082845260205260408320600160ff198254161790556000805160206200613a833981519152339380a4600190565b505090565b6001600160a01b031660008181527f066524a10daac0b3974093068bb2bc712e20a33461d4e22217863cdad751f2ab60205260408120549091907f74f7a545c65c11839a48d7453738b30c295408df2d944516167556759ddc6d069060ff16620005135780835260036020526040832082845260205260408320600160ff198254161790556000805160206200613a833981519152339380a4600190565b6001600160a01b031660008181527f9409729698b8f308a2af83e5557cf603f852e9adbc3a7847d7b55aa10527eebf60205260408120549091907fb3bb6029312d1001076133d40b75b7eca92ba54e4963b3ce24e1486a3d5a038b9060ff16620005135780835260036020526040832082845260205260408320600160ff198254161790556000805160206200613a833981519152339380a4600190565b6001600160a01b031660008181527fd865b7f358b61ebb88423346dbdd313fbd9dc67840adf461aa755702d67a4e8160205260408120549091907f02358c16c6ece4d564dd98c8400ef2ce02ec4ed5a3d53421ef64678a57ac51019060ff16620005135780835260036020526040832082845260205260408320600160ff198254161790556000805160206200613a833981519152339380a4600190565b6001600160a01b031660008181527ff0f8f76d6ce591be902d66c475263e0a57264353432317d51742b939d2e393c060205260408120549091907f572f022558b687eed59080237cb7778171198110a24741b57d6ed3432df881fc9060ff16620005135780835260036020526040832082845260205260408320600160ff198254161790556000805160206200613a833981519152339380a460019056fe6080604052600436101561001257600080fd5b60003560e01c80623b7d511461052b578062fdd58e1461052657806301ffc9a714610521578063022d63fb1461051c57806302fe530514610517578063055ef93c146105125780630aa6220b1461050d5780630e3cc22b146105085780630e543d74146105035780630e89341c146104fe5780630ef7cc8e146104f95780630f501059146104f45780631bf8b28a146104ef578063248a9ca3146104ea5780632831f2f4146104e55780632eb2c2d6146104e05780632f2ff15d146104db57806336568abe146104d6578063391d8dbe146104225780633ccfd60b146104d15780633d40bf36146104cc5780633e2efecb146104c7578063410b2424146104c257806344337ea1146104bd5780634e1273f4146104b857806350ba3c4d146104b3578063512b336d146104ae578063521eb273146104a9578063537df3b6146104a457806353e26d9e1461049f57806356539f391461049a5780635961c8c814610495578063634e93da14610490578063649a5ec71461048b57806364a5e39d146104865780636b20c454146104815780636ce81c171461047c5780637cfb384d14610477578063800ed2a3146104725780638033d5811461046d57806384ef8ffc146104635780638a780f65146104685780638da5cb5b146104635780638f427f4f1461045e57806390756fcb1461045957806391d1485414610454578063988360a31461044f57806398968f151461044a5780639c407ff014610445578063a1eda53c14610440578063a217fddf1461043b578063a22cb46514610436578063aaa070ca14610431578063b84d73a41461042c578063b9186d7d14610427578063bf4f135d14610422578063c19a71471461041d578063c2840e6014610418578063c345ec3314610413578063ca33ec351461040e578063cc8463c814610409578063cefc142914610404578063cf6eefb7146103ff578063d122e681146103fa578063d547741f146103f5578063d602b9fd146103f0578063dc3e82d3146103eb578063dd7a3462146103e6578063deaa59df146103e1578063e6c26d13146103dc578063e985e9c5146103d7578063ea9b5e15146103d2578063f242432a146103cd578063f4c3b4d7146103c8578063f5298aca146103c3578063f6ad20e0146103be578063fba49e4f146103b9578063fcd7627e146103b4578063fe575a87146103af578063fe992c98146103aa578063feb17fda146103a55763fefbd875146103a057600080fd5b6130c8565b613066565b613009565b612fe2565b612f86565b612f1e565b612f05565b612ead565b612e7a565b612da1565b612c84565b612c50565b612bf5565b612b43565b612a60565b612a34565b6129cf565b6129a7565b612988565b61294d565b61288b565b612860565b612844565b612828565b6127ff565b6126fe565b611384565b6126d2565b61261e565b612595565b6124d3565b6124b7565b612453565b6123e9565b61220d565b6121b8565b6120ee565b612086565b612037565b611fe5565b61200e565b611fb5565b611f97565b611f3b565b611ef8565b611e13565b611dab565b611c84565b611ba7565b611a87565b611a4c565b611a23565b6119b7565b61198e565b611965565b611927565b611869565b6116df565b6116b6565b611683565b61152a565b6113c6565b61129e565b611276565b61115a565b611132565b611103565b610f96565b610f33565b610ec7565b610dfd565b610d7f565b610d12565b610c0d565b610afc565b6108fe565b6108e0565b61083e565b6107f9565b610709565b6001600160a01b0381160361054157565b600080fd5b6024359061055382610530565b565b634e487b7160e01b600052604160045260246000fd5b608081019081106001600160401b0382111761058657604052565b610555565b604081019081106001600160401b0382111761058657604052565b60c081019081106001600160401b0382111761058657604052565b602081019081106001600160401b0382111761058657604052565b90601f801991011681019081106001600160401b0382111761058657604052565b60405190610553826105a6565b604051906105538261056b565b604051906105538261058b565b6001600160401b0381116105865760051b60200190565b81601f820112156105415780359161065283610624565b9261066060405194856105dc565b808452602092838086019260051b820101928311610541578301905b82821061068a575050505090565b8135815290830190830161067c565b6001600160401b03811161058657601f01601f191660200190565b9291926106c082610699565b916106ce60405193846105dc565b829481845281830111610541578281602093846000960137010152565b9080601f8301121561054157816020610706933591016106b4565b90565b346105415760803660031901126105415760043561072681610530565b6001600160401b036024358181116105415761074690369060040161063b565b906044358181116105415761075f90369060040161063b565b90606435908111610541576107789036906004016106eb565b6000805160206159548339815191526000526003602052916107c660ff6107bf337f9409729698b8f308a2af83e5557cf603f852e9adbc3a7847d7b55aa10527eebf61136d565b54166138e0565b6001600160a01b038416156107e0576107de93613a72565b005b604051632bfa23e760e11b815260006004820152602490fd5b3461054157604036600319011261054157602061082460043561081b81610530565b60243590614757565b604051908152f35b6001600160e01b031981160361054157565b3461054157602036600319011261054157602060043561085d8161082c565b63ffffffff60e01b166318a4c3c360e11b8114908115610883575b506040519015158152f35b637965db0b60e01b81149150811561089d575b5038610878565b636cdb3d1360e11b8114915081156108cf575b81156108be575b5038610896565b6301ffc9a760e01b149050386108b7565b6303a24d0760e21b811491506108b0565b34610541576000366003190112610541576020604051620697808152f35b3461054157602080600319360112610541576001600160401b03906004358281116105415736602382011215610541576109429036906024816004013591016106b4565b9160009160008051602061587483398151915283526003815261097460ff61096d336040872061136d565b541661380b565b8351918211610586576109918261098c60025461361c565b61388c565b80601f83116001146109cb575082938293926109c0575b50508160011b916000199060031b1c19161760025580f35b0151905038806109a8565b6002600052601f198316947f405787fa12a823e0f2b7631cc41b3ba8828b3321ca811111fa75cd3aa3bb5ace929185905b878210610a35575050836001959610610a1c575b505050811b0160025580f35b015160001960f88460031b161c19169055388080610a10565b806001859682949686015181550195019301906109fc565b602060031982011261054157600435906001600160401b038211610541576107069160040161063b565b60a0809180518452602081015115156020850152604081015115156040850152606081015115156060850152608081015160808501520151910152565b6020908160408183019282815285518094520193019160005b828110610adb575050505090565b909192938260c082610af06001948951610a77565b01950193929101610acd565b3461054157610b0a36610a4d565b610b14815161377d565b90610b1e81614561565b610b278261570f565b90610b31836149e0565b60005b8451811015610bfb5780610b4b610bf692856137f2565b5151602084610bd18885610bc88a610b6f87610b6785846137f2565b510151151590565b610bbf604091610ba986610ba281610b9c610b8e88610b67848c6137f2565b98610b6760609c8d926137f2565b9a6137f2565b519a6137f2565b5199610bb36105fd565b9b8c528b019015159052565b88019015159052565b85019015159052565b608083015260a0820152610be582896137f2565b52610bf081886137f2565b506137cd565b610b34565b60405180610c098882610ab4565b0390f35b3461054157600080600319360112610ca357610c2761313b565b6005548060d01c80610c47575b600580546001600160a01b031690558280f35b421115610c7957600480546001600160d01b031660309290921b6001600160d01b0319169190911790555b3880610c34565b507f2b1fa2edafe6f7b9e97c1a9e0c3660e645beb2dcaa2d45bdbf9beaf5472e1ec58180a1610c72565b80fd5b6020908160408183019282815285518094520193019160005b828110610ccd575050505090565b9091929382608082610d066001948951606080918051845260208101511515602085015260408101511515604085015201511515910152565b01950193929101610cbf565b3461054157600036600319011261054157610c09610d2e6144e7565b60405191829182610ca6565b90815180825260208080930193019160005b828110610d5a575050505090565b835185529381019392810192600101610d4c565b906020610706928181520190610d3a565b3461054157610c09610d98610d9336610a4d565b61570f565b604051918291602083526020830190610d3a565b919082519283825260005b848110610dd8575050826000602080949584010152601f8019910116010190565b602081830181015184830182015201610db7565b906020610706928181520190610dac565b346105415760208060031936011261054157604051600091600254610e218161361c565b80845290600190818116908115610e975750600114610e57575b610c0984610e4b818803826105dc565b60405191829182610dec565b919350600260005283600020916000925b828410610e845750505081610c0993610e4b9282010193610e3b565b8054858501870152928501928101610e68565b60ff1916858501525050151560051b8201019150610e4b81610c09610e3b565b60c0810192916105539190610a77565b346105415760203660031901126105415760c0610ee560043561370b565b610ef26040518092610a77565bf35b90815180825260208080930193019160005b828110610f14575050505090565b8351805186528201518583015260409094019392810192600101610f06565b3461054157604036600319011261054157610c09610f5f600435610f5681610530565b60243590615579565b604051918291602083526020830190610ef4565b606090600319011261054157600435610f8b81610530565b906024359060443590565b610f9f36610f73565b9091610fa9614245565b610fbb610fb5826143e7565b156140c8565b610fcd610fc7336143e7565b1561410d565b6001600160a01b03808216156110fb575b610fef610fea856156a2565b614151565b6110188361100786600052600b602052604060002090565b54611013811515614192565b6141d3565b91611025833410156141e6565b61102f8334614238565b801580156110d5575b5050600080808086611063611057611057600a5460018060a01b031690565b6001600160a01b031690565b8282156110cc575bf1156110c7576110b17f3ceffd410054fdaed44f598ff5c1fb450658778e2241892da4aa646979dee617936110a96110a1613d9a565b878986613922565b85878461428c565b6040519384521691602090a36107de6001600755565b613d8e565b506108fc61106b565b6000808093819382906110f2575b3390f1156110c7573880611038565b506108fc6110e3565b339150610fde565b346105415760203660031901126105415760043560005260036020526020600160406000200154604051908152f35b346105415760203660031901126105415760206111506004356156a2565b6040519015158152f35b346105415760a0366003190112610541576004803561117881610530565b60243561118481610530565b6001600160401b0390604435828111610541576111a4903690860161063b565b90606435838111610541576111bc903690870161063b565b92608435908111610541576111d490369087016106eb565b936001600160a01b03808216903382141580611265575b6112345783161561121c5715611205576107de9550613b6b565b604051626a0d4560e21b8152600081880152602490fd5b604051632bfa23e760e11b8152600081890152602490fd5b6040805163711bec9160e11b815233818b019081526001600160a01b038616602082015290918291010390fd5b0390fd5b5061127033846145b3565b156111eb565b34610541576040366003190112610541576107de60243561129681610530565b6004356130fc565b34610541576040366003190112610541576004356024356112be81610530565b811580611356575b6112d4575b6107de91613236565b6112dc6134f0565b92906001600160a01b031615801590611346575b8015611334575b611314576004805465ffffffffffff60a01b1916905591506112cb565b6040516319ca5ebb60e01b815265ffffffffffff84166004820152602490fd5b504265ffffffffffff841610156112f7565b5065ffffffffffff8316156112f0565b506005546001600160a01b038281169116146112c6565b9060018060a01b0316600052602052604060002090565b34610541576020366003190112610541576004356113a181610530565b60018060a01b0316600052600f602052602060ff604060002054166040519015158152f35b600080600319360112610ca3576113db614245565b600a546001600160a01b03166113f2811515615752565b6113fe30821415615752565b6000805160206159348339815191528252600360205261142d60ff611426336040862061136d565b54166157e7565b4790811561149e5782808084819482f1156110c757600a547feaff4b37086828766ad3268786972c0cd24259d4c87a80f9d3963a3c3d999b0d9061148e9061147d906001600160a01b0316611057565b604051938452929081906020820190565b0390a261149b6001600755565b80f35b60405162461bcd60e51b81526020600482015260146024820152734e6f2066756e647320746f20776974686472617760601b6044820152606490fd5b60243590811515820361054157565b60c090600319011261054157600435906024358015158103610541579060443580151581036105415790606435801515810361054157906084359060a43590565b3461054157611538366114e9565b60008051602061587483398151915260005260036020529193929061157561156e3360008051602061589483398151915261136d565b5460ff1690565b801561165f575b6115859061380b565b60095486109485946115956136c9565b9561163f575b6115b19291846115ab928a614658565b86615797565b61162f575b506115c08361370b565b91156115fd57907f2bca4855835c92383e0b5e326bda6e6a0563526cc9b2dc1a447ce32ab955547e916115f860405192839283613857565b0390a2005b506115f87fe543f2a83723d0e2ec9719bacba60a0e9a35f3e9ee224368227c5306b9b9f93d9160405191829182610eb7565b61163990846148e0565b386115b6565b9450906115ab6115b192846116538a61370b565b9792505091925061159b565b50336000908152600f602052604090206115859061167c9061156e565b905061157c565b34610541576020366003190112610541576020611150600435600052600860205260ff60016040600020015460081c1690565b346105415760003660031901126105415760206040516000805160206158b48339815191528152f35b34610541576020366003190112610541576004356116fc81610530565b611704613186565b6000805160206158b4833981519152600090815260036020529060ff61174a827f27869b03d97f61c857c7dfd10dbf3620fa30d8bb89bb221d094b39e07105269e61136d565b54166117bc576001600160a01b03811690611795906117889061176e84151561439b565b6001600160a01b0316600090815260066020526040902090565b805460ff19166001179055565b7ff9b68063b051b82957fa193585681240904fed808db8b30fc5a2d2202c6ed6278280a280f35b60405162461bcd60e51b815260206004820152601e60248201527f4163636f756e74206973206120626c61636b6c697374206d616e6167657200006044820152606490fd5b81601f820112156105415780359161181883610624565b9261182660405194856105dc565b808452602092838086019260051b820101928311610541578301905b828210611850575050505090565b838091833561185e81610530565b815201910190611842565b34610541576040366003190112610541576001600160401b036004358181116105415761189a903690600401611801565b90602435908111610541576118b390369060040161063b565b906118c18151835114614811565b6118cb81516147df565b9160005b825181101561191957611914906119046001600160a01b036118f183876137f2565b51166118fd83866137f2565b5190614757565b61190e82876137f2565b526137cd565b6118cf565b60405180610c098682610d6e565b34610541576080366003190112610541576119406114da565b604435801515810361054157606435908115158203610541576107de92600435614658565b346105415760003660031901126105415760206040516000805160206159548339815191528152f35b3461054157600036600319011261054157600a546040516001600160a01b039091168152602090f35b34610541576020366003190112610541576004356119d481610530565b6119dc613186565b6001600160a01b03166000818152600660205260408120805460ff19169055907f2b6bf71b58b3583add364b3d9060ebf8019650f65f5be35f5464b9cb3e4ba2d48280a280f35b346105415760003660031901126105415760206040516000805160206158f48339815191528152f35b346105415760003660031901126105415760206040517f00000000000000000000000000000000000000000000000000000000000000008152f35b3461054157604036600319011261054157600435602435611aa781610530565b6000808052600360205291611ad660ff611acf3360008051602061591483398151915261136d565b5416613688565b6001600160a01b038216918215611b665761178881611b25611b3f93611b0686600052600e602052604060002090565b80546001600160a01b0319166001600160a01b03909216919091179055565b6001600160a01b03166000908152600f6020526040902090565b7f2b5203544b0fa2eafb37a62519eaa89b30154c251be795b6247d028225ec208d8380a380f35b60405162461bcd60e51b8152602060048201526019602482015278496e76616c696420657874656e73696f6e206164647265737360381b6044820152606490fd5b3461054157602036600319011261054157600435611bc481610530565b611bcc61313b565b7f3377dc44241e779dd06afab5b788a35ca5f3b778836e2990bdb26a2a4b2e5ed66020611c09611bfb42613656565b611c0361350f565b9061355e565b611c116134f0565b600480546001600160d01b0319166001600160a01b0390971696871760a085901b65ffffffffffff60a01b1617905565ffffffffffff91508116611c5a575b60405191168152a2005b7f8886ebfc4259abdbc16601dd8fb5678e54878f47b3c34836cfc51154a9605109600080a1611c50565b346105415760203660031901126105415765ffffffffffff6004358181169182820361054157611cb261313b565b611cbb42613656565b9281611cc561350f565b1680821115611d32575092611d0a917ff1038c18cf84a56e432fdbfaf746924b7ea511dfe03a6506a0ceba4888788d9b9462069780908180821091180218169061355e565b90611d158282613578565b6040805165ffffffffffff928316815292909116602083015290a1005b03908111611d66577ff1038c18cf84a56e432fdbfaf746924b7ea511dfe03a6506a0ceba4888788d9b92611d0a919061355e565b613548565b90608060031983011261054157600435611d8481610530565b916024359160443591606435906001600160401b03821161054157610706916004016106eb565b346105415761149b611dbc36611d6b565b91600094936000805160206159548339815191528652600360205260ff611de6336040892061136d565b54168015611dfd575b611df8906138e0565b613922565b50338652600f602052604086205460ff16611def565b3461054157606036600319011261054157600435611e3081610530565b6001600160401b0360243581811161054157611e5090369060040161063b565b9060443590811161054157611e6990369060040161063b565b6000805160206158f48339815191526000908152600360205291611eb960ff611eb2337fd865b7f358b61ebb88423346dbdd313fbd9dc67840adf461aa755702d67a4e8161136d565b541661405a565b6001600160a01b03841615611ee057829361149b93604051611eda816105c1565b52613948565b604051626a0d4560e21b815260048101849052602490fd5b3461054157610c09610d2e611f0c36610a4d565b614561565b602060031982011261054157600435906001600160401b0382116105415761070691600401611801565b3461054157611f4936611f11565b611f51613186565b60005b81518110156107de57611f92906001600160a01b03611f7382856137f2565b511660005260066020526040600020600160ff198254161790556137cd565b611f54565b346105415760203660031901126105415760206108246004356148b6565b34610541576020366003190112610541576020611150600435600052600860205260ff6001604060002001541690565b34610541576000366003190112610541576005546040516001600160a01b039091168152602090f35b346105415760003660031901126105415760206040516000805160206159348339815191528152f35b34610541576020366003190112610541576080612055600435614445565b610ef26040518092606080918051845260208101511515602085015260408101511515604085015201511515910152565b346105415761149b61209736610f73565b90600093926000805160206158f48339815191528552600360205260ff6120c1336040882061136d565b541680156120d8575b6120d39061405a565b61409c565b50338552600f602052604085205460ff166120ca565b3461054157604036600319011261054157602060ff61212660243561211281610530565b60043560005260038452604060002061136d565b54166040519015158152f35b6040600319820112610541576004356001600160401b03811161054157816023820112156105415780600401359161216983610624565b9261217760405194856105dc565b80845260209260248486019260051b82010192831161054157602401905b8282106121a9575050505090610706610546565b81358152908301908301612195565b34610541576121c636612132565b906121cf61313b565b60005b81518110156107de57806121e961220892846137f2565b511561220357612203846121fd83866137f2565b5161320c565b6137cd565b6121d2565b61221636610f73565b9091612220614245565b61222c610fb5826143e7565b612238610fc7336143e7565b612241836156a2565b1561234a57600a546001600160a01b039061226b908216612263811515615752565b301415615752565b80821615612342575b6122928361228c86600052600b602052604060002090565b546141d3565b61229e813410156141e6565b6122a88134614238565b8015801561231c575b50506000808080936122d0611057611057600a5460018060a01b031690565b828215612313575bf1156110c7577f3ceffd410054fdaed44f598ff5c1fb450658778e2241892da4aa646979dee617916110b161230b613d9a565b858784613922565b506108fc6122d8565b600080809381938290612339575b3390f1156110c75738806122b1565b506108fc61232a565b339150612274565b60405162461bcd60e51b8152602060048201526015602482015274546f6b656e206973206e6f7420666f722073616c6560581b6044820152606490fd5b602080820190808352835180925260408301928160408460051b8301019501936000915b8483106123bb5750505050505090565b90919293949584806123d9600193603f198682030187528a51610ef4565b98019301930191949392906123ab565b346105415760203660031901126105415760043561240681610530565b6009546124128161484f565b9160005b82811061242b5760405180610c098682612387565b8061243961244e9284615579565b61244382876137f2565b52610bf081866137f2565b612416565b3461054157600080600319360112610ca3576005548060d01c91821515806124ad575b156124a4575060a01c65ffffffffffff165b6040805165ffffffffffff928316815292909116602083015290f35b91505080612488565b5042831015612476565b3461054157600036600319011261054157602060405160008152f35b34610541576040366003190112610541576004356124f081610530565b6124f86114da565b612504610fb5836143e7565b612510610fc7336143e7565b6001600160a01b03821691821561257d578161253c61254d92336000526001602052604060002061136d565b9060ff801983541691151516179055565b60405190151581527f17307eab39ab6107e8899845ad3d59bd9653f200f220920489ca2b5937696c3160203392a3005b60405162ced3e160e81b815260006004820152602490fd5b34610541576125a336611f11565b6125ab613186565b60005b81518110156107de576125e9906001600160a01b036125cd82856137f2565b51166000526006602052604060002060ff1981541690556137cd565b6125ae565b9181601f84011215610541578235916001600160401b038311610541576020808501948460051b01011161054157565b34610541576040366003190112610541576001600160401b036004358181116105415761264f9036906004016125ee565b91602435908111610541576126689036906004016125ee565b612673818514614811565b61267c8461484f565b9360005b8181106126955760405180610c098882612387565b806126c36126a76126cd938589614899565b356126b181610530565b6126bc838789614899565b3590615579565b610be582896137f2565b612680565b3461054157602036600319011261054157600435600052600b6020526020604060002054604051908152f35b34610541576020366003190112610541576000808052600360205260043561273960ff611acf3360008051602061591483398151915261136d565b808252600e60205260408220546001600160a01b03169081156127c45761277d61276d82600052600e602052604060002090565b80546001600160a01b0319169055565b6001600160a01b0382166000908152600f60205260409020805460ff191690557f49c43ed6046de2087d001eeee6b21779a6d28c0f89b5897089487ffd9f40120b8380a380f35b60405162461bcd60e51b8152602060048201526013602482015272115e1d195b9cda5bdb881b9bdd08199bdd5b99606a1b6044820152606490fd5b346105415760003660031901126105415760206040516000805160206158748339815191528152f35b3461054157600036600319011261054157610c09610d986149a0565b3461054157600036600319011261054157610c09610d986156cf565b3461054157600036600319011261054157602061287b61350f565b65ffffffffffff60405191168152f35b34610541576000366003190112610541576128a46134f0565b506001600160a01b03163303612935576128bc6134f0565b65ffffffffffff8116801590811561292a575b50612908576005546128f59083906128ef906001600160a01b031661338d565b50613262565b50600480546001600160d01b0319169055005b6040516319ca5ebb60e01b815265ffffffffffff919091166004820152602490fd5b9050421115386128cf565b604051636116401160e11b8152336004820152602490fd5b3461054157600036600319011261054157604065ffffffffffff61296f6134f0565b83516001600160a01b0390921682529091166020820152f35b34610541576040366003190112610541576107de6024356004356148e0565b34610541576040366003190112610541576107de6024356129c781610530565b60043561320c565b3461054157600080600319360112610ca3576129e961313b565b65ffffffffffff6129f86134f0565b90508160d01b6004541660045516612a0d5780f35b7f8886ebfc4259abdbc16601dd8fb5678e54878f47b3c34836cfc51154a96051098180a180f35b3461054157602036600319011261054157600435600052600d6020526020604060002054604051908152f35b3461054157612a6e366114e9565b600080516020615874833981519152600052600360205291939290612aac612aa761156e3360008051602061589483398151915261136d565b61380b565b6009548610948594612abc6136c9565b95612b29575b9083612ace9289614658565b6000805160206159348339815191526000526003602052612b0561156e336000805160206158d483398151915261136d565b61136d565b612b19575b5061162f57506115c08361370b565b612b239086615797565b38612b0a565b9450612ace9083612b398961370b565b9691925050612ac2565b3461054157602036600319011261054157600435612b6081610530565b6001600160a01b03908116612b76811515615752565b612b8230821415615752565b6000805160206159348339815191526000908152600360205291612bb960ff611426336000805160206158d483398151915261136d565b600a80546001600160a01b031981168417909155167f64cbbd34f3faebfd04eff088ae5832f6d254dbb81820b0055e9d85c534aa700d8380a380f35b34610541576107de612c0636611d6b565b600080516020615954833981519152600052600360205292909190611df860ff6107bf337f9409729698b8f308a2af83e5557cf603f852e9adbc3a7847d7b55aa10527eebf61136d565b34610541576040366003190112610541576020611150600435612c7281610530565b60243590612c7f82610530565b6145b3565b34610541576040366003190112610541576001600160401b0360043581811161054157612cb590369060040161063b565b9060243590811161054157612cce90369060040161063b565b90612cdb610fc7336143e7565b6000805160206159348339815191526000526003602052612d0f60ff611426336000805160206158d483398151915261136d565b8051825103612d5c5760005b81518110156107de5780612d32612d5792856137f2565b51612d51612d4083866137f2565b51600052600b602052604060002090565b556137cd565b612d1b565b60405162461bcd60e51b815260206004820152601a60248201527f4172726179206c656e6774687320646f206e6f74206d617463680000000000006044820152606490fd5b346105415760a036600319011261054157600435612dbe81610530565b602435612dca81610530565b6084356001600160401b03811161054157612de99036906004016106eb565b906001600160a01b03838116903382141580612e69575b612e42578216156107e05715612e2a576107de92612e22606435604435613cf0565b929091613b6b565b604051626a0d4560e21b815260006004820152602490fd5b60405163711bec9160e11b81523360048201526001600160a01b0386166024820152604490fd5b50612e7433866145b3565b15612e00565b34610541576020366003190112610541576020611150600435600052600860205260ff60016040600020015460101c1690565b34610541576107de612ebe36610f73565b6000805160206158f48339815191526000526003602052916120d360ff611eb2337fd865b7f358b61ebb88423346dbdd313fbd9dc67840adf461aa755702d67a4e8161136d565b3461054157610c09610d98612f1936610a4d565b6149e0565b3461054157604036600319011261054157612f3b610fc7336143e7565b60008051602061593483398151915260009081526003602052612f7160ff611426336000805160206158d483398151915261136d565b6004358152600b602052602435604082205580f35b3461054157612f9436612132565b90612f9d61313b565b612fa9610fb5836143e7565b60005b81518110156107de5780612fc3612fdd92846137f2565b51156122035761220384612fd783866137f2565b516130fc565b612fac565b3461054157602036600319011261054157602061115060043561300481610530565b6143e7565b346105415760203660031901126105415760043561302681610530565b600954613032816147df565b9160005b8281106130535760405160208082528190610c0990820187610d3a565b806119046130619284614757565b613036565b34610541576000366003190112610541576009546130838161377d565b9061308c6144e7565b6130946156cf565b9061309d6149a0565b60005b8481106130b55760405180610c098882610ab4565b80610b4b6130c392856137f2565b6130a0565b3461054157602036600319011261054157600435600052600e602052602060018060a01b0360406000205416604051908152f35b90811561312957816131269260005260036020526131216001604060002001546131f3565b613312565b50565b604051631fe1e13d60e11b8152600490fd5b60008052600360205260ff61315e3360008051602061591483398151915261136d565b54161561316757565b60405163e2517d3f60e01b815233600482015260006024820152604490fd5b6000805160206158b48339815191526000819052600360205260ff6131cb337f27869b03d97f61c857c7dfd10dbf3620fa30d8bb89bb221d094b39e07105269e61136d565b5416156131d55750565b6044906040519063e2517d3f60e01b82523360048301526024820152fd5b80600052600360205260ff6131cb33604060002061136d565b90811561312957816131269260005260036020526132316001604060002001546131f3565b6133c2565b90336001600160a01b0382160361325057613126916133c2565b60405163334bd91960e11b8152600490fd5b6005546001600160a01b039190828116613129576001600160a01b03191691811691909117600555610706906000808052600360205260ff6132b28360008051602061591483398151915261136d565b541661330d5780805260036020526132cd826040832061136d565b805460ff1916600117905533916001600160a01b0316907f2f8788117e7eff1d82e926ec794901d17c78024a50270940304540a733656f0d8180a4600190565b905090565b600090808252600360205260ff61332c846040852061136d565b5416613387578082526003602052613347836040842061136d565b805460ff1916600117905533926001600160a01b0316917f2f8788117e7eff1d82e926ec794901d17c78024a50270940304540a733656f0d9080a4600190565b50905090565b60055461070691906001600160a01b03808316908216146133af575b50613400565b6001600160a01b031916600555386133a9565b90610706918015806133e9575b1561347d57600580546001600160a01b031916905561347d565b506005546001600160a01b038381169116146133cf565b6000808052600360205260ff6134248360008051602061591483398151915261136d565b54161561330d578080526003602052613440826040832061136d565b805460ff1916905533916001600160a01b0316907ff6391f5c32d9c69d2a47ea670b442974b53935d1edc7fd64eb21e047a839171b8180a4600190565b600090808252600360205260ff613497846040852061136d565b5416156133875780825260036020526134b3836040842061136d565b805460ff1916905533926001600160a01b0316917ff6391f5c32d9c69d2a47ea670b442974b53935d1edc7fd64eb21e047a839171b9080a4600190565b6004546001600160a01b0381169160a09190911c65ffffffffffff1690565b6005548060d01c801515908161353e575b50156135345760a01c65ffffffffffff1690565b5060045460d01c90565b9050421138613520565b634e487b7160e01b600052601160045260246000fd5b91909165ffffffffffff80809416911601918211611d6657565b906005548060d01c806135bf575b5050600580546001600160a01b031660a09390931b65ffffffffffff60a01b169290921760d09190911b6001600160d01b031916179055565b4211156135f157600480546001600160d01b031660309290921b6001600160d01b0319169190911790555b3880613586565b507f2b1fa2edafe6f7b9e97c1a9e0c3660e645beb2dcaa2d45bdbf9beaf5472e1ec5600080a16135ea565b90600182811c9216801561364c575b602083101461363657565b634e487b7160e01b600052602260045260246000fd5b91607f169161362b565b65ffffffffffff90818111613669571690565b604490604051906306dfcc6560e41b8252603060048301526024820152fd5b1561368f57565b60405162461bcd60e51b81526020600482015260126024820152712ab730baba3437b934bd32b21030b236b4b760711b6044820152606490fd5b6040519060c082018281106001600160401b03821117610586576040528160a06000918281528260208201528260408201528260608201528260808201520152565b6137136136c9565b5061371d81614445565b90600052600b602052604060002054600d6020526040600020549082519260208101511515906060604082015115159101511515916040519561375f876105a6565b8652602086015260408501526060840152608083015260a082015290565b9061378782610624565b61379460405191826105dc565b82815280926137a5601f1991610624565b019060005b8281106137b657505050565b6020906137c16136c9565b828285010152016137aa565b6000198114611d665760010190565b634e487b7160e01b600052603260045260246000fd5b80518210156138065760209160051b010190565b6137dc565b1561381257565b60405162461bcd60e51b815260206004820152601a60248201527f556e617574686f72697a656420746f6b656e206d616e616765720000000000006044820152606490fd5b9160c061055392949361386f81610180810197610a77565b0190610a77565b634e487b7160e01b600052600060045260246000fd5b601f8111613898575050565b6000906002825260208220906020601f850160051c830194106138d6575b601f0160051c01915b8281106138cb57505050565b8181556001016138bf565b90925082906138b6565b156138e757565b60405162461bcd60e51b81526020600482015260136024820152722ab730baba3437b934bd32b21036b4b73a32b960691b6044820152606490fd5b919291906001600160a01b038216156107e0576105539361394291613cf0565b91613a72565b9092613956610fb5836143e7565b613971610fb533600052600660205260ff6040600020541690565b61397d610fc7336143e7565b60005b84518110156139fd576139c8906001600160a01b0384166139cd576122036139c36139ab83896137f2565b51600052600860205260ff6001604060002001541690565b614a2a565b613980565b6122036139f86139dd83896137f2565b51600052600860205260ff60016040600020015460081c1690565b614ab4565b5091613a0a818584614b1d565b60005b8451811015613a6b5780613a24613a5292876137f2565b51613a2f82856137f2565b51906001600160a01b038616613a575761220391613a4c826148b6565b916152dd565b613a0d565b613a65612203928288614edc565b8561501e565b5050509050565b90939291613a91610fb533600052600660205260ff6040600020541690565b613a9d610fb5836143e7565b613aa9610fc7336143e7565b60005b8551811015613ace57806122036139c36139ab613ac9948a6137f2565b613aac565b50909192613add828685614c71565b60005b8551811015613b1b5780612203613afa613b1693896137f2565b51613b0583876137f2565b51613b0f826148b6565b918861541d565b613ae0565b50939192916001600160a01b038416613b35575b50505050565b8051600103613b5c5790602080613b53959301519101519133613ddd565b38808080613b2f565b613b669333613fee565b613b53565b929493909194613b7d610fb5856143e7565b613b89610fb5846143e7565b613b95610fc7336143e7565b60005b8651811015613c2057613bc5906001600160a01b03868116613bca57506122036139c36139ab838b6137f2565b613b98565b8516613be0576122036139f86139dd838b6137f2565b613bf06139c36139ab838b6137f2565b612203613c1b613c00838b6137f2565b51600052600860205260ff60016040600020015460101c1690565b614a6c565b509093613c2f82878587614d6c565b60005b8651811015613c9e5780613c49613c7392896137f2565b51613c5482866137f2565b516001600160a01b03888116613c7857509061220391613b0f826148b6565b613c32565b8716613c935790613c8d61220392828a614edc565b8761501e565b612203918789615144565b50949392916001600160a01b038116613cb9575b5050505050565b8451600103613cdf57602080613cd59601519201519233613ed7565b3880808080613cb2565b613ceb94919233614023565b613cd5565b9160405192600184526020840152604083019160018352606084015260808301604052565b9081602091031261054157516107068161082c565b909260a0926107069594600180861b0316835260006020840152604083015260608201528160808201520190610dac565b919261070695949160a094600180871b038092168552166020840152604083015260608201528160808201520190610dac565b6040513d6000823e3d90fd5b60405190613da7826105c1565b60008252565b3d15613dd8573d90613dbe82610699565b91613dcc60405193846105dc565b82523d6000602084013e565b606090565b9293919093843b613def575050505050565b602091613e12604051948593849363f23a6e6160e01b9889865260048601613d2a565b038160006001600160a01b0388165af160009181613ea7575b50613e6a5782613e39613dad565b8051919082613e6357604051632bfa23e760e11b81526001600160a01b0383166004820152602490fd5b6020915001fd5b6001600160e01b03191603613e8457503880808080613cb2565b604051632bfa23e760e11b81526001600160a01b03919091166004820152602490fd5b613ec991925060203d8111613ed0575b613ec181836105dc565b810190613d15565b9038613e2b565b503d613eb7565b939290949194853b613eec575b505050505050565b613f0f602093604051958694859463f23a6e6160e01b998a875260048701613d5b565b038160006001600160a01b0388165af160009181613f51575b50613f365782613e39613dad565b6001600160e01b03191603613e845750388080808080613ee4565b613f6a91925060203d8111613ed057613ec181836105dc565b9038613f28565b92613fa06107069593613fae9360018060a01b031686526000602087015260a0604087015260a0860190610d3a565b908482036060860152610d3a565b916080818403910152610dac565b93906107069593613fa091613fae9460018060a01b03809216885216602087015260a0604087015260a0860190610d3a565b9293919093843b614000575050505050565b602091613e12604051948593849363bc197c8160e01b9889865260048601613f71565b939290949194853b61403757505050505050565b613f0f602093604051958694859463bc197c8160e01b998a875260048701613fbc565b1561406157565b60405162461bcd60e51b81526020600482015260136024820152722ab730baba3437b934bd32b210313ab93732b960691b6044820152606490fd5b906001600160a01b03821615612e2a57610553926140b991613cf0565b916000604051611eda816105c1565b156140cf57565b60405162461bcd60e51b81526020600482015260166024820152751058d8dbdd5b9d081a5cc8189b1858dadb1a5cdd195960521b6044820152606490fd5b1561411457565b60405162461bcd60e51b815260206004820152601560248201527414d95b99195c881a5cc8189b1858dadb1a5cdd1959605a1b6044820152606490fd5b1561415857565b60405162461bcd60e51b8152602060048201526012602482015271546f6b656e206e6f7420666f722073616c6560701b6044820152606490fd5b1561419957565b60405162461bcd60e51b8152602060048201526012602482015271546f6b656e20686173206e6f20707269636560701b6044820152606490fd5b81810292918115918404141715611d6657565b156141ed57565b60405162461bcd60e51b8152602060048201526014602482015273125b9cdd59999a58da595b9d081c185e5b595b9d60621b6044820152606490fd5b600019810191908211611d6657565b91908203918211611d6657565b600260075414614256576002600755565b604051633ee5aeb560e01b8152600490fd5b90949392606092608083019660018060a01b03168352602083015260408201520152565b92906142b36142c192604051948593602085019763b9ae526560e01b895260248601614268565b03601f1981018352826105dc565b7f9ea7c227479a2b8a76245ee635dafb0a22e7d33dc65fea966382e44786615e9a6000908152600e6020527fb936018311cfaa67e41f88b18066e39f60c83ba992d360f054181aba6669d2765490926001600160a01b03918490831680614381575b507f2b9a3e491cc6e781461af6c8ee3b2cf01aa84d293731bc8d11978c1bc55a6ab49052600e60205260408420546001600160a01b03169182166143675750505050565b83809351925af150614377613dad565b5038808080613b2f565b819083828751925af150614393613dad565b508338614323565b156143a257565b60405162461bcd60e51b815260206004820152601b60248201527f4163636f756e7420697320746865207a65726f206164647265737300000000006044820152606490fd5b6001600160a01b0316801561440a57600052600660205260ff6040600020541690565b5033600052600660205260ff6040600020541690565b6040519061442d8261056b565b60006060838281528260208201528260408201520152565b61444d614420565b506000526008602052604060002060ff60016040519261446c8461056b565b80548452015481811615156020840152818160081c161515604084015260101c161515606082015290565b906144a182610624565b6144ae60405191826105dc565b82815280926144bf601f1991610624565b019060005b8281106144d057505050565b6020906144db614420565b828285010152016144c4565b6009546144f381614497565b906000805b8281106145055750505090565b8061455c91835260086020908082526040918286209260018151946145298661056b565b805486520154918260ff9485928383161515908801521c1615159084015260101c161515606082015261244382876137f2565b6144f8565b61456b8151614497565b90600090815b81518110156145ad57806145886145a892846137f2565b51845260086020908082526040918287209260018151946145298661056b565b614571565b50505090565b6145bc816143e7565b80156145f6575b6145ef576001600160a01b0316600090815260016020526040902060ff916145ea9161136d565b541690565b5050600090565b50614600826143e7565b6145c3565b60019082518155019061462a60208201511515839060ff801983541691151516179055565b604081015115159061ff0062ff000060608554930151151560101b169260081b169062ffff00191617179055565b6000805160206158748339815191526000526003602052929161468e60ff61096d3360008051602061589483398151915261136d565b6009548411614703576146e5926146c36146cc926146ba6146ad61060a565b8881529515156020870152565b15156040850152565b15156060830152565b6146e0836000526008602052604060002090565b614605565b6009548091146146f25750565b6146fe610553916137cd565b600955565b60405162461bcd60e51b815260206004820152601060248201526f125b9d985b1a59081d1bdad95b88125160821b6044820152606490fd5b80548210156138065760005260206000209060011b0190600090565b60009160018060a01b0382168352600c602052604083209083526020526147896040832091836020526040842061136d565b5491908054915b82811061479d5750505090565b6147a7818361473b565b5060014291015411156147c3575b6147be906137cd565b614790565b926147ce848361473b565b50548103908111611d6657926147b5565b906147e982610624565b6147f660405191826105dc565b8281528092614807601f1991610624565b0190602036910137565b1561481857565b60405162461bcd60e51b815260206004820152600f60248201526e098cadccee8d040dad2e6dac2e8c6d608b1b6044820152606490fd5b9061485982610624565b61486660405191826105dc565b8281528092614877601f1991610624565b019060005b82811061488857505050565b80606060208093850101520161487c565b91908110156138065760051b0190565b91908201809211611d6657565b600052600d60205260406000205480156000146148d4575060001990565b4201804211611d665790565b600080516020615874833981519152600052600360205261491460ff61096d3360008051602061589483398151915261136d565b80600052600860205260ff60016040600020015460081c16156149485761494590600052600d602052604060002090565b55565b60405162461bcd60e51b815260206004820152602a60248201527f546f6b656e206973206e6f74206275726e61626c652c20736f2069742063616e6044820152696e6f742065787069726560b01b6064820152608490fd5b600954906149ad826147df565b600092835b8181106149c0575090925050565b806149db918652600d602052604086205461190e82866137f2565b6149b2565b906149eb82516147df565b600092835b8151811015614a235780614a07614a1e92846137f2565b518652600d602052604086205461190e82866137f2565b6149f0565b5090925050565b15614a3157565b60405162461bcd60e51b8152602060048201526013602482015272546f6b656e206973206e6f742061637469766560681b6044820152606490fd5b15614a7357565b60405162461bcd60e51b8152602060048201526019602482015278546f6b656e206973206e6f74207472616e7366657261626c6560381b6044820152606490fd5b15614abb57565b60405162461bcd60e51b8152602060048201526015602482015274546f6b656e206973206e6f74206275726e61626c6560581b6044820152606490fd5b9091614b0f61070693604084526040840190610d3a565b916020818403910152610d3a565b9291908051825190818103614c4f57505060005b8151811015614bd357600581901b82810160209081015191850101516001600160a01b038716614b6c575b5050614b67906137cd565b614b31565b614b8487612b00846000526000602052604060002090565b54818110614bb45787612b00614b67959493614bac9303936000526000602052604060002090565b559038614b5c565b8761126184846040519485946303dee4c560e01b865260048601614268565b5090600092939160018151148414614c22576020908101519181015160408051938452918301526001600160a01b0390921691339160008051602061585483398151915291819081015b0390a4565b6040516001600160a01b03909316923392600080516020615834833981519152928291614c1d9183614af8565b604051635b05999160e01b815260048101919091526024810191909152604490fd5b9190918251825190818103614c4f57505060005b8351811015614cf157600581901b8481016020908101519185010151614cbf929184906001600160a01b038216614cc4575b5050506137cd565b614c85565b614ce791612b00614cdf926000526000602052604060002090565b9182546148a9565b9055388381614cb7565b50916001815114600014614d3f576020908101519181015160408051938452918301526001600160a01b03909216916000913391600080516020615854833981519152919081908101614c1d565b600080516020615834833981519152614c1d6000939460405191829160018060a01b031696339583614af8565b9392918051835190818103614c4f57505060005b8151811015614e5b57600581901b82810160209081015191860101516001600160a01b0392918590898516614dec575b614dc2948216614dc7575050506137cd565b614d80565b614de291612b00614cdf926000526000602052604060002090565b9055388481614cb7565b9192939050614e0989612b00846000526000602052604060002090565b54838110614e3c5791869184614dc296959403614e348c612b00856000526000602052604060002090565b559450614db0565b8961126184866040519485946303dee4c560e01b865260048601614268565b508051939493919291600103614eab576020908101519181015160408051938452918301526001600160a01b03928316939092169133916000805160206158548339815191529181908101614c1d565b6040516001600160a01b0393841694909316923392600080516020615834833981519152928291614c1d9183614af8565b6001600160a01b03166000908152600c60205260409020919291614f0b91905b90600052602052604060002090565b9160009081905b8454821080614fb2575b15613a6b57614f2b828661473b565b506001429101541115614fa25780614f43838761473b565b50541115614f7657614f61614f58838761473b565b50918254614238565b9055614f6d82916137cd565b925b9290614f12565b614f8f614f6d91614f87848861473b565b505490614238565b9183614f9b828861473b565b50556137cd565b90614fac906137cd565b92614f6f565b50801515614f1c565b9190614fdb57808203614fcc575050565b60018181925484550154910155565b613876565b80548015615008576000190190614ff7828261473b565b614fdb576001816000809355015555565b634e487b7160e01b600052603160045260246000fd5b9061503f81614efc8460018060a01b0316600052600c602052604060002090565b906000908190825b84548410156150df5761505a848661473b565b50541515806150c7575b156150a65761507c81615082928603615088576137cd565b936137cd565b92615047565b612203615095878961473b565b506150a0838a61473b565b90614fbb565b92916150c1615082916150b9858861473b565b5054906148a9565b926137cd565b506150d2848661473b565b5060014291015411615064565b9093949192505b80855411156150fd576150f885614fe0565b6150e6565b50909192508161510c57505050565b6040519182526001600160a01b0316907f8d8e3659d6fba4144bf2ef4e66100f576035ab5e3e74225d79413f882c32b59390602090a3565b929391906001600160a01b03808516908216148015615289575b615282576001600160a01b0384166000908152600c60205260409020615185908390614efc565b949160009384935b8754851080615279575b15615269576151a6858961473b565b50600190814291015411801590615256575b61524b5788826151c8888361473b565b5054111561520857906151de876151e99361473b565b50015482858761541d565b6151f6614f58868a61473b565b905561520285946137cd565b9361518d565b916152358361523f9361522a8a615222816152029961473b565b50549361473b565b50015490878961541d565b614f87878b61473b565b9486614f9b828b61473b565b5093615202906137cd565b50615261868a61473b565b5054156151b8565b509550925050506105539161501e565b50801515615197565b5050915050565b50841561515e565b9190614fdb576020816001925184550151910155565b80549190600160401b83101561058657826152ca9160016105539501815561473b565b90615291565b8015611d66576000190190565b60008052600c602052919291615313907f13649b2456f1b42fef0f0040b3aaeabcd21a76a0f3f5defd4f583839455116e8614efc565b92835460005b8554811015615416578261532d828861473b565b5081600180920154116000146153d75750509050905b845482146153bb57615367615356610617565b6000815260006020820152866152a7565b6153718554614229565b82811161539857509061055393946152ca9261538b610617565b948552602085015261473b565b806153b16150956153ab6153b694614229565b8961473b565b6152d0565b615371565b610553939491506153ca610617565b92835260208301526152a7565b6153e1838961473b565b500154146153f7576153f2906137cd565b615319565b9050615409915061541292939461473b565b509182546148a9565b9055565b5090615343565b6001600160a01b03166000908152600c602052604090209293926154419190614efc565b92835460005b85548110156154e0578261545b828861473b565b5081600180920154116000146154c05750509050905b845482146153bb57615484615356610617565b61548e8554614229565b8281116154a857509061055393946152ca9261538b610617565b806153b16150956153ab6154bb94614229565b61548e565b6154ca838961473b565b500154146153f7576154db906137cd565b615447565b5090615471565b6040516154f3816105c1565b6000815290565b9061550482610624565b604090615513825191826105dc565b8381528093615524601f1991610624565b0191600090815b848110615539575050505050565b60209082516155478161058b565b84815282858183015282870101520161552b565b906040516155688161058b565b602060018294805484520154910152565b9061559282612b00836000526000602052604060002090565b541561569857614efc6155b79260018060a01b0316600052600c602052604060002090565b80546000805b82811061564457506155ce906154fa565b91600090815b8381106155e2575050505090565b6155ec818361473b565b506001429101541180615630575b61560d575b615608906137cd565b6155d4565b91615628615608916126c3615622868661473b565b5061555b565b9290506155ff565b5061563b818361473b565b505415156155fa565b61564e818561473b565b506001429101541180615684575b61566f575b61566a906137cd565b6155bd565b9061567c61566a916137cd565b919050615661565b5061568f818561473b565b5054151561565c565b50506107066154e7565b600052600860205260ff60016040600020015416806156be5790565b50600b602052604060002054151590565b600954906156dc826147df565b600092835b8181106156ef575090925050565b8061570a918652600b602052604086205461190e82866137f2565b6156e1565b9061571a82516147df565b600092835b8151811015614a23578061573661574d92846137f2565b518652600b602052604086205461190e82866137f2565b61571f565b1561575957565b60405162461bcd60e51b8152602060048201526016602482015275496e76616c69642077616c6c6574206164647265737360501b6044820152606490fd5b6157a3610fc7336143e7565b60008051602061593483398151915260005260036020526157d760ff611426336000805160206158d483398151915261136d565b600052600b602052604060002055565b156157ee57565b60405162461bcd60e51b815260206004820152601c60248201527f556e617574686f72697a65642066696e616e6365206d616e61676572000000006044820152606490fdfe4a39dc06d4c0dbc64b70af90fd698a233a518aa5d07e595d983b8c0526c8f7fbc3d58168c5ae7397731d063d5bbf3d657854427343f4c083240f7aacaa2d0f6274f7a545c65c11839a48d7453738b30c295408df2d944516167556759ddc6d06066524a10daac0b3974093068bb2bc712e20a33461d4e22217863cdad751f2abf988e4fb62b8e14f4820fed03192306ddf4d7dbfa215595ba1c6ba4b76b369eef0f8f76d6ce591be902d66c475263e0a57264353432317d51742b939d2e393c002358c16c6ece4d564dd98c8400ef2ce02ec4ed5a3d53421ef64678a57ac51013617319a054d772f909f7c479a2cebe5066e836a939412e32403c99029b92eff572f022558b687eed59080237cb7778171198110a24741b57d6ed3432df881fcb3bb6029312d1001076133d40b75b7eca92ba54e4963b3ce24e1486a3d5a038ba264697066735822122069069e6bf7b33c1eeeb1ca3d2f6ac919069e0c098753ccf76e9b1b7cefd0250f64736f6c634300081400332f8788117e7eff1d82e926ec794901d17c78024a50270940304540a733656f0d60a060409080825234620003425760808162001ba8803803809162000025828562000347565b83398101031262000342576200003b8162000381565b602060606200004c82850162000381565b926200005a86860162000381565b946001600160a01b0392839162000072910162000381565b1680156200032a57600080546001600160a01b0319808216841783558951979295909390929183167f8be0079c531659141344cd1fd0a4f28419497f9722a3daafe3b4186f6b6457e08780a38160019485805516968715620002e857508116958615620002a457608052600280548316871790558751637e062a3560e11b815285816004818a5afa9081156200029a57908291869162000256575b5016968783600354161760035516906004541617600455855160c0810181811060018060401b038211176200024257875281815281848201528287820152826060820152600a608082015260a04291015260ff1990808260055416176005556006558160075560085416600855600a60095542600a558451630904d8fb60e11b81528281600481875afa918215620002375790818793620001ec575b505060008051602062001b888339815191529282519182524290820152a3516117f190816200039782396080518181816104820152818161053a01526111970152f35b915091508282813d83116200022f575b62000208818362000347565b810103126200022c575051849060008051602062001b8883398151915238620001a9565b80fd5b503d620001fc565b8651903d90823e3d90fd5b634e487b7160e01b84526041600452602484fd5b809250878092503d831162000292575b62000272818362000347565b810103126200028e5762000287829162000381565b386200010d565b8480fd5b503d62000266565b89513d87823e3d90fd5b885162461bcd60e51b815260048101879052601760248201527f496e76616c6964204d656761706f7420616464726573730000000000000000006044820152606490fd5b62461bcd60e51b815260048101879052601760248201527f496e76616c69642045564d4175746820616464726573730000000000000000006044820152606490fd5b8651631e4fbdf760e01b815260006004820152602490fd5b600080fd5b601f909101601f19168101906001600160401b038211908210176200036b57604052565b634e487b7160e01b600052604160045260246000fd5b51906001600160a01b0382168203620003425756fe6080604081815260048036101561001557600080fd5b600092833560e01c90816308e609e914610f22575080631083fa2614610ef95780631d33c95d14610eda578063408dce9414610d6f5780634a74bc6114610cb25780634ce03ddb14610c895780634e43603a14610b3857806350836796146109bc57806363b201171461099d57806368447c93146109765780636bd50cef146108c1578063715018a614610867578063772b09e31461082f57806379502c55146107db5780637dbc4385146106315780638b3efee6146106085780638da5cb5b146105e0578063b9ae5265146105ac578063cb8ebaae14610574578063d6f43949146104b1578063d878c2131461046d578063dd19171914610333578063e21cc6911461022b578063ebd2c7d9146101bf5763f2fde38b1461013657600080fd5b346101bb5760203660031901126101bb5761014f611057565b906101586110b2565b6001600160a01b039182169283156101a557505082546001600160a01b0319811683178455167f8be0079c531659141344cd1fd0a4f28419497f9722a3daafe3b4186f6b6457e08380a380f35b51631e4fbdf760e01b8152908101849052602490fd5b8280fd5b838234610227576020366003190112610227576101da611057565b6101e26110b2565b81546001600160a01b039182166001600160a01b031982168117909355167fc40302e3b5897f6966b131753cb09f65aa712ae82e3f49b189d089d5694256e38380a380f35b5080fd5b50346101bb57826003193601126101bb576002546003548351630904d8fb60e11b81526001600160a01b0392831694602094939192909190811690858486818a5afa9384156103295788946102f6575b508251633169141f60e01b815294868682818b5afa9586156102ec5760a099966102bd575b505416948251968752860152840152151560608301526080820152f35b6102de919650873d89116102e5575b6102d6818361112c565b81019061114e565b94386102a0565b503d6102cc565b84513d8b823e3d90fd5b9093508581813d8311610322575b61030e818361112c565b8101031261031e5751923861027b565b8780fd5b503d610304565b83513d8a823e3d90fd5b50346101bb57826003193601126101bb5761034c6110b2565b60035482516370a0823160e01b815230838201526020916001600160a01b039081168383602481845afa928315610463578793610430575b508261038e578680f35b8654865163a9059cbb60e01b81529083166001600160a01b031695810195865260208601849052948491869182908a90829060400103925af1938415610426577f29b47220e0f063231b4e718e2ce82ee53db05db53afdf5f03b71c46f7d2a519194610409575b508554169351908152a23880808080808680f35b61041f90843d86116102e5576102d6818361112c565b50386103f5565b85513d88823e3d90fd5b9092508381813d831161045c575b610448818361112c565b8101031261045857519138610384565b8680fd5b503d61043e565b86513d89823e3d90fd5b505034610227578160031936011261022757517f00000000000000000000000000000000000000000000000000000000000000006001600160a01b03168152602090f35b50503461022757816003193601126102275761052a9060ff60055416908051916104da83611110565b601083526f26b2b3b0b837ba22bc3a32b739b4b7b760811b6020840152610538825161050581611110565b60058152640312e302e360dc1b60208201528351958695608087526080870190611072565b908582036020870152611072565b7f00000000000000000000000000000000000000000000000000000000000000006001600160a01b031692840192909252151560608301520390f35b5050346102275760203660031901126102275760209181906001600160a01b0361059c611057565b168152600c845220549051908152f35b83346105dd5760803660031901126105dd576105da6105c9611057565b606435906044359060243590611189565b80f35b80fd5b505034610227578160031936011261022757905490516001600160a01b039091168152602090f35b50503461022757816003193601126102275760025490516001600160a01b039091168152602090f35b50346101bb57602090816003193601126107d75761064d611057565b926106566110b2565b6001600160a01b0393841692831561079c57600280546001600160a01b031990811686179091558251637e062a3560e11b815290959082818681895afa90811561079257889161075c575b5016809560035416176003558082518094630904d8fb60e11b825281875afa9081156107525786916106ff575b7fd82a8a2b4dddcc1443e9a3d7cff1b3703580fe0a3fa67062496c2d3910d53b66935082519182524290820152a380f35b80915083813d831161074b575b610716818361112c565b81010312610747577fd82a8a2b4dddcc1443e9a3d7cff1b3703580fe0a3fa67062496c2d3910d53b669251906106ce565b8580fd5b503d61070c565b82513d88823e3d90fd5b90508281813d831161078b575b610773818361112c565b8101031261031e5751818116810361031e57386106a1565b503d610769565b84513d8a823e3d90fd5b905162461bcd60e51b8152918201526017602482015276496e76616c6964204d656761706f74206164647265737360481b6044820152606490fd5b8380fd5b50503461022757816003193601126102275760c09060ff60055416906006549060075460ff600854169060095492600a549481519615158752602087015285015215156060840152608083015260a0820152f35b5050346102275760203660031901126102275760209181906001600160a01b03610857611057565b168152600b845220549051908152f35b83346105dd57806003193601126105dd576108806110b2565b80546001600160a01b03198116825581906001600160a01b03167f8be0079c531659141344cd1fd0a4f28419497f9722a3daafe3b4186f6b6457e08280a380f35b50503461022757816003193601126102275760c09160a082516108e3816110de565b82815282602082015282848201528260608201528260808201520152805161090a816110de565b60ff6005541615159182825260065490602083019182526007549080840191825260ff6008541691606085019215158352600954936080860194855260a0600a5496019586528251968752516020870152519085015251151560608401525160808301525160a0820152f35b50346101bb57826003193601126101bb575490516001600160a01b03909116815260209150f35b505034610227578160031936011261022757602090600e549051908152f35b508290346102275760a0366003190112610227578035908115158092036101bb576024356044356064359182151580930361074757608435936109fd6110b2565b8115610af5578415610ab857848211610a7d57509160a09391877fb1fb5da0e0f5da398fe6c2ee5fe3d3239cea119b32205bb20d23d9e0f6c60885969460ff19806005541660ff88161760055581600655836007556008541660ff851617600855846009558151958652602086015284015260608301526080820152a180f35b606490602089519162461bcd60e51b83528201526015602482015274496e76616c6964207469636b6574206c696d69747360581b6044820152fd5b606490602089519162461bcd60e51b8352820152601760248201527604d6178207469636b657473206d757374206265203e203604c1b6044820152fd5b606490602089519162461bcd60e51b8352820152602060248201527f5469636b65747320706572207075726368617365206d757374206265203e20306044820152fd5b5091903461022757602090816003193601126101bb576001600160a01b039283610b60611057565b168152600b83528181205492600c8152602483832054958281600354168651938480926370a0823160e01b8252308d8301525afa918215610c7f579083918593610c4e575b5060025416855198898092630904d8fb60e11b82525afa918215610c44578392610c0f575b50610c0394959650811515600014610c0757610be69250611341565b905b51938493846040919493926060820195825260208201520152565b0390f35b505090610be8565b90915086813d8311610c3d575b610c26818361112c565b810103126102275794519394859490610c03610bca565b503d610c1c565b84513d85823e3d90fd5b8281939294503d8311610c78575b610c66818361112c565b810103126107d7578290519138610ba5565b503d610c5c565b85513d86823e3d90fd5b5091346105dd5760203660031901126105dd5750610ca96020923561166e565b90519015158152f35b5090346101bb5760203660031901126101bb57826020833593610cd685151561162d565b60035484516323b872dd60e01b81523392810192909252306024830152604482018690529092839160649183916001600160a01b03165af18015610d6557610d47575b50519081527f1186f7c6b9f4703acb7997f857e2f19d445b767d0636f812ec0191780593648a60203392a280f35b610d5e9060203d81116102e5576102d6818361112c565b5038610d19565b82513d86823e3d90fd5b50919034610227576020806003193601126101bb578335610d8e6110b2565b610d9981151561162d565b60035483516370a0823160e01b815230818801526001600160a01b03918216969084816024818b5afa908115610463579084918891610ea9575b5010610e6f578554855163a9059cbb60e01b81529083166001600160a01b0316918101918252602082018490529596949594849186919082908a90829060400103925af1938415610426577f29b47220e0f063231b4e718e2ce82ee53db05db53afdf5f03b71c46f7d2a519194610e52575b508554169351908152a280f35b610e6890843d86116102e5576102d6818361112c565b5038610e45565b845162461bcd60e51b81529081018490526014602482015273496e73756666696369656e742062616c616e636560601b6044820152606490fd5b809250868092503d8311610ed3575b610ec2818361112c565b810103126104585783905138610dd3565b503d610eb8565b505034610227578160031936011261022757602090600d549051908152f35b50503461022757816003193601126102275760035490516001600160a01b039091168152602090f35b9050346107d757836003193601126107d75780600d5493600e5460018060a01b0380600354166370a0823160e01b8552308786015284602460209788935afa938415610329578894611028575b506002548351630904d8fb60e11b815295911681868881845afa9586156102ec578996610ff5575b508190845197888092633169141f60e01b82525afa9586156103295760a09896610fd6575b508251968752860152840152606083015215156080820152f35b81610fee9297503d88116102e5576102d6818361112c565b9438610fbc565b9095508181813d8311611021575b61100d818361112c565b8101031261101d57519481610f97565b8880fd5b503d611003565b9093508481813d8311611050575b611040818361112c565b8101031261031e57519238610f6f565b503d611036565b600435906001600160a01b038216820361106d57565b600080fd5b919082519283825260005b84811061109e575050826000602080949584010152601f8019910116010190565b60208183018101518483018201520161107d565b6000546001600160a01b031633036110c657565b60405163118cdaa760e01b8152336004820152602490fd5b60c0810190811067ffffffffffffffff8211176110fa57604052565b634e487b7160e01b600052604160045260246000fd5b6040810190811067ffffffffffffffff8211176110fa57604052565b90601f8019910116810190811067ffffffffffffffff8211176110fa57604052565b9081602091031261106d5751801515810361106d5790565b9190820180921161117357565b634e487b7160e01b600052601160045260246000fd5b90926001600160a01b0392907f0000000000000000000000000000000000000000000000000000000000000000841633036112e95760ff6005541615801561128c575b611285576007548110611285576111e290611361565b9283156112855782611215857f757baa3c3a61a9decc2f10fe7d9b73dc9ac0a2d337831a5ee739640e67b8c37f95611435565b169283600052600b6020526040600020611230828254611166565b905583600052600c602052604060002061124b838254611166565b905561125981600d54611166565b600d5561126882600e54611166565b600e556040805192835260208301919091524290820152606090a3565b5050505050565b5060046020856002541660405192838092633169141f60e01b82525afa9081156112dd576000916112bf575b50156111cc565b6112d7915060203d81116102e5576102d6818361112c565b386112b8565b6040513d6000823e3d90fd5b60405162461bcd60e51b815260206004820152601e60248201527f4f6e6c792045564d4175746820636f6e74726163742063616e2063616c6c00006044820152606490fd5b8181029291811591840414171561117357565b811561134b570490565b634e487b7160e01b600052601260045260246000fd5b60085460ff161561142c57600254604051630904d8fb60e11b815290602090829060049082906001600160a01b03165afa9081156112dd576000916113fb575b5080156113f457600a820291808304600a14901517156111735760648102908104606403611173576113d291611341565b80156113ec575b6009548082116113e7575090565b905090565b5060016113d9565b5050600090565b906020823d8211611424575b816114146020938361112c565b810103126105dd575051386113a1565b3d9150611407565b506006546113d9565b60025460408051630904d8fb60e11b81526020946001600160a01b039384169391908682600481885afa918215611622576000926115f1575b50611479908261132e565b9382600354169184516370a0823160e01b81523060048201528881602481875afa9081156115e6579089949392916000916115b2575b5087811061157b575b5050845163095ea7b360e01b81526001600160a01b039091166004820152602481018690529190829081600081604481015b03925af180156115705760649287959492600092611553575b508060025416908060045416935197889687956351ab925160e01b8752600487015260248601521660448401525af161153a575050565b8161155092903d106102e5576102d6818361112c565b50565b61156990873d89116102e5576102d6818361112c565b5038611503565b83513d6000823e3d90fd5b61158a92939750819450611341565b9081156115a85761159f88926114ea9461132e565b959192386114b8565b5050505050505050565b9192939482813d83116115df575b6115ca818361112c565b810103126105dd5750908893929151386114af565b503d6115c0565b86513d6000823e3d90fd5b90918782813d831161161b575b611608818361112c565b810103126105dd5750519061147961146e565b503d6115fe565b84513d6000823e3d90fd5b1561163457565b60405162461bcd60e51b81526020600482015260126024820152710416d6f756e74206d757374206265203e20360741b6044820152606490fd5b60ff60055416158015611760575b61175a57600254604051630904d8fb60e11b81526001600160a01b039260209290919083908290600490829088165afa9081156112dd5760009161172b575b50916116ca819260249461132e565b9360035416604051938480926370a0823160e01b82523060048301525afa9081156112dd576000916116ff575b509050101590565b82813d8311611724575b611713818361112c565b810103126105dd57505180386116f7565b503d611709565b908382813d8311611753575b611741818361112c565b810103126105dd5750516116ca6116bb565b503d611737565b50600090565b50600254604051633169141f60e01b815290602090829060049082906001600160a01b03165afa9081156112dd5760009161179d575b501561167c565b6117b5915060203d81116102e5576102d6818361112c565b3861179656fea26469706673582212202af1102beb569da9a973dfd4a57e0c5f8715b61dc24a360e88563c5140a02bcb64736f6c63430008140033d82a8a2b4dddcc1443e9a3d7cff1b3703580fe0a3fa67062496c2d3910d53b66604060a0815234620005bc576200350a803803806200001e81620005c1565b928339810160a082820312620005bc576200003982620005e7565b60208301519092906001600160401b038111620005bc57826200005e91830162000621565b8185015190926001600160401b038211620005bc576200008091830162000621565b906200008f60608201620005e7565b906001600160a01b0390620000a790608001620005e7565b16938415620005a457600080546001600160a01b0319811687178255875196916001600160a01b03909116907f8be0079c531659141344cd1fd0a4f28419497f9722a3daafe3b4186f6b6457e09080a3600180556001600160a01b03169384156200056257506001600160a01b03169283156200051e57608052835160a081016001600160401b038111828210176200041f578552828152602081018290528085018490526001606082015242608082015282516001600160401b0381116200041f57600254600181811c9116801562000513575b6020821014620003fe57601f8111620004ba575b50806020601f8211600114620004415760009162000435575b508160011b916000199060031b1c1916176002555b602081015180516001600160401b0381116200041f576003918254600181811c9116801562000414575b6020821014620003fe57601f8111620003b1575b50602090601f8311600114620003165793620002b39383620002a497946080947f5bd2d155ed1076bdd300b62402f71b052eff6f9ed7c9b91d25e3a9477c7f47b89a986000926200030a575b50508160011b9160001990841b1c19161790555b60018060a01b0389820151166004549060ff60a01b6060840151151560a01b169160018060a81b03191617176004550151600555865193849360608552606085019062000678565b90838203602085015262000678565b42868301520390a251612e4a9081620006a0823960805181818161034401528181610b7c01528181610c3901528181610ef001528181610f5001528181610fa3015281816119c301528181611bf10152612cd40152f35b01519050388062000248565b90601f198316918460005260206000209260005b818110620003985750846080947f5bd2d155ed1076bdd300b62402f71b052eff6f9ed7c9b91d25e3a9477c7f47b89a9894620002b39894620002a49b98600195106200037f575b505050811b0190556200025c565b015160001983861b60f8161c1916905538808062000371565b929360206001819287860151815501950193016200032a565b836000526020600020601f840160051c81019160208510620003f3575b601f0160051c01905b818110620003e65750620001fc565b60008155600101620003d7565b9091508190620003ce565b634e487b7160e01b600052602260045260246000fd5b90607f1690620001e8565b634e487b7160e01b600052604160045260246000fd5b905084015138620001a9565b600260009081529250600080516020620034ea833981519152905b601f1983168410620004a1576001935082601f1981161062000487575b5050811b01600255620001be565b86015160001960f88460031b161c19169055388062000479565b868101518255602093840193600190920191016200045c565b6002600052600080516020620034ea833981519152601f830160051c8101916020841062000508575b601f0160051c01905b818110620004fb575062000190565b60008155600101620004ec565b9091508190620004e3565b90607f16906200017c565b845162461bcd60e51b815260206004820152601360248201527f496e76616c696420626f742061646472657373000000000000000000000000006044820152606490fd5b62461bcd60e51b815260206004820152601760248201527f496e76616c69642045564d4175746820616464726573730000000000000000006044820152606490fd5b8551631e4fbdf760e01b815260006004820152602490fd5b600080fd5b6040519190601f01601f191682016001600160401b038111838210176200041f57604052565b51906001600160a01b0382168203620005bc57565b60005b838110620006105750506000910152565b8181015183820152602001620005ff565b81601f82011215620005bc5780516001600160401b0381116200041f5762000653601f8201601f1916602001620005c1565b9281845260208284010111620005bc57620006759160208085019101620005fc565b90565b906020916200069381518092818552858086019101620005fc565b601f01601f191601019056fe6080604052600436101561001257600080fd5b600060e08135811c908163030c61fb146125415781630a035284146125065781632829fc531461244f57816335392c0d14611e0d57816336945d1614611cc35781633ccfd60b14611bb157816349351a8b1461197d5781635239457314611679578163715018a61461161f5781637bf305bd146114a25781638da5cb5b1461147b57816395896c231461144d578163b2610aaa146113fe578163b3f240911461137f578163c50ba84514611270578163cb88e11614610ea4578163cf2c033414610e4e578163d0c2ed9f14610c72578163d6f4394914610bab578163d878c21314610b66578163dafba100146109aa578163e3d2d03a1461096d578163e4df4ea7146102f0578163e866090314610287578163edfc63d2146101c8575063f2fde38b1461013e57600080fd5b346101c55760203660031901126101c5576101576127bd565b61015f612abb565b6001600160a01b039081169081156101ac576000548260018060a01b0319821617600055167f8be0079c531659141344cd1fd0a4f28419497f9722a3daafe3b4186f6b6457e0600080a380f35b604051631e4fbdf760e01b815260048101849052602490fd5b80fd5b82346101c55760203660031901126101c55760409060043581526008602052208054906101f76001820161291e565b6102766102066002840161291e565b6102686102156003860161291e565b61025a6102246004880161291e565b9361024c600660ff60058b015416990154976040519b8c9b8c528060208d01528b01906129e7565b9089820360408b01526129e7565b9087820360608901526129e7565b9085820360808701526129e7565b91151560a084015260c08301520390f35b82346101c55760203660031901126101c557600435906001600160401b0382116101c55760206102ba3660048501612859565b816102ce60405192838151938492016129c4565b600790820190815281900382019020546040516001600160a01b039091168152f35b905060403660031901126108ce576024356001600160401b0381116109695761031d903690600401612859565b9060026001541461095757600260015560405163077be64760e11b815260048035908201527f00000000000000000000000000000000000000000000000000000000000000006001600160a01b0316919060c081602481865afa90811561094c57859161091e575b5061039560208201511515612bc8565b608081015134106108e2578460a082015180156000146108d25750600019935b803b156108ce578160405180926364a5e39d60e01b82528183816103df6004353360048401612c1a565b03925af180156108c3576108ab575b505033855260066020526104046040862061291e565b916040519061041282612801565b338252602082019184835260043560408201523460608201524260808201528560a0820152600160c08201528682820152600954600160401b8110156106bf5780600161046292016009556128af565b93909361089757815184546001600160a01b0319166001600160a01b0391909116178455518051906001600160401b0382116108835781906104a760018701546128e4565b601f8111610832575b50602090601f83116001146107c3578b926107b8575b50508160011b916000199060031b1c19161760018401555b60408101516002840155606081015160038401556080810151600484015560a0810151600584015561052560c08201511515600685019060ff801983541691151516179055565b01518051906001600160401b0382116107a45761054560078401546128e4565b601f811161075f575b50602090601f83116001146106f257600792918991836106e7575b50508160011b916000199060031b1c1916179101555b338552600a60205260408520600954600019918282019182116106d357805490600160401b8210156106bf57816105c0916001608097969594018155612a8c565b909283549160031b92831b921b1916179055015180341161066d575b5061061f916105ea82612b24565b604051918252600435917f32f4de8cdad93ed7614f817a931bfc74be61a42176ff556514e8e4782e5fc09060203392a4612b24565b6040519160018352604060208401527f29de0b0001747bdcd5eacf8a7e2706bc1551dbd028a6263dd9ae394ec1f635ff6004359380610663339460408301906129e7565b0390a46001805580f35b803403903482116106a957858080938193829034146106a0575b3390f11561069557386105dc565b6040513d85823e3d90fd5b506108fc610687565b634e487b7160e01b600052601160045260246000fd5b634e487b7160e01b89526041600452602489fd5b634e487b7160e01b88526011600452602488fd5b015190503880610569565b906007840189526020892091895b601f19851681106107475750918391600193600795601f1981161061072e575b505050811b0191015561057f565b015160001960f88460031b161c19169055388080610720565b91926020600181928685015181550194019201610700565b60078401895260208920601f840160051c81016020851061079d575b601f830160051c8201811061079157505061054e565b6000815560010161077b565b508061077b565b634e487b7160e01b88526041600452602488fd5b0151905038806104c6565b9250600186018b5260208b20908b935b601f1984168510610817576001945083601f198116106107fe575b505050811b0160018401556104de565b015160001960f88460031b161c191690553880806107ee565b818101518355602094850194600190930192909101906107d3565b909150600186018b5260208b20601f840160051c81016020851061087c575b90849392915b601f830160051c8201811061086d5750506104b0565b60008155859450600101610857565b5080610851565b634e487b7160e01b8a52604160045260248afd5b634e487b7160e01b89526004899052602489fd5b6108b4906127ee565b6108bf5784386103ee565b8480fd5b6040513d84823e3d90fd5b5080fd5b6108dc9042612c0d565b936103b5565b60405162461bcd60e51b8152602060048201526014602482015273125b9cdd59999a58da595b9d081c185e5b595b9d60621b6044820152606490fd5b61093f915060c03d8111610945575b6109378183612838565b810190612b51565b38610385565b503d61092d565b6040513d87823e3d90fd5b604051633ee5aeb560e01b8152600490fd5b8280fd5b82346101c557806003193601126101c557610986612abb565b6004805460ff60a01b19811660a091821c60ff161590911b60ff60a01b1617905580f35b82346101c557602090816003193601126101c557600435906001600160401b0382116101c557366023830112156101c55781600401356109e981612aa4565b926109f76040519485612838565b8184528484016024809360051b830101913683116108bf578301905b828210610b4257505050825191610a42610a2c84612aa4565b93610a3a6040519586612838565b808552612aa4565b8386019490601f1901368637815b8151811015610afa576001600160a01b03610a6b8284612e00565b516040516395896c2360e01b8152911660048201529087828681305afa8015610aef578490610ab3575b610aae9250610aa48288612e00565b9015159052612c46565b610a50565b50908781813d8311610ae8575b610aca8183612838565b81010312610ae45790610adf610aae92612b44565b610a95565b8380fd5b503d610ac0565b6040513d86823e3d90fd5b505090509291909260405193838594850191818652518092526040850193925b828110610b2957505050500390f35b8351151585528695509381019392810192600101610b1a565b81356001600160a01b0381168103610b61578152908601908601610a13565b600080fd5b82346101c557806003193601126101c5576040517f00000000000000000000000000000000000000000000000000000000000000006001600160a01b03168152602090f35b82346101c557806003193601126101c557610c2960ff60045460a01c1660405190610bd58261281d565b60128252712c26aa2823b937bab822bc3a32b739b4b7b760711b6020830152610c37604051610c038161281d565b60058152640312e302e360dc1b60208201526040519485946080865260808601906129e7565b9084820360208601526129e7565b7f00000000000000000000000000000000000000000000000000000000000000006001600160a01b0316604084015290151560608301520390f35b82346101c557806003193601126101c55760405160025490600081610c96846128e4565b918282526001948581169081600014610e2f5750600114610dcf575b610cbe92500382612838565b604051600092600354610cd0816128e4565b80845290828116908115610da75750600114610d4d575b5050610cf881610d19940382612838565b6004549060ff610d276005549260405196879660a0885260a08801906129e7565b9086820360208801526129e7565b6001600160a01b038416604086015260a09390931c161515606084015260808301520390f35b6003600090815260209550917fc2575a0e9e593c00f959f8c92f12db2869c3395a3b0502d05e2516446f71f85b5b828410610d9457505050810190920191610cf881610ce7565b8054858501880152928601928101610d7b565b610d199650610cf893506020915091849260ff191682840152151560051b8201019450610ce7565b505060026000908152602091839190857f405787fa12a823e0f2b7631cc41b3ba8828b3321ca811111fa75cd3aa3bb5ace5b828410610e185750505091610cbe92820101610cb2565b805487850187015286945092850192879101610e01565b60209250610cbe94915060ff191682840152151560051b820101610cb2565b82346101c55760403660031901126101c557610e686127bd565b6001600160a01b03168152600a60205260408120805460243592908310156101c5576020610e968484612a8c565b90546040519160031b1c8152f35b82346101c557610eb336612a0c565b6004549192916001600160a01b03163314801561125d575b610ed490612ae7565b60405163077be64760e11b81526004810184905260c0816024817f00000000000000000000000000000000000000000000000000000000000000006001600160a01b03165afa801561094c5760a091869161123f575b50610f3a60208201511515612bc8565b01518061122f5750600019905b805161102f575b7f00000000000000000000000000000000000000000000000000000000000000006001600160a01b03163b156108bf576040516364a5e39d60e01b81528590818180610f9e898960048401612c1a565b0381837f00000000000000000000000000000000000000000000000000000000000000006001600160a01b03165af180156108c35761101b575b505060206110067f32f4de8cdad93ed7614f817a931bfc74be61a42176ff556514e8e4782e5fc09092612b24565b604051938452936001600160a01b031692a480f35b611024906127ee565b6108bf578486610fd8565b6001600160a01b038316855260066020526040852061104d9061291e565b8051806111f8575b50506001600160a01b038316855260066020526040852081516001600160401b0381116111e45761108682546128e4565b601f811161119e575b50806020601f821160011461113a57889161112f575b508160011b916000199060031b1c19161790555b60405160208183516110ce81838588016129c4565b60079082019081520301902080546001600160a01b0319166001600160a01b0385161790556110fc81612b24565b6001600160a01b0384167fa382aebe7a9b24a15bbf72650fb4bc3d7bd56187e367a46e2830523660bf72808780a3610f4e565b9050830151886110a5565b91508288526020882088925b601f1983168410611186576001935082601f1981161061116d575b5050811b0190556110b9565b85015160001960f88460031b161c191690558880611161565b85810151825560209384019360019092019101611146565b82885260208820601f830160051c810191602084106111da575b601f0160051c01905b8181106111ce575061108f565b600081556001016111c1565b90915081906111b8565b634e487b7160e01b87526041600452602487fd5b6020918161120e849360405180968195016129c4565b60079082019081520301902080546001600160a01b03191690558580611055565b6112399042612c0d565b90610f47565b611257915060c03d8111610945576109378183612838565b86610f2a565b5083546001600160a01b03163314610ecb565b82346101c557806003193601126101c55760405161016081018181106001600160401b0382111761136957604052600a908181526020926101403685840137809260015b818111156113295750506112c783612aa4565b936112d56040519586612838565b838552601f196112e485612aa4565b019036908601375b82811061130557604051806113018682612a51565b0390f35b806113136113249284612e00565b5161131e8287612e00565b52612c46565b6112ec565b8083526008865260ff60056040852001541661134e575b61134990612c46565b6112b4565b93611361818661131e6113499488612e00565b949050611340565b634e487b7160e01b600052604160045260246000fd5b82346101c5576020806003193601126108ce576001600160a01b036113a26127bd565b168252600a815260408220916040518092808554928381520194835280832092905b8282106113e757611301856113db81890382612838565b60405191829182612a51565b8354865294850194600193840193909101906113c4565b82346101c55760203660031901126101c55761130190611439906040906001600160a01b0361142b6127bd565b16815260066020522061291e565b6040519182916020835260208301906129e7565b82346101c55760203660031901126101c557602061147161146c6127bd565b612c55565b6040519015158152f35b82346101c557806003193601126101c557546040516001600160a01b039091168152602090f35b9050346108ce57602091826003193601126101c55760608260043592604051906114cb82612801565b808252838783015280604083015280848301528060808301528060a083015260c082015201526009548110156115ea57611507611301916128af565b506040519261151584612801565b81546001600160a01b039081168552946115316001840161291e565b91818601928352600284015493604087019485526003810154936060880194855260048201546080890190815260058301549160a08a01928352611588600760ff6006870154169560c08d0196151587520161291e565b95858b019687526040519b8c9b828d525116908b015251956115b8610100978860408d01526101208c01906129e7565b975160608b01525160808a01525160a08901525160c0880152511515908601525190601f1985840301908501526129e7565b60405162461bcd60e51b815260048101849052600d60248201526c092dcecc2d8d2c840d2dcc8caf609b1b6044820152606490fd5b82346101c557806003193601126101c557611638612abb565b600080546001600160a01b0319811682556001600160a01b03167f8be0079c531659141344cd1fd0a4f28419497f9722a3daafe3b4186f6b6457e08280a380f35b82346101c55760603660031901126101c5576001600160401b03600435818111610969576116ab903690600401612859565b602435828111610ae4576116c3903690600401612859565b6044356001600160a01b0381169390849003610b61576116e1612abb565b8251908082116118b7576116f66002546128e4565b91601f92838111611939575b508060208482116001146118d65788916118cb575b508160011b916000199060031b1c1916176002555b82519081116118b75760039161174283546128e4565b818111611874575b5060209082116001146117eb57927f5bd2d155ed1076bdd300b62402f71b052eff6f9ed7c9b91d25e3a9477c7f47b89492826117d4936117c6968a916117e0575b508160011b9160001990841b1c19161790555b600480546001600160a01b0319168717905560405160608082529094859490918501906129e7565b9083820360208501526129e7565b4260408301520390a280f35b90508301518a61178b565b82875280872090601f198316885b81811061185c5750836117c696937f5bd2d155ed1076bdd300b62402f71b052eff6f9ed7c9b91d25e3a9477c7f47b89896936117d49660019410611844575b5050811b01905561179e565b85015160001983861b60f8161c191690558a80611838565b9192602060018192868a0151815501940192016117f9565b838852602088208280850160051c820192602086106118ae575b0160051c01905b8181106118a2575061174a565b60008155600101611895565b9250819261188e565b634e487b7160e01b86526041600452602486fd5b905085015188611717565b600289528089209150601f198316895b81811061192157509083600194939210611908575b5050811b0160025561172c565b87015160001960f88460031b161c1916905588806118fb565b9192602060018192868c0151815501940192016118e6565b60028852602088208480840160051c82019260208510611974575b0160051c01905b8181106119685750611702565b6000815560010161195b565b92508192611954565b82346101c55761198c36612a0c565b9091611996612abb565b604051627eeac760e11b8082526001600160a01b03838116600484015260248301869052602094919391927f0000000000000000000000000000000000000000000000000000000000000000821692908681604481875afa908115611ba6578991611b75575b5015611b3b576040519485526001600160a01b0381166004860152602485018790528791908686604481875afa958615610695578396611b0c575b50833b15610969576064908360405195869485936390756fcb60e01b855216988960048501528b602485015260448401525af18015611b0157611ace575b507fe24cf86e0c04b77e4847e32fca39a8887404fcb476d61d1344248f838ae3a4459082865260068452611ab3611aae6040882061291e565b612b24565b93611ac86040519282849384528301906129e7565b0390a480f35b94611afa7fe24cf86e0c04b77e4847e32fca39a8887404fcb476d61d1344248f838ae3a44592966127ee565b9490611a75565b6040513d88823e3d90fd5b9095508681813d8311611b34575b611b248183612838565b8101031261096957519489611a37565b503d611b1a565b60405162461bcd60e51b81526004810187905260126024820152715573657220686173206e6f20746f6b656e7360701b6044820152606490fd5b90508681813d8311611b9f575b611b8c8183612838565b81010312611b9b5751896119fc565b8880fd5b503d611b82565b6040513d8b823e3d90fd5b82346101c557806003193601126101c557611bca612abb565b478015611c855760405163521eb27360e01b81528291906001600160a01b036020826004817f000000000000000000000000000000000000000000000000000000000000000085165afa8015610aef5784928391611c41575b509282939183921682f115611c355780f35b604051903d90823e3d90fd5b919250506020813d8211611c7d575b81611c5d60209383612838565b81010312611c7857518181168103611c785783919082611c23565b505050fd5b3d9150611c50565b60405162461bcd60e51b81526020600482015260166024820152754e6f2062616c616e636520746f20776974686472617760501b6044820152606490fd5b82346101c557602091826003193601126108ce5760405191611ce4836127d3565b80835280606093848682015284604082015284808201528460808201528160a082015260c00152600435815260088452604090209060405192611d26846127d3565b82548452611d366001840161291e565b84860190815290611d496002850161291e565b60408601908152611d5c6003860161291e565b868301908152611d6e6004870161291e565b9160808801928352600587015460ff169660a089019715158852600601549460c08901958652604051998a99818b5251908a0152518660408a01526101008901611db7916129e7565b905190601f1994858a830301908a0152611dd0916129e7565b90519083888203016080890152611de6916129e7565b9051918682030160a0870152611dfb916129e7565b9251151560c085015251908301520390f35b82346101c55760a03660031901126101c5576024356001600160401b0381116108ce57611e3e903690600401612859565b6044356001600160401b03811161096957611e5d903690600401612859565b906064356001600160401b038111610ae457611e7d903690600401612859565b6084356001600160401b0381116108bf57611e9c903690600401612859565b611ea4612abb565b82511561241a5760405190611eb8826127d3565b6004358252602082019284845285604084015260608301526080820152600160a08201524260c082015260043585526008602052604085209181518355518051906001600160401b0382116111e4578190611f1660018601546128e4565b601f81116123ca575b50602090601f8311600114612360578892612355575b50508160011b916000199060031b1c19161760018301555b60408101518051906001600160401b0382116111e4578190611f7260028601546128e4565b601f8111612305575b50602090601f831160011461229b578892612290575b50508160011b916000199060031b1c19161760028301555b60608101518051906001600160401b0382116111e4578190611fce60038601546128e4565b601f8111612240575b50602090601f83116001146121d65788926121cb575b50508160011b916000199060031b1c19161760038301555b60808101518051906001600160401b0382116111e45761202860048501546128e4565b601f8111612183575b50602090601f83116001146120eb577f2216931835abacfee8ecf7175d7be50c406883ba6cd605d1c29789636c8374d99593836120c9969460069460c0948c926120e0575b50508160011b916000199060031b1c19161760048501555b6120ad60a08201511515600586019060ff801983541691151516179055565b01519101556120da6040519283926040845260408401906129e7565b8281036020840152600435956129e7565b0390a280f35b015190508b80612076565b906004850188526020882091885b601f198516811061216b57509360018460069460c0947f2216931835abacfee8ecf7175d7be50c406883ba6cd605d1c29789636c8374d99a986120c99a98601f19811610612152575b505050811b01600485015561208e565b015160001960f88460031b161c191690558b8080612142565b919260206001819286850151815501940192016120f9565b60048501885260208820601f840160051c810191602085106121c1575b601f0160051c01905b8181106121b65750612031565b8881556001016121a9565b90915081906121a0565b015190508780611fed565b600386018952602089209250601f198416895b818110612228575090846001959493921061220f575b505050811b016003830155612005565b015160001960f88460031b161c191690558780806121ff565b929360206001819287860151815501950193016121e9565b90915060038501885260208820601f840160051c810160208510612289575b90849392915b601f830160051c8201811061227b575050611fd7565b8a8155859450600101612265565b508061225f565b015190508780611f91565b600286018952602089209250601f198416895b8181106122ed57509084600195949392106122d4575b505050811b016002830155611fa9565b015160001960f88460031b161c191690558780806122c4565b929360206001819287860151815501950193016122ae565b90915060028501885260208820601f840160051c81016020851061234e575b90849392915b601f830160051c82018110612340575050611f7b565b8a815585945060010161232a565b5080612324565b015190508780611f35565b600186018952602089209250601f198416895b8181106123b25750908460019594939210612399575b505050811b016001830155611f4d565b015160001960f88460031b161c19169055878080612389565b92936020600181928786015181550195019301612373565b90915060018501885260208820601f840160051c810160208510612413575b90849392915b601f830160051c82018110612405575050611f1f565b8a81558594506001016123ef565b50806123e9565b60405162461bcd60e51b815260206004820152600d60248201526c13985b59481c995c5d5a5c9959609a1b6044820152606490fd5b82346101c55760203660031901126101c557600435906009548210156101c55750612479906128af565b509061130160018060a01b03835416916124956001850161291e565b9360028101549160038201549160048101546005820154906124c1600760ff600686015416940161291e565b946124de6040519a8b9a8b526101008060208d01528b01906129e7565b9660408a01526060890152608088015260a0870152151560c0860152848303908501526129e7565b82346101c55760203660031901126101c557600435906001600160401b0382116101c557602061147161253c3660048601612859565b612d56565b82346101c55760403660031901126101c55761255b6127bd565b6001600160401b0391906024358381116109695761257d903690600401612859565b60045490916001600160a01b03918216331480156127b1575b61259f90612ae7565b825115612779571690818352602060068152806125be6040862061291e565b80519081612744575b50505082845260068152604084208251958611612730576125e881546128e4565b601f81116126ed575b508195601f81116001146126895780869761265696979161267e575b508160011b916000199060031b1c19161790555b6040519081835161263581838588016129c4565b60079082019081520301902080546001600160a01b03191684179055612b24565b907fa382aebe7a9b24a15bbf72650fb4bc3d7bd56187e367a46e2830523660bf72808380a380f35b90508401518861260d565b81865282862096601f198216875b8181106126d6575097829160019361265698999a106126bd575b5050811b019055612621565b86015160001960f88460031b161c1916905588806126b1565b868301518a55600190990198918501918501612697565b818652828620601f880160051c810191848910612726575b601f0160051c01905b81811061271b57506125f1565b86815560010161270e565b9091508190612705565b634e487b7160e01b85526041600452602485fd5b81612757849360405180968195016129c4565b60079082019081520301902080546001600160a01b03191690558086806125c7565b60405162461bcd60e51b815260206004820152601060248201526f125b9d985b1a59081a5b989bde08125160821b6044820152606490fd5b50835482163314612596565b600435906001600160a01b0382168203610b6157565b60e081019081106001600160401b0382111761136957604052565b6001600160401b03811161136957604052565b61010081019081106001600160401b0382111761136957604052565b604081019081106001600160401b0382111761136957604052565b90601f801991011681019081106001600160401b0382111761136957604052565b81601f82011215610b61578035906001600160401b038211611369576040519261288d601f8401601f191660200185612838565b82845260208383010111610b6157816000926020809301838601378301015290565b6009548110156128ce57600960005260206000209060031b0190600090565b634e487b7160e01b600052603260045260246000fd5b90600182811c92168015612914575b60208310146128fe57565b634e487b7160e01b600052602260045260246000fd5b91607f16916128f3565b9060405191826000825492612932846128e4565b9081845260019485811690816000146129a1575060011461295e575b505061295c92500383612838565b565b9093915060005260209081600020936000915b81831061298957505061295c9350820101388061294e565b85548884018501529485019487945091830191612971565b91505061295c94506020925060ff191682840152151560051b820101388061294e565b60005b8381106129d75750506000910152565b81810151838201526020016129c7565b90602091612a00815180928185528580860191016129c4565b601f01601f1916010190565b6060600319820112610b61576004356001600160a01b0381168103610b61579160243591604435906001600160401b038211610b6157612a4e91600401612859565b90565b6020908160408183019282815285518094520193019160005b828110612a78575050505090565b835185529381019392810192600101612a6a565b80548210156128ce5760005260206000200190600090565b6001600160401b0381116113695760051b60200190565b6000546001600160a01b03163303612acf57565b60405163118cdaa760e01b8152336004820152602490fd5b15612aee57565b60405162461bcd60e51b815260206004820152600e60248201526d139bdd08185d5d1a1bdc9a5e995960921b6044820152606490fd5b612b3c906020604051928284809451938492016129c4565b810103902090565b51908115158203610b6157565b908160c0910312610b61576040519060c08201908282106001600160401b038311176113695760a09160405280518352612b8d60208201612b44565b6020840152612b9e60408201612b44565b6040840152612baf60608201612b44565b606084015260808101516080840152015160a082015290565b15612bcf57565b60405162461bcd60e51b81526020600482015260166024820152754163636573732074696572206e6f742061637469766560501b6044820152606490fd5b919082018092116106a957565b909160a092600180851b0316825260208201526001604082015260806060820152600060808201520190565b60001981146106a95760010190565b6001805b600a811115612c6a57505050600090565b600081815260206008815260409060ff60058385200154169283612ca4575b505050612c9e57612c9990612c46565b612c59565b50905090565b8251627eeac760e11b81526001600160a01b038816600482015260248101869052929350908083806044810103817f00000000000000000000000000000000000000000000000000000000000000006001600160a01b03165afa938415612d4b57508193612d1a575b5050501515388080612c89565b9091809350813d8311612d44575b612d328183612838565b810103126101c5575051388080612d0d565b503d612d28565b51913d9150823e3d90fd5b6040518151612d6a818360208096016129c4565b600790820190815281900382019020546001600160a01b0316908115612df957604051916395896c2360e01b835260048301528082602481305afa908115612ded57600091612db95750905090565b82813d8311612de6575b612dcd8183612838565b810103126101c55750612ddf90612b44565b8038612c9e565b503d612dc3565b6040513d6000823e3d90fd5b5050600090565b80518210156128ce5760209160051b01019056fea2646970667358221220cb604742498a7078dbeb3e40aa0db9410b931e47fa6d5f2483dfd3e981a1617264736f6c63430008140033405787fa12a823e0f2b7631cc41b3ba8828b3321ca811111fa75cd3aa3bb5acea66cc928b5edb82af9bd49922954155ab7b0942694bea4ce44661d9a8736c688340591c16186b027312157b18dba74a1e46a25295ed940d7d2555ab2a22b2beea2646970667358221220bf842060410e5c10a8b55a12a1d1799a5044b8bd42c601d2d8e3d2b06ddb3c9c64736f6c63430008140033",
  "linkReferences": {},
  "deployedLinkReferences": {}
}