{
  "_format": "hh-sol-artifact-1",
  "contractName": "XMTPGroupExtension",
  "sourceName": "src/extensions/XMTPGroupExtension.sol",
  "abi": [
    {
      "inputs": [
        {
          "internalType": "address",
          "name": "_evmAuth",
          "type": "address"
        },
        {
          "internalType": "string",
          "name": "_salesGroupId",
          "type": "string"
        },
        {
          "internalType": "string",
          "name": "_premiumGroupId",
          "type": "string"
        },
        {
          "internalType": "address",
          "name": "_botAddress",
          "type": "address"
        },
        {
          "internalType": "address",
          "name": "_owner",
          "type": "address"
        }
      ],
      "stateMutability": "nonpayable",
      "type": "constructor"
    },
    {
      "inputs": [
        {
          "internalType": "address",
          "name": "owner",
          "type": "address"
        }
      ],
      "name": "OwnableInvalidOwner",
      "type": "error"
    },
    {
      "inputs": [
        {
          "internalType": "address",
          "name": "account",
          "type": "address"
        }
      ],
      "name": "OwnableUnauthorizedAccount",
      "type": "error"
    },
    {
      "inputs": [],
      "name": "ReentrancyGuardReentrantCall",
      "type": "error"
    },
    {
      "anonymous": false,
      "inputs": [
        {
          "indexed": true,
          "internalType": "address",
          "name": "previousOwner",
          "type": "address"
        },
        {
          "indexed": true,
          "internalType": "address",
          "name": "newOwner",
          "type": "address"
        }
      ],
      "name": "OwnershipTransferred",
      "type": "event"
    },
    {
      "anonymous": false,
      "inputs": [
        {
          "indexed": true,
          "internalType": "uint256",
          "name": "tokenId",
          "type": "uint256"
        },
        {
          "indexed": false,
          "internalType": "string",
          "name": "name",
          "type": "string"
        },
        {
          "indexed": false,
          "internalType": "string",
          "name": "description",
          "type": "string"
        }
      ],
      "name": "XMTPAccessTierSetup",
      "type": "event"
    },
    {
      "anonymous": false,
      "inputs": [
        {
          "indexed": false,
          "internalType": "string",
          "name": "salesGroupId",
          "type": "string"
        },
        {
          "indexed": false,
          "internalType": "string",
          "name": "premiumGroupId",
          "type": "string"
        },
        {
          "indexed": true,
          "internalType": "address",
          "name": "botAddress",
          "type": "address"
        },
        {
          "indexed": false,
          "internalType": "uint256",
          "name": "timestamp",
          "type": "uint256"
        }
      ],
      "name": "XMTPGroupsLinked",
      "type": "event"
    },
    {
      "anonymous": false,
      "inputs": [
        {
          "indexed": true,
          "internalType": "address",
          "name": "user",
          "type": "address"
        },
        {
          "indexed": true,
          "internalType": "string",
          "name": "inboxId",
          "type": "string"
        }
      ],
      "name": "XMTPInboxIdStored",
      "type": "event"
    },
    {
      "anonymous": false,
      "inputs": [
        {
          "indexed": true,
          "internalType": "address",
          "name": "user",
          "type": "address"
        },
        {
          "indexed": true,
          "internalType": "string",
          "name": "userInboxId",
          "type": "string"
        },
        {
          "indexed": true,
          "internalType": "uint256",
          "name": "tokenId",
          "type": "uint256"
        },
        {
          "indexed": false,
          "internalType": "uint256",
          "name": "amount",
          "type": "uint256"
        },
        {
          "indexed": false,
          "internalType": "string",
          "name": "transactionHash",
          "type": "string"
        }
      ],
      "name": "XMTPPurchaseRecorded",
      "type": "event"
    },
    {
      "anonymous": false,
      "inputs": [
        {
          "indexed": true,
          "internalType": "address",
          "name": "user",
          "type": "address"
        },
        {
          "indexed": true,
          "internalType": "string",
          "name": "userInboxId",
          "type": "string"
        },
        {
          "indexed": true,
          "internalType": "uint256",
          "name": "tokenId",
          "type": "uint256"
        },
        {
          "indexed": false,
          "internalType": "uint256",
          "name": "expiresAt",
          "type": "uint256"
        }
      ],
      "name": "XMTPUserAccessGranted",
      "type": "event"
    },
    {
      "anonymous": false,
      "inputs": [
        {
          "indexed": true,
          "internalType": "address",
          "name": "user",
          "type": "address"
        },
        {
          "indexed": true,
          "internalType": "string",
          "name": "userInboxId",
          "type": "string"
        },
        {
          "indexed": true,
          "internalType": "uint256",
          "name": "tokenId",
          "type": "uint256"
        },
        {
          "indexed": false,
          "internalType": "string",
          "name": "reason",
          "type": "string"
        }
      ],
      "name": "XMTPUserAccessRevoked",
      "type": "event"
    },
    {
      "inputs": [
        {
          "internalType": "address[]",
          "name": "users",
          "type": "address[]"
        }
      ],
      "name": "batchCheckXMTPAccess",
      "outputs": [
        {
          "internalType": "bool[]",
          "name": "",
          "type": "bool[]"
        }
      ],
      "stateMutability": "view",
      "type": "function"
    },
    {
      "inputs": [],
      "name": "evmAuth",
      "outputs": [
        {
          "internalType": "contract EVMAuthV2",
          "name": "",
          "type": "address"
        }
      ],
      "stateMutability": "view",
      "type": "function"
    },
    {
      "inputs": [],
      "name": "getActiveXMTPTiers",
      "outputs": [
        {
          "internalType": "uint256[]",
          "name": "",
          "type": "uint256[]"
        }
      ],
      "stateMutability": "view",
      "type": "function"
    },
    {
      "inputs": [],
      "name": "getExtensionInfo",
      "outputs": [
        {
          "internalType": "string",
          "name": "name",
          "type": "string"
        },
        {
          "internalType": "string",
          "name": "version",
          "type": "string"
        },
        {
          "internalType": "address",
          "name": "baseContract",
          "type": "address"
        },
        {
          "internalType": "bool",
          "name": "isActive",
          "type": "bool"
        }
      ],
      "stateMutability": "view",
      "type": "function"
    },
    {
      "inputs": [
        {
          "internalType": "uint256",
          "name": "index",
          "type": "uint256"
        }
      ],
      "name": "getXMTPPurchaseRecord",
      "outputs": [
        {
          "components": [
            {
              "internalType": "address",
              "name": "user",
              "type": "address"
            },
            {
              "internalType": "string",
              "name": "userInboxId",
              "type": "string"
            },
            {
              "internalType": "uint256",
              "name": "tokenId",
              "type": "uint256"
            },
            {
              "internalType": "uint256",
              "name": "purchasePrice",
              "type": "uint256"
            },
            {
              "internalType": "uint256",
              "name": "purchasedAt",
              "type": "uint256"
            },
            {
              "internalType": "uint256",
              "name": "expiresAt",
              "type": "uint256"
            },
            {
              "internalType": "bool",
              "name": "isActive",
              "type": "bool"
            },
            {
              "internalType": "string",
              "name": "transactionHash",
              "type": "string"
            }
          ],
          "internalType": "struct XMTPGroupExtension.XMTPPurchaseRecord",
          "name": "",
          "type": "tuple"
        }
      ],
      "stateMutability": "view",
      "type": "function"
    },
    {
      "inputs": [
        {
          "internalType": "uint256",
          "name": "tokenId",
          "type": "uint256"
        }
      ],
      "name": "getXMTPTier",
      "outputs": [
        {
          "components": [
            {
              "internalType": "uint256",
              "name": "tokenId",
              "type": "uint256"
            },
            {
              "internalType": "string",
              "name": "name",
              "type": "string"
            },
            {
              "internalType": "string",
              "name": "description",
              "type": "string"
            },
            {
              "internalType": "string",
              "name": "imageHash",
              "type": "string"
            },
            {
              "internalType": "string",
              "name": "metadataUri",
              "type": "string"
            },
            {
              "internalType": "bool",
              "name": "isActive",
              "type": "bool"
            },
            {
              "internalType": "uint256",
              "name": "createdAt",
              "type": "uint256"
            }
          ],
          "internalType": "struct XMTPGroupExtension.XMTPAccessTier",
          "name": "",
          "type": "tuple"
        }
      ],
      "stateMutability": "view",
      "type": "function"
    },
    {
      "inputs": [
        {
          "internalType": "address",
          "name": "user",
          "type": "address"
        }
      ],
      "name": "getXMTPUserPurchases",
      "outputs": [
        {
          "internalType": "uint256[]",
          "name": "",
          "type": "uint256[]"
        }
      ],
      "stateMutability": "view",
      "type": "function"
    },
    {
      "inputs": [
        {
          "internalType": "address",
          "name": "user",
          "type": "address"
        },
        {
          "internalType": "uint256",
          "name": "tokenId",
          "type": "uint256"
        },
        {
          "internalType": "string",
          "name": "userInboxId",
          "type": "string"
        }
      ],
      "name": "grantXMTPAccess",
      "outputs": [],
      "stateMutability": "nonpayable",
      "type": "function"
    },
    {
      "inputs": [
        {
          "internalType": "string",
          "name": "inboxId",
          "type": "string"
        }
      ],
      "name": "hasValidAccessByInboxId",
      "outputs": [
        {
          "internalType": "bool",
          "name": "",
          "type": "bool"
        }
      ],
      "stateMutability": "view",
      "type": "function"
    },
    {
      "inputs": [
        {
          "internalType": "address",
          "name": "user",
          "type": "address"
        }
      ],
      "name": "hasValidXMTPAccess",
      "outputs": [
        {
          "internalType": "bool",
          "name": "",
          "type": "bool"
        }
      ],
      "stateMutability": "view",
      "type": "function"
    },
    {
      "inputs": [
        {
          "internalType": "string",
          "name": "",
          "type": "string"
        }
      ],
      "name": "inboxToAddress",
      "outputs": [
        {
          "internalType": "address",
          "name": "",
          "type": "address"
        }
      ],
      "stateMutability": "view",
      "type": "function"
    },
    {
      "inputs": [],
      "name": "owner",
      "outputs": [
        {
          "internalType": "address",
          "name": "",
          "type": "address"
        }
      ],
      "stateMutability": "view",
      "type": "function"
    },
    {
      "inputs": [
        {
          "internalType": "uint256",
          "name": "",
          "type": "uint256"
        }
      ],
      "name": "purchaseHistory",
      "outputs": [
        {
          "internalType": "address",
          "name": "user",
          "type": "address"
        },
        {
          "internalType": "string",
          "name": "userInboxId",
          "type": "string"
        },
        {
          "internalType": "uint256",
          "name": "tokenId",
          "type": "uint256"
        },
        {
          "internalType": "uint256",
          "name": "purchasePrice",
          "type": "uint256"
        },
        {
          "internalType": "uint256",
          "name": "purchasedAt",
          "type": "uint256"
        },
        {
          "internalType": "uint256",
          "name": "expiresAt",
          "type": "uint256"
        },
        {
          "internalType": "bool",
          "name": "isActive",
          "type": "bool"
        },
        {
          "internalType": "string",
          "name": "transactionHash",
          "type": "string"
        }
      ],
      "stateMutability": "view",
      "type": "function"
    },
    {
      "inputs": [
        {
          "internalType": "uint256",
          "name": "tokenId",
          "type": "uint256"
        },
        {
          "internalType": "string",
          "name": "transactionHash",
          "type": "string"
        }
      ],
      "name": "purchaseXMTPAccess",
      "outputs": [],
      "stateMutability": "payable",
      "type": "function"
    },
    {
      "inputs": [],
      "name": "renounceOwnership",
      "outputs": [],
      "stateMutability": "nonpayable",
      "type": "function"
    },
    {
      "inputs": [
        {
          "internalType": "address",
          "name": "user",
          "type": "address"
        },
        {
          "internalType": "uint256",
          "name": "tokenId",
          "type": "uint256"
        },
        {
          "internalType": "string",
          "name": "reason",
          "type": "string"
        }
      ],
      "name": "revokeXMTPAccess",
      "outputs": [],
      "stateMutability": "nonpayable",
      "type": "function"
    },
    {
      "inputs": [
        {
          "internalType": "uint256",
          "name": "tokenId",
          "type": "uint256"
        },
        {
          "internalType": "string",
          "name": "name",
          "type": "string"
        },
        {
          "internalType": "string",
          "name": "description",
          "type": "string"
        },
        {
          "internalType": "string",
          "name": "imageHash",
          "type": "string"
        },
        {
          "internalType": "string",
          "name": "metadataUri",
          "type": "string"
        }
      ],
      "name": "setupXMTPAccessTier",
      "outputs": [],
      "stateMutability": "nonpayable",
      "type": "function"
    },
    {
      "inputs": [
        {
          "internalType": "address",
          "name": "user",
          "type": "address"
        },
        {
          "internalType": "string",
          "name": "inboxId",
          "type": "string"
        }
      ],
      "name": "storeUserInboxId",
      "outputs": [],
      "stateMutability": "nonpayable",
      "type": "function"
    },
    {
      "inputs": [],
      "name": "toggleXMTPIntegration",
      "outputs": [],
      "stateMutability": "nonpayable",
      "type": "function"
    },
    {
      "inputs": [
        {
          "internalType": "address",
          "name": "newOwner",
          "type": "address"
        }
      ],
      "name": "transferOwnership",
      "outputs": [],
      "stateMutability": "nonpayable",
      "type": "function"
    },
    {
      "inputs": [
        {
          "internalType": "string",
          "name": "_salesGroupId",
          "type": "string"
        },
        {
          "internalType": "string",
          "name": "_premiumGroupId",
          "type": "string"
        },
        {
          "internalType": "address",
          "name": "_botAddress",
          "type": "address"
        }
      ],
      "name": "updateXMTPInfo",
      "outputs": [],
      "stateMutability": "nonpayable",
      "type": "function"
    },
    {
      "inputs": [
        {
          "internalType": "address",
          "name": "",
          "type": "address"
        }
      ],
      "name": "userInboxIds",
      "outputs": [
        {
          "internalType": "string",
          "name": "",
          "type": "string"
        }
      ],
      "stateMutability": "view",
      "type": "function"
    },
    {
      "inputs": [
        {
          "internalType": "address",
          "name": "",
          "type": "address"
        },
        {
          "internalType": "uint256",
          "name": "",
          "type": "uint256"
        }
      ],
      "name": "userPurchases",
      "outputs": [
        {
          "internalType": "uint256",
          "name": "",
          "type": "uint256"
        }
      ],
      "stateMutability": "view",
      "type": "function"
    },
    {
      "inputs": [],
      "name": "withdraw",
      "outputs": [],
      "stateMutability": "nonpayable",
      "type": "function"
    },
    {
      "inputs": [],
      "name": "xmtpInfo",
      "outputs": [
        {
          "internalType": "string",
          "name": "salesGroupId",
          "type": "string"
        },
        {
          "internalType": "string",
          "name": "premiumGroupId",
          "type": "string"
        },
        {
          "internalType": "address",
          "name": "botAddress",
          "type": "address"
        },
        {
          "internalType": "bool",
          "name": "isActive",
          "type": "bool"
        },
        {
          "internalType": "uint256",
          "name": "linkedAt",
          "type": "uint256"
        }
      ],
      "stateMutability": "view",
      "type": "function"
    },
    {
      "inputs": [
        {
          "internalType": "uint256",
          "name": "",
          "type": "uint256"
        }
      ],
      "name": "xmtpTiers",
      "outputs": [
        {
          "internalType": "uint256",
          "name": "tokenId",
          "type": "uint256"
        },
        {
          "internalType": "string",
          "name": "name",
          "type": "string"
        },
        {
          "internalType": "string",
          "name": "description",
          "type": "string"
        },
        {
          "internalType": "string",
          "name": "imageHash",
          "type": "string"
        },
        {
          "internalType": "string",
          "name": "metadataUri",
          "type": "string"
        },
        {
          "internalType": "bool",
          "name": "isActive",
          "type": "bool"
        },
        {
          "internalType": "uint256",
          "name": "createdAt",
          "type": "uint256"
        }
      ],
      "stateMutability": "view",
      "type": "function"
    }
  ],
  "bytecode": "0x604060a0815234620005bc576200350a803803806200001e81620005c1565b928339810160a082820312620005bc576200003982620005e7565b60208301519092906001600160401b038111620005bc57826200005e91830162000621565b8185015190926001600160401b038211620005bc576200008091830162000621565b906200008f60608201620005e7565b906001600160a01b0390620000a790608001620005e7565b16938415620005a457600080546001600160a01b0319811687178255875196916001600160a01b03909116907f8be0079c531659141344cd1fd0a4f28419497f9722a3daafe3b4186f6b6457e09080a3600180556001600160a01b03169384156200056257506001600160a01b03169283156200051e57608052835160a081016001600160401b038111828210176200041f578552828152602081018290528085018490526001606082015242608082015282516001600160401b0381116200041f57600254600181811c9116801562000513575b6020821014620003fe57601f8111620004ba575b50806020601f8211600114620004415760009162000435575b508160011b916000199060031b1c1916176002555b602081015180516001600160401b0381116200041f576003918254600181811c9116801562000414575b6020821014620003fe57601f8111620003b1575b50602090601f8311600114620003165793620002b39383620002a497946080947f5bd2d155ed1076bdd300b62402f71b052eff6f9ed7c9b91d25e3a9477c7f47b89a986000926200030a575b50508160011b9160001990841b1c19161790555b60018060a01b0389820151166004549060ff60a01b6060840151151560a01b169160018060a81b03191617176004550151600555865193849360608552606085019062000678565b90838203602085015262000678565b42868301520390a251612e4a9081620006a0823960805181818161034401528181610b7c01528181610c3901528181610ef001528181610f5001528181610fa3015281816119c301528181611bf10152612cd40152f35b01519050388062000248565b90601f198316918460005260206000209260005b818110620003985750846080947f5bd2d155ed1076bdd300b62402f71b052eff6f9ed7c9b91d25e3a9477c7f47b89a9894620002b39894620002a49b98600195106200037f575b505050811b0190556200025c565b015160001983861b60f8161c1916905538808062000371565b929360206001819287860151815501950193016200032a565b836000526020600020601f840160051c81019160208510620003f3575b601f0160051c01905b818110620003e65750620001fc565b60008155600101620003d7565b9091508190620003ce565b634e487b7160e01b600052602260045260246000fd5b90607f1690620001e8565b634e487b7160e01b600052604160045260246000fd5b905084015138620001a9565b600260009081529250600080516020620034ea833981519152905b601f1983168410620004a1576001935082601f1981161062000487575b5050811b01600255620001be565b86015160001960f88460031b161c19169055388062000479565b868101518255602093840193600190920191016200045c565b6002600052600080516020620034ea833981519152601f830160051c8101916020841062000508575b601f0160051c01905b818110620004fb575062000190565b60008155600101620004ec565b9091508190620004e3565b90607f16906200017c565b845162461bcd60e51b815260206004820152601360248201527f496e76616c696420626f742061646472657373000000000000000000000000006044820152606490fd5b62461bcd60e51b815260206004820152601760248201527f496e76616c69642045564d4175746820616464726573730000000000000000006044820152606490fd5b8551631e4fbdf760e01b815260006004820152602490fd5b600080fd5b6040519190601f01601f191682016001600160401b038111838210176200041f57604052565b51906001600160a01b0382168203620005bc57565b60005b838110620006105750506000910152565b8181015183820152602001620005ff565b81601f82011215620005bc5780516001600160401b0381116200041f5762000653601f8201601f1916602001620005c1565b9281845260208284010111620005bc57620006759160208085019101620005fc565b90565b906020916200069381518092818552858086019101620005fc565b601f01601f191601019056fe6080604052600436101561001257600080fd5b600060e08135811c908163030c61fb146125415781630a035284146125065781632829fc531461244f57816335392c0d14611e0d57816336945d1614611cc35781633ccfd60b14611bb157816349351a8b1461197d5781635239457314611679578163715018a61461161f5781637bf305bd146114a25781638da5cb5b1461147b57816395896c231461144d578163b2610aaa146113fe578163b3f240911461137f578163c50ba84514611270578163cb88e11614610ea4578163cf2c033414610e4e578163d0c2ed9f14610c72578163d6f4394914610bab578163d878c21314610b66578163dafba100146109aa578163e3d2d03a1461096d578163e4df4ea7146102f0578163e866090314610287578163edfc63d2146101c8575063f2fde38b1461013e57600080fd5b346101c55760203660031901126101c5576101576127bd565b61015f612abb565b6001600160a01b039081169081156101ac576000548260018060a01b0319821617600055167f8be0079c531659141344cd1fd0a4f28419497f9722a3daafe3b4186f6b6457e0600080a380f35b604051631e4fbdf760e01b815260048101849052602490fd5b80fd5b82346101c55760203660031901126101c55760409060043581526008602052208054906101f76001820161291e565b6102766102066002840161291e565b6102686102156003860161291e565b61025a6102246004880161291e565b9361024c600660ff60058b015416990154976040519b8c9b8c528060208d01528b01906129e7565b9089820360408b01526129e7565b9087820360608901526129e7565b9085820360808701526129e7565b91151560a084015260c08301520390f35b82346101c55760203660031901126101c557600435906001600160401b0382116101c55760206102ba3660048501612859565b816102ce60405192838151938492016129c4565b600790820190815281900382019020546040516001600160a01b039091168152f35b905060403660031901126108ce576024356001600160401b0381116109695761031d903690600401612859565b9060026001541461095757600260015560405163077be64760e11b815260048035908201527f00000000000000000000000000000000000000000000000000000000000000006001600160a01b0316919060c081602481865afa90811561094c57859161091e575b5061039560208201511515612bc8565b608081015134106108e2578460a082015180156000146108d25750600019935b803b156108ce578160405180926364a5e39d60e01b82528183816103df6004353360048401612c1a565b03925af180156108c3576108ab575b505033855260066020526104046040862061291e565b916040519061041282612801565b338252602082019184835260043560408201523460608201524260808201528560a0820152600160c08201528682820152600954600160401b8110156106bf5780600161046292016009556128af565b93909361089757815184546001600160a01b0319166001600160a01b0391909116178455518051906001600160401b0382116108835781906104a760018701546128e4565b601f8111610832575b50602090601f83116001146107c3578b926107b8575b50508160011b916000199060031b1c19161760018401555b60408101516002840155606081015160038401556080810151600484015560a0810151600584015561052560c08201511515600685019060ff801983541691151516179055565b01518051906001600160401b0382116107a45761054560078401546128e4565b601f811161075f575b50602090601f83116001146106f257600792918991836106e7575b50508160011b916000199060031b1c1916179101555b338552600a60205260408520600954600019918282019182116106d357805490600160401b8210156106bf57816105c0916001608097969594018155612a8c565b909283549160031b92831b921b1916179055015180341161066d575b5061061f916105ea82612b24565b604051918252600435917f32f4de8cdad93ed7614f817a931bfc74be61a42176ff556514e8e4782e5fc09060203392a4612b24565b6040519160018352604060208401527f29de0b0001747bdcd5eacf8a7e2706bc1551dbd028a6263dd9ae394ec1f635ff6004359380610663339460408301906129e7565b0390a46001805580f35b803403903482116106a957858080938193829034146106a0575b3390f11561069557386105dc565b6040513d85823e3d90fd5b506108fc610687565b634e487b7160e01b600052601160045260246000fd5b634e487b7160e01b89526041600452602489fd5b634e487b7160e01b88526011600452602488fd5b015190503880610569565b906007840189526020892091895b601f19851681106107475750918391600193600795601f1981161061072e575b505050811b0191015561057f565b015160001960f88460031b161c19169055388080610720565b91926020600181928685015181550194019201610700565b60078401895260208920601f840160051c81016020851061079d575b601f830160051c8201811061079157505061054e565b6000815560010161077b565b508061077b565b634e487b7160e01b88526041600452602488fd5b0151905038806104c6565b9250600186018b5260208b20908b935b601f1984168510610817576001945083601f198116106107fe575b505050811b0160018401556104de565b015160001960f88460031b161c191690553880806107ee565b818101518355602094850194600190930192909101906107d3565b909150600186018b5260208b20601f840160051c81016020851061087c575b90849392915b601f830160051c8201811061086d5750506104b0565b60008155859450600101610857565b5080610851565b634e487b7160e01b8a52604160045260248afd5b634e487b7160e01b89526004899052602489fd5b6108b4906127ee565b6108bf5784386103ee565b8480fd5b6040513d84823e3d90fd5b5080fd5b6108dc9042612c0d565b936103b5565b60405162461bcd60e51b8152602060048201526014602482015273125b9cdd59999a58da595b9d081c185e5b595b9d60621b6044820152606490fd5b61093f915060c03d8111610945575b6109378183612838565b810190612b51565b38610385565b503d61092d565b6040513d87823e3d90fd5b604051633ee5aeb560e01b8152600490fd5b8280fd5b82346101c557806003193601126101c557610986612abb565b6004805460ff60a01b19811660a091821c60ff161590911b60ff60a01b1617905580f35b82346101c557602090816003193601126101c557600435906001600160401b0382116101c557366023830112156101c55781600401356109e981612aa4565b926109f76040519485612838565b8184528484016024809360051b830101913683116108bf578301905b828210610b4257505050825191610a42610a2c84612aa4565b93610a3a6040519586612838565b808552612aa4565b8386019490601f1901368637815b8151811015610afa576001600160a01b03610a6b8284612e00565b516040516395896c2360e01b8152911660048201529087828681305afa8015610aef578490610ab3575b610aae9250610aa48288612e00565b9015159052612c46565b610a50565b50908781813d8311610ae8575b610aca8183612838565b81010312610ae45790610adf610aae92612b44565b610a95565b8380fd5b503d610ac0565b6040513d86823e3d90fd5b505090509291909260405193838594850191818652518092526040850193925b828110610b2957505050500390f35b8351151585528695509381019392810192600101610b1a565b81356001600160a01b0381168103610b61578152908601908601610a13565b600080fd5b82346101c557806003193601126101c5576040517f00000000000000000000000000000000000000000000000000000000000000006001600160a01b03168152602090f35b82346101c557806003193601126101c557610c2960ff60045460a01c1660405190610bd58261281d565b60128252712c26aa2823b937bab822bc3a32b739b4b7b760711b6020830152610c37604051610c038161281d565b60058152640312e302e360dc1b60208201526040519485946080865260808601906129e7565b9084820360208601526129e7565b7f00000000000000000000000000000000000000000000000000000000000000006001600160a01b0316604084015290151560608301520390f35b82346101c557806003193601126101c55760405160025490600081610c96846128e4565b918282526001948581169081600014610e2f5750600114610dcf575b610cbe92500382612838565b604051600092600354610cd0816128e4565b80845290828116908115610da75750600114610d4d575b5050610cf881610d19940382612838565b6004549060ff610d276005549260405196879660a0885260a08801906129e7565b9086820360208801526129e7565b6001600160a01b038416604086015260a09390931c161515606084015260808301520390f35b6003600090815260209550917fc2575a0e9e593c00f959f8c92f12db2869c3395a3b0502d05e2516446f71f85b5b828410610d9457505050810190920191610cf881610ce7565b8054858501880152928601928101610d7b565b610d199650610cf893506020915091849260ff191682840152151560051b8201019450610ce7565b505060026000908152602091839190857f405787fa12a823e0f2b7631cc41b3ba8828b3321ca811111fa75cd3aa3bb5ace5b828410610e185750505091610cbe92820101610cb2565b805487850187015286945092850192879101610e01565b60209250610cbe94915060ff191682840152151560051b820101610cb2565b82346101c55760403660031901126101c557610e686127bd565b6001600160a01b03168152600a60205260408120805460243592908310156101c5576020610e968484612a8c565b90546040519160031b1c8152f35b82346101c557610eb336612a0c565b6004549192916001600160a01b03163314801561125d575b610ed490612ae7565b60405163077be64760e11b81526004810184905260c0816024817f00000000000000000000000000000000000000000000000000000000000000006001600160a01b03165afa801561094c5760a091869161123f575b50610f3a60208201511515612bc8565b01518061122f5750600019905b805161102f575b7f00000000000000000000000000000000000000000000000000000000000000006001600160a01b03163b156108bf576040516364a5e39d60e01b81528590818180610f9e898960048401612c1a565b0381837f00000000000000000000000000000000000000000000000000000000000000006001600160a01b03165af180156108c35761101b575b505060206110067f32f4de8cdad93ed7614f817a931bfc74be61a42176ff556514e8e4782e5fc09092612b24565b604051938452936001600160a01b031692a480f35b611024906127ee565b6108bf578486610fd8565b6001600160a01b038316855260066020526040852061104d9061291e565b8051806111f8575b50506001600160a01b038316855260066020526040852081516001600160401b0381116111e45761108682546128e4565b601f811161119e575b50806020601f821160011461113a57889161112f575b508160011b916000199060031b1c19161790555b60405160208183516110ce81838588016129c4565b60079082019081520301902080546001600160a01b0319166001600160a01b0385161790556110fc81612b24565b6001600160a01b0384167fa382aebe7a9b24a15bbf72650fb4bc3d7bd56187e367a46e2830523660bf72808780a3610f4e565b9050830151886110a5565b91508288526020882088925b601f1983168410611186576001935082601f1981161061116d575b5050811b0190556110b9565b85015160001960f88460031b161c191690558880611161565b85810151825560209384019360019092019101611146565b82885260208820601f830160051c810191602084106111da575b601f0160051c01905b8181106111ce575061108f565b600081556001016111c1565b90915081906111b8565b634e487b7160e01b87526041600452602487fd5b6020918161120e849360405180968195016129c4565b60079082019081520301902080546001600160a01b03191690558580611055565b6112399042612c0d565b90610f47565b611257915060c03d8111610945576109378183612838565b86610f2a565b5083546001600160a01b03163314610ecb565b82346101c557806003193601126101c55760405161016081018181106001600160401b0382111761136957604052600a908181526020926101403685840137809260015b818111156113295750506112c783612aa4565b936112d56040519586612838565b838552601f196112e485612aa4565b019036908601375b82811061130557604051806113018682612a51565b0390f35b806113136113249284612e00565b5161131e8287612e00565b52612c46565b6112ec565b8083526008865260ff60056040852001541661134e575b61134990612c46565b6112b4565b93611361818661131e6113499488612e00565b949050611340565b634e487b7160e01b600052604160045260246000fd5b82346101c5576020806003193601126108ce576001600160a01b036113a26127bd565b168252600a815260408220916040518092808554928381520194835280832092905b8282106113e757611301856113db81890382612838565b60405191829182612a51565b8354865294850194600193840193909101906113c4565b82346101c55760203660031901126101c55761130190611439906040906001600160a01b0361142b6127bd565b16815260066020522061291e565b6040519182916020835260208301906129e7565b82346101c55760203660031901126101c557602061147161146c6127bd565b612c55565b6040519015158152f35b82346101c557806003193601126101c557546040516001600160a01b039091168152602090f35b9050346108ce57602091826003193601126101c55760608260043592604051906114cb82612801565b808252838783015280604083015280848301528060808301528060a083015260c082015201526009548110156115ea57611507611301916128af565b506040519261151584612801565b81546001600160a01b039081168552946115316001840161291e565b91818601928352600284015493604087019485526003810154936060880194855260048201546080890190815260058301549160a08a01928352611588600760ff6006870154169560c08d0196151587520161291e565b95858b019687526040519b8c9b828d525116908b015251956115b8610100978860408d01526101208c01906129e7565b975160608b01525160808a01525160a08901525160c0880152511515908601525190601f1985840301908501526129e7565b60405162461bcd60e51b815260048101849052600d60248201526c092dcecc2d8d2c840d2dcc8caf609b1b6044820152606490fd5b82346101c557806003193601126101c557611638612abb565b600080546001600160a01b0319811682556001600160a01b03167f8be0079c531659141344cd1fd0a4f28419497f9722a3daafe3b4186f6b6457e08280a380f35b82346101c55760603660031901126101c5576001600160401b03600435818111610969576116ab903690600401612859565b602435828111610ae4576116c3903690600401612859565b6044356001600160a01b0381169390849003610b61576116e1612abb565b8251908082116118b7576116f66002546128e4565b91601f92838111611939575b508060208482116001146118d65788916118cb575b508160011b916000199060031b1c1916176002555b82519081116118b75760039161174283546128e4565b818111611874575b5060209082116001146117eb57927f5bd2d155ed1076bdd300b62402f71b052eff6f9ed7c9b91d25e3a9477c7f47b89492826117d4936117c6968a916117e0575b508160011b9160001990841b1c19161790555b600480546001600160a01b0319168717905560405160608082529094859490918501906129e7565b9083820360208501526129e7565b4260408301520390a280f35b90508301518a61178b565b82875280872090601f198316885b81811061185c5750836117c696937f5bd2d155ed1076bdd300b62402f71b052eff6f9ed7c9b91d25e3a9477c7f47b89896936117d49660019410611844575b5050811b01905561179e565b85015160001983861b60f8161c191690558a80611838565b9192602060018192868a0151815501940192016117f9565b838852602088208280850160051c820192602086106118ae575b0160051c01905b8181106118a2575061174a565b60008155600101611895565b9250819261188e565b634e487b7160e01b86526041600452602486fd5b905085015188611717565b600289528089209150601f198316895b81811061192157509083600194939210611908575b5050811b0160025561172c565b87015160001960f88460031b161c1916905588806118fb565b9192602060018192868c0151815501940192016118e6565b60028852602088208480840160051c82019260208510611974575b0160051c01905b8181106119685750611702565b6000815560010161195b565b92508192611954565b82346101c55761198c36612a0c565b9091611996612abb565b604051627eeac760e11b8082526001600160a01b03838116600484015260248301869052602094919391927f0000000000000000000000000000000000000000000000000000000000000000821692908681604481875afa908115611ba6578991611b75575b5015611b3b576040519485526001600160a01b0381166004860152602485018790528791908686604481875afa958615610695578396611b0c575b50833b15610969576064908360405195869485936390756fcb60e01b855216988960048501528b602485015260448401525af18015611b0157611ace575b507fe24cf86e0c04b77e4847e32fca39a8887404fcb476d61d1344248f838ae3a4459082865260068452611ab3611aae6040882061291e565b612b24565b93611ac86040519282849384528301906129e7565b0390a480f35b94611afa7fe24cf86e0c04b77e4847e32fca39a8887404fcb476d61d1344248f838ae3a44592966127ee565b9490611a75565b6040513d88823e3d90fd5b9095508681813d8311611b34575b611b248183612838565b8101031261096957519489611a37565b503d611b1a565b60405162461bcd60e51b81526004810187905260126024820152715573657220686173206e6f20746f6b656e7360701b6044820152606490fd5b90508681813d8311611b9f575b611b8c8183612838565b81010312611b9b5751896119fc565b8880fd5b503d611b82565b6040513d8b823e3d90fd5b82346101c557806003193601126101c557611bca612abb565b478015611c855760405163521eb27360e01b81528291906001600160a01b036020826004817f000000000000000000000000000000000000000000000000000000000000000085165afa8015610aef5784928391611c41575b509282939183921682f115611c355780f35b604051903d90823e3d90fd5b919250506020813d8211611c7d575b81611c5d60209383612838565b81010312611c7857518181168103611c785783919082611c23565b505050fd5b3d9150611c50565b60405162461bcd60e51b81526020600482015260166024820152754e6f2062616c616e636520746f20776974686472617760501b6044820152606490fd5b82346101c557602091826003193601126108ce5760405191611ce4836127d3565b80835280606093848682015284604082015284808201528460808201528160a082015260c00152600435815260088452604090209060405192611d26846127d3565b82548452611d366001840161291e565b84860190815290611d496002850161291e565b60408601908152611d5c6003860161291e565b868301908152611d6e6004870161291e565b9160808801928352600587015460ff169660a089019715158852600601549460c08901958652604051998a99818b5251908a0152518660408a01526101008901611db7916129e7565b905190601f1994858a830301908a0152611dd0916129e7565b90519083888203016080890152611de6916129e7565b9051918682030160a0870152611dfb916129e7565b9251151560c085015251908301520390f35b82346101c55760a03660031901126101c5576024356001600160401b0381116108ce57611e3e903690600401612859565b6044356001600160401b03811161096957611e5d903690600401612859565b906064356001600160401b038111610ae457611e7d903690600401612859565b6084356001600160401b0381116108bf57611e9c903690600401612859565b611ea4612abb565b82511561241a5760405190611eb8826127d3565b6004358252602082019284845285604084015260608301526080820152600160a08201524260c082015260043585526008602052604085209181518355518051906001600160401b0382116111e4578190611f1660018601546128e4565b601f81116123ca575b50602090601f8311600114612360578892612355575b50508160011b916000199060031b1c19161760018301555b60408101518051906001600160401b0382116111e4578190611f7260028601546128e4565b601f8111612305575b50602090601f831160011461229b578892612290575b50508160011b916000199060031b1c19161760028301555b60608101518051906001600160401b0382116111e4578190611fce60038601546128e4565b601f8111612240575b50602090601f83116001146121d65788926121cb575b50508160011b916000199060031b1c19161760038301555b60808101518051906001600160401b0382116111e45761202860048501546128e4565b601f8111612183575b50602090601f83116001146120eb577f2216931835abacfee8ecf7175d7be50c406883ba6cd605d1c29789636c8374d99593836120c9969460069460c0948c926120e0575b50508160011b916000199060031b1c19161760048501555b6120ad60a08201511515600586019060ff801983541691151516179055565b01519101556120da6040519283926040845260408401906129e7565b8281036020840152600435956129e7565b0390a280f35b015190508b80612076565b906004850188526020882091885b601f198516811061216b57509360018460069460c0947f2216931835abacfee8ecf7175d7be50c406883ba6cd605d1c29789636c8374d99a986120c99a98601f19811610612152575b505050811b01600485015561208e565b015160001960f88460031b161c191690558b8080612142565b919260206001819286850151815501940192016120f9565b60048501885260208820601f840160051c810191602085106121c1575b601f0160051c01905b8181106121b65750612031565b8881556001016121a9565b90915081906121a0565b015190508780611fed565b600386018952602089209250601f198416895b818110612228575090846001959493921061220f575b505050811b016003830155612005565b015160001960f88460031b161c191690558780806121ff565b929360206001819287860151815501950193016121e9565b90915060038501885260208820601f840160051c810160208510612289575b90849392915b601f830160051c8201811061227b575050611fd7565b8a8155859450600101612265565b508061225f565b015190508780611f91565b600286018952602089209250601f198416895b8181106122ed57509084600195949392106122d4575b505050811b016002830155611fa9565b015160001960f88460031b161c191690558780806122c4565b929360206001819287860151815501950193016122ae565b90915060028501885260208820601f840160051c81016020851061234e575b90849392915b601f830160051c82018110612340575050611f7b565b8a815585945060010161232a565b5080612324565b015190508780611f35565b600186018952602089209250601f198416895b8181106123b25750908460019594939210612399575b505050811b016001830155611f4d565b015160001960f88460031b161c19169055878080612389565b92936020600181928786015181550195019301612373565b90915060018501885260208820601f840160051c810160208510612413575b90849392915b601f830160051c82018110612405575050611f1f565b8a81558594506001016123ef565b50806123e9565b60405162461bcd60e51b815260206004820152600d60248201526c13985b59481c995c5d5a5c9959609a1b6044820152606490fd5b82346101c55760203660031901126101c557600435906009548210156101c55750612479906128af565b509061130160018060a01b03835416916124956001850161291e565b9360028101549160038201549160048101546005820154906124c1600760ff600686015416940161291e565b946124de6040519a8b9a8b526101008060208d01528b01906129e7565b9660408a01526060890152608088015260a0870152151560c0860152848303908501526129e7565b82346101c55760203660031901126101c557600435906001600160401b0382116101c557602061147161253c3660048601612859565b612d56565b82346101c55760403660031901126101c55761255b6127bd565b6001600160401b0391906024358381116109695761257d903690600401612859565b60045490916001600160a01b03918216331480156127b1575b61259f90612ae7565b825115612779571690818352602060068152806125be6040862061291e565b80519081612744575b50505082845260068152604084208251958611612730576125e881546128e4565b601f81116126ed575b508195601f81116001146126895780869761265696979161267e575b508160011b916000199060031b1c19161790555b6040519081835161263581838588016129c4565b60079082019081520301902080546001600160a01b03191684179055612b24565b907fa382aebe7a9b24a15bbf72650fb4bc3d7bd56187e367a46e2830523660bf72808380a380f35b90508401518861260d565b81865282862096601f198216875b8181106126d6575097829160019361265698999a106126bd575b5050811b019055612621565b86015160001960f88460031b161c1916905588806126b1565b868301518a55600190990198918501918501612697565b818652828620601f880160051c810191848910612726575b601f0160051c01905b81811061271b57506125f1565b86815560010161270e565b9091508190612705565b634e487b7160e01b85526041600452602485fd5b81612757849360405180968195016129c4565b60079082019081520301902080546001600160a01b03191690558086806125c7565b60405162461bcd60e51b815260206004820152601060248201526f125b9d985b1a59081a5b989bde08125160821b6044820152606490fd5b50835482163314612596565b600435906001600160a01b0382168203610b6157565b60e081019081106001600160401b0382111761136957604052565b6001600160401b03811161136957604052565b61010081019081106001600160401b0382111761136957604052565b604081019081106001600160401b0382111761136957604052565b90601f801991011681019081106001600160401b0382111761136957604052565b81601f82011215610b61578035906001600160401b038211611369576040519261288d601f8401601f191660200185612838565b82845260208383010111610b6157816000926020809301838601378301015290565b6009548110156128ce57600960005260206000209060031b0190600090565b634e487b7160e01b600052603260045260246000fd5b90600182811c92168015612914575b60208310146128fe57565b634e487b7160e01b600052602260045260246000fd5b91607f16916128f3565b9060405191826000825492612932846128e4565b9081845260019485811690816000146129a1575060011461295e575b505061295c92500383612838565b565b9093915060005260209081600020936000915b81831061298957505061295c9350820101388061294e565b85548884018501529485019487945091830191612971565b91505061295c94506020925060ff191682840152151560051b820101388061294e565b60005b8381106129d75750506000910152565b81810151838201526020016129c7565b90602091612a00815180928185528580860191016129c4565b601f01601f1916010190565b6060600319820112610b61576004356001600160a01b0381168103610b61579160243591604435906001600160401b038211610b6157612a4e91600401612859565b90565b6020908160408183019282815285518094520193019160005b828110612a78575050505090565b835185529381019392810192600101612a6a565b80548210156128ce5760005260206000200190600090565b6001600160401b0381116113695760051b60200190565b6000546001600160a01b03163303612acf57565b60405163118cdaa760e01b8152336004820152602490fd5b15612aee57565b60405162461bcd60e51b815260206004820152600e60248201526d139bdd08185d5d1a1bdc9a5e995960921b6044820152606490fd5b612b3c906020604051928284809451938492016129c4565b810103902090565b51908115158203610b6157565b908160c0910312610b61576040519060c08201908282106001600160401b038311176113695760a09160405280518352612b8d60208201612b44565b6020840152612b9e60408201612b44565b6040840152612baf60608201612b44565b606084015260808101516080840152015160a082015290565b15612bcf57565b60405162461bcd60e51b81526020600482015260166024820152754163636573732074696572206e6f742061637469766560501b6044820152606490fd5b919082018092116106a957565b909160a092600180851b0316825260208201526001604082015260806060820152600060808201520190565b60001981146106a95760010190565b6001805b600a811115612c6a57505050600090565b600081815260206008815260409060ff60058385200154169283612ca4575b505050612c9e57612c9990612c46565b612c59565b50905090565b8251627eeac760e11b81526001600160a01b038816600482015260248101869052929350908083806044810103817f00000000000000000000000000000000000000000000000000000000000000006001600160a01b03165afa938415612d4b57508193612d1a575b5050501515388080612c89565b9091809350813d8311612d44575b612d328183612838565b810103126101c5575051388080612d0d565b503d612d28565b51913d9150823e3d90fd5b6040518151612d6a818360208096016129c4565b600790820190815281900382019020546001600160a01b0316908115612df957604051916395896c2360e01b835260048301528082602481305afa908115612ded57600091612db95750905090565b82813d8311612de6575b612dcd8183612838565b810103126101c55750612ddf90612b44565b8038612c9e565b503d612dc3565b6040513d6000823e3d90fd5b5050600090565b80518210156128ce5760209160051b01019056fea2646970667358221220cb604742498a7078dbeb3e40aa0db9410b931e47fa6d5f2483dfd3e981a1617264736f6c63430008140033405787fa12a823e0f2b7631cc41b3ba8828b3321ca811111fa75cd3aa3bb5ace",
  "linkReferences": {},
  "deployedLinkReferences": {}
}