{
  "_format": "hh-sol-artifact-1",
  "contractName": "XMTPGroupExtension",
  "sourceName": "src/extensions/XMTPGroupExtension.sol",
  "abi": [
    {
      "inputs": [
        {
          "internalType": "address",
          "name": "_evmAuth",
          "type": "address"
        },
        {
          "internalType": "string",
          "name": "_salesGroupId",
          "type": "string"
        },
        {
          "internalType": "string",
          "name": "_premiumGroupId",
          "type": "string"
        },
        {
          "internalType": "address",
          "name": "_botAddress",
          "type": "address"
        },
        {
          "internalType": "address",
          "name": "_owner",
          "type": "address"
        }
      ],
      "stateMutability": "nonpayable",
      "type": "constructor"
    },
    {
      "inputs": [
        {
          "internalType": "address",
          "name": "owner",
          "type": "address"
        }
      ],
      "name": "OwnableInvalidOwner",
      "type": "error"
    },
    {
      "inputs": [
        {
          "internalType": "address",
          "name": "account",
          "type": "address"
        }
      ],
      "name": "OwnableUnauthorizedAccount",
      "type": "error"
    },
    {
      "inputs": [],
      "name": "ReentrancyGuardReentrantCall",
      "type": "error"
    },
    {
      "anonymous": false,
      "inputs": [
        {
          "indexed": true,
          "internalType": "address",
          "name": "previousOwner",
          "type": "address"
        },
        {
          "indexed": true,
          "internalType": "address",
          "name": "newOwner",
          "type": "address"
        }
      ],
      "name": "OwnershipTransferred",
      "type": "event"
    },
    {
      "anonymous": false,
      "inputs": [
        {
          "indexed": true,
          "internalType": "uint256",
          "name": "tokenId",
          "type": "uint256"
        },
        {
          "indexed": false,
          "internalType": "string",
          "name": "name",
          "type": "string"
        },
        {
          "indexed": false,
          "internalType": "string",
          "name": "description",
          "type": "string"
        }
      ],
      "name": "XMTPAccessTierSetup",
      "type": "event"
    },
    {
      "anonymous": false,
      "inputs": [
        {
          "indexed": false,
          "internalType": "string",
          "name": "salesGroupId",
          "type": "string"
        },
        {
          "indexed": false,
          "internalType": "string",
          "name": "premiumGroupId",
          "type": "string"
        },
        {
          "indexed": true,
          "internalType": "address",
          "name": "botAddress",
          "type": "address"
        },
        {
          "indexed": false,
          "internalType": "uint256",
          "name": "timestamp",
          "type": "uint256"
        }
      ],
      "name": "XMTPGroupsLinked",
      "type": "event"
    },
    {
      "anonymous": false,
      "inputs": [
        {
          "indexed": true,
          "internalType": "address",
          "name": "user",
          "type": "address"
        },
        {
          "indexed": true,
          "internalType": "string",
          "name": "inboxId",
          "type": "string"
        }
      ],
      "name": "XMTPInboxIdStored",
      "type": "event"
    },
    {
      "anonymous": false,
      "inputs": [
        {
          "indexed": true,
          "internalType": "address",
          "name": "user",
          "type": "address"
        },
        {
          "indexed": true,
          "internalType": "string",
          "name": "userInboxId",
          "type": "string"
        },
        {
          "indexed": true,
          "internalType": "uint256",
          "name": "tokenId",
          "type": "uint256"
        },
        {
          "indexed": false,
          "internalType": "uint256",
          "name": "amount",
          "type": "uint256"
        },
        {
          "indexed": false,
          "internalType": "string",
          "name": "transactionHash",
          "type": "string"
        }
      ],
      "name": "XMTPPurchaseRecorded",
      "type": "event"
    },
    {
      "anonymous": false,
      "inputs": [
        {
          "indexed": true,
          "internalType": "address",
          "name": "user",
          "type": "address"
        },
        {
          "indexed": true,
          "internalType": "string",
          "name": "userInboxId",
          "type": "string"
        },
        {
          "indexed": true,
          "internalType": "uint256",
          "name": "tokenId",
          "type": "uint256"
        },
        {
          "indexed": false,
          "internalType": "uint256",
          "name": "expiresAt",
          "type": "uint256"
        }
      ],
      "name": "XMTPUserAccessGranted",
      "type": "event"
    },
    {
      "anonymous": false,
      "inputs": [
        {
          "indexed": true,
          "internalType": "address",
          "name": "user",
          "type": "address"
        },
        {
          "indexed": true,
          "internalType": "string",
          "name": "userInboxId",
          "type": "string"
        },
        {
          "indexed": true,
          "internalType": "uint256",
          "name": "tokenId",
          "type": "uint256"
        },
        {
          "indexed": false,
          "internalType": "string",
          "name": "reason",
          "type": "string"
        }
      ],
      "name": "XMTPUserAccessRevoked",
      "type": "event"
    },
    {
      "inputs": [
        {
          "internalType": "address[]",
          "name": "users",
          "type": "address[]"
        }
      ],
      "name": "batchCheckXMTPAccess",
      "outputs": [
        {
          "internalType": "bool[]",
          "name": "",
          "type": "bool[]"
        }
      ],
      "stateMutability": "view",
      "type": "function"
    },
    {
      "inputs": [],
      "name": "evmAuth",
      "outputs": [
        {
          "internalType": "contract EVMAuthV2",
          "name": "",
          "type": "address"
        }
      ],
      "stateMutability": "view",
      "type": "function"
    },
    {
      "inputs": [],
      "name": "getActiveXMTPTiers",
      "outputs": [
        {
          "internalType": "uint256[]",
          "name": "",
          "type": "uint256[]"
        }
      ],
      "stateMutability": "view",
      "type": "function"
    },
    {
      "inputs": [],
      "name": "getExtensionInfo",
      "outputs": [
        {
          "internalType": "string",
          "name": "name",
          "type": "string"
        },
        {
          "internalType": "string",
          "name": "version",
          "type": "string"
        },
        {
          "internalType": "address",
          "name": "baseContract",
          "type": "address"
        },
        {
          "internalType": "bool",
          "name": "isActive",
          "type": "bool"
        }
      ],
      "stateMutability": "view",
      "type": "function"
    },
    {
      "inputs": [
        {
          "internalType": "uint256",
          "name": "index",
          "type": "uint256"
        }
      ],
      "name": "getXMTPPurchaseRecord",
      "outputs": [
        {
          "components": [
            {
              "internalType": "address",
              "name": "user",
              "type": "address"
            },
            {
              "internalType": "string",
              "name": "userInboxId",
              "type": "string"
            },
            {
              "internalType": "uint256",
              "name": "tokenId",
              "type": "uint256"
            },
            {
              "internalType": "uint256",
              "name": "purchasePrice",
              "type": "uint256"
            },
            {
              "internalType": "uint256",
              "name": "purchasedAt",
              "type": "uint256"
            },
            {
              "internalType": "uint256",
              "name": "expiresAt",
              "type": "uint256"
            },
            {
              "internalType": "bool",
              "name": "isActive",
              "type": "bool"
            },
            {
              "internalType": "string",
              "name": "transactionHash",
              "type": "string"
            }
          ],
          "internalType": "struct XMTPGroupExtension.XMTPPurchaseRecord",
          "name": "",
          "type": "tuple"
        }
      ],
      "stateMutability": "view",
      "type": "function"
    },
    {
      "inputs": [
        {
          "internalType": "uint256",
          "name": "tokenId",
          "type": "uint256"
        }
      ],
      "name": "getXMTPTier",
      "outputs": [
        {
          "components": [
            {
              "internalType": "uint256",
              "name": "tokenId",
              "type": "uint256"
            },
            {
              "internalType": "string",
              "name": "name",
              "type": "string"
            },
            {
              "internalType": "string",
              "name": "description",
              "type": "string"
            },
            {
              "internalType": "string",
              "name": "imageHash",
              "type": "string"
            },
            {
              "internalType": "string",
              "name": "metadataUri",
              "type": "string"
            },
            {
              "internalType": "bool",
              "name": "isActive",
              "type": "bool"
            },
            {
              "internalType": "uint256",
              "name": "createdAt",
              "type": "uint256"
            }
          ],
          "internalType": "struct XMTPGroupExtension.XMTPAccessTier",
          "name": "",
          "type": "tuple"
        }
      ],
      "stateMutability": "view",
      "type": "function"
    },
    {
      "inputs": [
        {
          "internalType": "address",
          "name": "user",
          "type": "address"
        }
      ],
      "name": "getXMTPUserPurchases",
      "outputs": [
        {
          "internalType": "uint256[]",
          "name": "",
          "type": "uint256[]"
        }
      ],
      "stateMutability": "view",
      "type": "function"
    },
    {
      "inputs": [
        {
          "internalType": "address",
          "name": "user",
          "type": "address"
        },
        {
          "internalType": "uint256",
          "name": "tokenId",
          "type": "uint256"
        },
        {
          "internalType": "string",
          "name": "userInboxId",
          "type": "string"
        }
      ],
      "name": "grantXMTPAccess",
      "outputs": [],
      "stateMutability": "nonpayable",
      "type": "function"
    },
    {
      "inputs": [
        {
          "internalType": "string",
          "name": "inboxId",
          "type": "string"
        }
      ],
      "name": "hasValidAccessByInboxId",
      "outputs": [
        {
          "internalType": "bool",
          "name": "",
          "type": "bool"
        }
      ],
      "stateMutability": "view",
      "type": "function"
    },
    {
      "inputs": [
        {
          "internalType": "address",
          "name": "user",
          "type": "address"
        }
      ],
      "name": "hasValidXMTPAccess",
      "outputs": [
        {
          "internalType": "bool",
          "name": "",
          "type": "bool"
        }
      ],
      "stateMutability": "view",
      "type": "function"
    },
    {
      "inputs": [
        {
          "internalType": "string",
          "name": "",
          "type": "string"
        }
      ],
      "name": "inboxToAddress",
      "outputs": [
        {
          "internalType": "address",
          "name": "",
          "type": "address"
        }
      ],
      "stateMutability": "view",
      "type": "function"
    },
    {
      "inputs": [],
      "name": "owner",
      "outputs": [
        {
          "internalType": "address",
          "name": "",
          "type": "address"
        }
      ],
      "stateMutability": "view",
      "type": "function"
    },
    {
      "inputs": [
        {
          "internalType": "uint256",
          "name": "",
          "type": "uint256"
        }
      ],
      "name": "purchaseHistory",
      "outputs": [
        {
          "internalType": "address",
          "name": "user",
          "type": "address"
        },
        {
          "internalType": "string",
          "name": "userInboxId",
          "type": "string"
        },
        {
          "internalType": "uint256",
          "name": "tokenId",
          "type": "uint256"
        },
        {
          "internalType": "uint256",
          "name": "purchasePrice",
          "type": "uint256"
        },
        {
          "internalType": "uint256",
          "name": "purchasedAt",
          "type": "uint256"
        },
        {
          "internalType": "uint256",
          "name": "expiresAt",
          "type": "uint256"
        },
        {
          "internalType": "bool",
          "name": "isActive",
          "type": "bool"
        },
        {
          "internalType": "string",
          "name": "transactionHash",
          "type": "string"
        }
      ],
      "stateMutability": "view",
      "type": "function"
    },
    {
      "inputs": [
        {
          "internalType": "uint256",
          "name": "tokenId",
          "type": "uint256"
        },
        {
          "internalType": "string",
          "name": "transactionHash",
          "type": "string"
        }
      ],
      "name": "purchaseXMTPAccess",
      "outputs": [],
      "stateMutability": "payable",
      "type": "function"
    },
    {
      "inputs": [],
      "name": "renounceOwnership",
      "outputs": [],
      "stateMutability": "nonpayable",
      "type": "function"
    },
    {
      "inputs": [
        {
          "internalType": "address",
          "name": "user",
          "type": "address"
        },
        {
          "internalType": "uint256",
          "name": "tokenId",
          "type": "uint256"
        },
        {
          "internalType": "string",
          "name": "reason",
          "type": "string"
        }
      ],
      "name": "revokeXMTPAccess",
      "outputs": [],
      "stateMutability": "nonpayable",
      "type": "function"
    },
    {
      "inputs": [
        {
          "internalType": "uint256",
          "name": "tokenId",
          "type": "uint256"
        },
        {
          "internalType": "string",
          "name": "name",
          "type": "string"
        },
        {
          "internalType": "string",
          "name": "description",
          "type": "string"
        },
        {
          "internalType": "string",
          "name": "imageHash",
          "type": "string"
        },
        {
          "internalType": "string",
          "name": "metadataUri",
          "type": "string"
        }
      ],
      "name": "setupXMTPAccessTier",
      "outputs": [],
      "stateMutability": "nonpayable",
      "type": "function"
    },
    {
      "inputs": [
        {
          "internalType": "address",
          "name": "user",
          "type": "address"
        },
        {
          "internalType": "string",
          "name": "inboxId",
          "type": "string"
        }
      ],
      "name": "storeUserInboxId",
      "outputs": [],
      "stateMutability": "nonpayable",
      "type": "function"
    },
    {
      "inputs": [],
      "name": "toggleXMTPIntegration",
      "outputs": [],
      "stateMutability": "nonpayable",
      "type": "function"
    },
    {
      "inputs": [
        {
          "internalType": "address",
          "name": "newOwner",
          "type": "address"
        }
      ],
      "name": "transferOwnership",
      "outputs": [],
      "stateMutability": "nonpayable",
      "type": "function"
    },
    {
      "inputs": [
        {
          "internalType": "string",
          "name": "_salesGroupId",
          "type": "string"
        },
        {
          "internalType": "string",
          "name": "_premiumGroupId",
          "type": "string"
        },
        {
          "internalType": "address",
          "name": "_botAddress",
          "type": "address"
        }
      ],
      "name": "updateXMTPInfo",
      "outputs": [],
      "stateMutability": "nonpayable",
      "type": "function"
    },
    {
      "inputs": [
        {
          "internalType": "address",
          "name": "",
          "type": "address"
        }
      ],
      "name": "userInboxIds",
      "outputs": [
        {
          "internalType": "string",
          "name": "",
          "type": "string"
        }
      ],
      "stateMutability": "view",
      "type": "function"
    },
    {
      "inputs": [
        {
          "internalType": "address",
          "name": "",
          "type": "address"
        },
        {
          "internalType": "uint256",
          "name": "",
          "type": "uint256"
        }
      ],
      "name": "userPurchases",
      "outputs": [
        {
          "internalType": "uint256",
          "name": "",
          "type": "uint256"
        }
      ],
      "stateMutability": "view",
      "type": "function"
    },
    {
      "inputs": [],
      "name": "withdraw",
      "outputs": [],
      "stateMutability": "nonpayable",
      "type": "function"
    },
    {
      "inputs": [],
      "name": "xmtpInfo",
      "outputs": [
        {
          "internalType": "string",
          "name": "salesGroupId",
          "type": "string"
        },
        {
          "internalType": "string",
          "name": "premiumGroupId",
          "type": "string"
        },
        {
          "internalType": "address",
          "name": "botAddress",
          "type": "address"
        },
        {
          "internalType": "bool",
          "name": "isActive",
          "type": "bool"
        },
        {
          "internalType": "uint256",
          "name": "linkedAt",
          "type": "uint256"
        }
      ],
      "stateMutability": "view",
      "type": "function"
    },
    {
      "inputs": [
        {
          "internalType": "uint256",
          "name": "",
          "type": "uint256"
        }
      ],
      "name": "xmtpTiers",
      "outputs": [
        {
          "internalType": "uint256",
          "name": "tokenId",
          "type": "uint256"
        },
        {
          "internalType": "string",
          "name": "name",
          "type": "string"
        },
        {
          "internalType": "string",
          "name": "description",
          "type": "string"
        },
        {
          "internalType": "string",
          "name": "imageHash",
          "type": "string"
        },
        {
          "internalType": "string",
          "name": "metadataUri",
          "type": "string"
        },
        {
          "internalType": "bool",
          "name": "isActive",
          "type": "bool"
        },
        {
          "internalType": "uint256",
          "name": "createdAt",
          "type": "uint256"
        }
      ],
      "stateMutability": "view",
      "type": "function"
    }
  ],
  "bytecode": "0x60a06040523480156200001157600080fd5b50604051620037eb380380620037eb83398101604081905262000034916200034b565b806001600160a01b0381166200006557604051631e4fbdf760e01b8152600060048201526024015b60405180910390fd5b620000708162000211565b50600180556001600160a01b038516620000cd5760405162461bcd60e51b815260206004820152601760248201527f496e76616c69642045564d41757468206164647265737300000000000000000060448201526064016200005c565b6001600160a01b038216620001255760405162461bcd60e51b815260206004820152601360248201527f496e76616c696420626f7420616464726573730000000000000000000000000060448201526064016200005c565b6001600160a01b0380861660809081526040805160a08101825287815260208101879052928516908301526001606083015242908201526002806200016b87826200047d565b50602082015160018201906200018290826200047d565b5060408281015160028301805460608601511515600160a01b026001600160a81b03199091166001600160a01b039384161717905560809093015160039092019190915551908316907f5bd2d155ed1076bdd300b62402f71b052eff6f9ed7c9b91d25e3a9477c7f47b890620001fe9087908790429062000577565b60405180910390a25050505050620005b1565b600080546001600160a01b038381166001600160a01b0319831681178455604051919092169283917f8be0079c531659141344cd1fd0a4f28419497f9722a3daafe3b4186f6b6457e09190a35050565b80516001600160a01b03811681146200027957600080fd5b919050565b634e487b7160e01b600052604160045260246000fd5b60005b83811015620002b157818101518382015260200162000297565b50506000910152565b600082601f830112620002cc57600080fd5b81516001600160401b0380821115620002e957620002e96200027e565b604051601f8301601f19908116603f011681019082821181831017156200031457620003146200027e565b816040528381528660208588010111156200032e57600080fd5b6200034184602083016020890162000294565b9695505050505050565b600080600080600060a086880312156200036457600080fd5b6200036f8662000261565b60208701519095506001600160401b03808211156200038d57600080fd5b6200039b89838a01620002ba565b95506040880151915080821115620003b257600080fd5b50620003c188828901620002ba565b935050620003d26060870162000261565b9150620003e26080870162000261565b90509295509295909350565b600181811c908216806200040357607f821691505b6020821081036200042457634e487b7160e01b600052602260045260246000fd5b50919050565b601f8211156200047857600081815260208120601f850160051c81016020861015620004535750805b601f850160051c820191505b8181101562000474578281556001016200045f565b5050505b505050565b81516001600160401b038111156200049957620004996200027e565b620004b181620004aa8454620003ee565b846200042a565b602080601f831160018114620004e95760008415620004d05750858301515b600019600386901b1c1916600185901b17855562000474565b600085815260208120601f198616915b828110156200051a57888601518255948401946001909101908401620004f9565b5085821015620005395787850151600019600388901b60f8161c191681555b5050505050600190811b01905550565b600081518084526200056381602086016020860162000294565b601f01601f19169290920160200192915050565b6060815260006200058c606083018662000549565b8281036020840152620005a0818662000549565b915050826040830152949350505050565b6080516131d86200061360003960008181610457015281816104a301528181610e5901528181610f380152818161100a015281816110b1015281816115260152818161185701528181611abb01528181611e4c0152611f6d01526131d86000f3fe6080604052600436106101615760003560e01c8063b3f24091116100c1578063d878c2131161007a578063d878c21314610491578063dafba100146104c5578063e3d2d03a146104f2578063e4df4ea714610507578063e86609031461051a578063edfc63d21461055b578063f2fde38b1461058e57600080fd5b8063b3f2409114610349578063c50ba84514610376578063cb88e1161461038b578063cf2c0334146103ab578063d0c2ed9f146103d9578063d6f43949146103ff57600080fd5b806349351a8b1161011e57806349351a8b146102535780635239457314610273578063715018a6146102935780637bf305bd146102a85780638da5cb5b146102d557806395896c23146102fc578063b2610aaa1461031c57600080fd5b8063030c61fb146101665780630a035284146101885780632829fc53146101bd57806335392c0d146101f157806336945d16146102115780633ccfd60b1461023e575b600080fd5b34801561017257600080fd5b506101866101813660046126d9565b6105ae565b005b34801561019457600080fd5b506101a86101a3366004612728565b6107c4565b60405190151581526020015b60405180910390f35b3480156101c957600080fd5b506101dd6101d8366004612764565b61086b565b6040516101b49897969594939291906127cd565b3480156101fd57600080fd5b5061018661020c366004612835565b6109e6565b34801561021d57600080fd5b5061023161022c366004612764565b610b34565b6040516101b491906128eb565b34801561024a57600080fd5b50610186610e06565b34801561025f57600080fd5b5061018661026e36600461298e565b610f17565b34801561027f57600080fd5b5061018661028e3660046129e6565b611211565b34801561029f57600080fd5b50610186611292565b3480156102b457600080fd5b506102c86102c3366004612764565b6112a6565b6040516101b49190612a5d565b3480156102e157600080fd5b506000546001600160a01b03165b6040516101b49190612af2565b34801561030857600080fd5b506101a8610317366004612b06565b6114e4565b34801561032857600080fd5b5061033c610337366004612b06565b6115c8565b6040516101b49190612b23565b34801561035557600080fd5b50610369610364366004612b06565b611662565b6040516101b49190612b36565b34801561038257600080fd5b506103696116ce565b34801561039757600080fd5b506101866103a636600461298e565b6117ff565b3480156103b757600080fd5b506103cb6103c6366004612b7a565b611b79565b6040519081526020016101b4565b3480156103e557600080fd5b506103ee611baa565b6040516101b4959493929190612ba6565b34801561040b57600080fd5b5060045460408051808201825260128152712c26aa2823b937bab822bc3a32b739b4b7b760711b602080830191909152825180840190935260058352640312e302e360dc1b90830152917f000000000000000000000000000000000000000000000000000000000000000090600160a01b900460ff166040516101b49493929190612bf2565b34801561049d57600080fd5b506102ef7f000000000000000000000000000000000000000000000000000000000000000081565b3480156104d157600080fd5b506104e56104e0366004612c39565b611cec565b6040516101b49190612cea565b3480156104fe57600080fd5b50610186611e02565b610186610515366004612d24565b611e2b565b34801561052657600080fd5b506102ef610535366004612728565b80516020818301810180516007825292820191909301209152546001600160a01b031681565b34801561056757600080fd5b5061057b610576366004612764565b6122cb565b6040516101b49796959493929190612d54565b34801561059a57600080fd5b506101866105a9366004612b06565b61252a565b6004546001600160a01b03163314806105d157506000546001600160a01b031633145b6105f65760405162461bcd60e51b81526004016105ed90612dbe565b60405180910390fd5b600081511161063a5760405162461bcd60e51b815260206004820152601060248201526f125b9d985b1a59081a5b989bde08125160821b60448201526064016105ed565b6001600160a01b0382166000908152600660205260408120805461065d90612de6565b80601f016020809104026020016040519081016040528092919081815260200182805461068990612de6565b80156106d65780601f106106ab576101008083540402835291602001916106d6565b820191906000526020600020905b8154815290600101906020018083116106b957829003601f168201915b50505050509050600081511115610715576007816040516106f79190612e20565b90815260405190819003602001902080546001600160a01b03191690555b6001600160a01b03831660009081526006602052604090206107378382612e8a565b50826007836040516107499190612e20565b90815260405190819003602001812080546001600160a01b03939093166001600160a01b031990931692909217909155610784908390612e20565b604051908190038120906001600160a01b038516907fa382aebe7a9b24a15bbf72650fb4bc3d7bd56187e367a46e2830523660bf728090600090a3505050565b6000806007836040516107d79190612e20565b908152604051908190036020019020546001600160a01b03169050806108005750600092915050565b6040516395896c2360e01b815230906395896c2390610823908490600401612af2565b602060405180830381865afa158015610840573d6000803e3d6000fd5b505050506040513d601f19601f820116820180604052508101906108649190612f5e565b9392505050565b6009818154811061087b57600080fd5b6000918252602090912060089091020180546001820180546001600160a01b039092169350906108aa90612de6565b80601f01602080910402602001604051908101604052809291908181526020018280546108d690612de6565b80156109235780601f106108f857610100808354040283529160200191610923565b820191906000526020600020905b81548152906001019060200180831161090657829003601f168201915b5050505050908060020154908060030154908060040154908060050154908060060160009054906101000a900460ff169080600701805461096390612de6565b80601f016020809104026020016040519081016040528092919081815260200182805461098f90612de6565b80156109dc5780601f106109b1576101008083540402835291602001916109dc565b820191906000526020600020905b8154815290600101906020018083116109bf57829003601f168201915b5050505050905088565b6109ee612568565b6000845111610a2f5760405162461bcd60e51b815260206004820152600d60248201526c13985b59481c995c5d5a5c9959609a1b60448201526064016105ed565b6040805160e08101825286815260208082018781528284018790526060830186905260808301859052600160a084018190524260c085015260008a81526008909352939091208251815590519192909190820190610a8d9082612e8a565b5060408201516002820190610aa29082612e8a565b5060608201516003820190610ab79082612e8a565b5060808201516004820190610acc9082612e8a565b5060a082015160058201805460ff191691151591909117905560c09091015160069091015560405185907f2216931835abacfee8ecf7175d7be50c406883ba6cd605d1c29789636c8374d990610b259087908790612f79565b60405180910390a25050505050565b610b766040518060e001604052806000815260200160608152602001606081526020016060815260200160608152602001600015158152602001600081525090565b600860008381526020019081526020016000206040518060e001604052908160008201548152602001600182018054610bae90612de6565b80601f0160208091040260200160405190810160405280929190818152602001828054610bda90612de6565b8015610c275780601f10610bfc57610100808354040283529160200191610c27565b820191906000526020600020905b815481529060010190602001808311610c0a57829003601f168201915b50505050508152602001600282018054610c4090612de6565b80601f0160208091040260200160405190810160405280929190818152602001828054610c6c90612de6565b8015610cb95780601f10610c8e57610100808354040283529160200191610cb9565b820191906000526020600020905b815481529060010190602001808311610c9c57829003601f168201915b50505050508152602001600382018054610cd290612de6565b80601f0160208091040260200160405190810160405280929190818152602001828054610cfe90612de6565b8015610d4b5780601f10610d2057610100808354040283529160200191610d4b565b820191906000526020600020905b815481529060010190602001808311610d2e57829003601f168201915b50505050508152602001600482018054610d6490612de6565b80601f0160208091040260200160405190810160405280929190818152602001828054610d9090612de6565b8015610ddd5780601f10610db257610100808354040283529160200191610ddd565b820191906000526020600020905b815481529060010190602001808311610dc057829003601f168201915b5050509183525050600582015460ff161515602082015260069091015460409091015292915050565b610e0e612568565b4780610e555760405162461bcd60e51b81526020600482015260166024820152754e6f2062616c616e636520746f20776974686472617760501b60448201526064016105ed565b60007f00000000000000000000000000000000000000000000000000000000000000006001600160a01b031663521eb2736040518163ffffffff1660e01b8152600401602060405180830381865afa158015610eb5573d6000803e3d6000fd5b505050506040513d601f19601f82011682018060405250810190610ed99190612fa7565b6040519091506001600160a01b0382169083156108fc029084906000818181858888f19350505050158015610f12573d6000803e3d6000fd5b505050565b610f1f612568565b604051627eeac760e11b81526000906001600160a01b037f0000000000000000000000000000000000000000000000000000000000000000169062fdd58e90610f6e9087908790600401612fc4565b602060405180830381865afa158015610f8b573d6000803e3d6000fd5b505050506040513d601f19601f82011682018060405250810190610faf9190612fdd565b11610ff15760405162461bcd60e51b81526020600482015260126024820152715573657220686173206e6f20746f6b656e7360701b60448201526064016105ed565b604051627eeac760e11b81526000906001600160a01b037f0000000000000000000000000000000000000000000000000000000000000000169062fdd58e906110409087908790600401612fc4565b602060405180830381865afa15801561105d573d6000803e3d6000fd5b505050506040513d601f19601f820116820180604052508101906110819190612fdd565b6040516390756fcb60e01b81526001600160a01b03868116600483015260248201869052604482018390529192507f0000000000000000000000000000000000000000000000000000000000000000909116906390756fcb90606401600060405180830381600087803b1580156110f757600080fd5b505af115801561110b573d6000803e3d6000fd5b505050506001600160a01b0384166000908152600660205260408120805461113290612de6565b80601f016020809104026020016040519081016040528092919081815260200182805461115e90612de6565b80156111ab5780601f10611180576101008083540402835291602001916111ab565b820191906000526020600020905b81548152906001019060200180831161118e57829003601f168201915b5050505050905083816040516111c19190612e20565b6040518091039020866001600160a01b03167fe24cf86e0c04b77e4847e32fca39a8887404fcb476d61d1344248f838ae3a445866040516112029190612b23565b60405180910390a45050505050565b611219612568565b60026112258482612e8a565b5060036112328382612e8a565b50600480546001600160a01b0319166001600160a01b0383169081179091556040517f5bd2d155ed1076bdd300b62402f71b052eff6f9ed7c9b91d25e3a9477c7f47b89061128590869086904290612ff6565b60405180910390a2505050565b61129a612568565b6112a46000612595565b565b6112f960405180610100016040528060006001600160a01b031681526020016060815260200160008152602001600081526020016000815260200160008152602001600015158152602001606081525090565b600954821061133a5760405162461bcd60e51b815260206004820152600d60248201526c092dcecc2d8d2c840d2dcc8caf609b1b60448201526064016105ed565b6009828154811061134d5761134d61302c565b600091825260209182902060408051610100810190915260089092020180546001600160a01b03168252600181018054929391929184019161138e90612de6565b80601f01602080910402602001604051908101604052809291908181526020018280546113ba90612de6565b80156114075780601f106113dc57610100808354040283529160200191611407565b820191906000526020600020905b8154815290600101906020018083116113ea57829003601f168201915b505050918352505060028201546020820152600382015460408201526004820154606082015260058201546080820152600682015460ff16151560a082015260078201805460c09092019161145b90612de6565b80601f016020809104026020016040519081016040528092919081815260200182805461148790612de6565b80156114d45780601f106114a9576101008083540402835291602001916114d4565b820191906000526020600020905b8154815290600101906020018083116114b757829003601f168201915b5050505050815250509050919050565b600060015b600a81116115bf5760008181526008602052604090206005015460ff16801561159f5750604051627eeac760e11b81526000906001600160a01b037f0000000000000000000000000000000000000000000000000000000000000000169062fdd58e9061155c9087908690600401612fc4565b602060405180830381865afa158015611579573d6000803e3d6000fd5b505050506040513d601f19601f8201168201806040525081019061159d9190612fdd565b115b156115ad5750600192915050565b806115b781613058565b9150506114e9565b50600092915050565b600660205260009081526040902080546115e190612de6565b80601f016020809104026020016040519081016040528092919081815260200182805461160d90612de6565b801561165a5780601f1061162f5761010080835404028352916020019161165a565b820191906000526020600020905b81548152906001019060200180831161163d57829003601f168201915b505050505081565b6001600160a01b0381166000908152600a60209081526040918290208054835181840281018401909452808452606093928301828280156116c257602002820191906000526020600020905b8154815260200190600101908083116116ae575b50505050509050919050565b60408051600a8082526101608201909252606091600091906020820161014080368337019050509050600060015b600a811161175c5760008181526008602052604090206005015460ff161561174a57808383815181106117315761173161302c565b60209081029190910101528161174681613058565b9250505b8061175481613058565b9150506116fc565b506000816001600160401b0381111561177757611777612624565b6040519080825280602002602001820160405280156117a0578160200160208202803683370190505b50905060005b828110156117f7578381815181106117c0576117c061302c565b60200260200101518282815181106117da576117da61302c565b6020908102919091010152806117ef81613058565b9150506117a6565b509392505050565b6004546001600160a01b031633148061182257506000546001600160a01b031633145b61183e5760405162461bcd60e51b81526004016105ed90612dbe565b60405163077be64760e11b8152600481018390526000907f00000000000000000000000000000000000000000000000000000000000000006001600160a01b031690630ef7cc8e9060240160c060405180830381865afa1580156118a6573d6000803e3d6000fd5b505050506040513d601f19601f820116820180604052508101906118ca9190613071565b905080602001516118ed5760405162461bcd60e51b81526004016105ed906130fd565b60008160a0015160001461190f5760a082015161190a904261312d565b611913565b6000195b835190915015611aa4576001600160a01b0385166000908152600660205260408120805461194090612de6565b80601f016020809104026020016040519081016040528092919081815260200182805461196c90612de6565b80156119b95780601f1061198e576101008083540402835291602001916119b9565b820191906000526020600020905b81548152906001019060200180831161199c57829003601f168201915b505050505090506000815111156119f8576007816040516119da9190612e20565b90815260405190819003602001902080546001600160a01b03191690555b6001600160a01b0386166000908152600660205260409020611a1a8582612e8a565b5085600785604051611a2c9190612e20565b90815260405190819003602001812080546001600160a01b03939093166001600160a01b031990931692909217909155611a67908590612e20565b604051908190038120906001600160a01b038816907fa382aebe7a9b24a15bbf72650fb4bc3d7bd56187e367a46e2830523660bf728090600090a3505b6040516364a5e39d60e01b81526001600160a01b037f000000000000000000000000000000000000000000000000000000000000000016906364a5e39d90611af59088908890600190600401613146565b600060405180830381600087803b158015611b0f57600080fd5b505af1158015611b23573d6000803e3d6000fd5b505050508383604051611b369190612e20565b6040518091039020866001600160a01b03167f32f4de8cdad93ed7614f817a931bfc74be61a42176ff556514e8e4782e5fc0908460405161120291815260200190565b600a6020528160005260406000208181548110611b9557600080fd5b90600052602060002001600091509150505481565b600280548190611bb990612de6565b80601f0160208091040260200160405190810160405280929190818152602001828054611be590612de6565b8015611c325780601f10611c0757610100808354040283529160200191611c32565b820191906000526020600020905b815481529060010190602001808311611c1557829003601f168201915b505050505090806001018054611c4790612de6565b80601f0160208091040260200160405190810160405280929190818152602001828054611c7390612de6565b8015611cc05780601f10611c9557610100808354040283529160200191611cc0565b820191906000526020600020905b815481529060010190602001808311611ca357829003601f168201915b50505050600283015460039093015491926001600160a01b03811692600160a01b90910460ff16915085565b6060600082516001600160401b03811115611d0957611d09612624565b604051908082528060200260200182016040528015611d32578160200160208202803683370190505b50905060005b8351811015611dfb57306001600160a01b03166395896c23858381518110611d6257611d6261302c565b60200260200101516040518263ffffffff1660e01b8152600401611d869190612af2565b602060405180830381865afa158015611da3573d6000803e3d6000fd5b505050506040513d601f19601f82011682018060405250810190611dc79190612f5e565b828281518110611dd957611dd961302c565b9115156020928302919091019091015280611df381613058565b915050611d38565b5092915050565b611e0a612568565b6004805460ff60a01b198116600160a01b9182900460ff1615909102179055565b611e336125e5565b60405163077be64760e11b8152600481018390526000907f00000000000000000000000000000000000000000000000000000000000000006001600160a01b031690630ef7cc8e9060240160c060405180830381865afa158015611e9b573d6000803e3d6000fd5b505050506040513d601f19601f82011682018060405250810190611ebf9190613071565b90508060200151611ee25760405162461bcd60e51b81526004016105ed906130fd565b8060800151341015611f2d5760405162461bcd60e51b8152602060048201526014602482015273125b9cdd59999a58da595b9d081c185e5b595b9d60621b60448201526064016105ed565b60008160a00151600014611f4f5760a0820151611f4a904261312d565b611f53565b6000195b6040516364a5e39d60e01b81529091506001600160a01b037f000000000000000000000000000000000000000000000000000000000000000016906364a5e39d90611fa79033908890600190600401613146565b600060405180830381600087803b158015611fc157600080fd5b505af1158015611fd5573d6000803e3d6000fd5b505033600090815260066020526040812080549193509150611ff690612de6565b80601f016020809104026020016040519081016040528092919081815260200182805461202290612de6565b801561206f5780601f106120445761010080835404028352916020019161206f565b820191906000526020600020905b81548152906001019060200180831161205257829003601f168201915b50506040805161010081018252338152602081018681529181018b905234606082015242608082015260a08101889052600160c0820181905260e082018b905260098054918201815560005281517f6e1540171b6c0c960b71a7020d9f60077f6af931a8bbf590da0223dacf75c7af600890920291820180546001600160a01b0319166001600160a01b03909216919091178155925196975090959194507f6e1540171b6c0c960b71a7020d9f60077f6af931a8bbf590da0223dacf75c7b001925061213c915082612e8a565b5060408201516002820155606082015160038201556080820151600482015560a0820151600582015560c082015160068201805460ff191691151591909117905560e082015160078201906121919082612e8a565b5050336000908152600a602052604090206009549091506121b490600190613176565b81546001810183556000928352602090922090910155608083015134111561221557608083015133906108fc906121eb9034613176565b6040518115909202916000818181858888f19350505050158015612213573d6000803e3d6000fd5b505b84816040516122249190612e20565b6040519081900381208482529033907f32f4de8cdad93ed7614f817a931bfc74be61a42176ff556514e8e4782e5fc0909060200160405180910390a4848160405161226f9190612e20565b6040518091039020336001600160a01b03167f29de0b0001747bdcd5eacf8a7e2706bc1551dbd028a6263dd9ae394ec1f635ff6001886040516122b3929190613189565b60405180910390a45050506122c760018055565b5050565b600860205260009081526040902080546001820180549192916122ed90612de6565b80601f016020809104026020016040519081016040528092919081815260200182805461231990612de6565b80156123665780601f1061233b57610100808354040283529160200191612366565b820191906000526020600020905b81548152906001019060200180831161234957829003601f168201915b50505050509080600201805461237b90612de6565b80601f01602080910402602001604051908101604052809291908181526020018280546123a790612de6565b80156123f45780601f106123c9576101008083540402835291602001916123f4565b820191906000526020600020905b8154815290600101906020018083116123d757829003601f168201915b50505050509080600301805461240990612de6565b80601f016020809104026020016040519081016040528092919081815260200182805461243590612de6565b80156124825780601f1061245757610100808354040283529160200191612482565b820191906000526020600020905b81548152906001019060200180831161246557829003601f168201915b50505050509080600401805461249790612de6565b80601f01602080910402602001604051908101604052809291908181526020018280546124c390612de6565b80156125105780601f106124e557610100808354040283529160200191612510565b820191906000526020600020905b8154815290600101906020018083116124f357829003601f168201915b505050506005830154600690930154919260ff1691905087565b612532612568565b6001600160a01b03811661255c576000604051631e4fbdf760e01b81526004016105ed9190612af2565b61256581612595565b50565b6000546001600160a01b031633146112a4573360405163118cdaa760e01b81526004016105ed9190612af2565b600080546001600160a01b038381166001600160a01b0319831681178455604051919092169283917f8be0079c531659141344cd1fd0a4f28419497f9722a3daafe3b4186f6b6457e09190a35050565b60026001540361260857604051633ee5aeb560e01b815260040160405180910390fd5b6002600155565b6001600160a01b038116811461256557600080fd5b634e487b7160e01b600052604160045260246000fd5b604051601f8201601f191681016001600160401b038111828210171561266257612662612624565b604052919050565b600082601f83011261267b57600080fd5b81356001600160401b0381111561269457612694612624565b6126a7601f8201601f191660200161263a565b8181528460208386010111156126bc57600080fd5b816020850160208301376000918101602001919091529392505050565b600080604083850312156126ec57600080fd5b82356126f78161260f565b915060208301356001600160401b0381111561271257600080fd5b61271e8582860161266a565b9150509250929050565b60006020828403121561273a57600080fd5b81356001600160401b0381111561275057600080fd5b61275c8482850161266a565b949350505050565b60006020828403121561277657600080fd5b5035919050565b60005b83811015612798578181015183820152602001612780565b50506000910152565b600081518084526127b981602086016020860161277d565b601f01601f19169290920160200192915050565b6001600160a01b0389168152610100602082018190526000906127f28382018b6127a1565b90508860408401528760608401528660808401528560a084015284151560c084015282810360e084015261282681856127a1565b9b9a5050505050505050505050565b600080600080600060a0868803121561284d57600080fd5b8535945060208601356001600160401b038082111561286b57600080fd5b61287789838a0161266a565b9550604088013591508082111561288d57600080fd5b61289989838a0161266a565b945060608801359150808211156128af57600080fd5b6128bb89838a0161266a565b935060808801359150808211156128d157600080fd5b506128de8882890161266a565b9150509295509295909350565b60208152815160208201526000602083015160e060408401526129126101008401826127a1565b90506040840151601f198085840301606086015261293083836127a1565b9250606086015191508085840301608086015261294d83836127a1565b925060808601519150808584030160a08601525061296b82826127a1565b91505060a0840151151560c084015260c084015160e08401528091505092915050565b6000806000606084860312156129a357600080fd5b83356129ae8161260f565b92506020840135915060408401356001600160401b038111156129d057600080fd5b6129dc8682870161266a565b9150509250925092565b6000806000606084860312156129fb57600080fd5b83356001600160401b0380821115612a1257600080fd5b612a1e8783880161266a565b94506020860135915080821115612a3457600080fd5b50612a418682870161266a565b9250506040840135612a528161260f565b809150509250925092565b602080825282516001600160a01b0316828201528201516101006040830181905260009190612a906101208501836127a1565b91506040850151606085015260608501516080850152608085015160a085015260a085015160c085015260c0850151612acd60e086018215159052565b5060e0850151848303601f190182860152612ae883826127a1565b9695505050505050565b6001600160a01b0391909116815260200190565b600060208284031215612b1857600080fd5b81356108648161260f565b60208152600061086460208301846127a1565b6020808252825182820181905260009190848201906040850190845b81811015612b6e57835183529284019291840191600101612b52565b50909695505050505050565b60008060408385031215612b8d57600080fd5b8235612b988161260f565b946020939093013593505050565b60a081526000612bb960a08301886127a1565b8281036020840152612bcb81886127a1565b6001600160a01b039690961660408401525050911515606083015260809091015292915050565b608081526000612c0560808301876127a1565b8281036020840152612c1781876127a1565b6001600160a01b03959095166040840152505090151560609091015292915050565b60006020808385031215612c4c57600080fd5b82356001600160401b0380821115612c6357600080fd5b818501915085601f830112612c7757600080fd5b813581811115612c8957612c89612624565b8060051b9150612c9a84830161263a565b8181529183018401918481019088841115612cb457600080fd5b938501935b83851015612cde5784359250612cce8361260f565b8282529385019390850190612cb9565b98975050505050505050565b6020808252825182820181905260009190848201906040850190845b81811015612b6e578351151583529284019291840191600101612d06565b60008060408385031215612d3757600080fd5b8235915060208301356001600160401b0381111561271257600080fd5b87815260e060208201526000612d6d60e08301896127a1565b8281036040840152612d7f81896127a1565b90508281036060840152612d9381886127a1565b90508281036080840152612da781876127a1565b94151560a0840152505060c0015295945050505050565b6020808252600e908201526d139bdd08185d5d1a1bdc9a5e995960921b604082015260600190565b600181811c90821680612dfa57607f821691505b602082108103612e1a57634e487b7160e01b600052602260045260246000fd5b50919050565b60008251612e3281846020870161277d565b9190910192915050565b601f821115610f1257600081815260208120601f850160051c81016020861015612e635750805b601f850160051c820191505b81811015612e8257828155600101612e6f565b505050505050565b81516001600160401b03811115612ea357612ea3612624565b612eb781612eb18454612de6565b84612e3c565b602080601f831160018114612eec5760008415612ed45750858301515b600019600386901b1c1916600185901b178555612e82565b600085815260208120601f198616915b82811015612f1b57888601518255948401946001909101908401612efc565b5085821015612f395787850151600019600388901b60f8161c191681555b5050505050600190811b01905550565b80518015158114612f5957600080fd5b919050565b600060208284031215612f7057600080fd5b61086482612f49565b604081526000612f8c60408301856127a1565b8281036020840152612f9e81856127a1565b95945050505050565b600060208284031215612fb957600080fd5b81516108648161260f565b6001600160a01b03929092168252602082015260400190565b600060208284031215612fef57600080fd5b5051919050565b60608152600061300960608301866127a1565b828103602084015261301b81866127a1565b915050826040830152949350505050565b634e487b7160e01b600052603260045260246000fd5b634e487b7160e01b600052601160045260246000fd5b60006001820161306a5761306a613042565b5060010190565b600060c0828403121561308357600080fd5b60405160c081018181106001600160401b03821117156130a5576130a5612624565b604052825181526130b860208401612f49565b60208201526130c960408401612f49565b60408201526130da60608401612f49565b60608201526080830151608082015260a083015160a08201528091505092915050565b6020808252601690820152754163636573732074696572206e6f742061637469766560501b604082015260600190565b8082018082111561314057613140613042565b92915050565b6001600160a01b039390931683526020830191909152604082015260806060820181905260009082015260a00190565b8181038181111561314057613140613042565b82815260406020820152600061275c60408301846127a156fea264697066735822122070302d7262229c0a08b37291ea3ee7d1d2d4bbe83b5d2b3a7cfa53d1c08e37ee64736f6c63430008140033",
  "linkReferences": {},
  "deployedLinkReferences": {}
}