{"src/EVMAuthFactory.sol":{"EVMAuthFactory":{"abi":[{"inputs":[{"internalType":"address","name":"_feeRecipient","type":"address"},{"internalType":"uint256","name":"_feeBasisPoints","type":"uint256"},{"internalType":"address","name":"_initialOwner","type":"address"}],"stateMutability":"nonpayable","type":"constructor"},{"anonymous":false,"inputs":[{"indexed":true,"internalType":"address","name":"creator","type":"address"},{"indexed":true,"internalType":"address","name":"contractAddress","type":"address"},{"indexed":false,"internalType":"string","name":"groupName","type":"string"},{"indexed":false,"internalType":"uint256","name":"timestamp","type":"uint256"}],"name":"ContractDeployed","type":"event"},{"anonymous":false,"inputs":[{"indexed":false,"internalType":"uint256","name":"newDeploymentFee","type":"uint256"}],"name":"DeploymentFeeUpdated","type":"event"},{"anonymous":false,"inputs":[{"indexed":true,"internalType":"address","name":"newFeeRecipient","type":"address"},{"indexed":false,"internalType":"uint256","name":"newFeeBasisPoints","type":"uint256"}],"name":"FeeConfigurationUpdated","type":"event"},{"anonymous":false,"inputs":[{"indexed":true,"internalType":"address","name":"previousOwner","type":"address"},{"indexed":true,"internalType":"address","name":"newOwner","type":"address"}],"name":"OwnershipTransferred","type":"event"},{"inputs":[{"internalType":"uint256","name":"","type":"uint256"}],"name":"allContracts","outputs":[{"internalType":"address","name":"","type":"address"}],"stateMutability":"view","type":"function"},{"inputs":[{"internalType":"address","name":"","type":"address"}],"name":"contractCreators","outputs":[{"internalType":"address","name":"","type":"address"}],"stateMutability":"view","type":"function"},{"inputs":[{"internalType":"address","name":"","type":"address"},{"internalType":"uint256","name":"","type":"uint256"}],"name":"creatorContracts","outputs":[{"internalType":"address","name":"","type":"address"}],"stateMutability":"view","type":"function"},{"inputs":[{"internalType":"string","name":"groupName","type":"string"},{"internalType":"string","name":"groupDescription","type":"string"},{"internalType":"string","name":"groupImageUrl","type":"string"},{"internalType":"string","name":"salesGroupId","type":"string"},{"internalType":"string","name":"premiumGroupId","type":"string"},{"internalType":"address","name":"botAddress","type":"address"}],"name":"deployGroupContract","outputs":[{"internalType":"address","name":"","type":"address"}],"stateMutability":"payable","type":"function"},{"inputs":[],"name":"deploymentFee","outputs":[{"internalType":"uint256","name":"","type":"uint256"}],"stateMutability":"view","type":"function"},{"inputs":[{"internalType":"address","name":"contractAddress","type":"address"}],"name":"emergencyDisableContract","outputs":[],"stateMutability":"nonpayable","type":"function"},{"inputs":[],"name":"feeBasisPoints","outputs":[{"internalType":"uint256","name":"","type":"uint256"}],"stateMutability":"view","type":"function"},{"inputs":[],"name":"feeRecipient","outputs":[{"internalType":"address","name":"","type":"address"}],"stateMutability":"view","type":"function"},{"inputs":[],"name":"getAllContracts","outputs":[{"internalType":"address[]","name":"","type":"address[]"}],"stateMutability":"view","type":"function"},{"inputs":[{"internalType":"address","name":"contractAddress","type":"address"}],"name":"getContractCreator","outputs":[{"internalType":"address","name":"","type":"address"}],"stateMutability":"view","type":"function"},{"inputs":[{"internalType":"address","name":"creator","type":"address"}],"name":"getCreatorContracts","outputs":[{"internalType":"address[]","name":"","type":"address[]"}],"stateMutability":"view","type":"function"},{"inputs":[],"name":"getDeploymentStats","outputs":[{"internalType":"uint256","name":"totalContracts","type":"uint256"},{"internalType":"uint256","name":"totalFees","type":"uint256"},{"internalType":"address","name":"currentFeeRecipient","type":"address"},{"internalType":"uint256","name":"currentFeeBasisPoints","type":"uint256"}],"stateMutability":"view","type":"function"},{"inputs":[],"name":"getTotalContracts","outputs":[{"internalType":"uint256","name":"","type":"uint256"}],"stateMutability":"view","type":"function"},{"inputs":[{"internalType":"address","name":"contractAddress","type":"address"}],"name":"isFactoryContract","outputs":[{"internalType":"bool","name":"","type":"bool"}],"stateMutability":"view","type":"function"},{"inputs":[],"name":"owner","outputs":[{"internalType":"address","name":"","type":"address"}],"stateMutability":"view","type":"function"},{"inputs":[],"name":"renounceOwnership","outputs":[],"stateMutability":"nonpayable","type":"function"},{"inputs":[{"internalType":"address","name":"newOwner","type":"address"}],"name":"transferOwnership","outputs":[],"stateMutability":"nonpayable","type":"function"},{"inputs":[{"internalType":"uint256","name":"_deploymentFee","type":"uint256"}],"name":"updateDeploymentFee","outputs":[],"stateMutability":"nonpayable","type":"function"},{"inputs":[{"internalType":"address","name":"_feeRecipient","type":"address"},{"internalType":"uint256","name":"_feeBasisPoints","type":"uint256"}],"name":"updateFeeConfiguration","outputs":[],"stateMutability":"nonpayable","type":"function"},{"inputs":[],"name":"withdrawFees","outputs":[],"stateMutability":"nonpayable","type":"function"}],"evm":{"bytecode":{"linkReferences":{},"object":"60806040523480156200001157600080fd5b5060405162005975380380620059758339810160408190526200003491620001a8565b6200003f336200013b565b600180556001600160a01b0383166200009f5760405162461bcd60e51b815260206004820152601560248201527f496e76616c69642066656520726563697069656e74000000000000000000000060448201526064015b60405180910390fd5b6103e8821115620000f35760405162461bcd60e51b815260206004820152601960248201527f46656520626173697320706f696e747320746f6f206869676800000000000000604482015260640162000096565b600280546001600160a01b0319166001600160a01b0385811691909117909155600383905560006004553390821614620001325762000132816200013b565b505050620001e9565b600080546001600160a01b038381166001600160a01b0319831681178455604051919092169283917f8be0079c531659141344cd1fd0a4f28419497f9722a3daafe3b4186f6b6457e09190a35050565b80516001600160a01b0381168114620001a357600080fd5b919050565b600080600060608486031215620001be57600080fd5b620001c9846200018b565b925060208401519150620001e0604085016200018b565b90509250925092565b61577c80620001f96000396000f3fe608060405260043610620001375760003560e01c806392f7c0c711620000ad578063dc488ad6116200006c578063dc488ad61462000398578063e54e26b914620003e8578063f0d74dff146200040d578063f2cff57f1462000432578063f2fde38b146200044a57600080fd5b806392f7c0c714620002fa5780639e1930851462000311578063b8606eef1462000336578063cc744993146200034e578063d264e453146200037357600080fd5b8063534860cc11620000fa578063534860cc146200022a5780635e1970f1146200024b578063715018a614620002885780638571476814620002a05780638da5cb5b14620002da57600080fd5b806318d3ce96146200013c5780634015cabd146200016c5780634690484014620001b0578063476343ee14620001eb578063499200db1462000205575b600080fd5b3480156200014957600080fd5b50620001546200046f565b60405162000163919062000d3b565b60405180910390f35b3480156200017957600080fd5b50600754600254600354604080519384524760208501526001600160a01b0390921691830191909152606082015260800162000163565b348015620001bd57600080fd5b50600254620001d2906001600160a01b031681565b6040516001600160a01b03909116815260200162000163565b348015620001f857600080fd5b5062000203620004d3565b005b3480156200021257600080fd5b50620002036200022436600462000d8a565b62000565565b3480156200023757600080fd5b506007545b60405190815260200162000163565b3480156200025857600080fd5b50620001d26200026a36600462000dc1565b6001600160a01b039081166000908152600660205260409020541690565b3480156200029557600080fd5b5062000203620005aa565b348015620002ad57600080fd5b50620001d2620002bf36600462000dc1565b6006602052600090815260409020546001600160a01b031681565b348015620002e757600080fd5b506000546001600160a01b0316620001d2565b620001d26200030b36600462000e91565b620005c2565b3480156200031e57600080fd5b50620002036200033036600462000dc1565b620008af565b3480156200034357600080fd5b506200023c60035481565b3480156200035b57600080fd5b50620001d26200036d36600462000f84565b620009c3565b3480156200038057600080fd5b50620001546200039236600462000dc1565b620009fc565b348015620003a557600080fd5b50620003d7620003b736600462000dc1565b6001600160a01b0390811660009081526006602052604090205416151590565b604051901515815260200162000163565b348015620003f557600080fd5b50620001d26200040736600462000d8a565b62000a74565b3480156200041a57600080fd5b50620002036200042c36600462000f84565b62000a9f565b3480156200043f57600080fd5b506200023c60045481565b3480156200045757600080fd5b50620002036200046936600462000dc1565b62000ba7565b60606007805480602002602001604051908101604052809291908181526020018280548015620004c957602002820191906000526020600020905b81546001600160a01b03168152600190910190602001808311620004aa575b5050505050905090565b620004dd62000c26565b4780620005275760405162461bcd60e51b81526020600482015260136024820152724e6f206665657320746f20776974686472617760681b60448201526064015b60405180910390fd5b600080546040516001600160a01b039091169183156108fc02918491818181858888f1935050505015801562000561573d6000803e3d6000fd5b5050565b6200056f62000c26565b60048190556040518181527f40bd824d588484917db8fa4fc894c1e0feae5a75885290ba7b97521cebf82a809060200160405180910390a150565b620005b462000c26565b620005c0600062000c82565b565b6000620005ce62000cd2565b600454341015620006225760405162461bcd60e51b815260206004820152601b60248201527f496e73756666696369656e74206465706c6f796d656e7420666565000000000060448201526064016200051e565b6000875111620006755760405162461bcd60e51b815260206004820152601a60248201527f47726f7570206e616d652063616e6e6f7420626520656d70747900000000000060448201526064016200051e565b6001600160a01b038216620006c35760405162461bcd60e51b8152602060048201526013602482015272496e76616c696420626f74206164647265737360681b60448201526064016200051e565b60003088888888888833604051620006db9062000d2d565b620006ee98979695949392919062000ff9565b604051809103906000f0801580156200070b573d6000803e3d6000fd5b503360008181526005602090815260408083208054600181810183559185528385200180546001600160a01b0388166001600160a01b031991821681179092558186526006909452918420805484169095179094556007805494850181559092527fa66cc928b5edb82af9bd49922954155ab7b0942694bea4ce44661d9a8736c6889092018054909216179055600454909150819015801590620007b957506002546001600160a01b031615155b15620007fe576002546004546040516001600160a01b039092169181156108fc0291906000818181858888f19350505050158015620007fc573d6000803e3d6000fd5b505b600454341115620008495760045433906108fc906200081e90346200109a565b6040518115909202916000818181858888f1935050505015801562000847573d6000803e3d6000fd5b505b806001600160a01b0316336001600160a01b03167f340591c16186b027312157b18dba74a1e46a25295ed940d7d2555ab2a22b2bee8b4260405162000890929190620010c2565b60405180910390a3915050620008a560018055565b9695505050505050565b620008b962000c26565b604051636e24456b60e11b81526001600160a01b0382166004820152309063dc488ad690602401602060405180830381865afa158015620008fe573d6000803e3d6000fd5b505050506040513d601f19601f82011682018060405250810190620009249190620010e6565b6200096b5760405162461bcd60e51b8152602060048201526016602482015275139bdd081848199858dd1bdc9e4818dbdb9d1c9858dd60521b60448201526064016200051e565b806001600160a01b031663e3d2d03a6040518163ffffffff1660e01b8152600401600060405180830381600087803b158015620009a757600080fd5b505af1158015620009bc573d6000803e3d6000fd5b5050505050565b60056020528160005260406000208181548110620009e057600080fd5b6000918252602090912001546001600160a01b03169150829050565b6001600160a01b03811660009081526005602090815260409182902080548351818402810184019094528084526060939283018282801562000a6857602002820191906000526020600020905b81546001600160a01b0316815260019091019060200180831162000a49575b50505050509050919050565b6007818154811062000a8557600080fd5b6000918252602090912001546001600160a01b0316905081565b62000aa962000c26565b6001600160a01b03821662000af95760405162461bcd60e51b8152602060048201526015602482015274125b9d985b1a5908199959481c9958da5c1a595b9d605a1b60448201526064016200051e565b6103e881111562000b4d5760405162461bcd60e51b815260206004820152601960248201527f46656520626173697320706f696e747320746f6f20686967680000000000000060448201526064016200051e565b600280546001600160a01b0319166001600160a01b03841690811790915560038290556040518281527fe7ea49c723218b7833a88cfe39ddd33bd3d9463ab674ffb881940a05bd8cc9789060200160405180910390a25050565b62000bb162000c26565b6001600160a01b03811662000c185760405162461bcd60e51b815260206004820152602660248201527f4f776e61626c653a206e6577206f776e657220697320746865207a65726f206160448201526564647265737360d01b60648201526084016200051e565b62000c238162000c82565b50565b6000546001600160a01b03163314620005c05760405162461bcd60e51b815260206004820181905260248201527f4f776e61626c653a2063616c6c6572206973206e6f7420746865206f776e657260448201526064016200051e565b600080546001600160a01b038381166001600160a01b0319831681178455604051919092169283917f8be0079c531659141344cd1fd0a4f28419497f9722a3daafe3b4186f6b6457e09190a35050565b60026001540362000d265760405162461bcd60e51b815260206004820152601f60248201527f5265656e7472616e637947756172643a207265656e7472616e742063616c6c0060448201526064016200051e565b6002600155565b61463c806200110b83390190565b6020808252825182820181905260009190848201906040850190845b8181101562000d7e5783516001600160a01b03168352928401929184019160010162000d57565b50909695505050505050565b60006020828403121562000d9d57600080fd5b5035919050565b80356001600160a01b038116811462000dbc57600080fd5b919050565b60006020828403121562000dd457600080fd5b62000ddf8262000da4565b9392505050565b634e487b7160e01b600052604160045260246000fd5b600082601f83011262000e0e57600080fd5b813567ffffffffffffffff8082111562000e2c5762000e2c62000de6565b604051601f8301601f19908116603f0116810190828211818310171562000e575762000e5762000de6565b8160405283815286602085880101111562000e7157600080fd5b836020870160208301376000602085830101528094505050505092915050565b60008060008060008060c0878903121562000eab57600080fd5b863567ffffffffffffffff8082111562000ec457600080fd5b62000ed28a838b0162000dfc565b9750602089013591508082111562000ee957600080fd5b62000ef78a838b0162000dfc565b9650604089013591508082111562000f0e57600080fd5b62000f1c8a838b0162000dfc565b9550606089013591508082111562000f3357600080fd5b62000f418a838b0162000dfc565b9450608089013591508082111562000f5857600080fd5b5062000f6789828a0162000dfc565b92505062000f7860a0880162000da4565b90509295509295509295565b6000806040838503121562000f9857600080fd5b62000fa38362000da4565b946020939093013593505050565b6000815180845260005b8181101562000fd95760208185018101518683018201520162000fbb565b506000602082860101526020601f19601f83011685010191505092915050565b6001600160a01b03898116825261010060208301819052600091620010218483018c62000fb1565b9150838203604085015262001037828b62000fb1565b915083820360608501526200104d828a62000fb1565b9150838203608085015262001063828962000fb1565b915083820360a085015262001079828862000fb1565b925080861660c085015280851660e085015250509998505050505050505050565b81810381811115620010bc57634e487b7160e01b600052601160045260246000fd5b92915050565b604081526000620010d7604083018562000fb1565b90508260208301529392505050565b600060208284031215620010f957600080fd5b8151801515811462000ddf57600080fdfe60806040523480156200001157600080fd5b506040516200463c3803806200463c8339810160408190526200003491620002f6565b6040805160208101909152600081526200004e81620001a8565b506200005a33620001ba565b6001600455600580546001600160a01b0319166001600160a01b038a1617905560066200008888826200049f565b5060076200009787826200049f565b506008620000a686826200049f565b506040805160a081018252858152602081018590526001600160a01b0384169181019190915260016060820152426080820152600980620000e887826200049f565b5060208201516001820190620000ff90826200049f565b50604082015160028201805460608501511515600160a01b026001600160a81b03199091166001600160a01b03938416171790556080909201516003909101558116331462000153576200015381620001ba565b816001600160a01b03167f5bd2d155ed1076bdd300b62402f71b052eff6f9ed7c9b91d25e3a9477c7f47b8858542604051620001929392919062000599565b60405180910390a25050505050505050620005d3565b6002620001b682826200049f565b5050565b600380546001600160a01b038381166001600160a01b0319831681179093556040519116919082907f8be0079c531659141344cd1fd0a4f28419497f9722a3daafe3b4186f6b6457e090600090a35050565b80516001600160a01b03811681146200022457600080fd5b919050565b634e487b7160e01b600052604160045260246000fd5b60005b838110156200025c57818101518382015260200162000242565b50506000910152565b600082601f8301126200027757600080fd5b81516001600160401b038082111562000294576200029462000229565b604051601f8301601f19908116603f01168101908282118183101715620002bf57620002bf62000229565b81604052838152866020858801011115620002d957600080fd5b620002ec8460208301602089016200023f565b9695505050505050565b600080600080600080600080610100898b0312156200031457600080fd5b6200031f896200020c565b60208a01519098506001600160401b03808211156200033d57600080fd5b6200034b8c838d0162000265565b985060408b01519150808211156200036257600080fd5b620003708c838d0162000265565b975060608b01519150808211156200038757600080fd5b620003958c838d0162000265565b965060808b0151915080821115620003ac57600080fd5b620003ba8c838d0162000265565b955060a08b0151915080821115620003d157600080fd5b50620003e08b828c0162000265565b935050620003f160c08a016200020c565b91506200040160e08a016200020c565b90509295985092959890939650565b600181811c908216806200042557607f821691505b6020821081036200044657634e487b7160e01b600052602260045260246000fd5b50919050565b601f8211156200049a57600081815260208120601f850160051c81016020861015620004755750805b601f850160051c820191505b81811015620004965782815560010162000481565b5050505b505050565b81516001600160401b03811115620004bb57620004bb62000229565b620004d381620004cc845462000410565b846200044c565b602080601f8311600181146200050b5760008415620004f25750858301515b600019600386901b1c1916600185901b17855562000496565b600085815260208120601f198616915b828110156200053c578886015182559484019460019091019084016200051b565b50858210156200055b5787850151600019600388901b60f8161c191681555b5050505050600190811b01905550565b60008151808452620005858160208601602086016200023f565b601f01601f19169290920160200192915050565b606081526000620005ae60608301866200056b565b8281036020840152620005c281866200056b565b915050826040830152949350505050565b61405980620005e36000396000f3fe6080604052600436106102035760003560e01c8063783cec8011610118578063c6e5d8f6116100a0578063e86609031161006f578063e86609031461060a578063e985e9c51461064b578063f242432a14610694578063f2fde38b146106b4578063f906b99c146106d457600080fd5b8063c6e5d8f61461058f578063cf2c0334146105af578063d0c2ed9f146105cf578063e3d2d03a146105f557600080fd5b8063a22cb465116100e7578063a22cb465146104fc578063a6b73de51461051c578063b2610aaa1461053c578063b91d0a2f1461055c578063c45a01551461056f57600080fd5b8063783cec801461046857806379146fbe1461047d5780638c09bb591461049d5780638da5cb5b146104ca57600080fd5b80632829fc531161019b5780634e1273f41161016a5780634e1273f4146103ae57806352394573146103ce5780635ff58cbb146103ee5780636ff8f2f714610426578063715018a61461045357600080fd5b80632829fc53146103315780632eb2c2d61461036457806335eb9f2e146103845780633ccfd60b1461039957600080fd5b8063030c61fb116101d7578063030c61fb146102af5780630a035284146102cf5780630e89341c146102ef57806321d8dc4c1461031c57600080fd5b8062fdd58e14610208578063016b51091461023b57806301ffc9a71461025d57806302f73f2d1461028d575b600080fd5b34801561021457600080fd5b506102286102233660046131c2565b610708565b6040519081526020015b60405180910390f35b34801561024757600080fd5b5061025b6102563660046132a3565b6107a1565b005b34801561026957600080fd5b5061027d610278366004613382565b61099c565b6040519015158152602001610232565b34801561029957600080fd5b506102a26109ec565b60405161023291906133da565b3480156102bb57600080fd5b5061025b6102ca3660046133ed565b610b1d565b3480156102db57600080fd5b5061027d6102ea36600461343c565b610d4b565b3480156102fb57600080fd5b5061030f61030a366004613478565b610df6565b60405161023291906134e1565b34801561032857600080fd5b5061030f6110b0565b34801561033d57600080fd5b5061035161034c366004613478565b61113e565b60405161023297969594939291906134f4565b34801561037057600080fd5b5061025b61037f3660046135d8565b611222565b34801561039057600080fd5b5061030f61126e565b3480156103a557600080fd5b5061025b61127b565b3480156103ba57600080fd5b506102a26103c93660046136f4565b611308565b3480156103da57600080fd5b5061025b6103e936600461374d565b611429565b3480156103fa57600080fd5b506102286104093660046131c2565b601060209081526000928352604080842090915290825290205481565b34801561043257600080fd5b50610446610441366004613478565b6114aa565b60405161023291906137c4565b34801561045f57600080fd5b5061025b611649565b34801561047457600080fd5b5061030f61165d565b34801561048957600080fd5b5061027d610498366004613833565b61166a565b3480156104a957600080fd5b506104bd6104b8366004613850565b6116f8565b6040516102329190613884565b3480156104d657600080fd5b506003546001600160a01b03165b6040516001600160a01b039091168152602001610232565b34801561050857600080fd5b5061025b6105173660046138d8565b61181d565b34801561052857600080fd5b5061025b610537366004613911565b611828565b34801561054857600080fd5b5061030f610557366004613833565b6119ab565b61025b61056a366004613478565b6119c4565b34801561057b57600080fd5b506005546104e4906001600160a01b031681565b34801561059b57600080fd5b506102a26105aa366004613833565b611fc9565b3480156105bb57600080fd5b506102286105ca3660046131c2565b612035565b3480156105db57600080fd5b506105e4612066565b604051610232959493929190613969565b34801561060157600080fd5b5061025b6121a8565b34801561061657600080fd5b506104e461062536600461343c565b8051602081830181018051600e825292820191909301209152546001600160a01b031681565b34801561065757600080fd5b5061027d6106663660046139b5565b6001600160a01b03918216600090815260016020908152604080832093909416825291909152205460ff1690565b3480156106a057600080fd5b5061025b6106af3660046139e3565b6121d1565b3480156106c057600080fd5b5061025b6106cf366004613833565b612216565b3480156106e057600080fd5b506106f46106ef366004613478565b61228c565b604051610232989796959493929190613a4b565b60006001600160a01b0383166107785760405162461bcd60e51b815260206004820152602a60248201527f455243313135353a2061646472657373207a65726f206973206e6f742061207660448201526930b634b21037bbb732b960b11b60648201526084015b60405180910390fd5b506000818152602081815260408083206001600160a01b03861684529091529020545b92915050565b6107a96124f1565b600086116107f95760405162461bcd60e51b815260206004820152601960248201527f4475726174696f6e206d75737420626520706f73697469766500000000000000604482015260640161076f565b600085116108425760405162461bcd60e51b81526020600482015260166024820152755072696365206d75737420626520706f73697469766560501b604482015260640161076f565b60008451116108835760405162461bcd60e51b815260206004820152600d60248201526c13985b59481c995c5d5a5c9959609a1b604482015260640161076f565b60408051610100810182528781526020808201888152828401888152606084018890526080840187905260a08401869052600160c085018190524260e086015260008d8152600f90945294909220835181559051938101939093555190919060028201906108f19082613b44565b50606082015160038201906109069082613b44565b506080820151600482019061091b9082613b44565b5060a082015160058201906109309082613b44565b5060c082015160068201805460ff191691151591909117905560e09091015160079091015560405187907f71ee33549aa6be67d7c282688e8b683bb21a476171c3bc5a6c8b17b2c9f82a529061098b90899089908990613c03565b60405180910390a250505050505050565b60006001600160e01b03198216636cdb3d1360e11b14806109cd57506001600160e01b031982166303a24d0760e21b145b8061079b57506301ffc9a760e01b6001600160e01b031983161461079b565b60408051600a8082526101608201909252606091600091906020820161014080368337019050509050600060015b600a8111610a7a576000818152600f602052604090206006015460ff1615610a685780838381518110610a4f57610a4f613c2b565b602090810291909101015281610a6481613c57565b9250505b80610a7281613c57565b915050610a1a565b506000816001600160401b03811115610a9557610a956131ee565b604051908082528060200260200182016040528015610abe578160200160208202803683370190505b50905060005b82811015610b1557838181518110610ade57610ade613c2b565b6020026020010151828281518110610af857610af8613c2b565b602090810291909101015280610b0d81613c57565b915050610ac4565b509392505050565b600b546001600160a01b0316331480610b4057506003546001600160a01b031633145b610b7d5760405162461bcd60e51b815260206004820152600e60248201526d139bdd08185d5d1a1bdc9a5e995960921b604482015260640161076f565b6000815111610bc15760405162461bcd60e51b815260206004820152601060248201526f125b9d985b1a59081a5b989bde08125160821b604482015260640161076f565b6001600160a01b0382166000908152600d602052604081208054610be490613abf565b80601f0160208091040260200160405190810160405280929190818152602001828054610c1090613abf565b8015610c5d5780601f10610c3257610100808354040283529160200191610c5d565b820191906000526020600020905b815481529060010190602001808311610c4057829003601f168201915b50505050509050600081511115610c9c57600e81604051610c7e9190613c70565b90815260405190819003602001902080546001600160a01b03191690555b6001600160a01b0383166000908152600d60205260409020610cbe8382613b44565b5082600e83604051610cd09190613c70565b90815260405190819003602001812080546001600160a01b03939093166001600160a01b031990931692909217909155610d0b908390613c70565b604051908190038120906001600160a01b038516907f8b4881c75a7edfc0e7b573ef45189a69862c36b7419abe831c60fcac34ed201e90600090a3505050565b600080600e83604051610d5e9190613c70565b908152604051908190036020019020546001600160a01b0316905080610d875750600092915050565b604051633c8a37df60e11b81526001600160a01b038216600482015230906379146fbe90602401602060405180830381865afa158015610dcb573d6000803e3d6000fd5b505050506040513d601f19601f82011682018060405250810190610def9190613c8c565b9392505050565b60606000600f6000848152602001908152602001600020604051806101000160405290816000820154815260200160018201548152602001600282018054610e3d90613abf565b80601f0160208091040260200160405190810160405280929190818152602001828054610e6990613abf565b8015610eb65780601f10610e8b57610100808354040283529160200191610eb6565b820191906000526020600020905b815481529060010190602001808311610e9957829003601f168201915b50505050508152602001600382018054610ecf90613abf565b80601f0160208091040260200160405190810160405280929190818152602001828054610efb90613abf565b8015610f485780601f10610f1d57610100808354040283529160200191610f48565b820191906000526020600020905b815481529060010190602001808311610f2b57829003601f168201915b50505050508152602001600482018054610f6190613abf565b80601f0160208091040260200160405190810160405280929190818152602001828054610f8d90613abf565b8015610fda5780601f10610faf57610100808354040283529160200191610fda565b820191906000526020600020905b815481529060010190602001808311610fbd57829003601f168201915b50505050508152602001600582018054610ff390613abf565b80601f016020809104026020016040519081016040528092919081815260200182805461101f90613abf565b801561106c5780601f106110415761010080835404028352916020019161106c565b820191906000526020600020905b81548152906001019060200180831161104f57829003601f168201915b5050509183525050600682015460ff161515602082015260079091015460409091015260a081015151909150156110a75760a0015192915050565b610def8361254b565b600880546110bd90613abf565b80601f01602080910402602001604051908101604052809291908181526020018280546110e990613abf565b80156111365780601f1061110b57610100808354040283529160200191611136565b820191906000526020600020905b81548152906001019060200180831161111957829003601f168201915b505050505081565b6011818154811061114e57600080fd5b6000918252602090912060079091020180546001820180546001600160a01b0390921693509061117d90613abf565b80601f01602080910402602001604051908101604052809291908181526020018280546111a990613abf565b80156111f65780601f106111cb576101008083540402835291602001916111f6565b820191906000526020600020905b8154815290600101906020018083116111d957829003601f168201915b505050600284015460038501546004860154600587015460069097015495969295919450925060ff1687565b6001600160a01b03851633148061123e575061123e8533610666565b61125a5760405162461bcd60e51b815260040161076f90613ca9565b61126785858585856125d5565b5050505050565b600780546110bd90613abf565b6112836124f1565b47806112ca5760405162461bcd60e51b81526020600482015260166024820152754e6f2062616c616e636520746f20776974686472617760501b604482015260640161076f565b6003546040516001600160a01b039091169082156108fc029083906000818181858888f19350505050158015611304573d6000803e3d6000fd5b5050565b6060815183511461136d5760405162461bcd60e51b815260206004820152602960248201527f455243313135353a206163636f756e747320616e6420696473206c656e677468604482015268040dad2e6dac2e8c6d60bb1b606482015260840161076f565b600083516001600160401b03811115611388576113886131ee565b6040519080825280602002602001820160405280156113b1578160200160208202803683370190505b50905060005b8451811015610b15576113fc8582815181106113d5576113d5613c2b565b60200260200101518583815181106113ef576113ef613c2b565b6020026020010151610708565b82828151811061140e5761140e613c2b565b602090810291909101015261142281613c57565b90506113b7565b6114316124f1565b600961143d8482613b44565b50600a61144a8382613b44565b50600b80546001600160a01b0319166001600160a01b0383169081179091556040517f5bd2d155ed1076bdd300b62402f71b052eff6f9ed7c9b91d25e3a9477c7f47b89061149d90869086904290613cf7565b60405180910390a2505050565b6114f56040518060e0016040528060006001600160a01b0316815260200160608152602001600081526020016000815260200160008152602001600081526020016000151581525090565b60115482106115365760405162461bcd60e51b815260206004820152600d60248201526c092dcecc2d8d2c840d2dcc8caf609b1b604482015260640161076f565b6011828154811061154957611549613c2b565b60009182526020918290206040805160e0810190915260079092020180546001600160a01b03168252600181018054929391929184019161158990613abf565b80601f01602080910402602001604051908101604052809291908181526020018280546115b590613abf565b80156116025780601f106115d757610100808354040283529160200191611602565b820191906000526020600020905b8154815290600101906020018083116115e557829003601f168201915b50505091835250506002820154602082015260038201546040820152600482015460608201526005820154608082015260069091015460ff16151560a09091015292915050565b6116516124f1565b61165b60006127b2565b565b600680546110bd90613abf565b600060015b600a81116116ef576000818152600f602052604090206006015460ff1680156116a15750600061169f8483610708565b115b80156116cf57506001600160a01b038316600090815260106020908152604080832084845290915290205442105b156116dd5750600192915050565b806116e781613c57565b91505061166f565b50600092915050565b6060600082516001600160401b03811115611715576117156131ee565b60405190808252806020026020018201604052801561173e578160200160208202803683370190505b50905060005b835181101561181657306001600160a01b03166379146fbe85838151811061176e5761176e613c2b565b60200260200101516040518263ffffffff1660e01b81526004016117a191906001600160a01b0391909116815260200190565b602060405180830381865afa1580156117be573d6000803e3d6000fd5b505050506040513d601f19601f820116820180604052508101906117e29190613c8c565b8282815181106117f4576117f4613c2b565b911515602092830291909101909101528061180e81613c57565b915050611744565b5092915050565b611304338383612804565b6118306124f1565b600061183c8484610708565b1161187e5760405162461bcd60e51b81526020600482015260126024820152715573657220686173206e6f20746f6b656e7360701b604482015260640161076f565b611892838361188d8686610708565b6128e4565b6001600160a01b03831660008181526010602090815260408083208684528252808320839055928252600d905290812080546118cd90613abf565b80601f01602080910402602001604051908101604052809291908181526020018280546118f990613abf565b80156119465780601f1061191b57610100808354040283529160200191611946565b820191906000526020600020905b81548152906001019060200180831161192957829003601f168201915b50505050509050828160405161195c9190613c70565b6040518091039020856001600160a01b03167f1f50cca6e190c91c85b4889563d4100095e7bdf0deab20ad9e944cf9009149fc8560405161199d91906134e1565b60405180910390a450505050565b600d60205260009081526040902080546110bd90613abf565b6119cc612a65565b6000600f6000838152602001908152602001600020604051806101000160405290816000820154815260200160018201548152602001600282018054611a1190613abf565b80601f0160208091040260200160405190810160405280929190818152602001828054611a3d90613abf565b8015611a8a5780601f10611a5f57610100808354040283529160200191611a8a565b820191906000526020600020905b815481529060010190602001808311611a6d57829003601f168201915b50505050508152602001600382018054611aa390613abf565b80601f0160208091040260200160405190810160405280929190818152602001828054611acf90613abf565b8015611b1c5780601f10611af157610100808354040283529160200191611b1c565b820191906000526020600020905b815481529060010190602001808311611aff57829003601f168201915b50505050508152602001600482018054611b3590613abf565b80601f0160208091040260200160405190810160405280929190818152602001828054611b6190613abf565b8015611bae5780601f10611b8357610100808354040283529160200191611bae565b820191906000526020600020905b815481529060010190602001808311611b9157829003601f168201915b50505050508152602001600582018054611bc790613abf565b80601f0160208091040260200160405190810160405280929190818152602001828054611bf390613abf565b8015611c405780601f10611c1557610100808354040283529160200191611c40565b820191906000526020600020905b815481529060010190602001808311611c2357829003601f168201915b5050509183525050600682015460ff161515602082015260079091015460409091015260c0810151909150611cb05760405162461bcd60e51b81526020600482015260166024820152754163636573732074696572206e6f742061637469766560501b604482015260640161076f565b8060200151341015611cfb5760405162461bcd60e51b8152602060048201526014602482015273125b9cdd59999a58da595b9d081c185e5b595b9d60621b604482015260640161076f565b8051600090611d0d9062015180613d2d565b611d179042613d44565b9050611d353384600160405180602001604052806000815250612abe565b3360008181526010602090815260408083208784528252808320859055928252600d90529081208054611d6790613abf565b80601f0160208091040260200160405190810160405280929190818152602001828054611d9390613abf565b8015611de05780601f10611db557610100808354040283529160200191611de0565b820191906000526020600020905b815481529060010190602001808311611dc357829003601f168201915b50506040805160e081018252338152602081018681529181018a905234606082015242608082015260a08101889052600160c0820181905260118054918201815560005281517f31ecc21a745e3968a04e9570e4425bc18fa8019c68028196b546d1669c200c68600790920291820180546001600160a01b0319166001600160a01b03909216919091178155925196975090959194507f31ecc21a745e3968a04e9570e4425bc18fa8019c68028196b546d1669c200c69019250611ea5915082613b44565b506040828101516002830155606083015160038301556080830151600483015560a0830151600583015560c0909201516006909101805460ff1916911515919091179055336000908152601260205220601154611f0490600190613d57565b81546001810183556000928352602090922090910155611f2334612bc9565b8260200151341115611f6e57602083015133906108fc90611f449034613d57565b6040518115909202916000818181858888f19350505050158015611f6c573d6000803e3d6000fd5b505b8381604051611f7d9190613c70565b6040519081900381208482529033907f832e3266eda251722a299e9cec6db5e6c82c1590615bf7f40f0d6f6651b403a19060200160405180910390a4505050611fc66001600455565b50565b6001600160a01b03811660009081526012602090815260409182902080548351818402810184019094528084526060939283018282801561202957602002820191906000526020600020905b815481526020019060010190808311612015575b50505050509050919050565b6012602052816000526040600020818154811061205157600080fd5b90600052602060002001600091509150505481565b60098054819061207590613abf565b80601f01602080910402602001604051908101604052809291908181526020018280546120a190613abf565b80156120ee5780601f106120c3576101008083540402835291602001916120ee565b820191906000526020600020905b8154815290600101906020018083116120d157829003601f168201915b50505050509080600101805461210390613abf565b80601f016020809104026020016040519081016040528092919081815260200182805461212f90613abf565b801561217c5780601f106121515761010080835404028352916020019161217c565b820191906000526020600020905b81548152906001019060200180831161215f57829003601f168201915b50505050600283015460039093015491926001600160a01b03811692600160a01b90910460ff16915085565b6121b06124f1565b600b805460ff60a01b198116600160a01b9182900460ff1615909102179055565b6001600160a01b0385163314806121ed57506121ed8533610666565b6122095760405162461bcd60e51b815260040161076f90613ca9565b6112678585858585612e22565b61221e6124f1565b6001600160a01b0381166122835760405162461bcd60e51b815260206004820152602660248201527f4f776e61626c653a206e6577206f776e657220697320746865207a65726f206160448201526564647265737360d01b606482015260840161076f565b611fc6816127b2565b600f60205260009081526040902080546001820154600283018054929391926122b490613abf565b80601f01602080910402602001604051908101604052809291908181526020018280546122e090613abf565b801561232d5780601f106123025761010080835404028352916020019161232d565b820191906000526020600020905b81548152906001019060200180831161231057829003601f168201915b50505050509080600301805461234290613abf565b80601f016020809104026020016040519081016040528092919081815260200182805461236e90613abf565b80156123bb5780601f10612390576101008083540402835291602001916123bb565b820191906000526020600020905b81548152906001019060200180831161239e57829003601f168201915b5050505050908060040180546123d090613abf565b80601f01602080910402602001604051908101604052809291908181526020018280546123fc90613abf565b80156124495780601f1061241e57610100808354040283529160200191612449565b820191906000526020600020905b81548152906001019060200180831161242c57829003601f168201915b50505050509080600501805461245e90613abf565b80601f016020809104026020016040519081016040528092919081815260200182805461248a90613abf565b80156124d75780601f106124ac576101008083540402835291602001916124d7565b820191906000526020600020905b8154815290600101906020018083116124ba57829003601f168201915b505050506006830154600790930154919260ff1691905088565b6003546001600160a01b0316331461165b5760405162461bcd60e51b815260206004820181905260248201527f4f776e61626c653a2063616c6c6572206973206e6f7420746865206f776e6572604482015260640161076f565b60606002805461255a90613abf565b80601f016020809104026020016040519081016040528092919081815260200182805461258690613abf565b80156120295780601f106125a857610100808354040283529160200191612029565b820191906000526020600020905b8154815290600101906020018083116125b65750939695505050505050565b81518351146126375760405162461bcd60e51b815260206004820152602860248201527f455243313135353a2069647320616e6420616d6f756e7473206c656e677468206044820152670dad2e6dac2e8c6d60c31b606482015260840161076f565b6001600160a01b03841661265d5760405162461bcd60e51b815260040161076f90613d6a565b3360005b845181101561274457600085828151811061267e5761267e613c2b565b60200260200101519050600085838151811061269c5761269c613c2b565b602090810291909101810151600084815280835260408082206001600160a01b038e1683529093529190912054909150818110156126ec5760405162461bcd60e51b815260040161076f90613daf565b6000838152602081815260408083206001600160a01b038e8116855292528083208585039055908b16825281208054849290612729908490613d44565b925050819055505050508061273d90613c57565b9050612661565b50846001600160a01b0316866001600160a01b0316826001600160a01b03167f4a39dc06d4c0dbc64b70af90fd698a233a518aa5d07e595d983b8c0526c8f7fb8787604051612794929190613df9565b60405180910390a46127aa818787878787612f4c565b505050505050565b600380546001600160a01b038381166001600160a01b0319831681179093556040519116919082907f8be0079c531659141344cd1fd0a4f28419497f9722a3daafe3b4186f6b6457e090600090a35050565b816001600160a01b0316836001600160a01b0316036128775760405162461bcd60e51b815260206004820152602960248201527f455243313135353a2073657474696e6720617070726f76616c20737461747573604482015268103337b91039b2b63360b91b606482015260840161076f565b6001600160a01b03838116600081815260016020908152604080832094871680845294825291829020805460ff191686151590811790915591519182527f17307eab39ab6107e8899845ad3d59bd9653f200f220920489ca2b5937696c31910160405180910390a3505050565b6001600160a01b0383166129465760405162461bcd60e51b815260206004820152602360248201527f455243313135353a206275726e2066726f6d20746865207a65726f206164647260448201526265737360e81b606482015260840161076f565b336000612952846130a7565b9050600061295f846130a7565b60408051602080820183526000918290528882528181528282206001600160a01b038b16835290522054909150848110156129e85760405162461bcd60e51b8152602060048201526024808201527f455243313135353a206275726e20616d6f756e7420657863656564732062616c604482015263616e636560e01b606482015260840161076f565b6000868152602081815260408083206001600160a01b038b81168086529184528285208a8703905582518b81529384018a90529092908816917fc3d58168c5ae7397731d063d5bbf3d657854427343f4c083240f7aacaa2d0f62910160405180910390a46040805160208101909152600090525b50505050505050565b600260045403612ab75760405162461bcd60e51b815260206004820152601f60248201527f5265656e7472616e637947756172643a207265656e7472616e742063616c6c00604482015260640161076f565b6002600455565b6001600160a01b038416612b1e5760405162461bcd60e51b815260206004820152602160248201527f455243313135353a206d696e7420746f20746865207a65726f206164647265736044820152607360f81b606482015260840161076f565b336000612b2a856130a7565b90506000612b37856130a7565b90506000868152602081815260408083206001600160a01b038b16845290915281208054879290612b69908490613d44565b909155505060408051878152602081018790526001600160a01b03808a1692600092918716917fc3d58168c5ae7397731d063d5bbf3d657854427343f4c083240f7aacaa2d0f62910160405180910390a4612a5c836000898989896130f2565b60055460408051600481526024810182526020810180516001600160e01b031663b8606eef60e01b179052905160009283926001600160a01b0390911691612c119190613c70565b6000604051808303816000865af19150503d8060008114612c4e576040519150601f19603f3d011682016040523d82523d6000602084013e612c53565b606091505b509150915081612ca55760405162461bcd60e51b815260206004820152601e60248201527f4661696c656420746f206765742066656520626173697320706f696e74730000604482015260640161076f565b600081806020019051810190612cbb9190613e1e565b60055460408051600481526024810182526020810180516001600160e01b031663011a412160e61b17905290519293506001600160a01b0390911691612d019190613c70565b6000604051808303816000865af19150503d8060008114612d3e576040519150601f19603f3d011682016040523d82523d6000602084013e612d43565b606091505b50909350915082612d965760405162461bcd60e51b815260206004820152601b60248201527f4661696c656420746f206765742066656520726563697069656e740000000000604482015260640161076f565b600082806020019051810190612dac9190613e37565b9050600082118015612dc657506001600160a01b03811615155b15611267576000612710612dda8488613d2d565b612de49190613e54565b905080156127aa576040516001600160a01b0383169082156108fc029083906000818181858888f19350505050158015612a5c573d6000803e3d6000fd5b6001600160a01b038416612e485760405162461bcd60e51b815260040161076f90613d6a565b336000612e54856130a7565b90506000612e61856130a7565b90506000868152602081815260408083206001600160a01b038c16845290915290205485811015612ea45760405162461bcd60e51b815260040161076f90613daf565b6000878152602081815260408083206001600160a01b038d8116855292528083208985039055908a16825281208054889290612ee1908490613d44565b909155505060408051888152602081018890526001600160a01b03808b16928c821692918816917fc3d58168c5ae7397731d063d5bbf3d657854427343f4c083240f7aacaa2d0f62910160405180910390a4612f41848a8a8a8a8a6130f2565b505050505050505050565b6001600160a01b0384163b156127aa5760405163bc197c8160e01b81526001600160a01b0385169063bc197c8190612f909089908990889088908890600401613e76565b6020604051808303816000875af1925050508015612fcb575060408051601f3d908101601f19168201909252612fc891810190613ed4565b60015b61307757612fd7613ef1565b806308c379a0036130105750612feb613f0d565b80612ff65750613012565b8060405162461bcd60e51b815260040161076f91906134e1565b505b60405162461bcd60e51b815260206004820152603460248201527f455243313135353a207472616e7366657220746f206e6f6e2d455243313135356044820152732932b1b2b4bb32b91034b6b83632b6b2b73a32b960611b606482015260840161076f565b6001600160e01b0319811663bc197c8160e01b14612a5c5760405162461bcd60e51b815260040161076f90613f96565b604080516001808252818301909252606091600091906020808301908036833701905050905082816000815181106130e1576130e1613c2b565b602090810291909101015292915050565b6001600160a01b0384163b156127aa5760405163f23a6e6160e01b81526001600160a01b0385169063f23a6e61906131369089908990889088908890600401613fde565b6020604051808303816000875af1925050508015613171575060408051601f3d908101601f1916820190925261316e91810190613ed4565b60015b61317d57612fd7613ef1565b6001600160e01b0319811663f23a6e6160e01b14612a5c5760405162461bcd60e51b815260040161076f90613f96565b6001600160a01b0381168114611fc657600080fd5b600080604083850312156131d557600080fd5b82356131e0816131ad565b946020939093013593505050565b634e487b7160e01b600052604160045260246000fd5b601f8201601f191681016001600160401b0381118282101715613229576132296131ee565b6040525050565b600082601f83011261324157600080fd5b81356001600160401b0381111561325a5761325a6131ee565b604051613271601f8301601f191660200182613204565b81815284602083860101111561328657600080fd5b816020850160208301376000918101602001919091529392505050565b600080600080600080600060e0888a0312156132be57600080fd5b87359650602088013595506040880135945060608801356001600160401b03808211156132ea57600080fd5b6132f68b838c01613230565b955060808a013591508082111561330c57600080fd5b6133188b838c01613230565b945060a08a013591508082111561332e57600080fd5b61333a8b838c01613230565b935060c08a013591508082111561335057600080fd5b5061335d8a828b01613230565b91505092959891949750929550565b6001600160e01b031981168114611fc657600080fd5b60006020828403121561339457600080fd5b8135610def8161336c565b600081518084526020808501945080840160005b838110156133cf578151875295820195908201906001016133b3565b509495945050505050565b602081526000610def602083018461339f565b6000806040838503121561340057600080fd5b823561340b816131ad565b915060208301356001600160401b0381111561342657600080fd5b61343285828601613230565b9150509250929050565b60006020828403121561344e57600080fd5b81356001600160401b0381111561346457600080fd5b61347084828501613230565b949350505050565b60006020828403121561348a57600080fd5b5035919050565b60005b838110156134ac578181015183820152602001613494565b50506000910152565b600081518084526134cd816020860160208601613491565b601f01601f19169290920160200192915050565b602081526000610def60208301846134b5565b6001600160a01b038816815260e060208201819052600090613518908301896134b5565b6040830197909752506060810194909452608084019290925260a0830152151560c09091015292915050565b60006001600160401b0382111561355d5761355d6131ee565b5060051b60200190565b600082601f83011261357857600080fd5b8135602061358582613544565b6040516135928282613204565b83815260059390931b85018201928281019150868411156135b257600080fd5b8286015b848110156135cd57803583529183019183016135b6565b509695505050505050565b600080600080600060a086880312156135f057600080fd5b85356135fb816131ad565b9450602086013561360b816131ad565b935060408601356001600160401b038082111561362757600080fd5b61363389838a01613567565b9450606088013591508082111561364957600080fd5b61365589838a01613567565b9350608088013591508082111561366b57600080fd5b5061367888828901613230565b9150509295509295909350565b600082601f83011261369657600080fd5b813560206136a382613544565b6040516136b08282613204565b83815260059390931b85018201928281019150868411156136d057600080fd5b8286015b848110156135cd5780356136e7816131ad565b83529183019183016136d4565b6000806040838503121561370757600080fd5b82356001600160401b038082111561371e57600080fd5b61372a86838701613685565b9350602085013591508082111561374057600080fd5b5061343285828601613567565b60008060006060848603121561376257600080fd5b83356001600160401b038082111561377957600080fd5b61378587838801613230565b9450602086013591508082111561379b57600080fd5b506137a886828701613230565b92505060408401356137b9816131ad565b809150509250925092565b602080825282516001600160a01b03168282015282015160e060408301526000906137f36101008401826134b5565b90506040840151606084015260608401516080840152608084015160a084015260a084015160c084015260c0840151151560e08401528091505092915050565b60006020828403121561384557600080fd5b8135610def816131ad565b60006020828403121561386257600080fd5b81356001600160401b0381111561387857600080fd5b61347084828501613685565b6020808252825182820181905260009190848201906040850190845b818110156138be5783511515835292840192918401916001016138a0565b50909695505050505050565b8015158114611fc657600080fd5b600080604083850312156138eb57600080fd5b82356138f6816131ad565b91506020830135613906816138ca565b809150509250929050565b60008060006060848603121561392657600080fd5b8335613931816131ad565b92506020840135915060408401356001600160401b0381111561395357600080fd5b61395f86828701613230565b9150509250925092565b60a08152600061397c60a08301886134b5565b828103602084015261398e81886134b5565b6001600160a01b039690961660408401525050911515606083015260809091015292915050565b600080604083850312156139c857600080fd5b82356139d3816131ad565b91506020830135613906816131ad565b600080600080600060a086880312156139fb57600080fd5b8535613a06816131ad565b94506020860135613a16816131ad565b9350604086013592506060860135915060808601356001600160401b03811115613a3f57600080fd5b61367888828901613230565b60006101008a8352896020840152806040840152613a6b8184018a6134b5565b90508281036060840152613a7f81896134b5565b90508281036080840152613a9381886134b5565b905082810360a0840152613aa781876134b5565b94151560c0840152505060e001529695505050505050565b600181811c90821680613ad357607f821691505b602082108103613af357634e487b7160e01b600052602260045260246000fd5b50919050565b601f821115613b3f57600081815260208120601f850160051c81016020861015613b205750805b601f850160051c820191505b818110156127aa57828155600101613b2c565b505050565b81516001600160401b03811115613b5d57613b5d6131ee565b613b7181613b6b8454613abf565b84613af9565b602080601f831160018114613ba65760008415613b8e5750858301515b600019600386901b1c1916600185901b1785556127aa565b600085815260208120601f198616915b82811015613bd557888601518255948401946001909101908401613bb6565b5085821015613bf35787850151600019600388901b60f8161c191681555b5050505050600190811b01905550565b838152826020820152606060408201526000613c2260608301846134b5565b95945050505050565b634e487b7160e01b600052603260045260246000fd5b634e487b7160e01b600052601160045260246000fd5b600060018201613c6957613c69613c41565b5060010190565b60008251613c82818460208701613491565b9190910192915050565b600060208284031215613c9e57600080fd5b8151610def816138ca565b6020808252602e908201527f455243313135353a2063616c6c6572206973206e6f7420746f6b656e206f776e60408201526d195c881bdc88185c1c1c9bdd995960921b606082015260800190565b606081526000613d0a60608301866134b5565b8281036020840152613d1c81866134b5565b915050826040830152949350505050565b808202811582820484141761079b5761079b613c41565b8082018082111561079b5761079b613c41565b8181038181111561079b5761079b613c41565b60208082526025908201527f455243313135353a207472616e7366657220746f20746865207a65726f206164604082015264647265737360d81b606082015260800190565b6020808252602a908201527f455243313135353a20696e73756666696369656e742062616c616e636520666f60408201526939103a3930b739b332b960b11b606082015260800190565b604081526000613e0c604083018561339f565b8281036020840152613c22818561339f565b600060208284031215613e3057600080fd5b5051919050565b600060208284031215613e4957600080fd5b8151610def816131ad565b600082613e7157634e487b7160e01b600052601260045260246000fd5b500490565b6001600160a01b0386811682528516602082015260a060408201819052600090613ea29083018661339f565b8281036060840152613eb4818661339f565b90508281036080840152613ec881856134b5565b98975050505050505050565b600060208284031215613ee657600080fd5b8151610def8161336c565b600060033d1115613f0a5760046000803e5060005160e01c5b90565b600060443d1015613f1b5790565b6040516003193d81016004833e81513d6001600160401b038160248401118184111715613f4a57505050505090565b8285019150815181811115613f625750505050505090565b843d8701016020828501011115613f7c5750505050505090565b613f8b60208286010187613204565b509095945050505050565b60208082526028908201527f455243313135353a204552433131353552656365697665722072656a656374656040820152676420746f6b656e7360c01b606082015260800190565b6001600160a01b03868116825285166020820152604081018490526060810183905260a060808201819052600090614018908301846134b5565b97965050505050505056fea2646970667358221220f9944f8535ae0a6a0def312879ddc961ecfab4ab5df0611f2666e28ef3c3ce6f64736f6c63430008140033a2646970667358221220a136c27cf61a92fcddc2f996fd86c4729ec6d487e99f3209e6658b62e8cf528864736f6c63430008140033","opcodes":"PUSH1 0x80 PUSH1 0x40 MSTORE CALLVALUE DUP1 ISZERO PUSH3 0x11 JUMPI PUSH1 0x0 DUP1 REVERT JUMPDEST POP PUSH1 0x40 MLOAD PUSH3 0x5975 CODESIZE SUB DUP1 PUSH3 0x5975 DUP4 CODECOPY DUP2 ADD PUSH1 0x40 DUP2 SWAP1 MSTORE PUSH3 0x34 SWAP2 PUSH3 0x1A8 JUMP JUMPDEST PUSH3 0x3F CALLER PUSH3 0x13B JUMP JUMPDEST PUSH1 0x1 DUP1 SSTORE PUSH1 0x1 PUSH1 0x1 PUSH1 0xA0 SHL SUB DUP4 AND PUSH3 0x9F JUMPI PUSH1 0x40 MLOAD PUSH3 0x461BCD PUSH1 0xE5 SHL DUP2 MSTORE PUSH1 0x20 PUSH1 0x4 DUP3 ADD MSTORE PUSH1 0x15 PUSH1 0x24 DUP3 ADD MSTORE PUSH32 0x496E76616C69642066656520726563697069656E740000000000000000000000 PUSH1 0x44 DUP3 ADD MSTORE PUSH1 0x64 ADD JUMPDEST PUSH1 0x40 MLOAD DUP1 SWAP2 SUB SWAP1 REVERT JUMPDEST PUSH2 0x3E8 DUP3 GT ISZERO PUSH3 0xF3 JUMPI PUSH1 0x40 MLOAD PUSH3 0x461BCD PUSH1 0xE5 SHL DUP2 MSTORE PUSH1 0x20 PUSH1 0x4 DUP3 ADD MSTORE PUSH1 0x19 PUSH1 0x24 DUP3 ADD MSTORE PUSH32 0x46656520626173697320706F696E747320746F6F206869676800000000000000 PUSH1 0x44 DUP3 ADD MSTORE PUSH1 0x64 ADD PUSH3 0x96 JUMP JUMPDEST PUSH1 0x2 DUP1 SLOAD PUSH1 0x1 PUSH1 0x1 PUSH1 0xA0 SHL SUB NOT AND PUSH1 0x1 PUSH1 0x1 PUSH1 0xA0 SHL SUB DUP6 DUP2 AND SWAP2 SWAP1 SWAP2 OR SWAP1 SWAP2 SSTORE PUSH1 0x3 DUP4 SWAP1 SSTORE PUSH1 0x0 PUSH1 0x4 SSTORE CALLER SWAP1 DUP3 AND EQ PUSH3 0x132 JUMPI PUSH3 0x132 DUP2 PUSH3 0x13B JUMP JUMPDEST POP POP POP PUSH3 0x1E9 JUMP JUMPDEST PUSH1 0x0 DUP1 SLOAD PUSH1 0x1 PUSH1 0x1 PUSH1 0xA0 SHL SUB DUP4 DUP2 AND PUSH1 0x1 PUSH1 0x1 PUSH1 0xA0 SHL SUB NOT DUP4 AND DUP2 OR DUP5 SSTORE PUSH1 0x40 MLOAD SWAP2 SWAP1 SWAP3 AND SWAP3 DUP4 SWAP2 PUSH32 0x8BE0079C531659141344CD1FD0A4F28419497F9722A3DAAFE3B4186F6B6457E0 SWAP2 SWAP1 LOG3 POP POP JUMP JUMPDEST DUP1 MLOAD PUSH1 0x1 PUSH1 0x1 PUSH1 0xA0 SHL SUB DUP2 AND DUP2 EQ PUSH3 0x1A3 JUMPI PUSH1 0x0 DUP1 REVERT JUMPDEST SWAP2 SWAP1 POP JUMP JUMPDEST PUSH1 0x0 DUP1 PUSH1 0x0 PUSH1 0x60 DUP5 DUP7 SUB SLT ISZERO PUSH3 0x1BE JUMPI PUSH1 0x0 DUP1 REVERT JUMPDEST PUSH3 0x1C9 DUP5 PUSH3 0x18B JUMP JUMPDEST SWAP3 POP PUSH1 0x20 DUP5 ADD MLOAD SWAP2 POP PUSH3 0x1E0 PUSH1 0x40 DUP6 ADD PUSH3 0x18B JUMP JUMPDEST SWAP1 POP SWAP3 POP SWAP3 POP SWAP3 JUMP JUMPDEST PUSH2 0x577C DUP1 PUSH3 0x1F9 PUSH1 0x0 CODECOPY PUSH1 0x0 RETURN INVALID PUSH1 0x80 PUSH1 0x40 MSTORE PUSH1 0x4 CALLDATASIZE LT PUSH3 0x137 JUMPI PUSH1 0x0 CALLDATALOAD PUSH1 0xE0 SHR DUP1 PUSH4 0x92F7C0C7 GT PUSH3 0xAD JUMPI DUP1 PUSH4 0xDC488AD6 GT PUSH3 0x6C JUMPI DUP1 PUSH4 0xDC488AD6 EQ PUSH3 0x398 JUMPI DUP1 PUSH4 0xE54E26B9 EQ PUSH3 0x3E8 JUMPI DUP1 PUSH4 0xF0D74DFF EQ PUSH3 0x40D JUMPI DUP1 PUSH4 0xF2CFF57F EQ PUSH3 0x432 JUMPI DUP1 PUSH4 0xF2FDE38B EQ PUSH3 0x44A JUMPI PUSH1 0x0 DUP1 REVERT JUMPDEST DUP1 PUSH4 0x92F7C0C7 EQ PUSH3 0x2FA JUMPI DUP1 PUSH4 0x9E193085 EQ PUSH3 0x311 JUMPI DUP1 PUSH4 0xB8606EEF EQ PUSH3 0x336 JUMPI DUP1 PUSH4 0xCC744993 EQ PUSH3 0x34E JUMPI DUP1 PUSH4 0xD264E453 EQ PUSH3 0x373 JUMPI PUSH1 0x0 DUP1 REVERT JUMPDEST DUP1 PUSH4 0x534860CC GT PUSH3 0xFA JUMPI DUP1 PUSH4 0x534860CC EQ PUSH3 0x22A JUMPI DUP1 PUSH4 0x5E1970F1 EQ PUSH3 0x24B JUMPI DUP1 PUSH4 0x715018A6 EQ PUSH3 0x288 JUMPI DUP1 PUSH4 0x85714768 EQ PUSH3 0x2A0 JUMPI DUP1 PUSH4 0x8DA5CB5B EQ PUSH3 0x2DA JUMPI PUSH1 0x0 DUP1 REVERT JUMPDEST DUP1 PUSH4 0x18D3CE96 EQ PUSH3 0x13C JUMPI DUP1 PUSH4 0x4015CABD EQ PUSH3 0x16C JUMPI DUP1 PUSH4 0x46904840 EQ PUSH3 0x1B0 JUMPI DUP1 PUSH4 0x476343EE EQ PUSH3 0x1EB JUMPI DUP1 PUSH4 0x499200DB EQ PUSH3 0x205 JUMPI JUMPDEST PUSH1 0x0 DUP1 REVERT JUMPDEST CALLVALUE DUP1 ISZERO PUSH3 0x149 JUMPI PUSH1 0x0 DUP1 REVERT JUMPDEST POP PUSH3 0x154 PUSH3 0x46F JUMP JUMPDEST PUSH1 0x40 MLOAD PUSH3 0x163 SWAP2 SWAP1 PUSH3 0xD3B JUMP JUMPDEST PUSH1 0x40 MLOAD DUP1 SWAP2 SUB SWAP1 RETURN JUMPDEST CALLVALUE DUP1 ISZERO PUSH3 0x179 JUMPI PUSH1 0x0 DUP1 REVERT JUMPDEST POP PUSH1 0x7 SLOAD PUSH1 0x2 SLOAD PUSH1 0x3 SLOAD PUSH1 0x40 DUP1 MLOAD SWAP4 DUP5 MSTORE SELFBALANCE PUSH1 0x20 DUP6 ADD MSTORE PUSH1 0x1 PUSH1 0x1 PUSH1 0xA0 SHL SUB SWAP1 SWAP3 AND SWAP2 DUP4 ADD SWAP2 SWAP1 SWAP2 MSTORE PUSH1 0x60 DUP3 ADD MSTORE PUSH1 0x80 ADD PUSH3 0x163 JUMP JUMPDEST CALLVALUE DUP1 ISZERO PUSH3 0x1BD JUMPI PUSH1 0x0 DUP1 REVERT JUMPDEST POP PUSH1 0x2 SLOAD PUSH3 0x1D2 SWAP1 PUSH1 0x1 PUSH1 0x1 PUSH1 0xA0 SHL SUB AND DUP2 JUMP JUMPDEST PUSH1 0x40 MLOAD PUSH1 0x1 PUSH1 0x1 PUSH1 0xA0 SHL SUB SWAP1 SWAP2 AND DUP2 MSTORE PUSH1 0x20 ADD PUSH3 0x163 JUMP JUMPDEST CALLVALUE DUP1 ISZERO PUSH3 0x1F8 JUMPI PUSH1 0x0 DUP1 REVERT JUMPDEST POP PUSH3 0x203 PUSH3 0x4D3 JUMP JUMPDEST STOP JUMPDEST CALLVALUE DUP1 ISZERO PUSH3 0x212 JUMPI PUSH1 0x0 DUP1 REVERT JUMPDEST POP PUSH3 0x203 PUSH3 0x224 CALLDATASIZE PUSH1 0x4 PUSH3 0xD8A JUMP JUMPDEST PUSH3 0x565 JUMP JUMPDEST CALLVALUE DUP1 ISZERO PUSH3 0x237 JUMPI PUSH1 0x0 DUP1 REVERT JUMPDEST POP PUSH1 0x7 SLOAD JUMPDEST PUSH1 0x40 MLOAD SWAP1 DUP2 MSTORE PUSH1 0x20 ADD PUSH3 0x163 JUMP JUMPDEST CALLVALUE DUP1 ISZERO PUSH3 0x258 JUMPI PUSH1 0x0 DUP1 REVERT JUMPDEST POP PUSH3 0x1D2 PUSH3 0x26A CALLDATASIZE PUSH1 0x4 PUSH3 0xDC1 JUMP JUMPDEST PUSH1 0x1 PUSH1 0x1 PUSH1 0xA0 SHL SUB SWAP1 DUP2 AND PUSH1 0x0 SWAP1 DUP2 MSTORE PUSH1 0x6 PUSH1 0x20 MSTORE PUSH1 0x40 SWAP1 KECCAK256 SLOAD AND SWAP1 JUMP JUMPDEST CALLVALUE DUP1 ISZERO PUSH3 0x295 JUMPI PUSH1 0x0 DUP1 REVERT JUMPDEST POP PUSH3 0x203 PUSH3 0x5AA JUMP JUMPDEST CALLVALUE DUP1 ISZERO PUSH3 0x2AD JUMPI PUSH1 0x0 DUP1 REVERT JUMPDEST POP PUSH3 0x1D2 PUSH3 0x2BF CALLDATASIZE PUSH1 0x4 PUSH3 0xDC1 JUMP JUMPDEST PUSH1 0x6 PUSH1 0x20 MSTORE PUSH1 0x0 SWAP1 DUP2 MSTORE PUSH1 0x40 SWAP1 KECCAK256 SLOAD PUSH1 0x1 PUSH1 0x1 PUSH1 0xA0 SHL SUB AND DUP2 JUMP JUMPDEST CALLVALUE DUP1 ISZERO PUSH3 0x2E7 JUMPI PUSH1 0x0 DUP1 REVERT JUMPDEST POP PUSH1 0x0 SLOAD PUSH1 0x1 PUSH1 0x1 PUSH1 0xA0 SHL SUB AND PUSH3 0x1D2 JUMP JUMPDEST PUSH3 0x1D2 PUSH3 0x30B CALLDATASIZE PUSH1 0x4 PUSH3 0xE91 JUMP JUMPDEST PUSH3 0x5C2 JUMP JUMPDEST CALLVALUE DUP1 ISZERO PUSH3 0x31E JUMPI PUSH1 0x0 DUP1 REVERT JUMPDEST POP PUSH3 0x203 PUSH3 0x330 CALLDATASIZE PUSH1 0x4 PUSH3 0xDC1 JUMP JUMPDEST PUSH3 0x8AF JUMP JUMPDEST CALLVALUE DUP1 ISZERO PUSH3 0x343 JUMPI PUSH1 0x0 DUP1 REVERT JUMPDEST POP PUSH3 0x23C PUSH1 0x3 SLOAD DUP2 JUMP JUMPDEST CALLVALUE DUP1 ISZERO PUSH3 0x35B JUMPI PUSH1 0x0 DUP1 REVERT JUMPDEST POP PUSH3 0x1D2 PUSH3 0x36D CALLDATASIZE PUSH1 0x4 PUSH3 0xF84 JUMP JUMPDEST PUSH3 0x9C3 JUMP JUMPDEST CALLVALUE DUP1 ISZERO PUSH3 0x380 JUMPI PUSH1 0x0 DUP1 REVERT JUMPDEST POP PUSH3 0x154 PUSH3 0x392 CALLDATASIZE PUSH1 0x4 PUSH3 0xDC1 JUMP JUMPDEST PUSH3 0x9FC JUMP JUMPDEST CALLVALUE DUP1 ISZERO PUSH3 0x3A5 JUMPI PUSH1 0x0 DUP1 REVERT JUMPDEST POP PUSH3 0x3D7 PUSH3 0x3B7 CALLDATASIZE PUSH1 0x4 PUSH3 0xDC1 JUMP JUMPDEST PUSH1 0x1 PUSH1 0x1 PUSH1 0xA0 SHL SUB SWAP1 DUP2 AND PUSH1 0x0 SWAP1 DUP2 MSTORE PUSH1 0x6 PUSH1 0x20 MSTORE PUSH1 0x40 SWAP1 KECCAK256 SLOAD AND ISZERO ISZERO SWAP1 JUMP JUMPDEST PUSH1 0x40 MLOAD SWAP1 ISZERO ISZERO DUP2 MSTORE PUSH1 0x20 ADD PUSH3 0x163 JUMP JUMPDEST CALLVALUE DUP1 ISZERO PUSH3 0x3F5 JUMPI PUSH1 0x0 DUP1 REVERT JUMPDEST POP PUSH3 0x1D2 PUSH3 0x407 CALLDATASIZE PUSH1 0x4 PUSH3 0xD8A JUMP JUMPDEST PUSH3 0xA74 JUMP JUMPDEST CALLVALUE DUP1 ISZERO PUSH3 0x41A JUMPI PUSH1 0x0 DUP1 REVERT JUMPDEST POP PUSH3 0x203 PUSH3 0x42C CALLDATASIZE PUSH1 0x4 PUSH3 0xF84 JUMP JUMPDEST PUSH3 0xA9F JUMP JUMPDEST CALLVALUE DUP1 ISZERO PUSH3 0x43F JUMPI PUSH1 0x0 DUP1 REVERT JUMPDEST POP PUSH3 0x23C PUSH1 0x4 SLOAD DUP2 JUMP JUMPDEST CALLVALUE DUP1 ISZERO PUSH3 0x457 JUMPI PUSH1 0x0 DUP1 REVERT JUMPDEST POP PUSH3 0x203 PUSH3 0x469 CALLDATASIZE PUSH1 0x4 PUSH3 0xDC1 JUMP JUMPDEST PUSH3 0xBA7 JUMP JUMPDEST PUSH1 0x60 PUSH1 0x7 DUP1 SLOAD DUP1 PUSH1 0x20 MUL PUSH1 0x20 ADD PUSH1 0x40 MLOAD SWAP1 DUP2 ADD PUSH1 0x40 MSTORE DUP1 SWAP3 SWAP2 SWAP1 DUP2 DUP2 MSTORE PUSH1 0x20 ADD DUP3 DUP1 SLOAD DUP1 ISZERO PUSH3 0x4C9 JUMPI PUSH1 0x20 MUL DUP3 ADD SWAP2 SWAP1 PUSH1 0x0 MSTORE PUSH1 0x20 PUSH1 0x0 KECCAK256 SWAP1 JUMPDEST DUP2 SLOAD PUSH1 0x1 PUSH1 0x1 PUSH1 0xA0 SHL SUB AND DUP2 MSTORE PUSH1 0x1 SWAP1 SWAP2 ADD SWAP1 PUSH1 0x20 ADD DUP1 DUP4 GT PUSH3 0x4AA JUMPI JUMPDEST POP POP POP POP POP SWAP1 POP SWAP1 JUMP JUMPDEST PUSH3 0x4DD PUSH3 0xC26 JUMP JUMPDEST SELFBALANCE DUP1 PUSH3 0x527 JUMPI PUSH1 0x40 MLOAD PUSH3 0x461BCD PUSH1 0xE5 SHL DUP2 MSTORE PUSH1 0x20 PUSH1 0x4 DUP3 ADD MSTORE PUSH1 0x13 PUSH1 0x24 DUP3 ADD MSTORE PUSH19 0x4E6F206665657320746F207769746864726177 PUSH1 0x68 SHL PUSH1 0x44 DUP3 ADD MSTORE PUSH1 0x64 ADD JUMPDEST PUSH1 0x40 MLOAD DUP1 SWAP2 SUB SWAP1 REVERT JUMPDEST PUSH1 0x0 DUP1 SLOAD PUSH1 0x40 MLOAD PUSH1 0x1 PUSH1 0x1 PUSH1 0xA0 SHL SUB SWAP1 SWAP2 AND SWAP2 DUP4 ISZERO PUSH2 0x8FC MUL SWAP2 DUP5 SWAP2 DUP2 DUP2 DUP2 DUP6 DUP9 DUP9 CALL SWAP4 POP POP POP POP ISZERO DUP1 ISZERO PUSH3 0x561 JUMPI RETURNDATASIZE PUSH1 0x0 DUP1 RETURNDATACOPY RETURNDATASIZE PUSH1 0x0 REVERT JUMPDEST POP POP JUMP JUMPDEST PUSH3 0x56F PUSH3 0xC26 JUMP JUMPDEST PUSH1 0x4 DUP2 SWAP1 SSTORE PUSH1 0x40 MLOAD DUP2 DUP2 MSTORE PUSH32 0x40BD824D588484917DB8FA4FC894C1E0FEAE5A75885290BA7B97521CEBF82A80 SWAP1 PUSH1 0x20 ADD PUSH1 0x40 MLOAD DUP1 SWAP2 SUB SWAP1 LOG1 POP JUMP JUMPDEST PUSH3 0x5B4 PUSH3 0xC26 JUMP JUMPDEST PUSH3 0x5C0 PUSH1 0x0 PUSH3 0xC82 JUMP JUMPDEST JUMP JUMPDEST PUSH1 0x0 PUSH3 0x5CE PUSH3 0xCD2 JUMP JUMPDEST PUSH1 0x4 SLOAD CALLVALUE LT ISZERO PUSH3 0x622 JUMPI PUSH1 0x40 MLOAD PUSH3 0x461BCD PUSH1 0xE5 SHL DUP2 MSTORE PUSH1 0x20 PUSH1 0x4 DUP3 ADD MSTORE PUSH1 0x1B PUSH1 0x24 DUP3 ADD MSTORE PUSH32 0x496E73756666696369656E74206465706C6F796D656E74206665650000000000 PUSH1 0x44 DUP3 ADD MSTORE PUSH1 0x64 ADD PUSH3 0x51E JUMP JUMPDEST PUSH1 0x0 DUP8 MLOAD GT PUSH3 0x675 JUMPI PUSH1 0x40 MLOAD PUSH3 0x461BCD PUSH1 0xE5 SHL DUP2 MSTORE PUSH1 0x20 PUSH1 0x4 DUP3 ADD MSTORE PUSH1 0x1A PUSH1 0x24 DUP3 ADD MSTORE PUSH32 0x47726F7570206E616D652063616E6E6F7420626520656D707479000000000000 PUSH1 0x44 DUP3 ADD MSTORE PUSH1 0x64 ADD PUSH3 0x51E JUMP JUMPDEST PUSH1 0x1 PUSH1 0x1 PUSH1 0xA0 SHL SUB DUP3 AND PUSH3 0x6C3 JUMPI PUSH1 0x40 MLOAD PUSH3 0x461BCD PUSH1 0xE5 SHL DUP2 MSTORE PUSH1 0x20 PUSH1 0x4 DUP3 ADD MSTORE PUSH1 0x13 PUSH1 0x24 DUP3 ADD MSTORE PUSH19 0x496E76616C696420626F742061646472657373 PUSH1 0x68 SHL PUSH1 0x44 DUP3 ADD MSTORE PUSH1 0x64 ADD PUSH3 0x51E JUMP JUMPDEST PUSH1 0x0 ADDRESS DUP9 DUP9 DUP9 DUP9 DUP9 DUP9 CALLER PUSH1 0x40 MLOAD PUSH3 0x6DB SWAP1 PUSH3 0xD2D JUMP JUMPDEST PUSH3 0x6EE SWAP9 SWAP8 SWAP7 SWAP6 SWAP5 SWAP4 SWAP3 SWAP2 SWAP1 PUSH3 0xFF9 JUMP JUMPDEST PUSH1 0x40 MLOAD DUP1 SWAP2 SUB SWAP1 PUSH1 0x0 CREATE DUP1 ISZERO DUP1 ISZERO PUSH3 0x70B JUMPI RETURNDATASIZE PUSH1 0x0 DUP1 RETURNDATACOPY RETURNDATASIZE PUSH1 0x0 REVERT JUMPDEST POP CALLER PUSH1 0x0 DUP2 DUP2 MSTORE PUSH1 0x5 PUSH1 0x20 SWAP1 DUP2 MSTORE PUSH1 0x40 DUP1 DUP4 KECCAK256 DUP1 SLOAD PUSH1 0x1 DUP2 DUP2 ADD DUP4 SSTORE SWAP2 DUP6 MSTORE DUP4 DUP6 KECCAK256 ADD DUP1 SLOAD PUSH1 0x1 PUSH1 0x1 PUSH1 0xA0 SHL SUB DUP9 AND PUSH1 0x1 PUSH1 0x1 PUSH1 0xA0 SHL SUB NOT SWAP2 DUP3 AND DUP2 OR SWAP1 SWAP3 SSTORE DUP2 DUP7 MSTORE PUSH1 0x6 SWAP1 SWAP5 MSTORE SWAP2 DUP5 KECCAK256 DUP1 SLOAD DUP5 AND SWAP1 SWAP6 OR SWAP1 SWAP5 SSTORE PUSH1 0x7 DUP1 SLOAD SWAP5 DUP6 ADD DUP2 SSTORE SWAP1 SWAP3 MSTORE PUSH32 0xA66CC928B5EDB82AF9BD49922954155AB7B0942694BEA4CE44661D9A8736C688 SWAP1 SWAP3 ADD DUP1 SLOAD SWAP1 SWAP3 AND OR SWAP1 SSTORE PUSH1 0x4 SLOAD SWAP1 SWAP2 POP DUP2 SWAP1 ISZERO DUP1 ISZERO SWAP1 PUSH3 0x7B9 JUMPI POP PUSH1 0x2 SLOAD PUSH1 0x1 PUSH1 0x1 PUSH1 0xA0 SHL SUB AND ISZERO ISZERO JUMPDEST ISZERO PUSH3 0x7FE JUMPI PUSH1 0x2 SLOAD PUSH1 0x4 SLOAD PUSH1 0x40 MLOAD PUSH1 0x1 PUSH1 0x1 PUSH1 0xA0 SHL SUB SWAP1 SWAP3 AND SWAP2 DUP2 ISZERO PUSH2 0x8FC MUL SWAP2 SWAP1 PUSH1 0x0 DUP2 DUP2 DUP2 DUP6 DUP9 DUP9 CALL SWAP4 POP POP POP POP ISZERO DUP1 ISZERO PUSH3 0x7FC JUMPI RETURNDATASIZE PUSH1 0x0 DUP1 RETURNDATACOPY RETURNDATASIZE PUSH1 0x0 REVERT JUMPDEST POP JUMPDEST PUSH1 0x4 SLOAD CALLVALUE GT ISZERO PUSH3 0x849 JUMPI PUSH1 0x4 SLOAD CALLER SWAP1 PUSH2 0x8FC SWAP1 PUSH3 0x81E SWAP1 CALLVALUE PUSH3 0x109A JUMP JUMPDEST PUSH1 0x40 MLOAD DUP2 ISZERO SWAP1 SWAP3 MUL SWAP2 PUSH1 0x0 DUP2 DUP2 DUP2 DUP6 DUP9 DUP9 CALL SWAP4 POP POP POP POP ISZERO DUP1 ISZERO PUSH3 0x847 JUMPI RETURNDATASIZE PUSH1 0x0 DUP1 RETURNDATACOPY RETURNDATASIZE PUSH1 0x0 REVERT JUMPDEST POP JUMPDEST DUP1 PUSH1 0x1 PUSH1 0x1 PUSH1 0xA0 SHL SUB AND CALLER PUSH1 0x1 PUSH1 0x1 PUSH1 0xA0 SHL SUB AND PUSH32 0x340591C16186B027312157B18DBA74A1E46A25295ED940D7D2555AB2A22B2BEE DUP12 TIMESTAMP PUSH1 0x40 MLOAD PUSH3 0x890 SWAP3 SWAP2 SWAP1 PUSH3 0x10C2 JUMP JUMPDEST PUSH1 0x40 MLOAD DUP1 SWAP2 SUB SWAP1 LOG3 SWAP2 POP POP PUSH3 0x8A5 PUSH1 0x1 DUP1 SSTORE JUMP JUMPDEST SWAP7 SWAP6 POP POP POP POP POP POP JUMP JUMPDEST PUSH3 0x8B9 PUSH3 0xC26 JUMP JUMPDEST PUSH1 0x40 MLOAD PUSH4 0x6E24456B PUSH1 0xE1 SHL DUP2 MSTORE PUSH1 0x1 PUSH1 0x1 PUSH1 0xA0 SHL SUB DUP3 AND PUSH1 0x4 DUP3 ADD MSTORE ADDRESS SWAP1 PUSH4 0xDC488AD6 SWAP1 PUSH1 0x24 ADD PUSH1 0x20 PUSH1 0x40 MLOAD DUP1 DUP4 SUB DUP2 DUP7 GAS STATICCALL ISZERO DUP1 ISZERO PUSH3 0x8FE JUMPI RETURNDATASIZE PUSH1 0x0 DUP1 RETURNDATACOPY RETURNDATASIZE PUSH1 0x0 REVERT JUMPDEST POP POP POP POP PUSH1 0x40 MLOAD RETURNDATASIZE PUSH1 0x1F NOT PUSH1 0x1F DUP3 ADD AND DUP3 ADD DUP1 PUSH1 0x40 MSTORE POP DUP2 ADD SWAP1 PUSH3 0x924 SWAP2 SWAP1 PUSH3 0x10E6 JUMP JUMPDEST PUSH3 0x96B JUMPI PUSH1 0x40 MLOAD PUSH3 0x461BCD PUSH1 0xE5 SHL DUP2 MSTORE PUSH1 0x20 PUSH1 0x4 DUP3 ADD MSTORE PUSH1 0x16 PUSH1 0x24 DUP3 ADD MSTORE PUSH22 0x139BDD081848199858DD1BDC9E4818DBDB9D1C9858DD PUSH1 0x52 SHL PUSH1 0x44 DUP3 ADD MSTORE PUSH1 0x64 ADD PUSH3 0x51E JUMP JUMPDEST DUP1 PUSH1 0x1 PUSH1 0x1 PUSH1 0xA0 SHL SUB AND PUSH4 0xE3D2D03A PUSH1 0x40 MLOAD DUP2 PUSH4 0xFFFFFFFF AND PUSH1 0xE0 SHL DUP2 MSTORE PUSH1 0x4 ADD PUSH1 0x0 PUSH1 0x40 MLOAD DUP1 DUP4 SUB DUP2 PUSH1 0x0 DUP8 DUP1 EXTCODESIZE ISZERO DUP1 ISZERO PUSH3 0x9A7 JUMPI PUSH1 0x0 DUP1 REVERT JUMPDEST POP GAS CALL ISZERO DUP1 ISZERO PUSH3 0x9BC JUMPI RETURNDATASIZE PUSH1 0x0 DUP1 RETURNDATACOPY RETURNDATASIZE PUSH1 0x0 REVERT JUMPDEST POP POP POP POP POP JUMP JUMPDEST PUSH1 0x5 PUSH1 0x20 MSTORE DUP2 PUSH1 0x0 MSTORE PUSH1 0x40 PUSH1 0x0 KECCAK256 DUP2 DUP2 SLOAD DUP2 LT PUSH3 0x9E0 JUMPI PUSH1 0x0 DUP1 REVERT JUMPDEST PUSH1 0x0 SWAP2 DUP3 MSTORE PUSH1 0x20 SWAP1 SWAP2 KECCAK256 ADD SLOAD PUSH1 0x1 PUSH1 0x1 PUSH1 0xA0 SHL SUB AND SWAP2 POP DUP3 SWAP1 POP JUMP JUMPDEST PUSH1 0x1 PUSH1 0x1 PUSH1 0xA0 SHL SUB DUP2 AND PUSH1 0x0 SWAP1 DUP2 MSTORE PUSH1 0x5 PUSH1 0x20 SWAP1 DUP2 MSTORE PUSH1 0x40 SWAP2 DUP3 SWAP1 KECCAK256 DUP1 SLOAD DUP4 MLOAD DUP2 DUP5 MUL DUP2 ADD DUP5 ADD SWAP1 SWAP5 MSTORE DUP1 DUP5 MSTORE PUSH1 0x60 SWAP4 SWAP3 DUP4 ADD DUP3 DUP3 DUP1 ISZERO PUSH3 0xA68 JUMPI PUSH1 0x20 MUL DUP3 ADD SWAP2 SWAP1 PUSH1 0x0 MSTORE PUSH1 0x20 PUSH1 0x0 KECCAK256 SWAP1 JUMPDEST DUP2 SLOAD PUSH1 0x1 PUSH1 0x1 PUSH1 0xA0 SHL SUB AND DUP2 MSTORE PUSH1 0x1 SWAP1 SWAP2 ADD SWAP1 PUSH1 0x20 ADD DUP1 DUP4 GT PUSH3 0xA49 JUMPI JUMPDEST POP POP POP POP POP SWAP1 POP SWAP2 SWAP1 POP JUMP JUMPDEST PUSH1 0x7 DUP2 DUP2 SLOAD DUP2 LT PUSH3 0xA85 JUMPI PUSH1 0x0 DUP1 REVERT JUMPDEST PUSH1 0x0 SWAP2 DUP3 MSTORE PUSH1 0x20 SWAP1 SWAP2 KECCAK256 ADD SLOAD PUSH1 0x1 PUSH1 0x1 PUSH1 0xA0 SHL SUB AND SWAP1 POP DUP2 JUMP JUMPDEST PUSH3 0xAA9 PUSH3 0xC26 JUMP JUMPDEST PUSH1 0x1 PUSH1 0x1 PUSH1 0xA0 SHL SUB DUP3 AND PUSH3 0xAF9 JUMPI PUSH1 0x40 MLOAD PUSH3 0x461BCD PUSH1 0xE5 SHL DUP2 MSTORE PUSH1 0x20 PUSH1 0x4 DUP3 ADD MSTORE PUSH1 0x15 PUSH1 0x24 DUP3 ADD MSTORE PUSH21 0x125B9D985B1A5908199959481C9958DA5C1A595B9D PUSH1 0x5A SHL PUSH1 0x44 DUP3 ADD MSTORE PUSH1 0x64 ADD PUSH3 0x51E JUMP JUMPDEST PUSH2 0x3E8 DUP2 GT ISZERO PUSH3 0xB4D JUMPI PUSH1 0x40 MLOAD PUSH3 0x461BCD PUSH1 0xE5 SHL DUP2 MSTORE PUSH1 0x20 PUSH1 0x4 DUP3 ADD MSTORE PUSH1 0x19 PUSH1 0x24 DUP3 ADD MSTORE PUSH32 0x46656520626173697320706F696E747320746F6F206869676800000000000000 PUSH1 0x44 DUP3 ADD MSTORE PUSH1 0x64 ADD PUSH3 0x51E JUMP JUMPDEST PUSH1 0x2 DUP1 SLOAD PUSH1 0x1 PUSH1 0x1 PUSH1 0xA0 SHL SUB NOT AND PUSH1 0x1 PUSH1 0x1 PUSH1 0xA0 SHL SUB DUP5 AND SWAP1 DUP2 OR SWAP1 SWAP2 SSTORE PUSH1 0x3 DUP3 SWAP1 SSTORE PUSH1 0x40 MLOAD DUP3 DUP2 MSTORE PUSH32 0xE7EA49C723218B7833A88CFE39DDD33BD3D9463AB674FFB881940A05BD8CC978 SWAP1 PUSH1 0x20 ADD PUSH1 0x40 MLOAD DUP1 SWAP2 SUB SWAP1 LOG2 POP POP JUMP JUMPDEST PUSH3 0xBB1 PUSH3 0xC26 JUMP JUMPDEST PUSH1 0x1 PUSH1 0x1 PUSH1 0xA0 SHL SUB DUP2 AND PUSH3 0xC18 JUMPI PUSH1 0x40 MLOAD PUSH3 0x461BCD PUSH1 0xE5 SHL DUP2 MSTORE PUSH1 0x20 PUSH1 0x4 DUP3 ADD MSTORE PUSH1 0x26 PUSH1 0x24 DUP3 ADD MSTORE PUSH32 0x4F776E61626C653A206E6577206F776E657220697320746865207A65726F2061 PUSH1 0x44 DUP3 ADD MSTORE PUSH6 0x646472657373 PUSH1 0xD0 SHL PUSH1 0x64 DUP3 ADD MSTORE PUSH1 0x84 ADD PUSH3 0x51E JUMP JUMPDEST PUSH3 0xC23 DUP2 PUSH3 0xC82 JUMP JUMPDEST POP JUMP JUMPDEST PUSH1 0x0 SLOAD PUSH1 0x1 PUSH1 0x1 PUSH1 0xA0 SHL SUB AND CALLER EQ PUSH3 0x5C0 JUMPI PUSH1 0x40 MLOAD PUSH3 0x461BCD PUSH1 0xE5 SHL DUP2 MSTORE PUSH1 0x20 PUSH1 0x4 DUP3 ADD DUP2 SWAP1 MSTORE PUSH1 0x24 DUP3 ADD MSTORE PUSH32 0x4F776E61626C653A2063616C6C6572206973206E6F7420746865206F776E6572 PUSH1 0x44 DUP3 ADD MSTORE PUSH1 0x64 ADD PUSH3 0x51E JUMP JUMPDEST PUSH1 0x0 DUP1 SLOAD PUSH1 0x1 PUSH1 0x1 PUSH1 0xA0 SHL SUB DUP4 DUP2 AND PUSH1 0x1 PUSH1 0x1 PUSH1 0xA0 SHL SUB NOT DUP4 AND DUP2 OR DUP5 SSTORE PUSH1 0x40 MLOAD SWAP2 SWAP1 SWAP3 AND SWAP3 DUP4 SWAP2 PUSH32 0x8BE0079C531659141344CD1FD0A4F28419497F9722A3DAAFE3B4186F6B6457E0 SWAP2 SWAP1 LOG3 POP POP JUMP JUMPDEST PUSH1 0x2 PUSH1 0x1 SLOAD SUB PUSH3 0xD26 JUMPI PUSH1 0x40 MLOAD PUSH3 0x461BCD PUSH1 0xE5 SHL DUP2 MSTORE PUSH1 0x20 PUSH1 0x4 DUP3 ADD MSTORE PUSH1 0x1F PUSH1 0x24 DUP3 ADD MSTORE PUSH32 0x5265656E7472616E637947756172643A207265656E7472616E742063616C6C00 PUSH1 0x44 DUP3 ADD MSTORE PUSH1 0x64 ADD PUSH3 0x51E JUMP JUMPDEST PUSH1 0x2 PUSH1 0x1 SSTORE JUMP JUMPDEST PUSH2 0x463C DUP1 PUSH3 0x110B DUP4 CODECOPY ADD SWAP1 JUMP JUMPDEST PUSH1 0x20 DUP1 DUP3 MSTORE DUP3 MLOAD DUP3 DUP3 ADD DUP2 SWAP1 MSTORE PUSH1 0x0 SWAP2 SWAP1 DUP5 DUP3 ADD SWAP1 PUSH1 0x40 DUP6 ADD SWAP1 DUP5 JUMPDEST DUP2 DUP2 LT ISZERO PUSH3 0xD7E JUMPI DUP4 MLOAD PUSH1 0x1 PUSH1 0x1 PUSH1 0xA0 SHL SUB AND DUP4 MSTORE SWAP3 DUP5 ADD SWAP3 SWAP2 DUP5 ADD SWAP2 PUSH1 0x1 ADD PUSH3 0xD57 JUMP JUMPDEST POP SWAP1 SWAP7 SWAP6 POP POP POP POP POP POP JUMP JUMPDEST PUSH1 0x0 PUSH1 0x20 DUP3 DUP5 SUB SLT ISZERO PUSH3 0xD9D JUMPI PUSH1 0x0 DUP1 REVERT JUMPDEST POP CALLDATALOAD SWAP2 SWAP1 POP JUMP JUMPDEST DUP1 CALLDATALOAD PUSH1 0x1 PUSH1 0x1 PUSH1 0xA0 SHL SUB DUP2 AND DUP2 EQ PUSH3 0xDBC JUMPI PUSH1 0x0 DUP1 REVERT JUMPDEST SWAP2 SWAP1 POP JUMP JUMPDEST PUSH1 0x0 PUSH1 0x20 DUP3 DUP5 SUB SLT ISZERO PUSH3 0xDD4 JUMPI PUSH1 0x0 DUP1 REVERT JUMPDEST PUSH3 0xDDF DUP3 PUSH3 0xDA4 JUMP JUMPDEST SWAP4 SWAP3 POP POP POP JUMP JUMPDEST PUSH4 0x4E487B71 PUSH1 0xE0 SHL PUSH1 0x0 MSTORE PUSH1 0x41 PUSH1 0x4 MSTORE PUSH1 0x24 PUSH1 0x0 REVERT JUMPDEST PUSH1 0x0 DUP3 PUSH1 0x1F DUP4 ADD SLT PUSH3 0xE0E JUMPI PUSH1 0x0 DUP1 REVERT JUMPDEST DUP2 CALLDATALOAD PUSH8 0xFFFFFFFFFFFFFFFF DUP1 DUP3 GT ISZERO PUSH3 0xE2C JUMPI PUSH3 0xE2C PUSH3 0xDE6 JUMP JUMPDEST PUSH1 0x40 MLOAD PUSH1 0x1F DUP4 ADD PUSH1 0x1F NOT SWAP1 DUP2 AND PUSH1 0x3F ADD AND DUP2 ADD SWAP1 DUP3 DUP3 GT DUP2 DUP4 LT OR ISZERO PUSH3 0xE57 JUMPI PUSH3 0xE57 PUSH3 0xDE6 JUMP JUMPDEST DUP2 PUSH1 0x40 MSTORE DUP4 DUP2 MSTORE DUP7 PUSH1 0x20 DUP6 DUP9 ADD ADD GT ISZERO PUSH3 0xE71 JUMPI PUSH1 0x0 DUP1 REVERT JUMPDEST DUP4 PUSH1 0x20 DUP8 ADD PUSH1 0x20 DUP4 ADD CALLDATACOPY PUSH1 0x0 PUSH1 0x20 DUP6 DUP4 ADD ADD MSTORE DUP1 SWAP5 POP POP POP POP POP SWAP3 SWAP2 POP POP JUMP JUMPDEST PUSH1 0x0 DUP1 PUSH1 0x0 DUP1 PUSH1 0x0 DUP1 PUSH1 0xC0 DUP8 DUP10 SUB SLT ISZERO PUSH3 0xEAB JUMPI PUSH1 0x0 DUP1 REVERT JUMPDEST DUP7 CALLDATALOAD PUSH8 0xFFFFFFFFFFFFFFFF DUP1 DUP3 GT ISZERO PUSH3 0xEC4 JUMPI PUSH1 0x0 DUP1 REVERT JUMPDEST PUSH3 0xED2 DUP11 DUP4 DUP12 ADD PUSH3 0xDFC JUMP JUMPDEST SWAP8 POP PUSH1 0x20 DUP10 ADD CALLDATALOAD SWAP2 POP DUP1 DUP3 GT ISZERO PUSH3 0xEE9 JUMPI PUSH1 0x0 DUP1 REVERT JUMPDEST PUSH3 0xEF7 DUP11 DUP4 DUP12 ADD PUSH3 0xDFC JUMP JUMPDEST SWAP7 POP PUSH1 0x40 DUP10 ADD CALLDATALOAD SWAP2 POP DUP1 DUP3 GT ISZERO PUSH3 0xF0E JUMPI PUSH1 0x0 DUP1 REVERT JUMPDEST PUSH3 0xF1C DUP11 DUP4 DUP12 ADD PUSH3 0xDFC JUMP JUMPDEST SWAP6 POP PUSH1 0x60 DUP10 ADD CALLDATALOAD SWAP2 POP DUP1 DUP3 GT ISZERO PUSH3 0xF33 JUMPI PUSH1 0x0 DUP1 REVERT JUMPDEST PUSH3 0xF41 DUP11 DUP4 DUP12 ADD PUSH3 0xDFC JUMP JUMPDEST SWAP5 POP PUSH1 0x80 DUP10 ADD CALLDATALOAD SWAP2 POP DUP1 DUP3 GT ISZERO PUSH3 0xF58 JUMPI PUSH1 0x0 DUP1 REVERT JUMPDEST POP PUSH3 0xF67 DUP10 DUP3 DUP11 ADD PUSH3 0xDFC JUMP JUMPDEST SWAP3 POP POP PUSH3 0xF78 PUSH1 0xA0 DUP9 ADD PUSH3 0xDA4 JUMP JUMPDEST SWAP1 POP SWAP3 SWAP6 POP SWAP3 SWAP6 POP SWAP3 SWAP6 JUMP JUMPDEST PUSH1 0x0 DUP1 PUSH1 0x40 DUP4 DUP6 SUB SLT ISZERO PUSH3 0xF98 JUMPI PUSH1 0x0 DUP1 REVERT JUMPDEST PUSH3 0xFA3 DUP4 PUSH3 0xDA4 JUMP JUMPDEST SWAP5 PUSH1 0x20 SWAP4 SWAP1 SWAP4 ADD CALLDATALOAD SWAP4 POP POP POP JUMP JUMPDEST PUSH1 0x0 DUP2 MLOAD DUP1 DUP5 MSTORE PUSH1 0x0 JUMPDEST DUP2 DUP2 LT ISZERO PUSH3 0xFD9 JUMPI PUSH1 0x20 DUP2 DUP6 ADD DUP2 ADD MLOAD DUP7 DUP4 ADD DUP3 ADD MSTORE ADD PUSH3 0xFBB JUMP JUMPDEST POP PUSH1 0x0 PUSH1 0x20 DUP3 DUP7 ADD ADD MSTORE PUSH1 0x20 PUSH1 0x1F NOT PUSH1 0x1F DUP4 ADD AND DUP6 ADD ADD SWAP2 POP POP SWAP3 SWAP2 POP POP JUMP JUMPDEST PUSH1 0x1 PUSH1 0x1 PUSH1 0xA0 SHL SUB DUP10 DUP2 AND DUP3 MSTORE PUSH2 0x100 PUSH1 0x20 DUP4 ADD DUP2 SWAP1 MSTORE PUSH1 0x0 SWAP2 PUSH3 0x1021 DUP5 DUP4 ADD DUP13 PUSH3 0xFB1 JUMP JUMPDEST SWAP2 POP DUP4 DUP3 SUB PUSH1 0x40 DUP6 ADD MSTORE PUSH3 0x1037 DUP3 DUP12 PUSH3 0xFB1 JUMP JUMPDEST SWAP2 POP DUP4 DUP3 SUB PUSH1 0x60 DUP6 ADD MSTORE PUSH3 0x104D DUP3 DUP11 PUSH3 0xFB1 JUMP JUMPDEST SWAP2 POP DUP4 DUP3 SUB PUSH1 0x80 DUP6 ADD MSTORE PUSH3 0x1063 DUP3 DUP10 PUSH3 0xFB1 JUMP JUMPDEST SWAP2 POP DUP4 DUP3 SUB PUSH1 0xA0 DUP6 ADD MSTORE PUSH3 0x1079 DUP3 DUP9 PUSH3 0xFB1 JUMP JUMPDEST SWAP3 POP DUP1 DUP7 AND PUSH1 0xC0 DUP6 ADD MSTORE DUP1 DUP6 AND PUSH1 0xE0 DUP6 ADD MSTORE POP POP SWAP10 SWAP9 POP POP POP POP POP POP POP POP POP JUMP JUMPDEST DUP2 DUP2 SUB DUP2 DUP2 GT ISZERO PUSH3 0x10BC JUMPI PUSH4 0x4E487B71 PUSH1 0xE0 SHL PUSH1 0x0 MSTORE PUSH1 0x11 PUSH1 0x4 MSTORE PUSH1 0x24 PUSH1 0x0 REVERT JUMPDEST SWAP3 SWAP2 POP POP JUMP JUMPDEST PUSH1 0x40 DUP2 MSTORE PUSH1 0x0 PUSH3 0x10D7 PUSH1 0x40 DUP4 ADD DUP6 PUSH3 0xFB1 JUMP JUMPDEST SWAP1 POP DUP3 PUSH1 0x20 DUP4 ADD MSTORE SWAP4 SWAP3 POP POP POP JUMP JUMPDEST PUSH1 0x0 PUSH1 0x20 DUP3 DUP5 SUB SLT ISZERO PUSH3 0x10F9 JUMPI PUSH1 0x0 DUP1 REVERT JUMPDEST DUP2 MLOAD DUP1 ISZERO ISZERO DUP2 EQ PUSH3 0xDDF JUMPI PUSH1 0x0 DUP1 REVERT INVALID PUSH1 0x80 PUSH1 0x40 MSTORE CALLVALUE DUP1 ISZERO PUSH3 0x11 JUMPI PUSH1 0x0 DUP1 REVERT JUMPDEST POP PUSH1 0x40 MLOAD PUSH3 0x463C CODESIZE SUB DUP1 PUSH3 0x463C DUP4 CODECOPY DUP2 ADD PUSH1 0x40 DUP2 SWAP1 MSTORE PUSH3 0x34 SWAP2 PUSH3 0x2F6 JUMP JUMPDEST PUSH1 0x40 DUP1 MLOAD PUSH1 0x20 DUP2 ADD SWAP1 SWAP2 MSTORE PUSH1 0x0 DUP2 MSTORE PUSH3 0x4E DUP2 PUSH3 0x1A8 JUMP JUMPDEST POP PUSH3 0x5A CALLER PUSH3 0x1BA JUMP JUMPDEST PUSH1 0x1 PUSH1 0x4 SSTORE PUSH1 0x5 DUP1 SLOAD PUSH1 0x1 PUSH1 0x1 PUSH1 0xA0 SHL SUB NOT AND PUSH1 0x1 PUSH1 0x1 PUSH1 0xA0 SHL SUB DUP11 AND OR SWAP1 SSTORE PUSH1 0x6 PUSH3 0x88 DUP9 DUP3 PUSH3 0x49F JUMP JUMPDEST POP PUSH1 0x7 PUSH3 0x97 DUP8 DUP3 PUSH3 0x49F JUMP JUMPDEST POP PUSH1 0x8 PUSH3 0xA6 DUP7 DUP3 PUSH3 0x49F JUMP JUMPDEST POP PUSH1 0x40 DUP1 MLOAD PUSH1 0xA0 DUP2 ADD DUP3 MSTORE DUP6 DUP2 MSTORE PUSH1 0x20 DUP2 ADD DUP6 SWAP1 MSTORE PUSH1 0x1 PUSH1 0x1 PUSH1 0xA0 SHL SUB DUP5 AND SWAP2 DUP2 ADD SWAP2 SWAP1 SWAP2 MSTORE PUSH1 0x1 PUSH1 0x60 DUP3 ADD MSTORE TIMESTAMP PUSH1 0x80 DUP3 ADD MSTORE PUSH1 0x9 DUP1 PUSH3 0xE8 DUP8 DUP3 PUSH3 0x49F JUMP JUMPDEST POP PUSH1 0x20 DUP3 ADD MLOAD PUSH1 0x1 DUP3 ADD SWAP1 PUSH3 0xFF SWAP1 DUP3 PUSH3 0x49F JUMP JUMPDEST POP PUSH1 0x40 DUP3 ADD MLOAD PUSH1 0x2 DUP3 ADD DUP1 SLOAD PUSH1 0x60 DUP6 ADD MLOAD ISZERO ISZERO PUSH1 0x1 PUSH1 0xA0 SHL MUL PUSH1 0x1 PUSH1 0x1 PUSH1 0xA8 SHL SUB NOT SWAP1 SWAP2 AND PUSH1 0x1 PUSH1 0x1 PUSH1 0xA0 SHL SUB SWAP4 DUP5 AND OR OR SWAP1 SSTORE PUSH1 0x80 SWAP1 SWAP3 ADD MLOAD PUSH1 0x3 SWAP1 SWAP2 ADD SSTORE DUP2 AND CALLER EQ PUSH3 0x153 JUMPI PUSH3 0x153 DUP2 PUSH3 0x1BA JUMP JUMPDEST DUP2 PUSH1 0x1 PUSH1 0x1 PUSH1 0xA0 SHL SUB AND PUSH32 0x5BD2D155ED1076BDD300B62402F71B052EFF6F9ED7C9B91D25E3A9477C7F47B8 DUP6 DUP6 TIMESTAMP PUSH1 0x40 MLOAD PUSH3 0x192 SWAP4 SWAP3 SWAP2 SWAP1 PUSH3 0x599 JUMP JUMPDEST PUSH1 0x40 MLOAD DUP1 SWAP2 SUB SWAP1 LOG2 POP POP POP POP POP POP POP POP PUSH3 0x5D3 JUMP JUMPDEST PUSH1 0x2 PUSH3 0x1B6 DUP3 DUP3 PUSH3 0x49F JUMP JUMPDEST POP POP JUMP JUMPDEST PUSH1 0x3 DUP1 SLOAD PUSH1 0x1 PUSH1 0x1 PUSH1 0xA0 SHL SUB DUP4 DUP2 AND PUSH1 0x1 PUSH1 0x1 PUSH1 0xA0 SHL SUB NOT DUP4 AND DUP2 OR SWAP1 SWAP4 SSTORE PUSH1 0x40 MLOAD SWAP2 AND SWAP2 SWAP1 DUP3 SWAP1 PUSH32 0x8BE0079C531659141344CD1FD0A4F28419497F9722A3DAAFE3B4186F6B6457E0 SWAP1 PUSH1 0x0 SWAP1 LOG3 POP POP JUMP JUMPDEST DUP1 MLOAD PUSH1 0x1 PUSH1 0x1 PUSH1 0xA0 SHL SUB DUP2 AND DUP2 EQ PUSH3 0x224 JUMPI PUSH1 0x0 DUP1 REVERT JUMPDEST SWAP2 SWAP1 POP JUMP JUMPDEST PUSH4 0x4E487B71 PUSH1 0xE0 SHL PUSH1 0x0 MSTORE PUSH1 0x41 PUSH1 0x4 MSTORE PUSH1 0x24 PUSH1 0x0 REVERT JUMPDEST PUSH1 0x0 JUMPDEST DUP4 DUP2 LT ISZERO PUSH3 0x25C JUMPI DUP2 DUP2 ADD MLOAD DUP4 DUP3 ADD MSTORE PUSH1 0x20 ADD PUSH3 0x242 JUMP JUMPDEST POP POP PUSH1 0x0 SWAP2 ADD MSTORE JUMP JUMPDEST PUSH1 0x0 DUP3 PUSH1 0x1F DUP4 ADD SLT PUSH3 0x277 JUMPI PUSH1 0x0 DUP1 REVERT JUMPDEST DUP2 MLOAD PUSH1 0x1 PUSH1 0x1 PUSH1 0x40 SHL SUB DUP1 DUP3 GT ISZERO PUSH3 0x294 JUMPI PUSH3 0x294 PUSH3 0x229 JUMP JUMPDEST PUSH1 0x40 MLOAD PUSH1 0x1F DUP4 ADD PUSH1 0x1F NOT SWAP1 DUP2 AND PUSH1 0x3F ADD AND DUP2 ADD SWAP1 DUP3 DUP3 GT DUP2 DUP4 LT OR ISZERO PUSH3 0x2BF JUMPI PUSH3 0x2BF PUSH3 0x229 JUMP JUMPDEST DUP2 PUSH1 0x40 MSTORE DUP4 DUP2 MSTORE DUP7 PUSH1 0x20 DUP6 DUP9 ADD ADD GT ISZERO PUSH3 0x2D9 JUMPI PUSH1 0x0 DUP1 REVERT JUMPDEST PUSH3 0x2EC DUP5 PUSH1 0x20 DUP4 ADD PUSH1 0x20 DUP10 ADD PUSH3 0x23F JUMP JUMPDEST SWAP7 SWAP6 POP POP POP POP POP POP JUMP JUMPDEST PUSH1 0x0 DUP1 PUSH1 0x0 DUP1 PUSH1 0x0 DUP1 PUSH1 0x0 DUP1 PUSH2 0x100 DUP10 DUP12 SUB SLT ISZERO PUSH3 0x314 JUMPI PUSH1 0x0 DUP1 REVERT JUMPDEST PUSH3 0x31F DUP10 PUSH3 0x20C JUMP JUMPDEST PUSH1 0x20 DUP11 ADD MLOAD SWAP1 SWAP9 POP PUSH1 0x1 PUSH1 0x1 PUSH1 0x40 SHL SUB DUP1 DUP3 GT ISZERO PUSH3 0x33D JUMPI PUSH1 0x0 DUP1 REVERT JUMPDEST PUSH3 0x34B DUP13 DUP4 DUP14 ADD PUSH3 0x265 JUMP JUMPDEST SWAP9 POP PUSH1 0x40 DUP12 ADD MLOAD SWAP2 POP DUP1 DUP3 GT ISZERO PUSH3 0x362 JUMPI PUSH1 0x0 DUP1 REVERT JUMPDEST PUSH3 0x370 DUP13 DUP4 DUP14 ADD PUSH3 0x265 JUMP JUMPDEST SWAP8 POP PUSH1 0x60 DUP12 ADD MLOAD SWAP2 POP DUP1 DUP3 GT ISZERO PUSH3 0x387 JUMPI PUSH1 0x0 DUP1 REVERT JUMPDEST PUSH3 0x395 DUP13 DUP4 DUP14 ADD PUSH3 0x265 JUMP JUMPDEST SWAP7 POP PUSH1 0x80 DUP12 ADD MLOAD SWAP2 POP DUP1 DUP3 GT ISZERO PUSH3 0x3AC JUMPI PUSH1 0x0 DUP1 REVERT JUMPDEST PUSH3 0x3BA DUP13 DUP4 DUP14 ADD PUSH3 0x265 JUMP JUMPDEST SWAP6 POP PUSH1 0xA0 DUP12 ADD MLOAD SWAP2 POP DUP1 DUP3 GT ISZERO PUSH3 0x3D1 JUMPI PUSH1 0x0 DUP1 REVERT JUMPDEST POP PUSH3 0x3E0 DUP12 DUP3 DUP13 ADD PUSH3 0x265 JUMP JUMPDEST SWAP4 POP POP PUSH3 0x3F1 PUSH1 0xC0 DUP11 ADD PUSH3 0x20C JUMP JUMPDEST SWAP2 POP PUSH3 0x401 PUSH1 0xE0 DUP11 ADD PUSH3 0x20C JUMP JUMPDEST SWAP1 POP SWAP3 SWAP6 SWAP9 POP SWAP3 SWAP6 SWAP9 SWAP1 SWAP4 SWAP7 POP JUMP JUMPDEST PUSH1 0x1 DUP2 DUP2 SHR SWAP1 DUP3 AND DUP1 PUSH3 0x425 JUMPI PUSH1 0x7F DUP3 AND SWAP2 POP JUMPDEST PUSH1 0x20 DUP3 LT DUP2 SUB PUSH3 0x446 JUMPI PUSH4 0x4E487B71 PUSH1 0xE0 SHL PUSH1 0x0 MSTORE PUSH1 0x22 PUSH1 0x4 MSTORE PUSH1 0x24 PUSH1 0x0 REVERT JUMPDEST POP SWAP2 SWAP1 POP JUMP JUMPDEST PUSH1 0x1F DUP3 GT ISZERO PUSH3 0x49A JUMPI PUSH1 0x0 DUP2 DUP2 MSTORE PUSH1 0x20 DUP2 KECCAK256 PUSH1 0x1F DUP6 ADD PUSH1 0x5 SHR DUP2 ADD PUSH1 0x20 DUP7 LT ISZERO PUSH3 0x475 JUMPI POP DUP1 JUMPDEST PUSH1 0x1F DUP6 ADD PUSH1 0x5 SHR DUP3 ADD SWAP2 POP JUMPDEST DUP2 DUP2 LT ISZERO PUSH3 0x496 JUMPI DUP3 DUP2 SSTORE PUSH1 0x1 ADD PUSH3 0x481 JUMP JUMPDEST POP POP POP JUMPDEST POP POP POP JUMP JUMPDEST DUP2 MLOAD PUSH1 0x1 PUSH1 0x1 PUSH1 0x40 SHL SUB DUP2 GT ISZERO PUSH3 0x4BB JUMPI PUSH3 0x4BB PUSH3 0x229 JUMP JUMPDEST PUSH3 0x4D3 DUP2 PUSH3 0x4CC DUP5 SLOAD PUSH3 0x410 JUMP JUMPDEST DUP5 PUSH3 0x44C JUMP JUMPDEST PUSH1 0x20 DUP1 PUSH1 0x1F DUP4 GT PUSH1 0x1 DUP2 EQ PUSH3 0x50B JUMPI PUSH1 0x0 DUP5 ISZERO PUSH3 0x4F2 JUMPI POP DUP6 DUP4 ADD MLOAD JUMPDEST PUSH1 0x0 NOT PUSH1 0x3 DUP7 SWAP1 SHL SHR NOT AND PUSH1 0x1 DUP6 SWAP1 SHL OR DUP6 SSTORE PUSH3 0x496 JUMP JUMPDEST PUSH1 0x0 DUP6 DUP2 MSTORE PUSH1 0x20 DUP2 KECCAK256 PUSH1 0x1F NOT DUP7 AND SWAP2 JUMPDEST DUP3 DUP2 LT ISZERO PUSH3 0x53C JUMPI DUP9 DUP7 ADD MLOAD DUP3 SSTORE SWAP5 DUP5 ADD SWAP5 PUSH1 0x1 SWAP1 SWAP2 ADD SWAP1 DUP5 ADD PUSH3 0x51B JUMP JUMPDEST POP DUP6 DUP3 LT ISZERO PUSH3 0x55B JUMPI DUP8 DUP6 ADD MLOAD PUSH1 0x0 NOT PUSH1 0x3 DUP9 SWAP1 SHL PUSH1 0xF8 AND SHR NOT AND DUP2 SSTORE JUMPDEST POP POP POP POP POP PUSH1 0x1 SWAP1 DUP2 SHL ADD SWAP1 SSTORE POP JUMP JUMPDEST PUSH1 0x0 DUP2 MLOAD DUP1 DUP5 MSTORE PUSH3 0x585 DUP2 PUSH1 0x20 DUP7 ADD PUSH1 0x20 DUP7 ADD PUSH3 0x23F JUMP JUMPDEST PUSH1 0x1F ADD PUSH1 0x1F NOT AND SWAP3 SWAP1 SWAP3 ADD PUSH1 0x20 ADD SWAP3 SWAP2 POP POP JUMP JUMPDEST PUSH1 0x60 DUP2 MSTORE PUSH1 0x0 PUSH3 0x5AE PUSH1 0x60 DUP4 ADD DUP7 PUSH3 0x56B JUMP JUMPDEST DUP3 DUP2 SUB PUSH1 0x20 DUP5 ADD MSTORE PUSH3 0x5C2 DUP2 DUP7 PUSH3 0x56B JUMP JUMPDEST SWAP2 POP POP DUP3 PUSH1 0x40 DUP4 ADD MSTORE SWAP5 SWAP4 POP POP POP POP JUMP JUMPDEST PUSH2 0x4059 DUP1 PUSH3 0x5E3 PUSH1 0x0 CODECOPY PUSH1 0x0 RETURN INVALID PUSH1 0x80 PUSH1 0x40 MSTORE PUSH1 0x4 CALLDATASIZE LT PUSH2 0x203 JUMPI PUSH1 0x0 CALLDATALOAD PUSH1 0xE0 SHR DUP1 PUSH4 0x783CEC80 GT PUSH2 0x118 JUMPI DUP1 PUSH4 0xC6E5D8F6 GT PUSH2 0xA0 JUMPI DUP1 PUSH4 0xE8660903 GT PUSH2 0x6F JUMPI DUP1 PUSH4 0xE8660903 EQ PUSH2 0x60A JUMPI DUP1 PUSH4 0xE985E9C5 EQ PUSH2 0x64B JUMPI DUP1 PUSH4 0xF242432A EQ PUSH2 0x694 JUMPI DUP1 PUSH4 0xF2FDE38B EQ PUSH2 0x6B4 JUMPI DUP1 PUSH4 0xF906B99C EQ PUSH2 0x6D4 JUMPI PUSH1 0x0 DUP1 REVERT JUMPDEST DUP1 PUSH4 0xC6E5D8F6 EQ PUSH2 0x58F JUMPI DUP1 PUSH4 0xCF2C0334 EQ PUSH2 0x5AF JUMPI DUP1 PUSH4 0xD0C2ED9F EQ PUSH2 0x5CF JUMPI DUP1 PUSH4 0xE3D2D03A EQ PUSH2 0x5F5 JUMPI PUSH1 0x0 DUP1 REVERT JUMPDEST DUP1 PUSH4 0xA22CB465 GT PUSH2 0xE7 JUMPI DUP1 PUSH4 0xA22CB465 EQ PUSH2 0x4FC JUMPI DUP1 PUSH4 0xA6B73DE5 EQ PUSH2 0x51C JUMPI DUP1 PUSH4 0xB2610AAA EQ PUSH2 0x53C JUMPI DUP1 PUSH4 0xB91D0A2F EQ PUSH2 0x55C JUMPI DUP1 PUSH4 0xC45A0155 EQ PUSH2 0x56F JUMPI PUSH1 0x0 DUP1 REVERT JUMPDEST DUP1 PUSH4 0x783CEC80 EQ PUSH2 0x468 JUMPI DUP1 PUSH4 0x79146FBE EQ PUSH2 0x47D JUMPI DUP1 PUSH4 0x8C09BB59 EQ PUSH2 0x49D JUMPI DUP1 PUSH4 0x8DA5CB5B EQ PUSH2 0x4CA JUMPI PUSH1 0x0 DUP1 REVERT JUMPDEST DUP1 PUSH4 0x2829FC53 GT PUSH2 0x19B JUMPI DUP1 PUSH4 0x4E1273F4 GT PUSH2 0x16A JUMPI DUP1 PUSH4 0x4E1273F4 EQ PUSH2 0x3AE JUMPI DUP1 PUSH4 0x52394573 EQ PUSH2 0x3CE JUMPI DUP1 PUSH4 0x5FF58CBB EQ PUSH2 0x3EE JUMPI DUP1 PUSH4 0x6FF8F2F7 EQ PUSH2 0x426 JUMPI DUP1 PUSH4 0x715018A6 EQ PUSH2 0x453 JUMPI PUSH1 0x0 DUP1 REVERT JUMPDEST DUP1 PUSH4 0x2829FC53 EQ PUSH2 0x331 JUMPI DUP1 PUSH4 0x2EB2C2D6 EQ PUSH2 0x364 JUMPI DUP1 PUSH4 0x35EB9F2E EQ PUSH2 0x384 JUMPI DUP1 PUSH4 0x3CCFD60B EQ PUSH2 0x399 JUMPI PUSH1 0x0 DUP1 REVERT JUMPDEST DUP1 PUSH4 0x30C61FB GT PUSH2 0x1D7 JUMPI DUP1 PUSH4 0x30C61FB EQ PUSH2 0x2AF JUMPI DUP1 PUSH4 0xA035284 EQ PUSH2 0x2CF JUMPI DUP1 PUSH4 0xE89341C EQ PUSH2 0x2EF JUMPI DUP1 PUSH4 0x21D8DC4C EQ PUSH2 0x31C JUMPI PUSH1 0x0 DUP1 REVERT JUMPDEST DUP1 PUSH3 0xFDD58E EQ PUSH2 0x208 JUMPI DUP1 PUSH4 0x16B5109 EQ PUSH2 0x23B JUMPI DUP1 PUSH4 0x1FFC9A7 EQ PUSH2 0x25D JUMPI DUP1 PUSH4 0x2F73F2D EQ PUSH2 0x28D JUMPI JUMPDEST PUSH1 0x0 DUP1 REVERT JUMPDEST CALLVALUE DUP1 ISZERO PUSH2 0x214 JUMPI PUSH1 0x0 DUP1 REVERT JUMPDEST POP PUSH2 0x228 PUSH2 0x223 CALLDATASIZE PUSH1 0x4 PUSH2 0x31C2 JUMP JUMPDEST PUSH2 0x708 JUMP JUMPDEST PUSH1 0x40 MLOAD SWAP1 DUP2 MSTORE PUSH1 0x20 ADD JUMPDEST PUSH1 0x40 MLOAD DUP1 SWAP2 SUB SWAP1 RETURN JUMPDEST CALLVALUE DUP1 ISZERO PUSH2 0x247 JUMPI PUSH1 0x0 DUP1 REVERT JUMPDEST POP PUSH2 0x25B PUSH2 0x256 CALLDATASIZE PUSH1 0x4 PUSH2 0x32A3 JUMP JUMPDEST PUSH2 0x7A1 JUMP JUMPDEST STOP JUMPDEST CALLVALUE DUP1 ISZERO PUSH2 0x269 JUMPI PUSH1 0x0 DUP1 REVERT JUMPDEST POP PUSH2 0x27D PUSH2 0x278 CALLDATASIZE PUSH1 0x4 PUSH2 0x3382 JUMP JUMPDEST PUSH2 0x99C JUMP JUMPDEST PUSH1 0x40 MLOAD SWAP1 ISZERO ISZERO DUP2 MSTORE PUSH1 0x20 ADD PUSH2 0x232 JUMP JUMPDEST CALLVALUE DUP1 ISZERO PUSH2 0x299 JUMPI PUSH1 0x0 DUP1 REVERT JUMPDEST POP PUSH2 0x2A2 PUSH2 0x9EC JUMP JUMPDEST PUSH1 0x40 MLOAD PUSH2 0x232 SWAP2 SWAP1 PUSH2 0x33DA JUMP JUMPDEST CALLVALUE DUP1 ISZERO PUSH2 0x2BB JUMPI PUSH1 0x0 DUP1 REVERT JUMPDEST POP PUSH2 0x25B PUSH2 0x2CA CALLDATASIZE PUSH1 0x4 PUSH2 0x33ED JUMP JUMPDEST PUSH2 0xB1D JUMP JUMPDEST CALLVALUE DUP1 ISZERO PUSH2 0x2DB JUMPI PUSH1 0x0 DUP1 REVERT JUMPDEST POP PUSH2 0x27D PUSH2 0x2EA CALLDATASIZE PUSH1 0x4 PUSH2 0x343C JUMP JUMPDEST PUSH2 0xD4B JUMP JUMPDEST CALLVALUE DUP1 ISZERO PUSH2 0x2FB JUMPI PUSH1 0x0 DUP1 REVERT JUMPDEST POP PUSH2 0x30F PUSH2 0x30A CALLDATASIZE PUSH1 0x4 PUSH2 0x3478 JUMP JUMPDEST PUSH2 0xDF6 JUMP JUMPDEST PUSH1 0x40 MLOAD PUSH2 0x232 SWAP2 SWAP1 PUSH2 0x34E1 JUMP JUMPDEST CALLVALUE DUP1 ISZERO PUSH2 0x328 JUMPI PUSH1 0x0 DUP1 REVERT JUMPDEST POP PUSH2 0x30F PUSH2 0x10B0 JUMP JUMPDEST CALLVALUE DUP1 ISZERO PUSH2 0x33D JUMPI PUSH1 0x0 DUP1 REVERT JUMPDEST POP PUSH2 0x351 PUSH2 0x34C CALLDATASIZE PUSH1 0x4 PUSH2 0x3478 JUMP JUMPDEST PUSH2 0x113E JUMP JUMPDEST PUSH1 0x40 MLOAD PUSH2 0x232 SWAP8 SWAP7 SWAP6 SWAP5 SWAP4 SWAP3 SWAP2 SWAP1 PUSH2 0x34F4 JUMP JUMPDEST CALLVALUE DUP1 ISZERO PUSH2 0x370 JUMPI PUSH1 0x0 DUP1 REVERT JUMPDEST POP PUSH2 0x25B PUSH2 0x37F CALLDATASIZE PUSH1 0x4 PUSH2 0x35D8 JUMP JUMPDEST PUSH2 0x1222 JUMP JUMPDEST CALLVALUE DUP1 ISZERO PUSH2 0x390 JUMPI PUSH1 0x0 DUP1 REVERT JUMPDEST POP PUSH2 0x30F PUSH2 0x126E JUMP JUMPDEST CALLVALUE DUP1 ISZERO PUSH2 0x3A5 JUMPI PUSH1 0x0 DUP1 REVERT JUMPDEST POP PUSH2 0x25B PUSH2 0x127B JUMP JUMPDEST CALLVALUE DUP1 ISZERO PUSH2 0x3BA JUMPI PUSH1 0x0 DUP1 REVERT JUMPDEST POP PUSH2 0x2A2 PUSH2 0x3C9 CALLDATASIZE PUSH1 0x4 PUSH2 0x36F4 JUMP JUMPDEST PUSH2 0x1308 JUMP JUMPDEST CALLVALUE DUP1 ISZERO PUSH2 0x3DA JUMPI PUSH1 0x0 DUP1 REVERT JUMPDEST POP PUSH2 0x25B PUSH2 0x3E9 CALLDATASIZE PUSH1 0x4 PUSH2 0x374D JUMP JUMPDEST PUSH2 0x1429 JUMP JUMPDEST CALLVALUE DUP1 ISZERO PUSH2 0x3FA JUMPI PUSH1 0x0 DUP1 REVERT JUMPDEST POP PUSH2 0x228 PUSH2 0x409 CALLDATASIZE PUSH1 0x4 PUSH2 0x31C2 JUMP JUMPDEST PUSH1 0x10 PUSH1 0x20 SWAP1 DUP2 MSTORE PUSH1 0x0 SWAP3 DUP4 MSTORE PUSH1 0x40 DUP1 DUP5 KECCAK256 SWAP1 SWAP2 MSTORE SWAP1 DUP3 MSTORE SWAP1 KECCAK256 SLOAD DUP2 JUMP JUMPDEST CALLVALUE DUP1 ISZERO PUSH2 0x432 JUMPI PUSH1 0x0 DUP1 REVERT JUMPDEST POP PUSH2 0x446 PUSH2 0x441 CALLDATASIZE PUSH1 0x4 PUSH2 0x3478 JUMP JUMPDEST PUSH2 0x14AA JUMP JUMPDEST PUSH1 0x40 MLOAD PUSH2 0x232 SWAP2 SWAP1 PUSH2 0x37C4 JUMP JUMPDEST CALLVALUE DUP1 ISZERO PUSH2 0x45F JUMPI PUSH1 0x0 DUP1 REVERT JUMPDEST POP PUSH2 0x25B PUSH2 0x1649 JUMP JUMPDEST CALLVALUE DUP1 ISZERO PUSH2 0x474 JUMPI PUSH1 0x0 DUP1 REVERT JUMPDEST POP PUSH2 0x30F PUSH2 0x165D JUMP JUMPDEST CALLVALUE DUP1 ISZERO PUSH2 0x489 JUMPI PUSH1 0x0 DUP1 REVERT JUMPDEST POP PUSH2 0x27D PUSH2 0x498 CALLDATASIZE PUSH1 0x4 PUSH2 0x3833 JUMP JUMPDEST PUSH2 0x166A JUMP JUMPDEST CALLVALUE DUP1 ISZERO PUSH2 0x4A9 JUMPI PUSH1 0x0 DUP1 REVERT JUMPDEST POP PUSH2 0x4BD PUSH2 0x4B8 CALLDATASIZE PUSH1 0x4 PUSH2 0x3850 JUMP JUMPDEST PUSH2 0x16F8 JUMP JUMPDEST PUSH1 0x40 MLOAD PUSH2 0x232 SWAP2 SWAP1 PUSH2 0x3884 JUMP JUMPDEST CALLVALUE DUP1 ISZERO PUSH2 0x4D6 JUMPI PUSH1 0x0 DUP1 REVERT JUMPDEST POP PUSH1 0x3 SLOAD PUSH1 0x1 PUSH1 0x1 PUSH1 0xA0 SHL SUB AND JUMPDEST PUSH1 0x40 MLOAD PUSH1 0x1 PUSH1 0x1 PUSH1 0xA0 SHL SUB SWAP1 SWAP2 AND DUP2 MSTORE PUSH1 0x20 ADD PUSH2 0x232 JUMP JUMPDEST CALLVALUE DUP1 ISZERO PUSH2 0x508 JUMPI PUSH1 0x0 DUP1 REVERT JUMPDEST POP PUSH2 0x25B PUSH2 0x517 CALLDATASIZE PUSH1 0x4 PUSH2 0x38D8 JUMP JUMPDEST PUSH2 0x181D JUMP JUMPDEST CALLVALUE DUP1 ISZERO PUSH2 0x528 JUMPI PUSH1 0x0 DUP1 REVERT JUMPDEST POP PUSH2 0x25B PUSH2 0x537 CALLDATASIZE PUSH1 0x4 PUSH2 0x3911 JUMP JUMPDEST PUSH2 0x1828 JUMP JUMPDEST CALLVALUE DUP1 ISZERO PUSH2 0x548 JUMPI PUSH1 0x0 DUP1 REVERT JUMPDEST POP PUSH2 0x30F PUSH2 0x557 CALLDATASIZE PUSH1 0x4 PUSH2 0x3833 JUMP JUMPDEST PUSH2 0x19AB JUMP JUMPDEST PUSH2 0x25B PUSH2 0x56A CALLDATASIZE PUSH1 0x4 PUSH2 0x3478 JUMP JUMPDEST PUSH2 0x19C4 JUMP JUMPDEST CALLVALUE DUP1 ISZERO PUSH2 0x57B JUMPI PUSH1 0x0 DUP1 REVERT JUMPDEST POP PUSH1 0x5 SLOAD PUSH2 0x4E4 SWAP1 PUSH1 0x1 PUSH1 0x1 PUSH1 0xA0 SHL SUB AND DUP2 JUMP JUMPDEST CALLVALUE DUP1 ISZERO PUSH2 0x59B JUMPI PUSH1 0x0 DUP1 REVERT JUMPDEST POP PUSH2 0x2A2 PUSH2 0x5AA CALLDATASIZE PUSH1 0x4 PUSH2 0x3833 JUMP JUMPDEST PUSH2 0x1FC9 JUMP JUMPDEST CALLVALUE DUP1 ISZERO PUSH2 0x5BB JUMPI PUSH1 0x0 DUP1 REVERT JUMPDEST POP PUSH2 0x228 PUSH2 0x5CA CALLDATASIZE PUSH1 0x4 PUSH2 0x31C2 JUMP JUMPDEST PUSH2 0x2035 JUMP JUMPDEST CALLVALUE DUP1 ISZERO PUSH2 0x5DB JUMPI PUSH1 0x0 DUP1 REVERT JUMPDEST POP PUSH2 0x5E4 PUSH2 0x2066 JUMP JUMPDEST PUSH1 0x40 MLOAD PUSH2 0x232 SWAP6 SWAP5 SWAP4 SWAP3 SWAP2 SWAP1 PUSH2 0x3969 JUMP JUMPDEST CALLVALUE DUP1 ISZERO PUSH2 0x601 JUMPI PUSH1 0x0 DUP1 REVERT JUMPDEST POP PUSH2 0x25B PUSH2 0x21A8 JUMP JUMPDEST CALLVALUE DUP1 ISZERO PUSH2 0x616 JUMPI PUSH1 0x0 DUP1 REVERT JUMPDEST POP PUSH2 0x4E4 PUSH2 0x625 CALLDATASIZE PUSH1 0x4 PUSH2 0x343C JUMP JUMPDEST DUP1 MLOAD PUSH1 0x20 DUP2 DUP4 ADD DUP2 ADD DUP1 MLOAD PUSH1 0xE DUP3 MSTORE SWAP3 DUP3 ADD SWAP2 SWAP1 SWAP4 ADD KECCAK256 SWAP2 MSTORE SLOAD PUSH1 0x1 PUSH1 0x1 PUSH1 0xA0 SHL SUB AND DUP2 JUMP JUMPDEST CALLVALUE DUP1 ISZERO PUSH2 0x657 JUMPI PUSH1 0x0 DUP1 REVERT JUMPDEST POP PUSH2 0x27D PUSH2 0x666 CALLDATASIZE PUSH1 0x4 PUSH2 0x39B5 JUMP JUMPDEST PUSH1 0x1 PUSH1 0x1 PUSH1 0xA0 SHL SUB SWAP2 DUP3 AND PUSH1 0x0 SWAP1 DUP2 MSTORE PUSH1 0x1 PUSH1 0x20 SWAP1 DUP2 MSTORE PUSH1 0x40 DUP1 DUP4 KECCAK256 SWAP4 SWAP1 SWAP5 AND DUP3 MSTORE SWAP2 SWAP1 SWAP2 MSTORE KECCAK256 SLOAD PUSH1 0xFF AND SWAP1 JUMP JUMPDEST CALLVALUE DUP1 ISZERO PUSH2 0x6A0 JUMPI PUSH1 0x0 DUP1 REVERT JUMPDEST POP PUSH2 0x25B PUSH2 0x6AF CALLDATASIZE PUSH1 0x4 PUSH2 0x39E3 JUMP JUMPDEST PUSH2 0x21D1 JUMP JUMPDEST CALLVALUE DUP1 ISZERO PUSH2 0x6C0 JUMPI PUSH1 0x0 DUP1 REVERT JUMPDEST POP PUSH2 0x25B PUSH2 0x6CF CALLDATASIZE PUSH1 0x4 PUSH2 0x3833 JUMP JUMPDEST PUSH2 0x2216 JUMP JUMPDEST CALLVALUE DUP1 ISZERO PUSH2 0x6E0 JUMPI PUSH1 0x0 DUP1 REVERT JUMPDEST POP PUSH2 0x6F4 PUSH2 0x6EF CALLDATASIZE PUSH1 0x4 PUSH2 0x3478 JUMP JUMPDEST PUSH2 0x228C JUMP JUMPDEST PUSH1 0x40 MLOAD PUSH2 0x232 SWAP9 SWAP8 SWAP7 SWAP6 SWAP5 SWAP4 SWAP3 SWAP2 SWAP1 PUSH2 0x3A4B JUMP JUMPDEST PUSH1 0x0 PUSH1 0x1 PUSH1 0x1 PUSH1 0xA0 SHL SUB DUP4 AND PUSH2 0x778 JUMPI PUSH1 0x40 MLOAD PUSH3 0x461BCD PUSH1 0xE5 SHL DUP2 MSTORE PUSH1 0x20 PUSH1 0x4 DUP3 ADD MSTORE PUSH1 0x2A PUSH1 0x24 DUP3 ADD MSTORE PUSH32 0x455243313135353A2061646472657373207A65726F206973206E6F7420612076 PUSH1 0x44 DUP3 ADD MSTORE PUSH10 0x30B634B21037BBB732B9 PUSH1 0xB1 SHL PUSH1 0x64 DUP3 ADD MSTORE PUSH1 0x84 ADD JUMPDEST PUSH1 0x40 MLOAD DUP1 SWAP2 SUB SWAP1 REVERT JUMPDEST POP PUSH1 0x0 DUP2 DUP2 MSTORE PUSH1 0x20 DUP2 DUP2 MSTORE PUSH1 0x40 DUP1 DUP4 KECCAK256 PUSH1 0x1 PUSH1 0x1 PUSH1 0xA0 SHL SUB DUP7 AND DUP5 MSTORE SWAP1 SWAP2 MSTORE SWAP1 KECCAK256 SLOAD JUMPDEST SWAP3 SWAP2 POP POP JUMP JUMPDEST PUSH2 0x7A9 PUSH2 0x24F1 JUMP JUMPDEST PUSH1 0x0 DUP7 GT PUSH2 0x7F9 JUMPI PUSH1 0x40 MLOAD PUSH3 0x461BCD PUSH1 0xE5 SHL DUP2 MSTORE PUSH1 0x20 PUSH1 0x4 DUP3 ADD MSTORE PUSH1 0x19 PUSH1 0x24 DUP3 ADD MSTORE PUSH32 0x4475726174696F6E206D75737420626520706F73697469766500000000000000 PUSH1 0x44 DUP3 ADD MSTORE PUSH1 0x64 ADD PUSH2 0x76F JUMP JUMPDEST PUSH1 0x0 DUP6 GT PUSH2 0x842 JUMPI PUSH1 0x40 MLOAD PUSH3 0x461BCD PUSH1 0xE5 SHL DUP2 MSTORE PUSH1 0x20 PUSH1 0x4 DUP3 ADD MSTORE PUSH1 0x16 PUSH1 0x24 DUP3 ADD MSTORE PUSH22 0x5072696365206D75737420626520706F736974697665 PUSH1 0x50 SHL PUSH1 0x44 DUP3 ADD MSTORE PUSH1 0x64 ADD PUSH2 0x76F JUMP JUMPDEST PUSH1 0x0 DUP5 MLOAD GT PUSH2 0x883 JUMPI PUSH1 0x40 MLOAD PUSH3 0x461BCD PUSH1 0xE5 SHL DUP2 MSTORE PUSH1 0x20 PUSH1 0x4 DUP3 ADD MSTORE PUSH1 0xD PUSH1 0x24 DUP3 ADD MSTORE PUSH13 0x13985B59481C995C5D5A5C9959 PUSH1 0x9A SHL PUSH1 0x44 DUP3 ADD MSTORE PUSH1 0x64 ADD PUSH2 0x76F JUMP JUMPDEST PUSH1 0x40 DUP1 MLOAD PUSH2 0x100 DUP2 ADD DUP3 MSTORE DUP8 DUP2 MSTORE PUSH1 0x20 DUP1 DUP3 ADD DUP9 DUP2 MSTORE DUP3 DUP5 ADD DUP9 DUP2 MSTORE PUSH1 0x60 DUP5 ADD DUP9 SWAP1 MSTORE PUSH1 0x80 DUP5 ADD DUP8 SWAP1 MSTORE PUSH1 0xA0 DUP5 ADD DUP7 SWAP1 MSTORE PUSH1 0x1 PUSH1 0xC0 DUP6 ADD DUP2 SWAP1 MSTORE TIMESTAMP PUSH1 0xE0 DUP7 ADD MSTORE PUSH1 0x0 DUP14 DUP2 MSTORE PUSH1 0xF SWAP1 SWAP5 MSTORE SWAP5 SWAP1 SWAP3 KECCAK256 DUP4 MLOAD DUP2 SSTORE SWAP1 MLOAD SWAP4 DUP2 ADD SWAP4 SWAP1 SWAP4 SSTORE MLOAD SWAP1 SWAP2 SWAP1 PUSH1 0x2 DUP3 ADD SWAP1 PUSH2 0x8F1 SWAP1 DUP3 PUSH2 0x3B44 JUMP JUMPDEST POP PUSH1 0x60 DUP3 ADD MLOAD PUSH1 0x3 DUP3 ADD SWAP1 PUSH2 0x906 SWAP1 DUP3 PUSH2 0x3B44 JUMP JUMPDEST POP PUSH1 0x80 DUP3 ADD MLOAD PUSH1 0x4 DUP3 ADD SWAP1 PUSH2 0x91B SWAP1 DUP3 PUSH2 0x3B44 JUMP JUMPDEST POP PUSH1 0xA0 DUP3 ADD MLOAD PUSH1 0x5 DUP3 ADD SWAP1 PUSH2 0x930 SWAP1 DUP3 PUSH2 0x3B44 JUMP JUMPDEST POP PUSH1 0xC0 DUP3 ADD MLOAD PUSH1 0x6 DUP3 ADD DUP1 SLOAD PUSH1 0xFF NOT AND SWAP2 ISZERO ISZERO SWAP2 SWAP1 SWAP2 OR SWAP1 SSTORE PUSH1 0xE0 SWAP1 SWAP2 ADD MLOAD PUSH1 0x7 SWAP1 SWAP2 ADD SSTORE PUSH1 0x40 MLOAD DUP8 SWAP1 PUSH32 0x71EE33549AA6BE67D7C282688E8B683BB21A476171C3BC5A6C8B17B2C9F82A52 SWAP1 PUSH2 0x98B SWAP1 DUP10 SWAP1 DUP10 SWAP1 DUP10 SWAP1 PUSH2 0x3C03 JUMP JUMPDEST PUSH1 0x40 MLOAD DUP1 SWAP2 SUB SWAP1 LOG2 POP POP POP POP POP POP POP JUMP JUMPDEST PUSH1 0x0 PUSH1 0x1 PUSH1 0x1 PUSH1 0xE0 SHL SUB NOT DUP3 AND PUSH4 0x6CDB3D13 PUSH1 0xE1 SHL EQ DUP1 PUSH2 0x9CD JUMPI POP PUSH1 0x1 PUSH1 0x1 PUSH1 0xE0 SHL SUB NOT DUP3 AND PUSH4 0x3A24D07 PUSH1 0xE2 SHL EQ JUMPDEST DUP1 PUSH2 0x79B JUMPI POP PUSH4 0x1FFC9A7 PUSH1 0xE0 SHL PUSH1 0x1 PUSH1 0x1 PUSH1 0xE0 SHL SUB NOT DUP4 AND EQ PUSH2 0x79B JUMP JUMPDEST PUSH1 0x40 DUP1 MLOAD PUSH1 0xA DUP1 DUP3 MSTORE PUSH2 0x160 DUP3 ADD SWAP1 SWAP3 MSTORE PUSH1 0x60 SWAP2 PUSH1 0x0 SWAP2 SWAP1 PUSH1 0x20 DUP3 ADD PUSH2 0x140 DUP1 CALLDATASIZE DUP4 CALLDATACOPY ADD SWAP1 POP POP SWAP1 POP PUSH1 0x0 PUSH1 0x1 JUMPDEST PUSH1 0xA DUP2 GT PUSH2 0xA7A JUMPI PUSH1 0x0 DUP2 DUP2 MSTORE PUSH1 0xF PUSH1 0x20 MSTORE PUSH1 0x40 SWAP1 KECCAK256 PUSH1 0x6 ADD SLOAD PUSH1 0xFF AND ISZERO PUSH2 0xA68 JUMPI DUP1 DUP4 DUP4 DUP2 MLOAD DUP2 LT PUSH2 0xA4F JUMPI PUSH2 0xA4F PUSH2 0x3C2B JUMP JUMPDEST PUSH1 0x20 SWAP1 DUP2 MUL SWAP2 SWAP1 SWAP2 ADD ADD MSTORE DUP2 PUSH2 0xA64 DUP2 PUSH2 0x3C57 JUMP JUMPDEST SWAP3 POP POP JUMPDEST DUP1 PUSH2 0xA72 DUP2 PUSH2 0x3C57 JUMP JUMPDEST SWAP2 POP POP PUSH2 0xA1A JUMP JUMPDEST POP PUSH1 0x0 DUP2 PUSH1 0x1 PUSH1 0x1 PUSH1 0x40 SHL SUB DUP2 GT ISZERO PUSH2 0xA95 JUMPI PUSH2 0xA95 PUSH2 0x31EE JUMP JUMPDEST PUSH1 0x40 MLOAD SWAP1 DUP1 DUP3 MSTORE DUP1 PUSH1 0x20 MUL PUSH1 0x20 ADD DUP3 ADD PUSH1 0x40 MSTORE DUP1 ISZERO PUSH2 0xABE JUMPI DUP2 PUSH1 0x20 ADD PUSH1 0x20 DUP3 MUL DUP1 CALLDATASIZE DUP4 CALLDATACOPY ADD SWAP1 POP JUMPDEST POP SWAP1 POP PUSH1 0x0 JUMPDEST DUP3 DUP2 LT ISZERO PUSH2 0xB15 JUMPI DUP4 DUP2 DUP2 MLOAD DUP2 LT PUSH2 0xADE JUMPI PUSH2 0xADE PUSH2 0x3C2B JUMP JUMPDEST PUSH1 0x20 MUL PUSH1 0x20 ADD ADD MLOAD DUP3 DUP3 DUP2 MLOAD DUP2 LT PUSH2 0xAF8 JUMPI PUSH2 0xAF8 PUSH2 0x3C2B JUMP JUMPDEST PUSH1 0x20 SWAP1 DUP2 MUL SWAP2 SWAP1 SWAP2 ADD ADD MSTORE DUP1 PUSH2 0xB0D DUP2 PUSH2 0x3C57 JUMP JUMPDEST SWAP2 POP POP PUSH2 0xAC4 JUMP JUMPDEST POP SWAP4 SWAP3 POP POP POP JUMP JUMPDEST PUSH1 0xB SLOAD PUSH1 0x1 PUSH1 0x1 PUSH1 0xA0 SHL SUB AND CALLER EQ DUP1 PUSH2 0xB40 JUMPI POP PUSH1 0x3 SLOAD PUSH1 0x1 PUSH1 0x1 PUSH1 0xA0 SHL SUB AND CALLER EQ JUMPDEST PUSH2 0xB7D JUMPI PUSH1 0x40 MLOAD PUSH3 0x461BCD PUSH1 0xE5 SHL DUP2 MSTORE PUSH1 0x20 PUSH1 0x4 DUP3 ADD MSTORE PUSH1 0xE PUSH1 0x24 DUP3 ADD MSTORE PUSH14 0x139BDD08185D5D1A1BDC9A5E9959 PUSH1 0x92 SHL PUSH1 0x44 DUP3 ADD MSTORE PUSH1 0x64 ADD PUSH2 0x76F JUMP JUMPDEST PUSH1 0x0 DUP2 MLOAD GT PUSH2 0xBC1 JUMPI PUSH1 0x40 MLOAD PUSH3 0x461BCD PUSH1 0xE5 SHL DUP2 MSTORE PUSH1 0x20 PUSH1 0x4 DUP3 ADD MSTORE PUSH1 0x10 PUSH1 0x24 DUP3 ADD MSTORE PUSH16 0x125B9D985B1A59081A5B989BDE081251 PUSH1 0x82 SHL PUSH1 0x44 DUP3 ADD MSTORE PUSH1 0x64 ADD PUSH2 0x76F JUMP JUMPDEST PUSH1 0x1 PUSH1 0x1 PUSH1 0xA0 SHL SUB DUP3 AND PUSH1 0x0 SWAP1 DUP2 MSTORE PUSH1 0xD PUSH1 0x20 MSTORE PUSH1 0x40 DUP2 KECCAK256 DUP1 SLOAD PUSH2 0xBE4 SWAP1 PUSH2 0x3ABF JUMP JUMPDEST DUP1 PUSH1 0x1F ADD PUSH1 0x20 DUP1 SWAP2 DIV MUL PUSH1 0x20 ADD PUSH1 0x40 MLOAD SWAP1 DUP2 ADD PUSH1 0x40 MSTORE DUP1 SWAP3 SWAP2 SWAP1 DUP2 DUP2 MSTORE PUSH1 0x20 ADD DUP3 DUP1 SLOAD PUSH2 0xC10 SWAP1 PUSH2 0x3ABF JUMP JUMPDEST DUP1 ISZERO PUSH2 0xC5D JUMPI DUP1 PUSH1 0x1F LT PUSH2 0xC32 JUMPI PUSH2 0x100 DUP1 DUP4 SLOAD DIV MUL DUP4 MSTORE SWAP2 PUSH1 0x20 ADD SWAP2 PUSH2 0xC5D JUMP JUMPDEST DUP3 ADD SWAP2 SWAP1 PUSH1 0x0 MSTORE PUSH1 0x20 PUSH1 0x0 KECCAK256 SWAP1 JUMPDEST DUP2 SLOAD DUP2 MSTORE SWAP1 PUSH1 0x1 ADD SWAP1 PUSH1 0x20 ADD DUP1 DUP4 GT PUSH2 0xC40 JUMPI DUP3 SWAP1 SUB PUSH1 0x1F AND DUP3 ADD SWAP2 JUMPDEST POP POP POP POP POP SWAP1 POP PUSH1 0x0 DUP2 MLOAD GT ISZERO PUSH2 0xC9C JUMPI PUSH1 0xE DUP2 PUSH1 0x40 MLOAD PUSH2 0xC7E SWAP2 SWAP1 PUSH2 0x3C70 JUMP JUMPDEST SWAP1 DUP2 MSTORE PUSH1 0x40 MLOAD SWAP1 DUP2 SWAP1 SUB PUSH1 0x20 ADD SWAP1 KECCAK256 DUP1 SLOAD PUSH1 0x1 PUSH1 0x1 PUSH1 0xA0 SHL SUB NOT AND SWAP1 SSTORE JUMPDEST PUSH1 0x1 PUSH1 0x1 PUSH1 0xA0 SHL SUB DUP4 AND PUSH1 0x0 SWAP1 DUP2 MSTORE PUSH1 0xD PUSH1 0x20 MSTORE PUSH1 0x40 SWAP1 KECCAK256 PUSH2 0xCBE DUP4 DUP3 PUSH2 0x3B44 JUMP JUMPDEST POP DUP3 PUSH1 0xE DUP4 PUSH1 0x40 MLOAD PUSH2 0xCD0 SWAP2 SWAP1 PUSH2 0x3C70 JUMP JUMPDEST SWAP1 DUP2 MSTORE PUSH1 0x40 MLOAD SWAP1 DUP2 SWAP1 SUB PUSH1 0x20 ADD DUP2 KECCAK256 DUP1 SLOAD PUSH1 0x1 PUSH1 0x1 PUSH1 0xA0 SHL SUB SWAP4 SWAP1 SWAP4 AND PUSH1 0x1 PUSH1 0x1 PUSH1 0xA0 SHL SUB NOT SWAP1 SWAP4 AND SWAP3 SWAP1 SWAP3 OR SWAP1 SWAP2 SSTORE PUSH2 0xD0B SWAP1 DUP4 SWAP1 PUSH2 0x3C70 JUMP JUMPDEST PUSH1 0x40 MLOAD SWAP1 DUP2 SWAP1 SUB DUP2 KECCAK256 SWAP1 PUSH1 0x1 PUSH1 0x1 PUSH1 0xA0 SHL SUB DUP6 AND SWAP1 PUSH32 0x8B4881C75A7EDFC0E7B573EF45189A69862C36B7419ABE831C60FCAC34ED201E SWAP1 PUSH1 0x0 SWAP1 LOG3 POP POP POP JUMP JUMPDEST PUSH1 0x0 DUP1 PUSH1 0xE DUP4 PUSH1 0x40 MLOAD PUSH2 0xD5E SWAP2 SWAP1 PUSH2 0x3C70 JUMP JUMPDEST SWAP1 DUP2 MSTORE PUSH1 0x40 MLOAD SWAP1 DUP2 SWAP1 SUB PUSH1 0x20 ADD SWAP1 KECCAK256 SLOAD PUSH1 0x1 PUSH1 0x1 PUSH1 0xA0 SHL SUB AND SWAP1 POP DUP1 PUSH2 0xD87 JUMPI POP PUSH1 0x0 SWAP3 SWAP2 POP POP JUMP JUMPDEST PUSH1 0x40 MLOAD PUSH4 0x3C8A37DF PUSH1 0xE1 SHL DUP2 MSTORE PUSH1 0x1 PUSH1 0x1 PUSH1 0xA0 SHL SUB DUP3 AND PUSH1 0x4 DUP3 ADD MSTORE ADDRESS SWAP1 PUSH4 0x79146FBE SWAP1 PUSH1 0x24 ADD PUSH1 0x20 PUSH1 0x40 MLOAD DUP1 DUP4 SUB DUP2 DUP7 GAS STATICCALL ISZERO DUP1 ISZERO PUSH2 0xDCB JUMPI RETURNDATASIZE PUSH1 0x0 DUP1 RETURNDATACOPY RETURNDATASIZE PUSH1 0x0 REVERT JUMPDEST POP POP POP POP PUSH1 0x40 MLOAD RETURNDATASIZE PUSH1 0x1F NOT PUSH1 0x1F DUP3 ADD AND DUP3 ADD DUP1 PUSH1 0x40 MSTORE POP DUP2 ADD SWAP1 PUSH2 0xDEF SWAP2 SWAP1 PUSH2 0x3C8C JUMP JUMPDEST SWAP4 SWAP3 POP POP POP JUMP JUMPDEST PUSH1 0x60 PUSH1 0x0 PUSH1 0xF PUSH1 0x0 DUP5 DUP2 MSTORE PUSH1 0x20 ADD SWAP1 DUP2 MSTORE PUSH1 0x20 ADD PUSH1 0x0 KECCAK256 PUSH1 0x40 MLOAD DUP1 PUSH2 0x100 ADD PUSH1 0x40 MSTORE SWAP1 DUP2 PUSH1 0x0 DUP3 ADD SLOAD DUP2 MSTORE PUSH1 0x20 ADD PUSH1 0x1 DUP3 ADD SLOAD DUP2 MSTORE PUSH1 0x20 ADD PUSH1 0x2 DUP3 ADD DUP1 SLOAD PUSH2 0xE3D SWAP1 PUSH2 0x3ABF JUMP JUMPDEST DUP1 PUSH1 0x1F ADD PUSH1 0x20 DUP1 SWAP2 DIV MUL PUSH1 0x20 ADD PUSH1 0x40 MLOAD SWAP1 DUP2 ADD PUSH1 0x40 MSTORE DUP1 SWAP3 SWAP2 SWAP1 DUP2 DUP2 MSTORE PUSH1 0x20 ADD DUP3 DUP1 SLOAD PUSH2 0xE69 SWAP1 PUSH2 0x3ABF JUMP JUMPDEST DUP1 ISZERO PUSH2 0xEB6 JUMPI DUP1 PUSH1 0x1F LT PUSH2 0xE8B JUMPI PUSH2 0x100 DUP1 DUP4 SLOAD DIV MUL DUP4 MSTORE SWAP2 PUSH1 0x20 ADD SWAP2 PUSH2 0xEB6 JUMP JUMPDEST DUP3 ADD SWAP2 SWAP1 PUSH1 0x0 MSTORE PUSH1 0x20 PUSH1 0x0 KECCAK256 SWAP1 JUMPDEST DUP2 SLOAD DUP2 MSTORE SWAP1 PUSH1 0x1 ADD SWAP1 PUSH1 0x20 ADD DUP1 DUP4 GT PUSH2 0xE99 JUMPI DUP3 SWAP1 SUB PUSH1 0x1F AND DUP3 ADD SWAP2 JUMPDEST POP POP POP POP POP DUP2 MSTORE PUSH1 0x20 ADD PUSH1 0x3 DUP3 ADD DUP1 SLOAD PUSH2 0xECF SWAP1 PUSH2 0x3ABF JUMP JUMPDEST DUP1 PUSH1 0x1F ADD PUSH1 0x20 DUP1 SWAP2 DIV MUL PUSH1 0x20 ADD PUSH1 0x40 MLOAD SWAP1 DUP2 ADD PUSH1 0x40 MSTORE DUP1 SWAP3 SWAP2 SWAP1 DUP2 DUP2 MSTORE PUSH1 0x20 ADD DUP3 DUP1 SLOAD PUSH2 0xEFB SWAP1 PUSH2 0x3ABF JUMP JUMPDEST DUP1 ISZERO PUSH2 0xF48 JUMPI DUP1 PUSH1 0x1F LT PUSH2 0xF1D JUMPI PUSH2 0x100 DUP1 DUP4 SLOAD DIV MUL DUP4 MSTORE SWAP2 PUSH1 0x20 ADD SWAP2 PUSH2 0xF48 JUMP JUMPDEST DUP3 ADD SWAP2 SWAP1 PUSH1 0x0 MSTORE PUSH1 0x20 PUSH1 0x0 KECCAK256 SWAP1 JUMPDEST DUP2 SLOAD DUP2 MSTORE SWAP1 PUSH1 0x1 ADD SWAP1 PUSH1 0x20 ADD DUP1 DUP4 GT PUSH2 0xF2B JUMPI DUP3 SWAP1 SUB PUSH1 0x1F AND DUP3 ADD SWAP2 JUMPDEST POP POP POP POP POP DUP2 MSTORE PUSH1 0x20 ADD PUSH1 0x4 DUP3 ADD DUP1 SLOAD PUSH2 0xF61 SWAP1 PUSH2 0x3ABF JUMP JUMPDEST DUP1 PUSH1 0x1F ADD PUSH1 0x20 DUP1 SWAP2 DIV MUL PUSH1 0x20 ADD PUSH1 0x40 MLOAD SWAP1 DUP2 ADD PUSH1 0x40 MSTORE DUP1 SWAP3 SWAP2 SWAP1 DUP2 DUP2 MSTORE PUSH1 0x20 ADD DUP3 DUP1 SLOAD PUSH2 0xF8D SWAP1 PUSH2 0x3ABF JUMP JUMPDEST DUP1 ISZERO PUSH2 0xFDA JUMPI DUP1 PUSH1 0x1F LT PUSH2 0xFAF JUMPI PUSH2 0x100 DUP1 DUP4 SLOAD DIV MUL DUP4 MSTORE SWAP2 PUSH1 0x20 ADD SWAP2 PUSH2 0xFDA JUMP JUMPDEST DUP3 ADD SWAP2 SWAP1 PUSH1 0x0 MSTORE PUSH1 0x20 PUSH1 0x0 KECCAK256 SWAP1 JUMPDEST DUP2 SLOAD DUP2 MSTORE SWAP1 PUSH1 0x1 ADD SWAP1 PUSH1 0x20 ADD DUP1 DUP4 GT PUSH2 0xFBD JUMPI DUP3 SWAP1 SUB PUSH1 0x1F AND DUP3 ADD SWAP2 JUMPDEST POP POP POP POP POP DUP2 MSTORE PUSH1 0x20 ADD PUSH1 0x5 DUP3 ADD DUP1 SLOAD PUSH2 0xFF3 SWAP1 PUSH2 0x3ABF JUMP JUMPDEST DUP1 PUSH1 0x1F ADD PUSH1 0x20 DUP1 SWAP2 DIV MUL PUSH1 0x20 ADD PUSH1 0x40 MLOAD SWAP1 DUP2 ADD PUSH1 0x40 MSTORE DUP1 SWAP3 SWAP2 SWAP1 DUP2 DUP2 MSTORE PUSH1 0x20 ADD DUP3 DUP1 SLOAD PUSH2 0x101F SWAP1 PUSH2 0x3ABF JUMP JUMPDEST DUP1 ISZERO PUSH2 0x106C JUMPI DUP1 PUSH1 0x1F LT PUSH2 0x1041 JUMPI PUSH2 0x100 DUP1 DUP4 SLOAD DIV MUL DUP4 MSTORE SWAP2 PUSH1 0x20 ADD SWAP2 PUSH2 0x106C JUMP JUMPDEST DUP3 ADD SWAP2 SWAP1 PUSH1 0x0 MSTORE PUSH1 0x20 PUSH1 0x0 KECCAK256 SWAP1 JUMPDEST DUP2 SLOAD DUP2 MSTORE SWAP1 PUSH1 0x1 ADD SWAP1 PUSH1 0x20 ADD DUP1 DUP4 GT PUSH2 0x104F JUMPI DUP3 SWAP1 SUB PUSH1 0x1F AND DUP3 ADD SWAP2 JUMPDEST POP POP POP SWAP2 DUP4 MSTORE POP POP PUSH1 0x6 DUP3 ADD SLOAD PUSH1 0xFF AND ISZERO ISZERO PUSH1 0x20 DUP3 ADD MSTORE PUSH1 0x7 SWAP1 SWAP2 ADD SLOAD PUSH1 0x40 SWAP1 SWAP2 ADD MSTORE PUSH1 0xA0 DUP2 ADD MLOAD MLOAD SWAP1 SWAP2 POP ISZERO PUSH2 0x10A7 JUMPI PUSH1 0xA0 ADD MLOAD SWAP3 SWAP2 POP POP JUMP JUMPDEST PUSH2 0xDEF DUP4 PUSH2 0x254B JUMP JUMPDEST PUSH1 0x8 DUP1 SLOAD PUSH2 0x10BD SWAP1 PUSH2 0x3ABF JUMP JUMPDEST DUP1 PUSH1 0x1F ADD PUSH1 0x20 DUP1 SWAP2 DIV MUL PUSH1 0x20 ADD PUSH1 0x40 MLOAD SWAP1 DUP2 ADD PUSH1 0x40 MSTORE DUP1 SWAP3 SWAP2 SWAP1 DUP2 DUP2 MSTORE PUSH1 0x20 ADD DUP3 DUP1 SLOAD PUSH2 0x10E9 SWAP1 PUSH2 0x3ABF JUMP JUMPDEST DUP1 ISZERO PUSH2 0x1136 JUMPI DUP1 PUSH1 0x1F LT PUSH2 0x110B JUMPI PUSH2 0x100 DUP1 DUP4 SLOAD DIV MUL DUP4 MSTORE SWAP2 PUSH1 0x20 ADD SWAP2 PUSH2 0x1136 JUMP JUMPDEST DUP3 ADD SWAP2 SWAP1 PUSH1 0x0 MSTORE PUSH1 0x20 PUSH1 0x0 KECCAK256 SWAP1 JUMPDEST DUP2 SLOAD DUP2 MSTORE SWAP1 PUSH1 0x1 ADD SWAP1 PUSH1 0x20 ADD DUP1 DUP4 GT PUSH2 0x1119 JUMPI DUP3 SWAP1 SUB PUSH1 0x1F AND DUP3 ADD SWAP2 JUMPDEST POP POP POP POP POP DUP2 JUMP JUMPDEST PUSH1 0x11 DUP2 DUP2 SLOAD DUP2 LT PUSH2 0x114E JUMPI PUSH1 0x0 DUP1 REVERT JUMPDEST PUSH1 0x0 SWAP2 DUP3 MSTORE PUSH1 0x20 SWAP1 SWAP2 KECCAK256 PUSH1 0x7 SWAP1 SWAP2 MUL ADD DUP1 SLOAD PUSH1 0x1 DUP3 ADD DUP1 SLOAD PUSH1 0x1 PUSH1 0x1 PUSH1 0xA0 SHL SUB SWAP1 SWAP3 AND SWAP4 POP SWAP1 PUSH2 0x117D SWAP1 PUSH2 0x3ABF JUMP JUMPDEST DUP1 PUSH1 0x1F ADD PUSH1 0x20 DUP1 SWAP2 DIV MUL PUSH1 0x20 ADD PUSH1 0x40 MLOAD SWAP1 DUP2 ADD PUSH1 0x40 MSTORE DUP1 SWAP3 SWAP2 SWAP1 DUP2 DUP2 MSTORE PUSH1 0x20 ADD DUP3 DUP1 SLOAD PUSH2 0x11A9 SWAP1 PUSH2 0x3ABF JUMP JUMPDEST DUP1 ISZERO PUSH2 0x11F6 JUMPI DUP1 PUSH1 0x1F LT PUSH2 0x11CB JUMPI PUSH2 0x100 DUP1 DUP4 SLOAD DIV MUL DUP4 MSTORE SWAP2 PUSH1 0x20 ADD SWAP2 PUSH2 0x11F6 JUMP JUMPDEST DUP3 ADD SWAP2 SWAP1 PUSH1 0x0 MSTORE PUSH1 0x20 PUSH1 0x0 KECCAK256 SWAP1 JUMPDEST DUP2 SLOAD DUP2 MSTORE SWAP1 PUSH1 0x1 ADD SWAP1 PUSH1 0x20 ADD DUP1 DUP4 GT PUSH2 0x11D9 JUMPI DUP3 SWAP1 SUB PUSH1 0x1F AND DUP3 ADD SWAP2 JUMPDEST POP POP POP PUSH1 0x2 DUP5 ADD SLOAD PUSH1 0x3 DUP6 ADD SLOAD PUSH1 0x4 DUP7 ADD SLOAD PUSH1 0x5 DUP8 ADD SLOAD PUSH1 0x6 SWAP1 SWAP8 ADD SLOAD SWAP6 SWAP7 SWAP3 SWAP6 SWAP2 SWAP5 POP SWAP3 POP PUSH1 0xFF AND DUP8 JUMP JUMPDEST PUSH1 0x1 PUSH1 0x1 PUSH1 0xA0 SHL SUB DUP6 AND CALLER EQ DUP1 PUSH2 0x123E JUMPI POP PUSH2 0x123E DUP6 CALLER PUSH2 0x666 JUMP JUMPDEST PUSH2 0x125A JUMPI PUSH1 0x40 MLOAD PUSH3 0x461BCD PUSH1 0xE5 SHL DUP2 MSTORE PUSH1 0x4 ADD PUSH2 0x76F SWAP1 PUSH2 0x3CA9 JUMP JUMPDEST PUSH2 0x1267 DUP6 DUP6 DUP6 DUP6 DUP6 PUSH2 0x25D5 JUMP JUMPDEST POP POP POP POP POP JUMP JUMPDEST PUSH1 0x7 DUP1 SLOAD PUSH2 0x10BD SWAP1 PUSH2 0x3ABF JUMP JUMPDEST PUSH2 0x1283 PUSH2 0x24F1 JUMP JUMPDEST SELFBALANCE DUP1 PUSH2 0x12CA JUMPI PUSH1 0x40 MLOAD PUSH3 0x461BCD PUSH1 0xE5 SHL DUP2 MSTORE PUSH1 0x20 PUSH1 0x4 DUP3 ADD MSTORE PUSH1 0x16 PUSH1 0x24 DUP3 ADD MSTORE PUSH22 0x4E6F2062616C616E636520746F207769746864726177 PUSH1 0x50 SHL PUSH1 0x44 DUP3 ADD MSTORE PUSH1 0x64 ADD PUSH2 0x76F JUMP JUMPDEST PUSH1 0x3 SLOAD PUSH1 0x40 MLOAD PUSH1 0x1 PUSH1 0x1 PUSH1 0xA0 SHL SUB SWAP1 SWAP2 AND SWAP1 DUP3 ISZERO PUSH2 0x8FC MUL SWAP1 DUP4 SWAP1 PUSH1 0x0 DUP2 DUP2 DUP2 DUP6 DUP9 DUP9 CALL SWAP4 POP POP POP POP ISZERO DUP1 ISZERO PUSH2 0x1304 JUMPI RETURNDATASIZE PUSH1 0x0 DUP1 RETURNDATACOPY RETURNDATASIZE PUSH1 0x0 REVERT JUMPDEST POP POP JUMP JUMPDEST PUSH1 0x60 DUP2 MLOAD DUP4 MLOAD EQ PUSH2 0x136D JUMPI PUSH1 0x40 MLOAD PUSH3 0x461BCD PUSH1 0xE5 SHL DUP2 MSTORE PUSH1 0x20 PUSH1 0x4 DUP3 ADD MSTORE PUSH1 0x29 PUSH1 0x24 DUP3 ADD MSTORE PUSH32 0x455243313135353A206163636F756E747320616E6420696473206C656E677468 PUSH1 0x44 DUP3 ADD MSTORE PUSH9 0x40DAD2E6DAC2E8C6D PUSH1 0xBB SHL PUSH1 0x64 DUP3 ADD MSTORE PUSH1 0x84 ADD PUSH2 0x76F JUMP JUMPDEST PUSH1 0x0 DUP4 MLOAD PUSH1 0x1 PUSH1 0x1 PUSH1 0x40 SHL SUB DUP2 GT ISZERO PUSH2 0x1388 JUMPI PUSH2 0x1388 PUSH2 0x31EE JUMP JUMPDEST PUSH1 0x40 MLOAD SWAP1 DUP1 DUP3 MSTORE DUP1 PUSH1 0x20 MUL PUSH1 0x20 ADD DUP3 ADD PUSH1 0x40 MSTORE DUP1 ISZERO PUSH2 0x13B1 JUMPI DUP2 PUSH1 0x20 ADD PUSH1 0x20 DUP3 MUL DUP1 CALLDATASIZE DUP4 CALLDATACOPY ADD SWAP1 POP JUMPDEST POP SWAP1 POP PUSH1 0x0 JUMPDEST DUP5 MLOAD DUP2 LT ISZERO PUSH2 0xB15 JUMPI PUSH2 0x13FC DUP6 DUP3 DUP2 MLOAD DUP2 LT PUSH2 0x13D5 JUMPI PUSH2 0x13D5 PUSH2 0x3C2B JUMP JUMPDEST PUSH1 0x20 MUL PUSH1 0x20 ADD ADD MLOAD DUP6 DUP4 DUP2 MLOAD DUP2 LT PUSH2 0x13EF JUMPI PUSH2 0x13EF PUSH2 0x3C2B JUMP JUMPDEST PUSH1 0x20 MUL PUSH1 0x20 ADD ADD MLOAD PUSH2 0x708 JUMP JUMPDEST DUP3 DUP3 DUP2 MLOAD DUP2 LT PUSH2 0x140E JUMPI PUSH2 0x140E PUSH2 0x3C2B JUMP JUMPDEST PUSH1 0x20 SWAP1 DUP2 MUL SWAP2 SWAP1 SWAP2 ADD ADD MSTORE PUSH2 0x1422 DUP2 PUSH2 0x3C57 JUMP JUMPDEST SWAP1 POP PUSH2 0x13B7 JUMP JUMPDEST PUSH2 0x1431 PUSH2 0x24F1 JUMP JUMPDEST PUSH1 0x9 PUSH2 0x143D DUP5 DUP3 PUSH2 0x3B44 JUMP JUMPDEST POP PUSH1 0xA PUSH2 0x144A DUP4 DUP3 PUSH2 0x3B44 JUMP JUMPDEST POP PUSH1 0xB DUP1 SLOAD PUSH1 0x1 PUSH1 0x1 PUSH1 0xA0 SHL SUB NOT AND PUSH1 0x1 PUSH1 0x1 PUSH1 0xA0 SHL SUB DUP4 AND SWAP1 DUP2 OR SWAP1 SWAP2 SSTORE PUSH1 0x40 MLOAD PUSH32 0x5BD2D155ED1076BDD300B62402F71B052EFF6F9ED7C9B91D25E3A9477C7F47B8 SWAP1 PUSH2 0x149D SWAP1 DUP7 SWAP1 DUP7 SWAP1 TIMESTAMP SWAP1 PUSH2 0x3CF7 JUMP JUMPDEST PUSH1 0x40 MLOAD DUP1 SWAP2 SUB SWAP1 LOG2 POP POP POP JUMP JUMPDEST PUSH2 0x14F5 PUSH1 0x40 MLOAD DUP1 PUSH1 0xE0 ADD PUSH1 0x40 MSTORE DUP1 PUSH1 0x0 PUSH1 0x1 PUSH1 0x1 PUSH1 0xA0 SHL SUB AND DUP2 MSTORE PUSH1 0x20 ADD PUSH1 0x60 DUP2 MSTORE PUSH1 0x20 ADD PUSH1 0x0 DUP2 MSTORE PUSH1 0x20 ADD PUSH1 0x0 DUP2 MSTORE PUSH1 0x20 ADD PUSH1 0x0 DUP2 MSTORE PUSH1 0x20 ADD PUSH1 0x0 DUP2 MSTORE PUSH1 0x20 ADD PUSH1 0x0 ISZERO ISZERO DUP2 MSTORE POP SWAP1 JUMP JUMPDEST PUSH1 0x11 SLOAD DUP3 LT PUSH2 0x1536 JUMPI PUSH1 0x40 MLOAD PUSH3 0x461BCD PUSH1 0xE5 SHL DUP2 MSTORE PUSH1 0x20 PUSH1 0x4 DUP3 ADD MSTORE PUSH1 0xD PUSH1 0x24 DUP3 ADD MSTORE PUSH13 0x92DCECC2D8D2C840D2DCC8CAF PUSH1 0x9B SHL PUSH1 0x44 DUP3 ADD MSTORE PUSH1 0x64 ADD PUSH2 0x76F JUMP JUMPDEST PUSH1 0x11 DUP3 DUP2 SLOAD DUP2 LT PUSH2 0x1549 JUMPI PUSH2 0x1549 PUSH2 0x3C2B JUMP JUMPDEST PUSH1 0x0 SWAP2 DUP3 MSTORE PUSH1 0x20 SWAP2 DUP3 SWAP1 KECCAK256 PUSH1 0x40 DUP1 MLOAD PUSH1 0xE0 DUP2 ADD SWAP1 SWAP2 MSTORE PUSH1 0x7 SWAP1 SWAP3 MUL ADD DUP1 SLOAD PUSH1 0x1 PUSH1 0x1 PUSH1 0xA0 SHL SUB AND DUP3 MSTORE PUSH1 0x1 DUP2 ADD DUP1 SLOAD SWAP3 SWAP4 SWAP2 SWAP3 SWAP2 DUP5 ADD SWAP2 PUSH2 0x1589 SWAP1 PUSH2 0x3ABF JUMP JUMPDEST DUP1 PUSH1 0x1F ADD PUSH1 0x20 DUP1 SWAP2 DIV MUL PUSH1 0x20 ADD PUSH1 0x40 MLOAD SWAP1 DUP2 ADD PUSH1 0x40 MSTORE DUP1 SWAP3 SWAP2 SWAP1 DUP2 DUP2 MSTORE PUSH1 0x20 ADD DUP3 DUP1 SLOAD PUSH2 0x15B5 SWAP1 PUSH2 0x3ABF JUMP JUMPDEST DUP1 ISZERO PUSH2 0x1602 JUMPI DUP1 PUSH1 0x1F LT PUSH2 0x15D7 JUMPI PUSH2 0x100 DUP1 DUP4 SLOAD DIV MUL DUP4 MSTORE SWAP2 PUSH1 0x20 ADD SWAP2 PUSH2 0x1602 JUMP JUMPDEST DUP3 ADD SWAP2 SWAP1 PUSH1 0x0 MSTORE PUSH1 0x20 PUSH1 0x0 KECCAK256 SWAP1 JUMPDEST DUP2 SLOAD DUP2 MSTORE SWAP1 PUSH1 0x1 ADD SWAP1 PUSH1 0x20 ADD DUP1 DUP4 GT PUSH2 0x15E5 JUMPI DUP3 SWAP1 SUB PUSH1 0x1F AND DUP3 ADD SWAP2 JUMPDEST POP POP POP SWAP2 DUP4 MSTORE POP POP PUSH1 0x2 DUP3 ADD SLOAD PUSH1 0x20 DUP3 ADD MSTORE PUSH1 0x3 DUP3 ADD SLOAD PUSH1 0x40 DUP3 ADD MSTORE PUSH1 0x4 DUP3 ADD SLOAD PUSH1 0x60 DUP3 ADD MSTORE PUSH1 0x5 DUP3 ADD SLOAD PUSH1 0x80 DUP3 ADD MSTORE PUSH1 0x6 SWAP1 SWAP2 ADD SLOAD PUSH1 0xFF AND ISZERO ISZERO PUSH1 0xA0 SWAP1 SWAP2 ADD MSTORE SWAP3 SWAP2 POP POP JUMP JUMPDEST PUSH2 0x1651 PUSH2 0x24F1 JUMP JUMPDEST PUSH2 0x165B PUSH1 0x0 PUSH2 0x27B2 JUMP JUMPDEST JUMP JUMPDEST PUSH1 0x6 DUP1 SLOAD PUSH2 0x10BD SWAP1 PUSH2 0x3ABF JUMP JUMPDEST PUSH1 0x0 PUSH1 0x1 JUMPDEST PUSH1 0xA DUP2 GT PUSH2 0x16EF JUMPI PUSH1 0x0 DUP2 DUP2 MSTORE PUSH1 0xF PUSH1 0x20 MSTORE PUSH1 0x40 SWAP1 KECCAK256 PUSH1 0x6 ADD SLOAD PUSH1 0xFF AND DUP1 ISZERO PUSH2 0x16A1 JUMPI POP PUSH1 0x0 PUSH2 0x169F DUP5 DUP4 PUSH2 0x708 JUMP JUMPDEST GT JUMPDEST DUP1 ISZERO PUSH2 0x16CF JUMPI POP PUSH1 0x1 PUSH1 0x1 PUSH1 0xA0 SHL SUB DUP4 AND PUSH1 0x0 SWAP1 DUP2 MSTORE PUSH1 0x10 PUSH1 0x20 SWAP1 DUP2 MSTORE PUSH1 0x40 DUP1 DUP4 KECCAK256 DUP5 DUP5 MSTORE SWAP1 SWAP2 MSTORE SWAP1 KECCAK256 SLOAD TIMESTAMP LT JUMPDEST ISZERO PUSH2 0x16DD JUMPI POP PUSH1 0x1 SWAP3 SWAP2 POP POP JUMP JUMPDEST DUP1 PUSH2 0x16E7 DUP2 PUSH2 0x3C57 JUMP JUMPDEST SWAP2 POP POP PUSH2 0x166F JUMP JUMPDEST POP PUSH1 0x0 SWAP3 SWAP2 POP POP JUMP JUMPDEST PUSH1 0x60 PUSH1 0x0 DUP3 MLOAD PUSH1 0x1 PUSH1 0x1 PUSH1 0x40 SHL SUB DUP2 GT ISZERO PUSH2 0x1715 JUMPI PUSH2 0x1715 PUSH2 0x31EE JUMP JUMPDEST PUSH1 0x40 MLOAD SWAP1 DUP1 DUP3 MSTORE DUP1 PUSH1 0x20 MUL PUSH1 0x20 ADD DUP3 ADD PUSH1 0x40 MSTORE DUP1 ISZERO PUSH2 0x173E JUMPI DUP2 PUSH1 0x20 ADD PUSH1 0x20 DUP3 MUL DUP1 CALLDATASIZE DUP4 CALLDATACOPY ADD SWAP1 POP JUMPDEST POP SWAP1 POP PUSH1 0x0 JUMPDEST DUP4 MLOAD DUP2 LT ISZERO PUSH2 0x1816 JUMPI ADDRESS PUSH1 0x1 PUSH1 0x1 PUSH1 0xA0 SHL SUB AND PUSH4 0x79146FBE DUP6 DUP4 DUP2 MLOAD DUP2 LT PUSH2 0x176E JUMPI PUSH2 0x176E PUSH2 0x3C2B JUMP JUMPDEST PUSH1 0x20 MUL PUSH1 0x20 ADD ADD MLOAD PUSH1 0x40 MLOAD DUP3 PUSH4 0xFFFFFFFF AND PUSH1 0xE0 SHL DUP2 MSTORE PUSH1 0x4 ADD PUSH2 0x17A1 SWAP2 SWAP1 PUSH1 0x1 PUSH1 0x1 PUSH1 0xA0 SHL SUB SWAP2 SWAP1 SWAP2 AND DUP2 MSTORE PUSH1 0x20 ADD SWAP1 JUMP JUMPDEST PUSH1 0x20 PUSH1 0x40 MLOAD DUP1 DUP4 SUB DUP2 DUP7 GAS STATICCALL ISZERO DUP1 ISZERO PUSH2 0x17BE JUMPI RETURNDATASIZE PUSH1 0x0 DUP1 RETURNDATACOPY RETURNDATASIZE PUSH1 0x0 REVERT JUMPDEST POP POP POP POP PUSH1 0x40 MLOAD RETURNDATASIZE PUSH1 0x1F NOT PUSH1 0x1F DUP3 ADD AND DUP3 ADD DUP1 PUSH1 0x40 MSTORE POP DUP2 ADD SWAP1 PUSH2 0x17E2 SWAP2 SWAP1 PUSH2 0x3C8C JUMP JUMPDEST DUP3 DUP3 DUP2 MLOAD DUP2 LT PUSH2 0x17F4 JUMPI PUSH2 0x17F4 PUSH2 0x3C2B JUMP JUMPDEST SWAP2 ISZERO ISZERO PUSH1 0x20 SWAP3 DUP4 MUL SWAP2 SWAP1 SWAP2 ADD SWAP1 SWAP2 ADD MSTORE DUP1 PUSH2 0x180E DUP2 PUSH2 0x3C57 JUMP JUMPDEST SWAP2 POP POP PUSH2 0x1744 JUMP JUMPDEST POP SWAP3 SWAP2 POP POP JUMP JUMPDEST PUSH2 0x1304 CALLER DUP4 DUP4 PUSH2 0x2804 JUMP JUMPDEST PUSH2 0x1830 PUSH2 0x24F1 JUMP JUMPDEST PUSH1 0x0 PUSH2 0x183C DUP5 DUP5 PUSH2 0x708 JUMP JUMPDEST GT PUSH2 0x187E JUMPI PUSH1 0x40 MLOAD PUSH3 0x461BCD PUSH1 0xE5 SHL DUP2 MSTORE PUSH1 0x20 PUSH1 0x4 DUP3 ADD MSTORE PUSH1 0x12 PUSH1 0x24 DUP3 ADD MSTORE PUSH18 0x5573657220686173206E6F20746F6B656E73 PUSH1 0x70 SHL PUSH1 0x44 DUP3 ADD MSTORE PUSH1 0x64 ADD PUSH2 0x76F JUMP JUMPDEST PUSH2 0x1892 DUP4 DUP4 PUSH2 0x188D DUP7 DUP7 PUSH2 0x708 JUMP JUMPDEST PUSH2 0x28E4 JUMP JUMPDEST PUSH1 0x1 PUSH1 0x1 PUSH1 0xA0 SHL SUB DUP4 AND PUSH1 0x0 DUP2 DUP2 MSTORE PUSH1 0x10 PUSH1 0x20 SWAP1 DUP2 MSTORE PUSH1 0x40 DUP1 DUP4 KECCAK256 DUP7 DUP5 MSTORE DUP3 MSTORE DUP1 DUP4 KECCAK256 DUP4 SWAP1 SSTORE SWAP3 DUP3 MSTORE PUSH1 0xD SWAP1 MSTORE SWAP1 DUP2 KECCAK256 DUP1 SLOAD PUSH2 0x18CD SWAP1 PUSH2 0x3ABF JUMP JUMPDEST DUP1 PUSH1 0x1F ADD PUSH1 0x20 DUP1 SWAP2 DIV MUL PUSH1 0x20 ADD PUSH1 0x40 MLOAD SWAP1 DUP2 ADD PUSH1 0x40 MSTORE DUP1 SWAP3 SWAP2 SWAP1 DUP2 DUP2 MSTORE PUSH1 0x20 ADD DUP3 DUP1 SLOAD PUSH2 0x18F9 SWAP1 PUSH2 0x3ABF JUMP JUMPDEST DUP1 ISZERO PUSH2 0x1946 JUMPI DUP1 PUSH1 0x1F LT PUSH2 0x191B JUMPI PUSH2 0x100 DUP1 DUP4 SLOAD DIV MUL DUP4 MSTORE SWAP2 PUSH1 0x20 ADD SWAP2 PUSH2 0x1946 JUMP JUMPDEST DUP3 ADD SWAP2 SWAP1 PUSH1 0x0 MSTORE PUSH1 0x20 PUSH1 0x0 KECCAK256 SWAP1 JUMPDEST DUP2 SLOAD DUP2 MSTORE SWAP1 PUSH1 0x1 ADD SWAP1 PUSH1 0x20 ADD DUP1 DUP4 GT PUSH2 0x1929 JUMPI DUP3 SWAP1 SUB PUSH1 0x1F AND DUP3 ADD SWAP2 JUMPDEST POP POP POP POP POP SWAP1 POP DUP3 DUP2 PUSH1 0x40 MLOAD PUSH2 0x195C SWAP2 SWAP1 PUSH2 0x3C70 JUMP JUMPDEST PUSH1 0x40 MLOAD DUP1 SWAP2 SUB SWAP1 KECCAK256 DUP6 PUSH1 0x1 PUSH1 0x1 PUSH1 0xA0 SHL SUB AND PUSH32 0x1F50CCA6E190C91C85B4889563D4100095E7BDF0DEAB20AD9E944CF9009149FC DUP6 PUSH1 0x40 MLOAD PUSH2 0x199D SWAP2 SWAP1 PUSH2 0x34E1 JUMP JUMPDEST PUSH1 0x40 MLOAD DUP1 SWAP2 SUB SWAP1 LOG4 POP POP POP POP JUMP JUMPDEST PUSH1 0xD PUSH1 0x20 MSTORE PUSH1 0x0 SWAP1 DUP2 MSTORE PUSH1 0x40 SWAP1 KECCAK256 DUP1 SLOAD PUSH2 0x10BD SWAP1 PUSH2 0x3ABF JUMP JUMPDEST PUSH2 0x19CC PUSH2 0x2A65 JUMP JUMPDEST PUSH1 0x0 PUSH1 0xF PUSH1 0x0 DUP4 DUP2 MSTORE PUSH1 0x20 ADD SWAP1 DUP2 MSTORE PUSH1 0x20 ADD PUSH1 0x0 KECCAK256 PUSH1 0x40 MLOAD DUP1 PUSH2 0x100 ADD PUSH1 0x40 MSTORE SWAP1 DUP2 PUSH1 0x0 DUP3 ADD SLOAD DUP2 MSTORE PUSH1 0x20 ADD PUSH1 0x1 DUP3 ADD SLOAD DUP2 MSTORE PUSH1 0x20 ADD PUSH1 0x2 DUP3 ADD DUP1 SLOAD PUSH2 0x1A11 SWAP1 PUSH2 0x3ABF JUMP JUMPDEST DUP1 PUSH1 0x1F ADD PUSH1 0x20 DUP1 SWAP2 DIV MUL PUSH1 0x20 ADD PUSH1 0x40 MLOAD SWAP1 DUP2 ADD PUSH1 0x40 MSTORE DUP1 SWAP3 SWAP2 SWAP1 DUP2 DUP2 MSTORE PUSH1 0x20 ADD DUP3 DUP1 SLOAD PUSH2 0x1A3D SWAP1 PUSH2 0x3ABF JUMP JUMPDEST DUP1 ISZERO PUSH2 0x1A8A JUMPI DUP1 PUSH1 0x1F LT PUSH2 0x1A5F JUMPI PUSH2 0x100 DUP1 DUP4 SLOAD DIV MUL DUP4 MSTORE SWAP2 PUSH1 0x20 ADD SWAP2 PUSH2 0x1A8A JUMP JUMPDEST DUP3 ADD SWAP2 SWAP1 PUSH1 0x0 MSTORE PUSH1 0x20 PUSH1 0x0 KECCAK256 SWAP1 JUMPDEST DUP2 SLOAD DUP2 MSTORE SWAP1 PUSH1 0x1 ADD SWAP1 PUSH1 0x20 ADD DUP1 DUP4 GT PUSH2 0x1A6D JUMPI DUP3 SWAP1 SUB PUSH1 0x1F AND DUP3 ADD SWAP2 JUMPDEST POP POP POP POP POP DUP2 MSTORE PUSH1 0x20 ADD PUSH1 0x3 DUP3 ADD DUP1 SLOAD PUSH2 0x1AA3 SWAP1 PUSH2 0x3ABF JUMP JUMPDEST DUP1 PUSH1 0x1F ADD PUSH1 0x20 DUP1 SWAP2 DIV MUL PUSH1 0x20 ADD PUSH1 0x40 MLOAD SWAP1 DUP2 ADD PUSH1 0x40 MSTORE DUP1 SWAP3 SWAP2 SWAP1 DUP2 DUP2 MSTORE PUSH1 0x20 ADD DUP3 DUP1 SLOAD PUSH2 0x1ACF SWAP1 PUSH2 0x3ABF JUMP JUMPDEST DUP1 ISZERO PUSH2 0x1B1C JUMPI DUP1 PUSH1 0x1F LT PUSH2 0x1AF1 JUMPI PUSH2 0x100 DUP1 DUP4 SLOAD DIV MUL DUP4 MSTORE SWAP2 PUSH1 0x20 ADD SWAP2 PUSH2 0x1B1C JUMP JUMPDEST DUP3 ADD SWAP2 SWAP1 PUSH1 0x0 MSTORE PUSH1 0x20 PUSH1 0x0 KECCAK256 SWAP1 JUMPDEST DUP2 SLOAD DUP2 MSTORE SWAP1 PUSH1 0x1 ADD SWAP1 PUSH1 0x20 ADD DUP1 DUP4 GT PUSH2 0x1AFF JUMPI DUP3 SWAP1 SUB PUSH1 0x1F AND DUP3 ADD SWAP2 JUMPDEST POP POP POP POP POP DUP2 MSTORE PUSH1 0x20 ADD PUSH1 0x4 DUP3 ADD DUP1 SLOAD PUSH2 0x1B35 SWAP1 PUSH2 0x3ABF JUMP JUMPDEST DUP1 PUSH1 0x1F ADD PUSH1 0x20 DUP1 SWAP2 DIV MUL PUSH1 0x20 ADD PUSH1 0x40 MLOAD SWAP1 DUP2 ADD PUSH1 0x40 MSTORE DUP1 SWAP3 SWAP2 SWAP1 DUP2 DUP2 MSTORE PUSH1 0x20 ADD DUP3 DUP1 SLOAD PUSH2 0x1B61 SWAP1 PUSH2 0x3ABF JUMP JUMPDEST DUP1 ISZERO PUSH2 0x1BAE JUMPI DUP1 PUSH1 0x1F LT PUSH2 0x1B83 JUMPI PUSH2 0x100 DUP1 DUP4 SLOAD DIV MUL DUP4 MSTORE SWAP2 PUSH1 0x20 ADD SWAP2 PUSH2 0x1BAE JUMP JUMPDEST DUP3 ADD SWAP2 SWAP1 PUSH1 0x0 MSTORE PUSH1 0x20 PUSH1 0x0 KECCAK256 SWAP1 JUMPDEST DUP2 SLOAD DUP2 MSTORE SWAP1 PUSH1 0x1 ADD SWAP1 PUSH1 0x20 ADD DUP1 DUP4 GT PUSH2 0x1B91 JUMPI DUP3 SWAP1 SUB PUSH1 0x1F AND DUP3 ADD SWAP2 JUMPDEST POP POP POP POP POP DUP2 MSTORE PUSH1 0x20 ADD PUSH1 0x5 DUP3 ADD DUP1 SLOAD PUSH2 0x1BC7 SWAP1 PUSH2 0x3ABF JUMP JUMPDEST DUP1 PUSH1 0x1F ADD PUSH1 0x20 DUP1 SWAP2 DIV MUL PUSH1 0x20 ADD PUSH1 0x40 MLOAD SWAP1 DUP2 ADD PUSH1 0x40 MSTORE DUP1 SWAP3 SWAP2 SWAP1 DUP2 DUP2 MSTORE PUSH1 0x20 ADD DUP3 DUP1 SLOAD PUSH2 0x1BF3 SWAP1 PUSH2 0x3ABF JUMP JUMPDEST DUP1 ISZERO PUSH2 0x1C40 JUMPI DUP1 PUSH1 0x1F LT PUSH2 0x1C15 JUMPI PUSH2 0x100 DUP1 DUP4 SLOAD DIV MUL DUP4 MSTORE SWAP2 PUSH1 0x20 ADD SWAP2 PUSH2 0x1C40 JUMP JUMPDEST DUP3 ADD SWAP2 SWAP1 PUSH1 0x0 MSTORE PUSH1 0x20 PUSH1 0x0 KECCAK256 SWAP1 JUMPDEST DUP2 SLOAD DUP2 MSTORE SWAP1 PUSH1 0x1 ADD SWAP1 PUSH1 0x20 ADD DUP1 DUP4 GT PUSH2 0x1C23 JUMPI DUP3 SWAP1 SUB PUSH1 0x1F AND DUP3 ADD SWAP2 JUMPDEST POP POP POP SWAP2 DUP4 MSTORE POP POP PUSH1 0x6 DUP3 ADD SLOAD PUSH1 0xFF AND ISZERO ISZERO PUSH1 0x20 DUP3 ADD MSTORE PUSH1 0x7 SWAP1 SWAP2 ADD SLOAD PUSH1 0x40 SWAP1 SWAP2 ADD MSTORE PUSH1 0xC0 DUP2 ADD MLOAD SWAP1 SWAP2 POP PUSH2 0x1CB0 JUMPI PUSH1 0x40 MLOAD PUSH3 0x461BCD PUSH1 0xE5 SHL DUP2 MSTORE PUSH1 0x20 PUSH1 0x4 DUP3 ADD MSTORE PUSH1 0x16 PUSH1 0x24 DUP3 ADD MSTORE PUSH22 0x4163636573732074696572206E6F7420616374697665 PUSH1 0x50 SHL PUSH1 0x44 DUP3 ADD MSTORE PUSH1 0x64 ADD PUSH2 0x76F JUMP JUMPDEST DUP1 PUSH1 0x20 ADD MLOAD CALLVALUE LT ISZERO PUSH2 0x1CFB JUMPI PUSH1 0x40 MLOAD PUSH3 0x461BCD PUSH1 0xE5 SHL DUP2 MSTORE PUSH1 0x20 PUSH1 0x4 DUP3 ADD MSTORE PUSH1 0x14 PUSH1 0x24 DUP3 ADD MSTORE PUSH20 0x125B9CDD59999A58DA595B9D081C185E5B595B9D PUSH1 0x62 SHL PUSH1 0x44 DUP3 ADD MSTORE PUSH1 0x64 ADD PUSH2 0x76F JUMP JUMPDEST DUP1 MLOAD PUSH1 0x0 SWAP1 PUSH2 0x1D0D SWAP1 PUSH3 0x15180 PUSH2 0x3D2D JUMP JUMPDEST PUSH2 0x1D17 SWAP1 TIMESTAMP PUSH2 0x3D44 JUMP JUMPDEST SWAP1 POP PUSH2 0x1D35 CALLER DUP5 PUSH1 0x1 PUSH1 0x40 MLOAD DUP1 PUSH1 0x20 ADD PUSH1 0x40 MSTORE DUP1 PUSH1 0x0 DUP2 MSTORE POP PUSH2 0x2ABE JUMP JUMPDEST CALLER PUSH1 0x0 DUP2 DUP2 MSTORE PUSH1 0x10 PUSH1 0x20 SWAP1 DUP2 MSTORE PUSH1 0x40 DUP1 DUP4 KECCAK256 DUP8 DUP5 MSTORE DUP3 MSTORE DUP1 DUP4 KECCAK256 DUP6 SWAP1 SSTORE SWAP3 DUP3 MSTORE PUSH1 0xD SWAP1 MSTORE SWAP1 DUP2 KECCAK256 DUP1 SLOAD PUSH2 0x1D67 SWAP1 PUSH2 0x3ABF JUMP JUMPDEST DUP1 PUSH1 0x1F ADD PUSH1 0x20 DUP1 SWAP2 DIV MUL PUSH1 0x20 ADD PUSH1 0x40 MLOAD SWAP1 DUP2 ADD PUSH1 0x40 MSTORE DUP1 SWAP3 SWAP2 SWAP1 DUP2 DUP2 MSTORE PUSH1 0x20 ADD DUP3 DUP1 SLOAD PUSH2 0x1D93 SWAP1 PUSH2 0x3ABF JUMP JUMPDEST DUP1 ISZERO PUSH2 0x1DE0 JUMPI DUP1 PUSH1 0x1F LT PUSH2 0x1DB5 JUMPI PUSH2 0x100 DUP1 DUP4 SLOAD DIV MUL DUP4 MSTORE SWAP2 PUSH1 0x20 ADD SWAP2 PUSH2 0x1DE0 JUMP JUMPDEST DUP3 ADD SWAP2 SWAP1 PUSH1 0x0 MSTORE PUSH1 0x20 PUSH1 0x0 KECCAK256 SWAP1 JUMPDEST DUP2 SLOAD DUP2 MSTORE SWAP1 PUSH1 0x1 ADD SWAP1 PUSH1 0x20 ADD DUP1 DUP4 GT PUSH2 0x1DC3 JUMPI DUP3 SWAP1 SUB PUSH1 0x1F AND DUP3 ADD SWAP2 JUMPDEST POP POP PUSH1 0x40 DUP1 MLOAD PUSH1 0xE0 DUP2 ADD DUP3 MSTORE CALLER DUP2 MSTORE PUSH1 0x20 DUP2 ADD DUP7 DUP2 MSTORE SWAP2 DUP2 ADD DUP11 SWAP1 MSTORE CALLVALUE PUSH1 0x60 DUP3 ADD MSTORE TIMESTAMP PUSH1 0x80 DUP3 ADD MSTORE PUSH1 0xA0 DUP2 ADD DUP9 SWAP1 MSTORE PUSH1 0x1 PUSH1 0xC0 DUP3 ADD DUP2 SWAP1 MSTORE PUSH1 0x11 DUP1 SLOAD SWAP2 DUP3 ADD DUP2 SSTORE PUSH1 0x0 MSTORE DUP2 MLOAD PUSH32 0x31ECC21A745E3968A04E9570E4425BC18FA8019C68028196B546D1669C200C68 PUSH1 0x7 SWAP1 SWAP3 MUL SWAP2 DUP3 ADD DUP1 SLOAD PUSH1 0x1 PUSH1 0x1 PUSH1 0xA0 SHL SUB NOT AND PUSH1 0x1 PUSH1 0x1 PUSH1 0xA0 SHL SUB SWAP1 SWAP3 AND SWAP2 SWAP1 SWAP2 OR DUP2 SSTORE SWAP3 MLOAD SWAP7 SWAP8 POP SWAP1 SWAP6 SWAP2 SWAP5 POP PUSH32 0x31ECC21A745E3968A04E9570E4425BC18FA8019C68028196B546D1669C200C69 ADD SWAP3 POP PUSH2 0x1EA5 SWAP2 POP DUP3 PUSH2 0x3B44 JUMP JUMPDEST POP PUSH1 0x40 DUP3 DUP2 ADD MLOAD PUSH1 0x2 DUP4 ADD SSTORE PUSH1 0x60 DUP4 ADD MLOAD PUSH1 0x3 DUP4 ADD SSTORE PUSH1 0x80 DUP4 ADD MLOAD PUSH1 0x4 DUP4 ADD SSTORE PUSH1 0xA0 DUP4 ADD MLOAD PUSH1 0x5 DUP4 ADD SSTORE PUSH1 0xC0 SWAP1 SWAP3 ADD MLOAD PUSH1 0x6 SWAP1 SWAP2 ADD DUP1 SLOAD PUSH1 0xFF NOT AND SWAP2 ISZERO ISZERO SWAP2 SWAP1 SWAP2 OR SWAP1 SSTORE CALLER PUSH1 0x0 SWAP1 DUP2 MSTORE PUSH1 0x12 PUSH1 0x20 MSTORE KECCAK256 PUSH1 0x11 SLOAD PUSH2 0x1F04 SWAP1 PUSH1 0x1 SWAP1 PUSH2 0x3D57 JUMP JUMPDEST DUP2 SLOAD PUSH1 0x1 DUP2 ADD DUP4 SSTORE PUSH1 0x0 SWAP3 DUP4 MSTORE PUSH1 0x20 SWAP1 SWAP3 KECCAK256 SWAP1 SWAP2 ADD SSTORE PUSH2 0x1F23 CALLVALUE PUSH2 0x2BC9 JUMP JUMPDEST DUP3 PUSH1 0x20 ADD MLOAD CALLVALUE GT ISZERO PUSH2 0x1F6E JUMPI PUSH1 0x20 DUP4 ADD MLOAD CALLER SWAP1 PUSH2 0x8FC SWAP1 PUSH2 0x1F44 SWAP1 CALLVALUE PUSH2 0x3D57 JUMP JUMPDEST PUSH1 0x40 MLOAD DUP2 ISZERO SWAP1 SWAP3 MUL SWAP2 PUSH1 0x0 DUP2 DUP2 DUP2 DUP6 DUP9 DUP9 CALL SWAP4 POP POP POP POP ISZERO DUP1 ISZERO PUSH2 0x1F6C JUMPI RETURNDATASIZE PUSH1 0x0 DUP1 RETURNDATACOPY RETURNDATASIZE PUSH1 0x0 REVERT JUMPDEST POP JUMPDEST DUP4 DUP2 PUSH1 0x40 MLOAD PUSH2 0x1F7D SWAP2 SWAP1 PUSH2 0x3C70 JUMP JUMPDEST PUSH1 0x40 MLOAD SWAP1 DUP2 SWAP1 SUB DUP2 KECCAK256 DUP5 DUP3 MSTORE SWAP1 CALLER SWAP1 PUSH32 0x832E3266EDA251722A299E9CEC6DB5E6C82C1590615BF7F40F0D6F6651B403A1 SWAP1 PUSH1 0x20 ADD PUSH1 0x40 MLOAD DUP1 SWAP2 SUB SWAP1 LOG4 POP POP POP PUSH2 0x1FC6 PUSH1 0x1 PUSH1 0x4 SSTORE JUMP JUMPDEST POP JUMP JUMPDEST PUSH1 0x1 PUSH1 0x1 PUSH1 0xA0 SHL SUB DUP2 AND PUSH1 0x0 SWAP1 DUP2 MSTORE PUSH1 0x12 PUSH1 0x20 SWAP1 DUP2 MSTORE PUSH1 0x40 SWAP2 DUP3 SWAP1 KECCAK256 DUP1 SLOAD DUP4 MLOAD DUP2 DUP5 MUL DUP2 ADD DUP5 ADD SWAP1 SWAP5 MSTORE DUP1 DUP5 MSTORE PUSH1 0x60 SWAP4 SWAP3 DUP4 ADD DUP3 DUP3 DUP1 ISZERO PUSH2 0x2029 JUMPI PUSH1 0x20 MUL DUP3 ADD SWAP2 SWAP1 PUSH1 0x0 MSTORE PUSH1 0x20 PUSH1 0x0 KECCAK256 SWAP1 JUMPDEST DUP2 SLOAD DUP2 MSTORE PUSH1 0x20 ADD SWAP1 PUSH1 0x1 ADD SWAP1 DUP1 DUP4 GT PUSH2 0x2015 JUMPI JUMPDEST POP POP POP POP POP SWAP1 POP SWAP2 SWAP1 POP JUMP JUMPDEST PUSH1 0x12 PUSH1 0x20 MSTORE DUP2 PUSH1 0x0 MSTORE PUSH1 0x40 PUSH1 0x0 KECCAK256 DUP2 DUP2 SLOAD DUP2 LT PUSH2 0x2051 JUMPI PUSH1 0x0 DUP1 REVERT JUMPDEST SWAP1 PUSH1 0x0 MSTORE PUSH1 0x20 PUSH1 0x0 KECCAK256 ADD PUSH1 0x0 SWAP2 POP SWAP2 POP POP SLOAD DUP2 JUMP JUMPDEST PUSH1 0x9 DUP1 SLOAD DUP2 SWAP1 PUSH2 0x2075 SWAP1 PUSH2 0x3ABF JUMP JUMPDEST DUP1 PUSH1 0x1F ADD PUSH1 0x20 DUP1 SWAP2 DIV MUL PUSH1 0x20 ADD PUSH1 0x40 MLOAD SWAP1 DUP2 ADD PUSH1 0x40 MSTORE DUP1 SWAP3 SWAP2 SWAP1 DUP2 DUP2 MSTORE PUSH1 0x20 ADD DUP3 DUP1 SLOAD PUSH2 0x20A1 SWAP1 PUSH2 0x3ABF JUMP JUMPDEST DUP1 ISZERO PUSH2 0x20EE JUMPI DUP1 PUSH1 0x1F LT PUSH2 0x20C3 JUMPI PUSH2 0x100 DUP1 DUP4 SLOAD DIV MUL DUP4 MSTORE SWAP2 PUSH1 0x20 ADD SWAP2 PUSH2 0x20EE JUMP JUMPDEST DUP3 ADD SWAP2 SWAP1 PUSH1 0x0 MSTORE PUSH1 0x20 PUSH1 0x0 KECCAK256 SWAP1 JUMPDEST DUP2 SLOAD DUP2 MSTORE SWAP1 PUSH1 0x1 ADD SWAP1 PUSH1 0x20 ADD DUP1 DUP4 GT PUSH2 0x20D1 JUMPI DUP3 SWAP1 SUB PUSH1 0x1F AND DUP3 ADD SWAP2 JUMPDEST POP POP POP POP POP SWAP1 DUP1 PUSH1 0x1 ADD DUP1 SLOAD PUSH2 0x2103 SWAP1 PUSH2 0x3ABF JUMP JUMPDEST DUP1 PUSH1 0x1F ADD PUSH1 0x20 DUP1 SWAP2 DIV MUL PUSH1 0x20 ADD PUSH1 0x40 MLOAD SWAP1 DUP2 ADD PUSH1 0x40 MSTORE DUP1 SWAP3 SWAP2 SWAP1 DUP2 DUP2 MSTORE PUSH1 0x20 ADD DUP3 DUP1 SLOAD PUSH2 0x212F SWAP1 PUSH2 0x3ABF JUMP JUMPDEST DUP1 ISZERO PUSH2 0x217C JUMPI DUP1 PUSH1 0x1F LT PUSH2 0x2151 JUMPI PUSH2 0x100 DUP1 DUP4 SLOAD DIV MUL DUP4 MSTORE SWAP2 PUSH1 0x20 ADD SWAP2 PUSH2 0x217C JUMP JUMPDEST DUP3 ADD SWAP2 SWAP1 PUSH1 0x0 MSTORE PUSH1 0x20 PUSH1 0x0 KECCAK256 SWAP1 JUMPDEST DUP2 SLOAD DUP2 MSTORE SWAP1 PUSH1 0x1 ADD SWAP1 PUSH1 0x20 ADD DUP1 DUP4 GT PUSH2 0x215F JUMPI DUP3 SWAP1 SUB PUSH1 0x1F AND DUP3 ADD SWAP2 JUMPDEST POP POP POP POP PUSH1 0x2 DUP4 ADD SLOAD PUSH1 0x3 SWAP1 SWAP4 ADD SLOAD SWAP2 SWAP3 PUSH1 0x1 PUSH1 0x1 PUSH1 0xA0 SHL SUB DUP2 AND SWAP3 PUSH1 0x1 PUSH1 0xA0 SHL SWAP1 SWAP2 DIV PUSH1 0xFF AND SWAP2 POP DUP6 JUMP JUMPDEST PUSH2 0x21B0 PUSH2 0x24F1 JUMP JUMPDEST PUSH1 0xB DUP1 SLOAD PUSH1 0xFF PUSH1 0xA0 SHL NOT DUP2 AND PUSH1 0x1 PUSH1 0xA0 SHL SWAP2 DUP3 SWAP1 DIV PUSH1 0xFF AND ISZERO SWAP1 SWAP2 MUL OR SWAP1 SSTORE JUMP JUMPDEST PUSH1 0x1 PUSH1 0x1 PUSH1 0xA0 SHL SUB DUP6 AND CALLER EQ DUP1 PUSH2 0x21ED JUMPI POP PUSH2 0x21ED DUP6 CALLER PUSH2 0x666 JUMP JUMPDEST PUSH2 0x2209 JUMPI PUSH1 0x40 MLOAD PUSH3 0x461BCD PUSH1 0xE5 SHL DUP2 MSTORE PUSH1 0x4 ADD PUSH2 0x76F SWAP1 PUSH2 0x3CA9 JUMP JUMPDEST PUSH2 0x1267 DUP6 DUP6 DUP6 DUP6 DUP6 PUSH2 0x2E22 JUMP JUMPDEST PUSH2 0x221E PUSH2 0x24F1 JUMP JUMPDEST PUSH1 0x1 PUSH1 0x1 PUSH1 0xA0 SHL SUB DUP2 AND PUSH2 0x2283 JUMPI PUSH1 0x40 MLOAD PUSH3 0x461BCD PUSH1 0xE5 SHL DUP2 MSTORE PUSH1 0x20 PUSH1 0x4 DUP3 ADD MSTORE PUSH1 0x26 PUSH1 0x24 DUP3 ADD MSTORE PUSH32 0x4F776E61626C653A206E6577206F776E657220697320746865207A65726F2061 PUSH1 0x44 DUP3 ADD MSTORE PUSH6 0x646472657373 PUSH1 0xD0 SHL PUSH1 0x64 DUP3 ADD MSTORE PUSH1 0x84 ADD PUSH2 0x76F JUMP JUMPDEST PUSH2 0x1FC6 DUP2 PUSH2 0x27B2 JUMP JUMPDEST PUSH1 0xF PUSH1 0x20 MSTORE PUSH1 0x0 SWAP1 DUP2 MSTORE PUSH1 0x40 SWAP1 KECCAK256 DUP1 SLOAD PUSH1 0x1 DUP3 ADD SLOAD PUSH1 0x2 DUP4 ADD DUP1 SLOAD SWAP3 SWAP4 SWAP2 SWAP3 PUSH2 0x22B4 SWAP1 PUSH2 0x3ABF JUMP JUMPDEST DUP1 PUSH1 0x1F ADD PUSH1 0x20 DUP1 SWAP2 DIV MUL PUSH1 0x20 ADD PUSH1 0x40 MLOAD SWAP1 DUP2 ADD PUSH1 0x40 MSTORE DUP1 SWAP3 SWAP2 SWAP1 DUP2 DUP2 MSTORE PUSH1 0x20 ADD DUP3 DUP1 SLOAD PUSH2 0x22E0 SWAP1 PUSH2 0x3ABF JUMP JUMPDEST DUP1 ISZERO PUSH2 0x232D JUMPI DUP1 PUSH1 0x1F LT PUSH2 0x2302 JUMPI PUSH2 0x100 DUP1 DUP4 SLOAD DIV MUL DUP4 MSTORE SWAP2 PUSH1 0x20 ADD SWAP2 PUSH2 0x232D JUMP JUMPDEST DUP3 ADD SWAP2 SWAP1 PUSH1 0x0 MSTORE PUSH1 0x20 PUSH1 0x0 KECCAK256 SWAP1 JUMPDEST DUP2 SLOAD DUP2 MSTORE SWAP1 PUSH1 0x1 ADD SWAP1 PUSH1 0x20 ADD DUP1 DUP4 GT PUSH2 0x2310 JUMPI DUP3 SWAP1 SUB PUSH1 0x1F AND DUP3 ADD SWAP2 JUMPDEST POP POP POP POP POP SWAP1 DUP1 PUSH1 0x3 ADD DUP1 SLOAD PUSH2 0x2342 SWAP1 PUSH2 0x3ABF JUMP JUMPDEST DUP1 PUSH1 0x1F ADD PUSH1 0x20 DUP1 SWAP2 DIV MUL PUSH1 0x20 ADD PUSH1 0x40 MLOAD SWAP1 DUP2 ADD PUSH1 0x40 MSTORE DUP1 SWAP3 SWAP2 SWAP1 DUP2 DUP2 MSTORE PUSH1 0x20 ADD DUP3 DUP1 SLOAD PUSH2 0x236E SWAP1 PUSH2 0x3ABF JUMP JUMPDEST DUP1 ISZERO PUSH2 0x23BB JUMPI DUP1 PUSH1 0x1F LT PUSH2 0x2390 JUMPI PUSH2 0x100 DUP1 DUP4 SLOAD DIV MUL DUP4 MSTORE SWAP2 PUSH1 0x20 ADD SWAP2 PUSH2 0x23BB JUMP JUMPDEST DUP3 ADD SWAP2 SWAP1 PUSH1 0x0 MSTORE PUSH1 0x20 PUSH1 0x0 KECCAK256 SWAP1 JUMPDEST DUP2 SLOAD DUP2 MSTORE SWAP1 PUSH1 0x1 ADD SWAP1 PUSH1 0x20 ADD DUP1 DUP4 GT PUSH2 0x239E JUMPI DUP3 SWAP1 SUB PUSH1 0x1F AND DUP3 ADD SWAP2 JUMPDEST POP POP POP POP POP SWAP1 DUP1 PUSH1 0x4 ADD DUP1 SLOAD PUSH2 0x23D0 SWAP1 PUSH2 0x3ABF JUMP JUMPDEST DUP1 PUSH1 0x1F ADD PUSH1 0x20 DUP1 SWAP2 DIV MUL PUSH1 0x20 ADD PUSH1 0x40 MLOAD SWAP1 DUP2 ADD PUSH1 0x40 MSTORE DUP1 SWAP3 SWAP2 SWAP1 DUP2 DUP2 MSTORE PUSH1 0x20 ADD DUP3 DUP1 SLOAD PUSH2 0x23FC SWAP1 PUSH2 0x3ABF JUMP JUMPDEST DUP1 ISZERO PUSH2 0x2449 JUMPI DUP1 PUSH1 0x1F LT PUSH2 0x241E JUMPI PUSH2 0x100 DUP1 DUP4 SLOAD DIV MUL DUP4 MSTORE SWAP2 PUSH1 0x20 ADD SWAP2 PUSH2 0x2449 JUMP JUMPDEST DUP3 ADD SWAP2 SWAP1 PUSH1 0x0 MSTORE PUSH1 0x20 PUSH1 0x0 KECCAK256 SWAP1 JUMPDEST DUP2 SLOAD DUP2 MSTORE SWAP1 PUSH1 0x1 ADD SWAP1 PUSH1 0x20 ADD DUP1 DUP4 GT PUSH2 0x242C JUMPI DUP3 SWAP1 SUB PUSH1 0x1F AND DUP3 ADD SWAP2 JUMPDEST POP POP POP POP POP SWAP1 DUP1 PUSH1 0x5 ADD DUP1 SLOAD PUSH2 0x245E SWAP1 PUSH2 0x3ABF JUMP JUMPDEST DUP1 PUSH1 0x1F ADD PUSH1 0x20 DUP1 SWAP2 DIV MUL PUSH1 0x20 ADD PUSH1 0x40 MLOAD SWAP1 DUP2 ADD PUSH1 0x40 MSTORE DUP1 SWAP3 SWAP2 SWAP1 DUP2 DUP2 MSTORE PUSH1 0x20 ADD DUP3 DUP1 SLOAD PUSH2 0x248A SWAP1 PUSH2 0x3ABF JUMP JUMPDEST DUP1 ISZERO PUSH2 0x24D7 JUMPI DUP1 PUSH1 0x1F LT PUSH2 0x24AC JUMPI PUSH2 0x100 DUP1 DUP4 SLOAD DIV MUL DUP4 MSTORE SWAP2 PUSH1 0x20 ADD SWAP2 PUSH2 0x24D7 JUMP JUMPDEST DUP3 ADD SWAP2 SWAP1 PUSH1 0x0 MSTORE PUSH1 0x20 PUSH1 0x0 KECCAK256 SWAP1 JUMPDEST DUP2 SLOAD DUP2 MSTORE SWAP1 PUSH1 0x1 ADD SWAP1 PUSH1 0x20 ADD DUP1 DUP4 GT PUSH2 0x24BA JUMPI DUP3 SWAP1 SUB PUSH1 0x1F AND DUP3 ADD SWAP2 JUMPDEST POP POP POP POP PUSH1 0x6 DUP4 ADD SLOAD PUSH1 0x7 SWAP1 SWAP4 ADD SLOAD SWAP2 SWAP3 PUSH1 0xFF AND SWAP2 SWAP1 POP DUP9 JUMP JUMPDEST PUSH1 0x3 SLOAD PUSH1 0x1 PUSH1 0x1 PUSH1 0xA0 SHL SUB AND CALLER EQ PUSH2 0x165B JUMPI PUSH1 0x40 MLOAD PUSH3 0x461BCD PUSH1 0xE5 SHL DUP2 MSTORE PUSH1 0x20 PUSH1 0x4 DUP3 ADD DUP2 SWAP1 MSTORE PUSH1 0x24 DUP3 ADD MSTORE PUSH32 0x4F776E61626C653A2063616C6C6572206973206E6F7420746865206F776E6572 PUSH1 0x44 DUP3 ADD MSTORE PUSH1 0x64 ADD PUSH2 0x76F JUMP JUMPDEST PUSH1 0x60 PUSH1 0x2 DUP1 SLOAD PUSH2 0x255A SWAP1 PUSH2 0x3ABF JUMP JUMPDEST DUP1 PUSH1 0x1F ADD PUSH1 0x20 DUP1 SWAP2 DIV MUL PUSH1 0x20 ADD PUSH1 0x40 MLOAD SWAP1 DUP2 ADD PUSH1 0x40 MSTORE DUP1 SWAP3 SWAP2 SWAP1 DUP2 DUP2 MSTORE PUSH1 0x20 ADD DUP3 DUP1 SLOAD PUSH2 0x2586 SWAP1 PUSH2 0x3ABF JUMP JUMPDEST DUP1 ISZERO PUSH2 0x2029 JUMPI DUP1 PUSH1 0x1F LT PUSH2 0x25A8 JUMPI PUSH2 0x100 DUP1 DUP4 SLOAD DIV MUL DUP4 MSTORE SWAP2 PUSH1 0x20 ADD SWAP2 PUSH2 0x2029 JUMP JUMPDEST DUP3 ADD SWAP2 SWAP1 PUSH1 0x0 MSTORE PUSH1 0x20 PUSH1 0x0 KECCAK256 SWAP1 JUMPDEST DUP2 SLOAD DUP2 MSTORE SWAP1 PUSH1 0x1 ADD SWAP1 PUSH1 0x20 ADD DUP1 DUP4 GT PUSH2 0x25B6 JUMPI POP SWAP4 SWAP7 SWAP6 POP POP POP POP POP POP JUMP JUMPDEST DUP2 MLOAD DUP4 MLOAD EQ PUSH2 0x2637 JUMPI PUSH1 0x40 MLOAD PUSH3 0x461BCD PUSH1 0xE5 SHL DUP2 MSTORE PUSH1 0x20 PUSH1 0x4 DUP3 ADD MSTORE PUSH1 0x28 PUSH1 0x24 DUP3 ADD MSTORE PUSH32 0x455243313135353A2069647320616E6420616D6F756E7473206C656E67746820 PUSH1 0x44 DUP3 ADD MSTORE PUSH8 0xDAD2E6DAC2E8C6D PUSH1 0xC3 SHL PUSH1 0x64 DUP3 ADD MSTORE PUSH1 0x84 ADD PUSH2 0x76F JUMP JUMPDEST PUSH1 0x1 PUSH1 0x1 PUSH1 0xA0 SHL SUB DUP5 AND PUSH2 0x265D JUMPI PUSH1 0x40 MLOAD PUSH3 0x461BCD PUSH1 0xE5 SHL DUP2 MSTORE PUSH1 0x4 ADD PUSH2 0x76F SWAP1 PUSH2 0x3D6A JUMP JUMPDEST CALLER PUSH1 0x0 JUMPDEST DUP5 MLOAD DUP2 LT ISZERO PUSH2 0x2744 JUMPI PUSH1 0x0 DUP6 DUP3 DUP2 MLOAD DUP2 LT PUSH2 0x267E JUMPI PUSH2 0x267E PUSH2 0x3C2B JUMP JUMPDEST PUSH1 0x20 MUL PUSH1 0x20 ADD ADD MLOAD SWAP1 POP PUSH1 0x0 DUP6 DUP4 DUP2 MLOAD DUP2 LT PUSH2 0x269C JUMPI PUSH2 0x269C PUSH2 0x3C2B JUMP JUMPDEST PUSH1 0x20 SWAP1 DUP2 MUL SWAP2 SWAP1 SWAP2 ADD DUP2 ADD MLOAD PUSH1 0x0 DUP5 DUP2 MSTORE DUP1 DUP4 MSTORE PUSH1 0x40 DUP1 DUP3 KECCAK256 PUSH1 0x1 PUSH1 0x1 PUSH1 0xA0 SHL SUB DUP15 AND DUP4 MSTORE SWAP1 SWAP4 MSTORE SWAP2 SWAP1 SWAP2 KECCAK256 SLOAD SWAP1 SWAP2 POP DUP2 DUP2 LT ISZERO PUSH2 0x26EC JUMPI PUSH1 0x40 MLOAD PUSH3 0x461BCD PUSH1 0xE5 SHL DUP2 MSTORE PUSH1 0x4 ADD PUSH2 0x76F SWAP1 PUSH2 0x3DAF JUMP JUMPDEST PUSH1 0x0 DUP4 DUP2 MSTORE PUSH1 0x20 DUP2 DUP2 MSTORE PUSH1 0x40 DUP1 DUP4 KECCAK256 PUSH1 0x1 PUSH1 0x1 PUSH1 0xA0 SHL SUB DUP15 DUP2 AND DUP6 MSTORE SWAP3 MSTORE DUP1 DUP4 KECCAK256 DUP6 DUP6 SUB SWAP1 SSTORE SWAP1 DUP12 AND DUP3 MSTORE DUP2 KECCAK256 DUP1 SLOAD DUP5 SWAP3 SWAP1 PUSH2 0x2729 SWAP1 DUP5 SWAP1 PUSH2 0x3D44 JUMP JUMPDEST SWAP3 POP POP DUP2 SWAP1 SSTORE POP POP POP POP DUP1 PUSH2 0x273D SWAP1 PUSH2 0x3C57 JUMP JUMPDEST SWAP1 POP PUSH2 0x2661 JUMP JUMPDEST POP DUP5 PUSH1 0x1 PUSH1 0x1 PUSH1 0xA0 SHL SUB AND DUP7 PUSH1 0x1 PUSH1 0x1 PUSH1 0xA0 SHL SUB AND DUP3 PUSH1 0x1 PUSH1 0x1 PUSH1 0xA0 SHL SUB AND PUSH32 0x4A39DC06D4C0DBC64B70AF90FD698A233A518AA5D07E595D983B8C0526C8F7FB DUP8 DUP8 PUSH1 0x40 MLOAD PUSH2 0x2794 SWAP3 SWAP2 SWAP1 PUSH2 0x3DF9 JUMP JUMPDEST PUSH1 0x40 MLOAD DUP1 SWAP2 SUB SWAP1 LOG4 PUSH2 0x27AA DUP2 DUP8 DUP8 DUP8 DUP8 DUP8 PUSH2 0x2F4C JUMP JUMPDEST POP POP POP POP POP POP JUMP JUMPDEST PUSH1 0x3 DUP1 SLOAD PUSH1 0x1 PUSH1 0x1 PUSH1 0xA0 SHL SUB DUP4 DUP2 AND PUSH1 0x1 PUSH1 0x1 PUSH1 0xA0 SHL SUB NOT DUP4 AND DUP2 OR SWAP1 SWAP4 SSTORE PUSH1 0x40 MLOAD SWAP2 AND SWAP2 SWAP1 DUP3 SWAP1 PUSH32 0x8BE0079C531659141344CD1FD0A4F28419497F9722A3DAAFE3B4186F6B6457E0 SWAP1 PUSH1 0x0 SWAP1 LOG3 POP POP JUMP JUMPDEST DUP2 PUSH1 0x1 PUSH1 0x1 PUSH1 0xA0 SHL SUB AND DUP4 PUSH1 0x1 PUSH1 0x1 PUSH1 0xA0 SHL SUB AND SUB PUSH2 0x2877 JUMPI PUSH1 0x40 MLOAD PUSH3 0x461BCD PUSH1 0xE5 SHL DUP2 MSTORE PUSH1 0x20 PUSH1 0x4 DUP3 ADD MSTORE PUSH1 0x29 PUSH1 0x24 DUP3 ADD MSTORE PUSH32 0x455243313135353A2073657474696E6720617070726F76616C20737461747573 PUSH1 0x44 DUP3 ADD MSTORE PUSH9 0x103337B91039B2B633 PUSH1 0xB9 SHL PUSH1 0x64 DUP3 ADD MSTORE PUSH1 0x84 ADD PUSH2 0x76F JUMP JUMPDEST PUSH1 0x1 PUSH1 0x1 PUSH1 0xA0 SHL SUB DUP4 DUP2 AND PUSH1 0x0 DUP2 DUP2 MSTORE PUSH1 0x1 PUSH1 0x20 SWAP1 DUP2 MSTORE PUSH1 0x40 DUP1 DUP4 KECCAK256 SWAP5 DUP8 AND DUP1 DUP5 MSTORE SWAP5 DUP3 MSTORE SWAP2 DUP3 SWAP1 KECCAK256 DUP1 SLOAD PUSH1 0xFF NOT AND DUP7 ISZERO ISZERO SWAP1 DUP2 OR SWAP1 SWAP2 SSTORE SWAP2 MLOAD SWAP2 DUP3 MSTORE PUSH32 0x17307EAB39AB6107E8899845AD3D59BD9653F200F220920489CA2B5937696C31 SWAP2 ADD PUSH1 0x40 MLOAD DUP1 SWAP2 SUB SWAP1 LOG3 POP POP POP JUMP JUMPDEST PUSH1 0x1 PUSH1 0x1 PUSH1 0xA0 SHL SUB DUP4 AND PUSH2 0x2946 JUMPI PUSH1 0x40 MLOAD PUSH3 0x461BCD PUSH1 0xE5 SHL DUP2 MSTORE PUSH1 0x20 PUSH1 0x4 DUP3 ADD MSTORE PUSH1 0x23 PUSH1 0x24 DUP3 ADD MSTORE PUSH32 0x455243313135353A206275726E2066726F6D20746865207A65726F2061646472 PUSH1 0x44 DUP3 ADD MSTORE PUSH3 0x657373 PUSH1 0xE8 SHL PUSH1 0x64 DUP3 ADD MSTORE PUSH1 0x84 ADD PUSH2 0x76F JUMP JUMPDEST CALLER PUSH1 0x0 PUSH2 0x2952 DUP5 PUSH2 0x30A7 JUMP JUMPDEST SWAP1 POP PUSH1 0x0 PUSH2 0x295F DUP5 PUSH2 0x30A7 JUMP JUMPDEST PUSH1 0x40 DUP1 MLOAD PUSH1 0x20 DUP1 DUP3 ADD DUP4 MSTORE PUSH1 0x0 SWAP2 DUP3 SWAP1 MSTORE DUP9 DUP3 MSTORE DUP2 DUP2 MSTORE DUP3 DUP3 KECCAK256 PUSH1 0x1 PUSH1 0x1 PUSH1 0xA0 SHL SUB DUP12 AND DUP4 MSTORE SWAP1 MSTORE KECCAK256 SLOAD SWAP1 SWAP2 POP DUP5 DUP2 LT ISZERO PUSH2 0x29E8 JUMPI PUSH1 0x40 MLOAD PUSH3 0x461BCD PUSH1 0xE5 SHL DUP2 MSTORE PUSH1 0x20 PUSH1 0x4 DUP3 ADD MSTORE PUSH1 0x24 DUP1 DUP3 ADD MSTORE PUSH32 0x455243313135353A206275726E20616D6F756E7420657863656564732062616C PUSH1 0x44 DUP3 ADD MSTORE PUSH4 0x616E6365 PUSH1 0xE0 SHL PUSH1 0x64 DUP3 ADD MSTORE PUSH1 0x84 ADD PUSH2 0x76F JUMP JUMPDEST PUSH1 0x0 DUP7 DUP2 MSTORE PUSH1 0x20 DUP2 DUP2 MSTORE PUSH1 0x40 DUP1 DUP4 KECCAK256 PUSH1 0x1 PUSH1 0x1 PUSH1 0xA0 SHL SUB DUP12 DUP2 AND DUP1 DUP7 MSTORE SWAP2 DUP5 MSTORE DUP3 DUP6 KECCAK256 DUP11 DUP8 SUB SWAP1 SSTORE DUP3 MLOAD DUP12 DUP2 MSTORE SWAP4 DUP5 ADD DUP11 SWAP1 MSTORE SWAP1 SWAP3 SWAP1 DUP9 AND SWAP2 PUSH32 0xC3D58168C5AE7397731D063D5BBF3D657854427343F4C083240F7AACAA2D0F62 SWAP2 ADD PUSH1 0x40 MLOAD DUP1 SWAP2 SUB SWAP1 LOG4 PUSH1 0x40 DUP1 MLOAD PUSH1 0x20 DUP2 ADD SWAP1 SWAP2 MSTORE PUSH1 0x0 SWAP1 MSTORE JUMPDEST POP POP POP POP POP POP POP JUMP JUMPDEST PUSH1 0x2 PUSH1 0x4 SLOAD SUB PUSH2 0x2AB7 JUMPI PUSH1 0x40 MLOAD PUSH3 0x461BCD PUSH1 0xE5 SHL DUP2 MSTORE PUSH1 0x20 PUSH1 0x4 DUP3 ADD MSTORE PUSH1 0x1F PUSH1 0x24 DUP3 ADD MSTORE PUSH32 0x5265656E7472616E637947756172643A207265656E7472616E742063616C6C00 PUSH1 0x44 DUP3 ADD MSTORE PUSH1 0x64 ADD PUSH2 0x76F JUMP JUMPDEST PUSH1 0x2 PUSH1 0x4 SSTORE JUMP JUMPDEST PUSH1 0x1 PUSH1 0x1 PUSH1 0xA0 SHL SUB DUP5 AND PUSH2 0x2B1E JUMPI PUSH1 0x40 MLOAD PUSH3 0x461BCD PUSH1 0xE5 SHL DUP2 MSTORE PUSH1 0x20 PUSH1 0x4 DUP3 ADD MSTORE PUSH1 0x21 PUSH1 0x24 DUP3 ADD MSTORE PUSH32 0x455243313135353A206D696E7420746F20746865207A65726F20616464726573 PUSH1 0x44 DUP3 ADD MSTORE PUSH1 0x73 PUSH1 0xF8 SHL PUSH1 0x64 DUP3 ADD MSTORE PUSH1 0x84 ADD PUSH2 0x76F JUMP JUMPDEST CALLER PUSH1 0x0 PUSH2 0x2B2A DUP6 PUSH2 0x30A7 JUMP JUMPDEST SWAP1 POP PUSH1 0x0 PUSH2 0x2B37 DUP6 PUSH2 0x30A7 JUMP JUMPDEST SWAP1 POP PUSH1 0x0 DUP7 DUP2 MSTORE PUSH1 0x20 DUP2 DUP2 MSTORE PUSH1 0x40 DUP1 DUP4 KECCAK256 PUSH1 0x1 PUSH1 0x1 PUSH1 0xA0 SHL SUB DUP12 AND DUP5 MSTORE SWAP1 SWAP2 MSTORE DUP2 KECCAK256 DUP1 SLOAD DUP8 SWAP3 SWAP1 PUSH2 0x2B69 SWAP1 DUP5 SWAP1 PUSH2 0x3D44 JUMP JUMPDEST SWAP1 SWAP2 SSTORE POP POP PUSH1 0x40 DUP1 MLOAD DUP8 DUP2 MSTORE PUSH1 0x20 DUP2 ADD DUP8 SWAP1 MSTORE PUSH1 0x1 PUSH1 0x1 PUSH1 0xA0 SHL SUB DUP1 DUP11 AND SWAP3 PUSH1 0x0 SWAP3 SWAP2 DUP8 AND SWAP2 PUSH32 0xC3D58168C5AE7397731D063D5BBF3D657854427343F4C083240F7AACAA2D0F62 SWAP2 ADD PUSH1 0x40 MLOAD DUP1 SWAP2 SUB SWAP1 LOG4 PUSH2 0x2A5C DUP4 PUSH1 0x0 DUP10 DUP10 DUP10 DUP10 PUSH2 0x30F2 JUMP JUMPDEST PUSH1 0x5 SLOAD PUSH1 0x40 DUP1 MLOAD PUSH1 0x4 DUP2 MSTORE PUSH1 0x24 DUP2 ADD DUP3 MSTORE PUSH1 0x20 DUP2 ADD DUP1 MLOAD PUSH1 0x1 PUSH1 0x1 PUSH1 0xE0 SHL SUB AND PUSH4 0xB8606EEF PUSH1 0xE0 SHL OR SWAP1 MSTORE SWAP1 MLOAD PUSH1 0x0 SWAP3 DUP4 SWAP3 PUSH1 0x1 PUSH1 0x1 PUSH1 0xA0 SHL SUB SWAP1 SWAP2 AND SWAP2 PUSH2 0x2C11 SWAP2 SWAP1 PUSH2 0x3C70 JUMP JUMPDEST PUSH1 0x0 PUSH1 0x40 MLOAD DUP1 DUP4 SUB DUP2 PUSH1 0x0 DUP7 GAS CALL SWAP2 POP POP RETURNDATASIZE DUP1 PUSH1 0x0 DUP2 EQ PUSH2 0x2C4E JUMPI PUSH1 0x40 MLOAD SWAP2 POP PUSH1 0x1F NOT PUSH1 0x3F RETURNDATASIZE ADD AND DUP3 ADD PUSH1 0x40 MSTORE RETURNDATASIZE DUP3 MSTORE RETURNDATASIZE PUSH1 0x0 PUSH1 0x20 DUP5 ADD RETURNDATACOPY PUSH2 0x2C53 JUMP JUMPDEST PUSH1 0x60 SWAP2 POP JUMPDEST POP SWAP2 POP SWAP2 POP DUP2 PUSH2 0x2CA5 JUMPI PUSH1 0x40 MLOAD PUSH3 0x461BCD PUSH1 0xE5 SHL DUP2 MSTORE PUSH1 0x20 PUSH1 0x4 DUP3 ADD MSTORE PUSH1 0x1E PUSH1 0x24 DUP3 ADD MSTORE PUSH32 0x4661696C656420746F206765742066656520626173697320706F696E74730000 PUSH1 0x44 DUP3 ADD MSTORE PUSH1 0x64 ADD PUSH2 0x76F JUMP JUMPDEST PUSH1 0x0 DUP2 DUP1 PUSH1 0x20 ADD SWAP1 MLOAD DUP2 ADD SWAP1 PUSH2 0x2CBB SWAP2 SWAP1 PUSH2 0x3E1E JUMP JUMPDEST PUSH1 0x5 SLOAD PUSH1 0x40 DUP1 MLOAD PUSH1 0x4 DUP2 MSTORE PUSH1 0x24 DUP2 ADD DUP3 MSTORE PUSH1 0x20 DUP2 ADD DUP1 MLOAD PUSH1 0x1 PUSH1 0x1 PUSH1 0xE0 SHL SUB AND PUSH4 0x11A4121 PUSH1 0xE6 SHL OR SWAP1 MSTORE SWAP1 MLOAD SWAP3 SWAP4 POP PUSH1 0x1 PUSH1 0x1 PUSH1 0xA0 SHL SUB SWAP1 SWAP2 AND SWAP2 PUSH2 0x2D01 SWAP2 SWAP1 PUSH2 0x3C70 JUMP JUMPDEST PUSH1 0x0 PUSH1 0x40 MLOAD DUP1 DUP4 SUB DUP2 PUSH1 0x0 DUP7 GAS CALL SWAP2 POP POP RETURNDATASIZE DUP1 PUSH1 0x0 DUP2 EQ PUSH2 0x2D3E JUMPI PUSH1 0x40 MLOAD SWAP2 POP PUSH1 0x1F NOT PUSH1 0x3F RETURNDATASIZE ADD AND DUP3 ADD PUSH1 0x40 MSTORE RETURNDATASIZE DUP3 MSTORE RETURNDATASIZE PUSH1 0x0 PUSH1 0x20 DUP5 ADD RETURNDATACOPY PUSH2 0x2D43 JUMP JUMPDEST PUSH1 0x60 SWAP2 POP JUMPDEST POP SWAP1 SWAP4 POP SWAP2 POP DUP3 PUSH2 0x2D96 JUMPI PUSH1 0x40 MLOAD PUSH3 0x461BCD PUSH1 0xE5 SHL DUP2 MSTORE PUSH1 0x20 PUSH1 0x4 DUP3 ADD MSTORE PUSH1 0x1B PUSH1 0x24 DUP3 ADD MSTORE PUSH32 0x4661696C656420746F206765742066656520726563697069656E740000000000 PUSH1 0x44 DUP3 ADD MSTORE PUSH1 0x64 ADD PUSH2 0x76F JUMP JUMPDEST PUSH1 0x0 DUP3 DUP1 PUSH1 0x20 ADD SWAP1 MLOAD DUP2 ADD SWAP1 PUSH2 0x2DAC SWAP2 SWAP1 PUSH2 0x3E37 JUMP JUMPDEST SWAP1 POP PUSH1 0x0 DUP3 GT DUP1 ISZERO PUSH2 0x2DC6 JUMPI POP PUSH1 0x1 PUSH1 0x1 PUSH1 0xA0 SHL SUB DUP2 AND ISZERO ISZERO JUMPDEST ISZERO PUSH2 0x1267 JUMPI PUSH1 0x0 PUSH2 0x2710 PUSH2 0x2DDA DUP5 DUP9 PUSH2 0x3D2D JUMP JUMPDEST PUSH2 0x2DE4 SWAP2 SWAP1 PUSH2 0x3E54 JUMP JUMPDEST SWAP1 POP DUP1 ISZERO PUSH2 0x27AA JUMPI PUSH1 0x40 MLOAD PUSH1 0x1 PUSH1 0x1 PUSH1 0xA0 SHL SUB DUP4 AND SWAP1 DUP3 ISZERO PUSH2 0x8FC MUL SWAP1 DUP4 SWAP1 PUSH1 0x0 DUP2 DUP2 DUP2 DUP6 DUP9 DUP9 CALL SWAP4 POP POP POP POP ISZERO DUP1 ISZERO PUSH2 0x2A5C JUMPI RETURNDATASIZE PUSH1 0x0 DUP1 RETURNDATACOPY RETURNDATASIZE PUSH1 0x0 REVERT JUMPDEST PUSH1 0x1 PUSH1 0x1 PUSH1 0xA0 SHL SUB DUP5 AND PUSH2 0x2E48 JUMPI PUSH1 0x40 MLOAD PUSH3 0x461BCD PUSH1 0xE5 SHL DUP2 MSTORE PUSH1 0x4 ADD PUSH2 0x76F SWAP1 PUSH2 0x3D6A JUMP JUMPDEST CALLER PUSH1 0x0 PUSH2 0x2E54 DUP6 PUSH2 0x30A7 JUMP JUMPDEST SWAP1 POP PUSH1 0x0 PUSH2 0x2E61 DUP6 PUSH2 0x30A7 JUMP JUMPDEST SWAP1 POP PUSH1 0x0 DUP7 DUP2 MSTORE PUSH1 0x20 DUP2 DUP2 MSTORE PUSH1 0x40 DUP1 DUP4 KECCAK256 PUSH1 0x1 PUSH1 0x1 PUSH1 0xA0 SHL SUB DUP13 AND DUP5 MSTORE SWAP1 SWAP2 MSTORE SWAP1 KECCAK256 SLOAD DUP6 DUP2 LT ISZERO PUSH2 0x2EA4 JUMPI PUSH1 0x40 MLOAD PUSH3 0x461BCD PUSH1 0xE5 SHL DUP2 MSTORE PUSH1 0x4 ADD PUSH2 0x76F SWAP1 PUSH2 0x3DAF JUMP JUMPDEST PUSH1 0x0 DUP8 DUP2 MSTORE PUSH1 0x20 DUP2 DUP2 MSTORE PUSH1 0x40 DUP1 DUP4 KECCAK256 PUSH1 0x1 PUSH1 0x1 PUSH1 0xA0 SHL SUB DUP14 DUP2 AND DUP6 MSTORE SWAP3 MSTORE DUP1 DUP4 KECCAK256 DUP10 DUP6 SUB SWAP1 SSTORE SWAP1 DUP11 AND DUP3 MSTORE DUP2 KECCAK256 DUP1 SLOAD DUP9 SWAP3 SWAP1 PUSH2 0x2EE1 SWAP1 DUP5 SWAP1 PUSH2 0x3D44 JUMP JUMPDEST SWAP1 SWAP2 SSTORE POP POP PUSH1 0x40 DUP1 MLOAD DUP9 DUP2 MSTORE PUSH1 0x20 DUP2 ADD DUP9 SWAP1 MSTORE PUSH1 0x1 PUSH1 0x1 PUSH1 0xA0 SHL SUB DUP1 DUP12 AND SWAP3 DUP13 DUP3 AND SWAP3 SWAP2 DUP9 AND SWAP2 PUSH32 0xC3D58168C5AE7397731D063D5BBF3D657854427343F4C083240F7AACAA2D0F62 SWAP2 ADD PUSH1 0x40 MLOAD DUP1 SWAP2 SUB SWAP1 LOG4 PUSH2 0x2F41 DUP5 DUP11 DUP11 DUP11 DUP11 DUP11 PUSH2 0x30F2 JUMP JUMPDEST POP POP POP POP POP POP POP POP POP JUMP JUMPDEST PUSH1 0x1 PUSH1 0x1 PUSH1 0xA0 SHL SUB DUP5 AND EXTCODESIZE ISZERO PUSH2 0x27AA JUMPI PUSH1 0x40 MLOAD PUSH4 0xBC197C81 PUSH1 0xE0 SHL DUP2 MSTORE PUSH1 0x1 PUSH1 0x1 PUSH1 0xA0 SHL SUB DUP6 AND SWAP1 PUSH4 0xBC197C81 SWAP1 PUSH2 0x2F90 SWAP1 DUP10 SWAP1 DUP10 SWAP1 DUP9 SWAP1 DUP9 SWAP1 DUP9 SWAP1 PUSH1 0x4 ADD PUSH2 0x3E76 JUMP JUMPDEST PUSH1 0x20 PUSH1 0x40 MLOAD DUP1 DUP4 SUB DUP2 PUSH1 0x0 DUP8 GAS CALL SWAP3 POP POP POP DUP1 ISZERO PUSH2 0x2FCB JUMPI POP PUSH1 0x40 DUP1 MLOAD PUSH1 0x1F RETURNDATASIZE SWAP1 DUP2 ADD PUSH1 0x1F NOT AND DUP3 ADD SWAP1 SWAP3 MSTORE PUSH2 0x2FC8 SWAP2 DUP2 ADD SWAP1 PUSH2 0x3ED4 JUMP JUMPDEST PUSH1 0x1 JUMPDEST PUSH2 0x3077 JUMPI PUSH2 0x2FD7 PUSH2 0x3EF1 JUMP JUMPDEST DUP1 PUSH4 0x8C379A0 SUB PUSH2 0x3010 JUMPI POP PUSH2 0x2FEB PUSH2 0x3F0D JUMP JUMPDEST DUP1 PUSH2 0x2FF6 JUMPI POP PUSH2 0x3012 JUMP JUMPDEST DUP1 PUSH1 0x40 MLOAD PUSH3 0x461BCD PUSH1 0xE5 SHL DUP2 MSTORE PUSH1 0x4 ADD PUSH2 0x76F SWAP2 SWAP1 PUSH2 0x34E1 JUMP JUMPDEST POP JUMPDEST PUSH1 0x40 MLOAD PUSH3 0x461BCD PUSH1 0xE5 SHL DUP2 MSTORE PUSH1 0x20 PUSH1 0x4 DUP3 ADD MSTORE PUSH1 0x34 PUSH1 0x24 DUP3 ADD MSTORE PUSH32 0x455243313135353A207472616E7366657220746F206E6F6E2D45524331313535 PUSH1 0x44 DUP3 ADD MSTORE PUSH20 0x2932B1B2B4BB32B91034B6B83632B6B2B73A32B9 PUSH1 0x61 SHL PUSH1 0x64 DUP3 ADD MSTORE PUSH1 0x84 ADD PUSH2 0x76F JUMP JUMPDEST PUSH1 0x1 PUSH1 0x1 PUSH1 0xE0 SHL SUB NOT DUP2 AND PUSH4 0xBC197C81 PUSH1 0xE0 SHL EQ PUSH2 0x2A5C JUMPI PUSH1 0x40 MLOAD PUSH3 0x461BCD PUSH1 0xE5 SHL DUP2 MSTORE PUSH1 0x4 ADD PUSH2 0x76F SWAP1 PUSH2 0x3F96 JUMP JUMPDEST PUSH1 0x40 DUP1 MLOAD PUSH1 0x1 DUP1 DUP3 MSTORE DUP2 DUP4 ADD SWAP1 SWAP3 MSTORE PUSH1 0x60 SWAP2 PUSH1 0x0 SWAP2 SWAP1 PUSH1 0x20 DUP1 DUP4 ADD SWAP1 DUP1 CALLDATASIZE DUP4 CALLDATACOPY ADD SWAP1 POP POP SWAP1 POP DUP3 DUP2 PUSH1 0x0 DUP2 MLOAD DUP2 LT PUSH2 0x30E1 JUMPI PUSH2 0x30E1 PUSH2 0x3C2B JUMP JUMPDEST PUSH1 0x20 SWAP1 DUP2 MUL SWAP2 SWAP1 SWAP2 ADD ADD MSTORE SWAP3 SWAP2 POP POP JUMP JUMPDEST PUSH1 0x1 PUSH1 0x1 PUSH1 0xA0 SHL SUB DUP5 AND EXTCODESIZE ISZERO PUSH2 0x27AA JUMPI PUSH1 0x40 MLOAD PUSH4 0xF23A6E61 PUSH1 0xE0 SHL DUP2 MSTORE PUSH1 0x1 PUSH1 0x1 PUSH1 0xA0 SHL SUB DUP6 AND SWAP1 PUSH4 0xF23A6E61 SWAP1 PUSH2 0x3136 SWAP1 DUP10 SWAP1 DUP10 SWAP1 DUP9 SWAP1 DUP9 SWAP1 DUP9 SWAP1 PUSH1 0x4 ADD PUSH2 0x3FDE JUMP JUMPDEST PUSH1 0x20 PUSH1 0x40 MLOAD DUP1 DUP4 SUB DUP2 PUSH1 0x0 DUP8 GAS CALL SWAP3 POP POP POP DUP1 ISZERO PUSH2 0x3171 JUMPI POP PUSH1 0x40 DUP1 MLOAD PUSH1 0x1F RETURNDATASIZE SWAP1 DUP2 ADD PUSH1 0x1F NOT AND DUP3 ADD SWAP1 SWAP3 MSTORE PUSH2 0x316E SWAP2 DUP2 ADD SWAP1 PUSH2 0x3ED4 JUMP JUMPDEST PUSH1 0x1 JUMPDEST PUSH2 0x317D JUMPI PUSH2 0x2FD7 PUSH2 0x3EF1 JUMP JUMPDEST PUSH1 0x1 PUSH1 0x1 PUSH1 0xE0 SHL SUB NOT DUP2 AND PUSH4 0xF23A6E61 PUSH1 0xE0 SHL EQ PUSH2 0x2A5C JUMPI PUSH1 0x40 MLOAD PUSH3 0x461BCD PUSH1 0xE5 SHL DUP2 MSTORE PUSH1 0x4 ADD PUSH2 0x76F SWAP1 PUSH2 0x3F96 JUMP JUMPDEST PUSH1 0x1 PUSH1 0x1 PUSH1 0xA0 SHL SUB DUP2 AND DUP2 EQ PUSH2 0x1FC6 JUMPI PUSH1 0x0 DUP1 REVERT JUMPDEST PUSH1 0x0 DUP1 PUSH1 0x40 DUP4 DUP6 SUB SLT ISZERO PUSH2 0x31D5 JUMPI PUSH1 0x0 DUP1 REVERT JUMPDEST DUP3 CALLDATALOAD PUSH2 0x31E0 DUP2 PUSH2 0x31AD JUMP JUMPDEST SWAP5 PUSH1 0x20 SWAP4 SWAP1 SWAP4 ADD CALLDATALOAD SWAP4 POP POP POP JUMP JUMPDEST PUSH4 0x4E487B71 PUSH1 0xE0 SHL PUSH1 0x0 MSTORE PUSH1 0x41 PUSH1 0x4 MSTORE PUSH1 0x24 PUSH1 0x0 REVERT JUMPDEST PUSH1 0x1F DUP3 ADD PUSH1 0x1F NOT AND DUP2 ADD PUSH1 0x1 PUSH1 0x1 PUSH1 0x40 SHL SUB DUP2 GT DUP3 DUP3 LT OR ISZERO PUSH2 0x3229 JUMPI PUSH2 0x3229 PUSH2 0x31EE JUMP JUMPDEST PUSH1 0x40 MSTORE POP POP JUMP JUMPDEST PUSH1 0x0 DUP3 PUSH1 0x1F DUP4 ADD SLT PUSH2 0x3241 JUMPI PUSH1 0x0 DUP1 REVERT JUMPDEST DUP2 CALLDATALOAD PUSH1 0x1 PUSH1 0x1 PUSH1 0x40 SHL SUB DUP2 GT ISZERO PUSH2 0x325A JUMPI PUSH2 0x325A PUSH2 0x31EE JUMP JUMPDEST PUSH1 0x40 MLOAD PUSH2 0x3271 PUSH1 0x1F DUP4 ADD PUSH1 0x1F NOT AND PUSH1 0x20 ADD DUP3 PUSH2 0x3204 JUMP JUMPDEST DUP2 DUP2 MSTORE DUP5 PUSH1 0x20 DUP4 DUP7 ADD ADD GT ISZERO PUSH2 0x3286 JUMPI PUSH1 0x0 DUP1 REVERT JUMPDEST DUP2 PUSH1 0x20 DUP6 ADD PUSH1 0x20 DUP4 ADD CALLDATACOPY PUSH1 0x0 SWAP2 DUP2 ADD PUSH1 0x20 ADD SWAP2 SWAP1 SWAP2 MSTORE SWAP4 SWAP3 POP POP POP JUMP JUMPDEST PUSH1 0x0 DUP1 PUSH1 0x0 DUP1 PUSH1 0x0 DUP1 PUSH1 0x0 PUSH1 0xE0 DUP9 DUP11 SUB SLT ISZERO PUSH2 0x32BE JUMPI PUSH1 0x0 DUP1 REVERT JUMPDEST DUP8 CALLDATALOAD SWAP7 POP PUSH1 0x20 DUP9 ADD CALLDATALOAD SWAP6 POP PUSH1 0x40 DUP9 ADD CALLDATALOAD SWAP5 POP PUSH1 0x60 DUP9 ADD CALLDATALOAD PUSH1 0x1 PUSH1 0x1 PUSH1 0x40 SHL SUB DUP1 DUP3 GT ISZERO PUSH2 0x32EA JUMPI PUSH1 0x0 DUP1 REVERT JUMPDEST PUSH2 0x32F6 DUP12 DUP4 DUP13 ADD PUSH2 0x3230 JUMP JUMPDEST SWAP6 POP PUSH1 0x80 DUP11 ADD CALLDATALOAD SWAP2 POP DUP1 DUP3 GT ISZERO PUSH2 0x330C JUMPI PUSH1 0x0 DUP1 REVERT JUMPDEST PUSH2 0x3318 DUP12 DUP4 DUP13 ADD PUSH2 0x3230 JUMP JUMPDEST SWAP5 POP PUSH1 0xA0 DUP11 ADD CALLDATALOAD SWAP2 POP DUP1 DUP3 GT ISZERO PUSH2 0x332E JUMPI PUSH1 0x0 DUP1 REVERT JUMPDEST PUSH2 0x333A DUP12 DUP4 DUP13 ADD PUSH2 0x3230 JUMP JUMPDEST SWAP4 POP PUSH1 0xC0 DUP11 ADD CALLDATALOAD SWAP2 POP DUP1 DUP3 GT ISZERO PUSH2 0x3350 JUMPI PUSH1 0x0 DUP1 REVERT JUMPDEST POP PUSH2 0x335D DUP11 DUP3 DUP12 ADD PUSH2 0x3230 JUMP JUMPDEST SWAP2 POP POP SWAP3 SWAP6 SWAP9 SWAP2 SWAP5 SWAP8 POP SWAP3 SWAP6 POP JUMP JUMPDEST PUSH1 0x1 PUSH1 0x1 PUSH1 0xE0 SHL SUB NOT DUP2 AND DUP2 EQ PUSH2 0x1FC6 JUMPI PUSH1 0x0 DUP1 REVERT JUMPDEST PUSH1 0x0 PUSH1 0x20 DUP3 DUP5 SUB SLT ISZERO PUSH2 0x3394 JUMPI PUSH1 0x0 DUP1 REVERT JUMPDEST DUP2 CALLDATALOAD PUSH2 0xDEF DUP2 PUSH2 0x336C JUMP JUMPDEST PUSH1 0x0 DUP2 MLOAD DUP1 DUP5 MSTORE PUSH1 0x20 DUP1 DUP6 ADD SWAP5 POP DUP1 DUP5 ADD PUSH1 0x0 JUMPDEST DUP4 DUP2 LT ISZERO PUSH2 0x33CF JUMPI DUP2 MLOAD DUP8 MSTORE SWAP6 DUP3 ADD SWAP6 SWAP1 DUP3 ADD SWAP1 PUSH1 0x1 ADD PUSH2 0x33B3 JUMP JUMPDEST POP SWAP5 SWAP6 SWAP5 POP POP POP POP POP JUMP JUMPDEST PUSH1 0x20 DUP2 MSTORE PUSH1 0x0 PUSH2 0xDEF PUSH1 0x20 DUP4 ADD DUP5 PUSH2 0x339F JUMP JUMPDEST PUSH1 0x0 DUP1 PUSH1 0x40 DUP4 DUP6 SUB SLT ISZERO PUSH2 0x3400 JUMPI PUSH1 0x0 DUP1 REVERT JUMPDEST DUP3 CALLDATALOAD PUSH2 0x340B DUP2 PUSH2 0x31AD JUMP JUMPDEST SWAP2 POP PUSH1 0x20 DUP4 ADD CALLDATALOAD PUSH1 0x1 PUSH1 0x1 PUSH1 0x40 SHL SUB DUP2 GT ISZERO PUSH2 0x3426 JUMPI PUSH1 0x0 DUP1 REVERT JUMPDEST PUSH2 0x3432 DUP6 DUP3 DUP7 ADD PUSH2 0x3230 JUMP JUMPDEST SWAP2 POP POP SWAP3 POP SWAP3 SWAP1 POP JUMP JUMPDEST PUSH1 0x0 PUSH1 0x20 DUP3 DUP5 SUB SLT ISZERO PUSH2 0x344E JUMPI PUSH1 0x0 DUP1 REVERT JUMPDEST DUP2 CALLDATALOAD PUSH1 0x1 PUSH1 0x1 PUSH1 0x40 SHL SUB DUP2 GT ISZERO PUSH2 0x3464 JUMPI PUSH1 0x0 DUP1 REVERT JUMPDEST PUSH2 0x3470 DUP5 DUP3 DUP6 ADD PUSH2 0x3230 JUMP JUMPDEST SWAP5 SWAP4 POP POP POP POP JUMP JUMPDEST PUSH1 0x0 PUSH1 0x20 DUP3 DUP5 SUB SLT ISZERO PUSH2 0x348A JUMPI PUSH1 0x0 DUP1 REVERT JUMPDEST POP CALLDATALOAD SWAP2 SWAP1 POP JUMP JUMPDEST PUSH1 0x0 JUMPDEST DUP4 DUP2 LT ISZERO PUSH2 0x34AC JUMPI DUP2 DUP2 ADD MLOAD DUP4 DUP3 ADD MSTORE PUSH1 0x20 ADD PUSH2 0x3494 JUMP JUMPDEST POP POP PUSH1 0x0 SWAP2 ADD MSTORE JUMP JUMPDEST PUSH1 0x0 DUP2 MLOAD DUP1 DUP5 MSTORE PUSH2 0x34CD DUP2 PUSH1 0x20 DUP7 ADD PUSH1 0x20 DUP7 ADD PUSH2 0x3491 JUMP JUMPDEST PUSH1 0x1F ADD PUSH1 0x1F NOT AND SWAP3 SWAP1 SWAP3 ADD PUSH1 0x20 ADD SWAP3 SWAP2 POP POP JUMP JUMPDEST PUSH1 0x20 DUP2 MSTORE PUSH1 0x0 PUSH2 0xDEF PUSH1 0x20 DUP4 ADD DUP5 PUSH2 0x34B5 JUMP JUMPDEST PUSH1 0x1 PUSH1 0x1 PUSH1 0xA0 SHL SUB DUP9 AND DUP2 MSTORE PUSH1 0xE0 PUSH1 0x20 DUP3 ADD DUP2 SWAP1 MSTORE PUSH1 0x0 SWAP1 PUSH2 0x3518 SWAP1 DUP4 ADD DUP10 PUSH2 0x34B5 JUMP JUMPDEST PUSH1 0x40 DUP4 ADD SWAP8 SWAP1 SWAP8 MSTORE POP PUSH1 0x60 DUP2 ADD SWAP5 SWAP1 SWAP5 MSTORE PUSH1 0x80 DUP5 ADD SWAP3 SWAP1 SWAP3 MSTORE PUSH1 0xA0 DUP4 ADD MSTORE ISZERO ISZERO PUSH1 0xC0 SWAP1 SWAP2 ADD MSTORE SWAP3 SWAP2 POP POP JUMP JUMPDEST PUSH1 0x0 PUSH1 0x1 PUSH1 0x1 PUSH1 0x40 SHL SUB DUP3 GT ISZERO PUSH2 0x355D JUMPI PUSH2 0x355D PUSH2 0x31EE JUMP JUMPDEST POP PUSH1 0x5 SHL PUSH1 0x20 ADD SWAP1 JUMP JUMPDEST PUSH1 0x0 DUP3 PUSH1 0x1F DUP4 ADD SLT PUSH2 0x3578 JUMPI PUSH1 0x0 DUP1 REVERT JUMPDEST DUP2 CALLDATALOAD PUSH1 0x20 PUSH2 0x3585 DUP3 PUSH2 0x3544 JUMP JUMPDEST PUSH1 0x40 MLOAD PUSH2 0x3592 DUP3 DUP3 PUSH2 0x3204 JUMP JUMPDEST DUP4 DUP2 MSTORE PUSH1 0x5 SWAP4 SWAP1 SWAP4 SHL DUP6 ADD DUP3 ADD SWAP3 DUP3 DUP2 ADD SWAP2 POP DUP7 DUP5 GT ISZERO PUSH2 0x35B2 JUMPI PUSH1 0x0 DUP1 REVERT JUMPDEST DUP3 DUP7 ADD JUMPDEST DUP5 DUP2 LT ISZERO PUSH2 0x35CD JUMPI DUP1 CALLDATALOAD DUP4 MSTORE SWAP2 DUP4 ADD SWAP2 DUP4 ADD PUSH2 0x35B6 JUMP JUMPDEST POP SWAP7 SWAP6 POP POP POP POP POP POP JUMP JUMPDEST PUSH1 0x0 DUP1 PUSH1 0x0 DUP1 PUSH1 0x0 PUSH1 0xA0 DUP7 DUP9 SUB SLT ISZERO PUSH2 0x35F0 JUMPI PUSH1 0x0 DUP1 REVERT JUMPDEST DUP6 CALLDATALOAD PUSH2 0x35FB DUP2 PUSH2 0x31AD JUMP JUMPDEST SWAP5 POP PUSH1 0x20 DUP7 ADD CALLDATALOAD PUSH2 0x360B DUP2 PUSH2 0x31AD JUMP JUMPDEST SWAP4 POP PUSH1 0x40 DUP7 ADD CALLDATALOAD PUSH1 0x1 PUSH1 0x1 PUSH1 0x40 SHL SUB DUP1 DUP3 GT ISZERO PUSH2 0x3627 JUMPI PUSH1 0x0 DUP1 REVERT JUMPDEST PUSH2 0x3633 DUP10 DUP4 DUP11 ADD PUSH2 0x3567 JUMP JUMPDEST SWAP5 POP PUSH1 0x60 DUP9 ADD CALLDATALOAD SWAP2 POP DUP1 DUP3 GT ISZERO PUSH2 0x3649 JUMPI PUSH1 0x0 DUP1 REVERT JUMPDEST PUSH2 0x3655 DUP10 DUP4 DUP11 ADD PUSH2 0x3567 JUMP JUMPDEST SWAP4 POP PUSH1 0x80 DUP9 ADD CALLDATALOAD SWAP2 POP DUP1 DUP3 GT ISZERO PUSH2 0x366B JUMPI PUSH1 0x0 DUP1 REVERT JUMPDEST POP PUSH2 0x3678 DUP9 DUP3 DUP10 ADD PUSH2 0x3230 JUMP JUMPDEST SWAP2 POP POP SWAP3 SWAP6 POP SWAP3 SWAP6 SWAP1 SWAP4 POP JUMP JUMPDEST PUSH1 0x0 DUP3 PUSH1 0x1F DUP4 ADD SLT PUSH2 0x3696 JUMPI PUSH1 0x0 DUP1 REVERT JUMPDEST DUP2 CALLDATALOAD PUSH1 0x20 PUSH2 0x36A3 DUP3 PUSH2 0x3544 JUMP JUMPDEST PUSH1 0x40 MLOAD PUSH2 0x36B0 DUP3 DUP3 PUSH2 0x3204 JUMP JUMPDEST DUP4 DUP2 MSTORE PUSH1 0x5 SWAP4 SWAP1 SWAP4 SHL DUP6 ADD DUP3 ADD SWAP3 DUP3 DUP2 ADD SWAP2 POP DUP7 DUP5 GT ISZERO PUSH2 0x36D0 JUMPI PUSH1 0x0 DUP1 REVERT JUMPDEST DUP3 DUP7 ADD JUMPDEST DUP5 DUP2 LT ISZERO PUSH2 0x35CD JUMPI DUP1 CALLDATALOAD PUSH2 0x36E7 DUP2 PUSH2 0x31AD JUMP JUMPDEST DUP4 MSTORE SWAP2 DUP4 ADD SWAP2 DUP4 ADD PUSH2 0x36D4 JUMP JUMPDEST PUSH1 0x0 DUP1 PUSH1 0x40 DUP4 DUP6 SUB SLT ISZERO PUSH2 0x3707 JUMPI PUSH1 0x0 DUP1 REVERT JUMPDEST DUP3 CALLDATALOAD PUSH1 0x1 PUSH1 0x1 PUSH1 0x40 SHL SUB DUP1 DUP3 GT ISZERO PUSH2 0x371E JUMPI PUSH1 0x0 DUP1 REVERT JUMPDEST PUSH2 0x372A DUP7 DUP4 DUP8 ADD PUSH2 0x3685 JUMP JUMPDEST SWAP4 POP PUSH1 0x20 DUP6 ADD CALLDATALOAD SWAP2 POP DUP1 DUP3 GT ISZERO PUSH2 0x3740 JUMPI PUSH1 0x0 DUP1 REVERT JUMPDEST POP PUSH2 0x3432 DUP6 DUP3 DUP7 ADD PUSH2 0x3567 JUMP JUMPDEST PUSH1 0x0 DUP1 PUSH1 0x0 PUSH1 0x60 DUP5 DUP7 SUB SLT ISZERO PUSH2 0x3762 JUMPI PUSH1 0x0 DUP1 REVERT JUMPDEST DUP4 CALLDATALOAD PUSH1 0x1 PUSH1 0x1 PUSH1 0x40 SHL SUB DUP1 DUP3 GT ISZERO PUSH2 0x3779 JUMPI PUSH1 0x0 DUP1 REVERT JUMPDEST PUSH2 0x3785 DUP8 DUP4 DUP9 ADD PUSH2 0x3230 JUMP JUMPDEST SWAP5 POP PUSH1 0x20 DUP7 ADD CALLDATALOAD SWAP2 POP DUP1 DUP3 GT ISZERO PUSH2 0x379B JUMPI PUSH1 0x0 DUP1 REVERT JUMPDEST POP PUSH2 0x37A8 DUP7 DUP3 DUP8 ADD PUSH2 0x3230 JUMP JUMPDEST SWAP3 POP POP PUSH1 0x40 DUP5 ADD CALLDATALOAD PUSH2 0x37B9 DUP2 PUSH2 0x31AD JUMP JUMPDEST DUP1 SWAP2 POP POP SWAP3 POP SWAP3 POP SWAP3 JUMP JUMPDEST PUSH1 0x20 DUP1 DUP3 MSTORE DUP3 MLOAD PUSH1 0x1 PUSH1 0x1 PUSH1 0xA0 SHL SUB AND DUP3 DUP3 ADD MSTORE DUP3 ADD MLOAD PUSH1 0xE0 PUSH1 0x40 DUP4 ADD MSTORE PUSH1 0x0 SWAP1 PUSH2 0x37F3 PUSH2 0x100 DUP5 ADD DUP3 PUSH2 0x34B5 JUMP JUMPDEST SWAP1 POP PUSH1 0x40 DUP5 ADD MLOAD PUSH1 0x60 DUP5 ADD MSTORE PUSH1 0x60 DUP5 ADD MLOAD PUSH1 0x80 DUP5 ADD MSTORE PUSH1 0x80 DUP5 ADD MLOAD PUSH1 0xA0 DUP5 ADD MSTORE PUSH1 0xA0 DUP5 ADD MLOAD PUSH1 0xC0 DUP5 ADD MSTORE PUSH1 0xC0 DUP5 ADD MLOAD ISZERO ISZERO PUSH1 0xE0 DUP5 ADD MSTORE DUP1 SWAP2 POP POP SWAP3 SWAP2 POP POP JUMP JUMPDEST PUSH1 0x0 PUSH1 0x20 DUP3 DUP5 SUB SLT ISZERO PUSH2 0x3845 JUMPI PUSH1 0x0 DUP1 REVERT JUMPDEST DUP2 CALLDATALOAD PUSH2 0xDEF DUP2 PUSH2 0x31AD JUMP JUMPDEST PUSH1 0x0 PUSH1 0x20 DUP3 DUP5 SUB SLT ISZERO PUSH2 0x3862 JUMPI PUSH1 0x0 DUP1 REVERT JUMPDEST DUP2 CALLDATALOAD PUSH1 0x1 PUSH1 0x1 PUSH1 0x40 SHL SUB DUP2 GT ISZERO PUSH2 0x3878 JUMPI PUSH1 0x0 DUP1 REVERT JUMPDEST PUSH2 0x3470 DUP5 DUP3 DUP6 ADD PUSH2 0x3685 JUMP JUMPDEST PUSH1 0x20 DUP1 DUP3 MSTORE DUP3 MLOAD DUP3 DUP3 ADD DUP2 SWAP1 MSTORE PUSH1 0x0 SWAP2 SWAP1 DUP5 DUP3 ADD SWAP1 PUSH1 0x40 DUP6 ADD SWAP1 DUP5 JUMPDEST DUP2 DUP2 LT ISZERO PUSH2 0x38BE JUMPI DUP4 MLOAD ISZERO ISZERO DUP4 MSTORE SWAP3 DUP5 ADD SWAP3 SWAP2 DUP5 ADD SWAP2 PUSH1 0x1 ADD PUSH2 0x38A0 JUMP JUMPDEST POP SWAP1 SWAP7 SWAP6 POP POP POP POP POP POP JUMP JUMPDEST DUP1 ISZERO ISZERO DUP2 EQ PUSH2 0x1FC6 JUMPI PUSH1 0x0 DUP1 REVERT JUMPDEST PUSH1 0x0 DUP1 PUSH1 0x40 DUP4 DUP6 SUB SLT ISZERO PUSH2 0x38EB JUMPI PUSH1 0x0 DUP1 REVERT JUMPDEST DUP3 CALLDATALOAD PUSH2 0x38F6 DUP2 PUSH2 0x31AD JUMP JUMPDEST SWAP2 POP PUSH1 0x20 DUP4 ADD CALLDATALOAD PUSH2 0x3906 DUP2 PUSH2 0x38CA JUMP JUMPDEST DUP1 SWAP2 POP POP SWAP3 POP SWAP3 SWAP1 POP JUMP JUMPDEST PUSH1 0x0 DUP1 PUSH1 0x0 PUSH1 0x60 DUP5 DUP7 SUB SLT ISZERO PUSH2 0x3926 JUMPI PUSH1 0x0 DUP1 REVERT JUMPDEST DUP4 CALLDATALOAD PUSH2 0x3931 DUP2 PUSH2 0x31AD JUMP JUMPDEST SWAP3 POP PUSH1 0x20 DUP5 ADD CALLDATALOAD SWAP2 POP PUSH1 0x40 DUP5 ADD CALLDATALOAD PUSH1 0x1 PUSH1 0x1 PUSH1 0x40 SHL SUB DUP2 GT ISZERO PUSH2 0x3953 JUMPI PUSH1 0x0 DUP1 REVERT JUMPDEST PUSH2 0x395F DUP7 DUP3 DUP8 ADD PUSH2 0x3230 JUMP JUMPDEST SWAP2 POP POP SWAP3 POP SWAP3 POP SWAP3 JUMP JUMPDEST PUSH1 0xA0 DUP2 MSTORE PUSH1 0x0 PUSH2 0x397C PUSH1 0xA0 DUP4 ADD DUP9 PUSH2 0x34B5 JUMP JUMPDEST DUP3 DUP2 SUB PUSH1 0x20 DUP5 ADD MSTORE PUSH2 0x398E DUP2 DUP9 PUSH2 0x34B5 JUMP JUMPDEST PUSH1 0x1 PUSH1 0x1 PUSH1 0xA0 SHL SUB SWAP7 SWAP1 SWAP7 AND PUSH1 0x40 DUP5 ADD MSTORE POP POP SWAP2 ISZERO ISZERO PUSH1 0x60 DUP4 ADD MSTORE PUSH1 0x80 SWAP1 SWAP2 ADD MSTORE SWAP3 SWAP2 POP POP JUMP JUMPDEST PUSH1 0x0 DUP1 PUSH1 0x40 DUP4 DUP6 SUB SLT ISZERO PUSH2 0x39C8 JUMPI PUSH1 0x0 DUP1 REVERT JUMPDEST DUP3 CALLDATALOAD PUSH2 0x39D3 DUP2 PUSH2 0x31AD JUMP JUMPDEST SWAP2 POP PUSH1 0x20 DUP4 ADD CALLDATALOAD PUSH2 0x3906 DUP2 PUSH2 0x31AD JUMP JUMPDEST PUSH1 0x0 DUP1 PUSH1 0x0 DUP1 PUSH1 0x0 PUSH1 0xA0 DUP7 DUP9 SUB SLT ISZERO PUSH2 0x39FB JUMPI PUSH1 0x0 DUP1 REVERT JUMPDEST DUP6 CALLDATALOAD PUSH2 0x3A06 DUP2 PUSH2 0x31AD JUMP JUMPDEST SWAP5 POP PUSH1 0x20 DUP7 ADD CALLDATALOAD PUSH2 0x3A16 DUP2 PUSH2 0x31AD JUMP JUMPDEST SWAP4 POP PUSH1 0x40 DUP7 ADD CALLDATALOAD SWAP3 POP PUSH1 0x60 DUP7 ADD CALLDATALOAD SWAP2 POP PUSH1 0x80 DUP7 ADD CALLDATALOAD PUSH1 0x1 PUSH1 0x1 PUSH1 0x40 SHL SUB DUP2 GT ISZERO PUSH2 0x3A3F JUMPI PUSH1 0x0 DUP1 REVERT JUMPDEST PUSH2 0x3678 DUP9 DUP3 DUP10 ADD PUSH2 0x3230 JUMP JUMPDEST PUSH1 0x0 PUSH2 0x100 DUP11 DUP4 MSTORE DUP10 PUSH1 0x20 DUP5 ADD MSTORE DUP1 PUSH1 0x40 DUP5 ADD MSTORE PUSH2 0x3A6B DUP2 DUP5 ADD DUP11 PUSH2 0x34B5 JUMP JUMPDEST SWAP1 POP DUP3 DUP2 SUB PUSH1 0x60 DUP5 ADD MSTORE PUSH2 0x3A7F DUP2 DUP10 PUSH2 0x34B5 JUMP JUMPDEST SWAP1 POP DUP3 DUP2 SUB PUSH1 0x80 DUP5 ADD MSTORE PUSH2 0x3A93 DUP2 DUP9 PUSH2 0x34B5 JUMP JUMPDEST SWAP1 POP DUP3 DUP2 SUB PUSH1 0xA0 DUP5 ADD MSTORE PUSH2 0x3AA7 DUP2 DUP8 PUSH2 0x34B5 JUMP JUMPDEST SWAP5 ISZERO ISZERO PUSH1 0xC0 DUP5 ADD MSTORE POP POP PUSH1 0xE0 ADD MSTORE SWAP7 SWAP6 POP POP POP POP POP POP JUMP JUMPDEST PUSH1 0x1 DUP2 DUP2 SHR SWAP1 DUP3 AND DUP1 PUSH2 0x3AD3 JUMPI PUSH1 0x7F DUP3 AND SWAP2 POP JUMPDEST PUSH1 0x20 DUP3 LT DUP2 SUB PUSH2 0x3AF3 JUMPI PUSH4 0x4E487B71 PUSH1 0xE0 SHL PUSH1 0x0 MSTORE PUSH1 0x22 PUSH1 0x4 MSTORE PUSH1 0x24 PUSH1 0x0 REVERT JUMPDEST POP SWAP2 SWAP1 POP JUMP JUMPDEST PUSH1 0x1F DUP3 GT ISZERO PUSH2 0x3B3F JUMPI PUSH1 0x0 DUP2 DUP2 MSTORE PUSH1 0x20 DUP2 KECCAK256 PUSH1 0x1F DUP6 ADD PUSH1 0x5 SHR DUP2 ADD PUSH1 0x20 DUP7 LT ISZERO PUSH2 0x3B20 JUMPI POP DUP1 JUMPDEST PUSH1 0x1F DUP6 ADD PUSH1 0x5 SHR DUP3 ADD SWAP2 POP JUMPDEST DUP2 DUP2 LT ISZERO PUSH2 0x27AA JUMPI DUP3 DUP2 SSTORE PUSH1 0x1 ADD PUSH2 0x3B2C JUMP JUMPDEST POP POP POP JUMP JUMPDEST DUP2 MLOAD PUSH1 0x1 PUSH1 0x1 PUSH1 0x40 SHL SUB DUP2 GT ISZERO PUSH2 0x3B5D JUMPI PUSH2 0x3B5D PUSH2 0x31EE JUMP JUMPDEST PUSH2 0x3B71 DUP2 PUSH2 0x3B6B DUP5 SLOAD PUSH2 0x3ABF JUMP JUMPDEST DUP5 PUSH2 0x3AF9 JUMP JUMPDEST PUSH1 0x20 DUP1 PUSH1 0x1F DUP4 GT PUSH1 0x1 DUP2 EQ PUSH2 0x3BA6 JUMPI PUSH1 0x0 DUP5 ISZERO PUSH2 0x3B8E JUMPI POP DUP6 DUP4 ADD MLOAD JUMPDEST PUSH1 0x0 NOT PUSH1 0x3 DUP7 SWAP1 SHL SHR NOT AND PUSH1 0x1 DUP6 SWAP1 SHL OR DUP6 SSTORE PUSH2 0x27AA JUMP JUMPDEST PUSH1 0x0 DUP6 DUP2 MSTORE PUSH1 0x20 DUP2 KECCAK256 PUSH1 0x1F NOT DUP7 AND SWAP2 JUMPDEST DUP3 DUP2 LT ISZERO PUSH2 0x3BD5 JUMPI DUP9 DUP7 ADD MLOAD DUP3 SSTORE SWAP5 DUP5 ADD SWAP5 PUSH1 0x1 SWAP1 SWAP2 ADD SWAP1 DUP5 ADD PUSH2 0x3BB6 JUMP JUMPDEST POP DUP6 DUP3 LT ISZERO PUSH2 0x3BF3 JUMPI DUP8 DUP6 ADD MLOAD PUSH1 0x0 NOT PUSH1 0x3 DUP9 SWAP1 SHL PUSH1 0xF8 AND SHR NOT AND DUP2 SSTORE JUMPDEST POP POP POP POP POP PUSH1 0x1 SWAP1 DUP2 SHL ADD SWAP1 SSTORE POP JUMP JUMPDEST DUP4 DUP2 MSTORE DUP3 PUSH1 0x20 DUP3 ADD MSTORE PUSH1 0x60 PUSH1 0x40 DUP3 ADD MSTORE PUSH1 0x0 PUSH2 0x3C22 PUSH1 0x60 DUP4 ADD DUP5 PUSH2 0x34B5 JUMP JUMPDEST SWAP6 SWAP5 POP POP POP POP POP JUMP JUMPDEST PUSH4 0x4E487B71 PUSH1 0xE0 SHL PUSH1 0x0 MSTORE PUSH1 0x32 PUSH1 0x4 MSTORE PUSH1 0x24 PUSH1 0x0 REVERT JUMPDEST PUSH4 0x4E487B71 PUSH1 0xE0 SHL PUSH1 0x0 MSTORE PUSH1 0x11 PUSH1 0x4 MSTORE PUSH1 0x24 PUSH1 0x0 REVERT JUMPDEST PUSH1 0x0 PUSH1 0x1 DUP3 ADD PUSH2 0x3C69 JUMPI PUSH2 0x3C69 PUSH2 0x3C41 JUMP JUMPDEST POP PUSH1 0x1 ADD SWAP1 JUMP JUMPDEST PUSH1 0x0 DUP3 MLOAD PUSH2 0x3C82 DUP2 DUP5 PUSH1 0x20 DUP8 ADD PUSH2 0x3491 JUMP JUMPDEST SWAP2 SWAP1 SWAP2 ADD SWAP3 SWAP2 POP POP JUMP JUMPDEST PUSH1 0x0 PUSH1 0x20 DUP3 DUP5 SUB SLT ISZERO PUSH2 0x3C9E JUMPI PUSH1 0x0 DUP1 REVERT JUMPDEST DUP2 MLOAD PUSH2 0xDEF DUP2 PUSH2 0x38CA JUMP JUMPDEST PUSH1 0x20 DUP1 DUP3 MSTORE PUSH1 0x2E SWAP1 DUP3 ADD MSTORE PUSH32 0x455243313135353A2063616C6C6572206973206E6F7420746F6B656E206F776E PUSH1 0x40 DUP3 ADD MSTORE PUSH14 0x195C881BDC88185C1C1C9BDD9959 PUSH1 0x92 SHL PUSH1 0x60 DUP3 ADD MSTORE PUSH1 0x80 ADD SWAP1 JUMP JUMPDEST PUSH1 0x60 DUP2 MSTORE PUSH1 0x0 PUSH2 0x3D0A PUSH1 0x60 DUP4 ADD DUP7 PUSH2 0x34B5 JUMP JUMPDEST DUP3 DUP2 SUB PUSH1 0x20 DUP5 ADD MSTORE PUSH2 0x3D1C DUP2 DUP7 PUSH2 0x34B5 JUMP JUMPDEST SWAP2 POP POP DUP3 PUSH1 0x40 DUP4 ADD MSTORE SWAP5 SWAP4 POP POP POP POP JUMP JUMPDEST DUP1 DUP3 MUL DUP2 ISZERO DUP3 DUP3 DIV DUP5 EQ OR PUSH2 0x79B JUMPI PUSH2 0x79B PUSH2 0x3C41 JUMP JUMPDEST DUP1 DUP3 ADD DUP1 DUP3 GT ISZERO PUSH2 0x79B JUMPI PUSH2 0x79B PUSH2 0x3C41 JUMP JUMPDEST DUP2 DUP2 SUB DUP2 DUP2 GT ISZERO PUSH2 0x79B JUMPI PUSH2 0x79B PUSH2 0x3C41 JUMP JUMPDEST PUSH1 0x20 DUP1 DUP3 MSTORE PUSH1 0x25 SWAP1 DUP3 ADD MSTORE PUSH32 0x455243313135353A207472616E7366657220746F20746865207A65726F206164 PUSH1 0x40 DUP3 ADD MSTORE PUSH5 0x6472657373 PUSH1 0xD8 SHL PUSH1 0x60 DUP3 ADD MSTORE PUSH1 0x80 ADD SWAP1 JUMP JUMPDEST PUSH1 0x20 DUP1 DUP3 MSTORE PUSH1 0x2A SWAP1 DUP3 ADD MSTORE PUSH32 0x455243313135353A20696E73756666696369656E742062616C616E636520666F PUSH1 0x40 DUP3 ADD MSTORE PUSH10 0x39103A3930B739B332B9 PUSH1 0xB1 SHL PUSH1 0x60 DUP3 ADD MSTORE PUSH1 0x80 ADD SWAP1 JUMP JUMPDEST PUSH1 0x40 DUP2 MSTORE PUSH1 0x0 PUSH2 0x3E0C PUSH1 0x40 DUP4 ADD DUP6 PUSH2 0x339F JUMP JUMPDEST DUP3 DUP2 SUB PUSH1 0x20 DUP5 ADD MSTORE PUSH2 0x3C22 DUP2 DUP6 PUSH2 0x339F JUMP JUMPDEST PUSH1 0x0 PUSH1 0x20 DUP3 DUP5 SUB SLT ISZERO PUSH2 0x3E30 JUMPI PUSH1 0x0 DUP1 REVERT JUMPDEST POP MLOAD SWAP2 SWAP1 POP JUMP JUMPDEST PUSH1 0x0 PUSH1 0x20 DUP3 DUP5 SUB SLT ISZERO PUSH2 0x3E49 JUMPI PUSH1 0x0 DUP1 REVERT JUMPDEST DUP2 MLOAD PUSH2 0xDEF DUP2 PUSH2 0x31AD JUMP JUMPDEST PUSH1 0x0 DUP3 PUSH2 0x3E71 JUMPI PUSH4 0x4E487B71 PUSH1 0xE0 SHL PUSH1 0x0 MSTORE PUSH1 0x12 PUSH1 0x4 MSTORE PUSH1 0x24 PUSH1 0x0 REVERT JUMPDEST POP DIV SWAP1 JUMP JUMPDEST PUSH1 0x1 PUSH1 0x1 PUSH1 0xA0 SHL SUB DUP7 DUP2 AND DUP3 MSTORE DUP6 AND PUSH1 0x20 DUP3 ADD MSTORE PUSH1 0xA0 PUSH1 0x40 DUP3 ADD DUP2 SWAP1 MSTORE PUSH1 0x0 SWAP1 PUSH2 0x3EA2 SWAP1 DUP4 ADD DUP7 PUSH2 0x339F JUMP JUMPDEST DUP3 DUP2 SUB PUSH1 0x60 DUP5 ADD MSTORE PUSH2 0x3EB4 DUP2 DUP7 PUSH2 0x339F JUMP JUMPDEST SWAP1 POP DUP3 DUP2 SUB PUSH1 0x80 DUP5 ADD MSTORE PUSH2 0x3EC8 DUP2 DUP6 PUSH2 0x34B5 JUMP JUMPDEST SWAP9 SWAP8 POP POP POP POP POP POP POP POP JUMP JUMPDEST PUSH1 0x0 PUSH1 0x20 DUP3 DUP5 SUB SLT ISZERO PUSH2 0x3EE6 JUMPI PUSH1 0x0 DUP1 REVERT JUMPDEST DUP2 MLOAD PUSH2 0xDEF DUP2 PUSH2 0x336C JUMP JUMPDEST PUSH1 0x0 PUSH1 0x3 RETURNDATASIZE GT ISZERO PUSH2 0x3F0A JUMPI PUSH1 0x4 PUSH1 0x0 DUP1 RETURNDATACOPY POP PUSH1 0x0 MLOAD PUSH1 0xE0 SHR JUMPDEST SWAP1 JUMP JUMPDEST PUSH1 0x0 PUSH1 0x44 RETURNDATASIZE LT ISZERO PUSH2 0x3F1B JUMPI SWAP1 JUMP JUMPDEST PUSH1 0x40 MLOAD PUSH1 0x3 NOT RETURNDATASIZE DUP2 ADD PUSH1 0x4 DUP4 RETURNDATACOPY DUP2 MLOAD RETURNDATASIZE PUSH1 0x1 PUSH1 0x1 PUSH1 0x40 SHL SUB DUP2 PUSH1 0x24 DUP5 ADD GT DUP2 DUP5 GT OR ISZERO PUSH2 0x3F4A JUMPI POP POP POP POP POP SWAP1 JUMP JUMPDEST DUP3 DUP6 ADD SWAP2 POP DUP2 MLOAD DUP2 DUP2 GT ISZERO PUSH2 0x3F62 JUMPI POP POP POP POP POP POP SWAP1 JUMP JUMPDEST DUP5 RETURNDATASIZE DUP8 ADD ADD PUSH1 0x20 DUP3 DUP6 ADD ADD GT ISZERO PUSH2 0x3F7C JUMPI POP POP POP POP POP POP SWAP1 JUMP JUMPDEST PUSH2 0x3F8B PUSH1 0x20 DUP3 DUP7 ADD ADD DUP8 PUSH2 0x3204 JUMP JUMPDEST POP SWAP1 SWAP6 SWAP5 POP POP POP POP POP JUMP JUMPDEST PUSH1 0x20 DUP1 DUP3 MSTORE PUSH1 0x28 SWAP1 DUP3 ADD MSTORE PUSH32 0x455243313135353A204552433131353552656365697665722072656A65637465 PUSH1 0x40 DUP3 ADD MSTORE PUSH8 0x6420746F6B656E73 PUSH1 0xC0 SHL PUSH1 0x60 DUP3 ADD MSTORE PUSH1 0x80 ADD SWAP1 JUMP JUMPDEST PUSH1 0x1 PUSH1 0x1 PUSH1 0xA0 SHL SUB DUP7 DUP2 AND DUP3 MSTORE DUP6 AND PUSH1 0x20 DUP3 ADD MSTORE PUSH1 0x40 DUP2 ADD DUP5 SWAP1 MSTORE PUSH1 0x60 DUP2 ADD DUP4 SWAP1 MSTORE PUSH1 0xA0 PUSH1 0x80 DUP3 ADD DUP2 SWAP1 MSTORE PUSH1 0x0 SWAP1 PUSH2 0x4018 SWAP1 DUP4 ADD DUP5 PUSH2 0x34B5 JUMP JUMPDEST SWAP8 SWAP7 POP POP POP POP POP POP POP JUMP INVALID LOG2 PUSH5 0x6970667358 0x22 SLT KECCAK256 0xF9 SWAP5 0x4F DUP6 CALLDATALOAD 0xAE EXP PUSH11 0xDEF312879DDC961ECFAB4 0xAB 0x5D CREATE PUSH2 0x1F26 PUSH7 0xE28EF3C3CE6F64 PUSH20 0x6F6C63430008140033A2646970667358221220A1 CALLDATASIZE 0xC2 PUSH29 0xF61A92FCDDC2F996FD86C4729EC6D487E99F3209E6658B62E8CF528864 PUSH20 0x6F6C634300081400330000000000000000000000 "},"methodIdentifiers":{"allContracts(uint256)":"e54e26b9","contractCreators(address)":"85714768","creatorContracts(address,uint256)":"cc744993","deployGroupContract(string,string,string,string,string,address)":"92f7c0c7","deploymentFee()":"f2cff57f","emergencyDisableContract(address)":"9e193085","feeBasisPoints()":"b8606eef","feeRecipient()":"46904840","getAllContracts()":"18d3ce96","getContractCreator(address)":"5e1970f1","getCreatorContracts(address)":"d264e453","getDeploymentStats()":"4015cabd","getTotalContracts()":"534860cc","isFactoryContract(address)":"dc488ad6","owner()":"8da5cb5b","renounceOwnership()":"715018a6","transferOwnership(address)":"f2fde38b","updateDeploymentFee(uint256)":"499200db","updateFeeConfiguration(address,uint256)":"f0d74dff","withdrawFees()":"476343ee"}}}}}