{
  "_format": "hh-sol-artifact-1",
  "contractName": "MegapotExtension",
  "sourceName": "src/extensions/MegapotExtension.sol",
  "abi": [
    {
      "inputs": [
        {
          "internalType": "address",
          "name": "_evmAuth",
          "type": "address"
        },
        {
          "internalType": "address",
          "name": "_megapot",
          "type": "address"
        },
        {
          "internalType": "address",
          "name": "_referrer",
          "type": "address"
        },
        {
          "internalType": "address",
          "name": "_owner",
          "type": "address"
        }
      ],
      "stateMutability": "nonpayable",
      "type": "constructor"
    },
    {
      "inputs": [
        {
          "internalType": "address",
          "name": "owner",
          "type": "address"
        }
      ],
      "name": "OwnableInvalidOwner",
      "type": "error"
    },
    {
      "inputs": [
        {
          "internalType": "address",
          "name": "account",
          "type": "address"
        }
      ],
      "name": "OwnableUnauthorizedAccount",
      "type": "error"
    },
    {
      "inputs": [],
      "name": "ReentrancyGuardReentrantCall",
      "type": "error"
    },
    {
      "anonymous": false,
      "inputs": [
        {
          "indexed": true,
          "internalType": "address",
          "name": "user",
          "type": "address"
        },
        {
          "indexed": true,
          "internalType": "uint256",
          "name": "tokenId",
          "type": "uint256"
        },
        {
          "indexed": false,
          "internalType": "uint256",
          "name": "tokenAmount",
          "type": "uint256"
        },
        {
          "indexed": false,
          "internalType": "uint256",
          "name": "ticketsBought",
          "type": "uint256"
        },
        {
          "indexed": false,
          "internalType": "uint256",
          "name": "timestamp",
          "type": "uint256"
        }
      ],
      "name": "AutoTicketPurchased",
      "type": "event"
    },
    {
      "anonymous": false,
      "inputs": [
        {
          "indexed": false,
          "internalType": "bool",
          "name": "isActive",
          "type": "bool"
        },
        {
          "indexed": false,
          "internalType": "uint256",
          "name": "ticketsPerPurchase",
          "type": "uint256"
        },
        {
          "indexed": false,
          "internalType": "uint256",
          "name": "minPurchaseForTicket",
          "type": "uint256"
        },
        {
          "indexed": false,
          "internalType": "bool",
          "name": "useTokenValue",
          "type": "bool"
        },
        {
          "indexed": false,
          "internalType": "uint256",
          "name": "maxTicketsPerPurchase",
          "type": "uint256"
        }
      ],
      "name": "ConfigurationUpdated",
      "type": "event"
    },
    {
      "anonymous": false,
      "inputs": [
        {
          "indexed": true,
          "internalType": "address",
          "name": "megapotContract",
          "type": "address"
        },
        {
          "indexed": true,
          "internalType": "address",
          "name": "token",
          "type": "address"
        },
        {
          "indexed": false,
          "internalType": "uint256",
          "name": "ticketPrice",
          "type": "uint256"
        },
        {
          "indexed": false,
          "internalType": "uint256",
          "name": "timestamp",
          "type": "uint256"
        }
      ],
      "name": "MegapotLinked",
      "type": "event"
    },
    {
      "anonymous": false,
      "inputs": [
        {
          "indexed": true,
          "internalType": "address",
          "name": "depositor",
          "type": "address"
        },
        {
          "indexed": false,
          "internalType": "uint256",
          "name": "amount",
          "type": "uint256"
        }
      ],
      "name": "MegapotTokensDeposited",
      "type": "event"
    },
    {
      "anonymous": false,
      "inputs": [
        {
          "indexed": true,
          "internalType": "address",
          "name": "recipient",
          "type": "address"
        },
        {
          "indexed": false,
          "internalType": "uint256",
          "name": "amount",
          "type": "uint256"
        }
      ],
      "name": "MegapotTokensWithdrawn",
      "type": "event"
    },
    {
      "anonymous": false,
      "inputs": [
        {
          "indexed": true,
          "internalType": "address",
          "name": "previousOwner",
          "type": "address"
        },
        {
          "indexed": true,
          "internalType": "address",
          "name": "newOwner",
          "type": "address"
        }
      ],
      "name": "OwnershipTransferred",
      "type": "event"
    },
    {
      "anonymous": false,
      "inputs": [
        {
          "indexed": true,
          "internalType": "address",
          "name": "oldReferrer",
          "type": "address"
        },
        {
          "indexed": true,
          "internalType": "address",
          "name": "newReferrer",
          "type": "address"
        }
      ],
      "name": "ReferrerUpdated",
      "type": "event"
    },
    {
      "inputs": [
        {
          "internalType": "uint256",
          "name": "ticketCount",
          "type": "uint256"
        }
      ],
      "name": "canPurchaseTickets",
      "outputs": [
        {
          "internalType": "bool",
          "name": "",
          "type": "bool"
        }
      ],
      "stateMutability": "view",
      "type": "function"
    },
    {
      "inputs": [],
      "name": "config",
      "outputs": [
        {
          "internalType": "bool",
          "name": "isActive",
          "type": "bool"
        },
        {
          "internalType": "uint256",
          "name": "ticketsPerPurchase",
          "type": "uint256"
        },
        {
          "internalType": "uint256",
          "name": "minPurchaseForTicket",
          "type": "uint256"
        },
        {
          "internalType": "bool",
          "name": "useTokenValue",
          "type": "bool"
        },
        {
          "internalType": "uint256",
          "name": "maxTicketsPerPurchase",
          "type": "uint256"
        },
        {
          "internalType": "uint256",
          "name": "linkedAt",
          "type": "uint256"
        }
      ],
      "stateMutability": "view",
      "type": "function"
    },
    {
      "inputs": [
        {
          "internalType": "uint256",
          "name": "amount",
          "type": "uint256"
        }
      ],
      "name": "depositMegapotTokens",
      "outputs": [],
      "stateMutability": "nonpayable",
      "type": "function"
    },
    {
      "inputs": [],
      "name": "emergencyWithdrawAll",
      "outputs": [],
      "stateMutability": "nonpayable",
      "type": "function"
    },
    {
      "inputs": [],
      "name": "evmAuth",
      "outputs": [
        {
          "internalType": "contract EVMAuthV2",
          "name": "",
          "type": "address"
        }
      ],
      "stateMutability": "view",
      "type": "function"
    },
    {
      "inputs": [],
      "name": "getConfiguration",
      "outputs": [
        {
          "components": [
            {
              "internalType": "bool",
              "name": "isActive",
              "type": "bool"
            },
            {
              "internalType": "uint256",
              "name": "ticketsPerPurchase",
              "type": "uint256"
            },
            {
              "internalType": "uint256",
              "name": "minPurchaseForTicket",
              "type": "uint256"
            },
            {
              "internalType": "bool",
              "name": "useTokenValue",
              "type": "bool"
            },
            {
              "internalType": "uint256",
              "name": "maxTicketsPerPurchase",
              "type": "uint256"
            },
            {
              "internalType": "uint256",
              "name": "linkedAt",
              "type": "uint256"
            }
          ],
          "internalType": "struct MegapotExtension.MegapotConfig",
          "name": "",
          "type": "tuple"
        }
      ],
      "stateMutability": "view",
      "type": "function"
    },
    {
      "inputs": [],
      "name": "getExtensionInfo",
      "outputs": [
        {
          "internalType": "string",
          "name": "name",
          "type": "string"
        },
        {
          "internalType": "string",
          "name": "version",
          "type": "string"
        },
        {
          "internalType": "address",
          "name": "baseContract",
          "type": "address"
        },
        {
          "internalType": "bool",
          "name": "isActive",
          "type": "bool"
        }
      ],
      "stateMutability": "view",
      "type": "function"
    },
    {
      "inputs": [],
      "name": "getExtensionStats",
      "outputs": [
        {
          "internalType": "uint256",
          "name": "totalTickets",
          "type": "uint256"
        },
        {
          "internalType": "uint256",
          "name": "totalTokens",
          "type": "uint256"
        },
        {
          "internalType": "uint256",
          "name": "contractBalance",
          "type": "uint256"
        },
        {
          "internalType": "uint256",
          "name": "ticketPrice",
          "type": "uint256"
        },
        {
          "internalType": "bool",
          "name": "megapotActive",
          "type": "bool"
        }
      ],
      "stateMutability": "view",
      "type": "function"
    },
    {
      "inputs": [],
      "name": "getMegapotInfo",
      "outputs": [
        {
          "internalType": "address",
          "name": "megapotContract",
          "type": "address"
        },
        {
          "internalType": "address",
          "name": "token",
          "type": "address"
        },
        {
          "internalType": "uint256",
          "name": "ticketPrice",
          "type": "uint256"
        },
        {
          "internalType": "bool",
          "name": "allowPurchasing",
          "type": "bool"
        },
        {
          "internalType": "address",
          "name": "currentReferrer",
          "type": "address"
        }
      ],
      "stateMutability": "view",
      "type": "function"
    },
    {
      "inputs": [
        {
          "internalType": "address",
          "name": "user",
          "type": "address"
        }
      ],
      "name": "getUserStats",
      "outputs": [
        {
          "internalType": "uint256",
          "name": "ticketsPurchased",
          "type": "uint256"
        },
        {
          "internalType": "uint256",
          "name": "tokenPurchases",
          "type": "uint256"
        },
        {
          "internalType": "uint256",
          "name": "estimatedTicketsFromBalance",
          "type": "uint256"
        }
      ],
      "stateMutability": "view",
      "type": "function"
    },
    {
      "inputs": [],
      "name": "megapot",
      "outputs": [
        {
          "internalType": "contract IMegapot",
          "name": "",
          "type": "address"
        }
      ],
      "stateMutability": "view",
      "type": "function"
    },
    {
      "inputs": [],
      "name": "megapotToken",
      "outputs": [
        {
          "internalType": "contract IERC20",
          "name": "",
          "type": "address"
        }
      ],
      "stateMutability": "view",
      "type": "function"
    },
    {
      "inputs": [
        {
          "internalType": "address",
          "name": "buyer",
          "type": "address"
        },
        {
          "internalType": "uint256",
          "name": "tokenId",
          "type": "uint256"
        },
        {
          "internalType": "uint256",
          "name": "amount",
          "type": "uint256"
        },
        {
          "internalType": "uint256",
          "name": "totalPrice",
          "type": "uint256"
        }
      ],
      "name": "onTokenPurchased",
      "outputs": [],
      "stateMutability": "nonpayable",
      "type": "function"
    },
    {
      "inputs": [],
      "name": "owner",
      "outputs": [
        {
          "internalType": "address",
          "name": "",
          "type": "address"
        }
      ],
      "stateMutability": "view",
      "type": "function"
    },
    {
      "inputs": [],
      "name": "referrer",
      "outputs": [
        {
          "internalType": "address",
          "name": "",
          "type": "address"
        }
      ],
      "stateMutability": "view",
      "type": "function"
    },
    {
      "inputs": [],
      "name": "renounceOwnership",
      "outputs": [],
      "stateMutability": "nonpayable",
      "type": "function"
    },
    {
      "inputs": [],
      "name": "totalTicketsPurchased",
      "outputs": [
        {
          "internalType": "uint256",
          "name": "",
          "type": "uint256"
        }
      ],
      "stateMutability": "view",
      "type": "function"
    },
    {
      "inputs": [],
      "name": "totalTokensSold",
      "outputs": [
        {
          "internalType": "uint256",
          "name": "",
          "type": "uint256"
        }
      ],
      "stateMutability": "view",
      "type": "function"
    },
    {
      "inputs": [
        {
          "internalType": "address",
          "name": "newOwner",
          "type": "address"
        }
      ],
      "name": "transferOwnership",
      "outputs": [],
      "stateMutability": "nonpayable",
      "type": "function"
    },
    {
      "inputs": [
        {
          "internalType": "bool",
          "name": "_isActive",
          "type": "bool"
        },
        {
          "internalType": "uint256",
          "name": "_ticketsPerPurchase",
          "type": "uint256"
        },
        {
          "internalType": "uint256",
          "name": "_minPurchaseForTicket",
          "type": "uint256"
        },
        {
          "internalType": "bool",
          "name": "_useTokenValue",
          "type": "bool"
        },
        {
          "internalType": "uint256",
          "name": "_maxTicketsPerPurchase",
          "type": "uint256"
        }
      ],
      "name": "updateConfiguration",
      "outputs": [],
      "stateMutability": "nonpayable",
      "type": "function"
    },
    {
      "inputs": [
        {
          "internalType": "address",
          "name": "_newMegapot",
          "type": "address"
        }
      ],
      "name": "updateMegapotContract",
      "outputs": [],
      "stateMutability": "nonpayable",
      "type": "function"
    },
    {
      "inputs": [
        {
          "internalType": "address",
          "name": "_newReferrer",
          "type": "address"
        }
      ],
      "name": "updateReferrer",
      "outputs": [],
      "stateMutability": "nonpayable",
      "type": "function"
    },
    {
      "inputs": [
        {
          "internalType": "address",
          "name": "",
          "type": "address"
        }
      ],
      "name": "userTicketsPurchased",
      "outputs": [
        {
          "internalType": "uint256",
          "name": "",
          "type": "uint256"
        }
      ],
      "stateMutability": "view",
      "type": "function"
    },
    {
      "inputs": [
        {
          "internalType": "address",
          "name": "",
          "type": "address"
        }
      ],
      "name": "userTokenPurchases",
      "outputs": [
        {
          "internalType": "uint256",
          "name": "",
          "type": "uint256"
        }
      ],
      "stateMutability": "view",
      "type": "function"
    },
    {
      "inputs": [
        {
          "internalType": "uint256",
          "name": "amount",
          "type": "uint256"
        }
      ],
      "name": "withdrawMegapotTokens",
      "outputs": [],
      "stateMutability": "nonpayable",
      "type": "function"
    }
  ],
  "bytecode": "0x60a060409080825234620003425760808162001ba8803803809162000025828562000347565b83398101031262000342576200003b8162000381565b602060606200004c82850162000381565b926200005a86860162000381565b946001600160a01b0392839162000072910162000381565b1680156200032a57600080546001600160a01b0319808216841783558951979295909390929183167f8be0079c531659141344cd1fd0a4f28419497f9722a3daafe3b4186f6b6457e08780a38160019485805516968715620002e857508116958615620002a457608052600280548316871790558751637e062a3560e11b815285816004818a5afa9081156200029a57908291869162000256575b5016968783600354161760035516906004541617600455855160c0810181811060018060401b038211176200024257875281815281848201528287820152826060820152600a608082015260a04291015260ff1990808260055416176005556006558160075560085416600855600a60095542600a558451630904d8fb60e11b81528281600481875afa918215620002375790818793620001ec575b505060008051602062001b888339815191529282519182524290820152a3516117f190816200039782396080518181816104820152818161053a01526111970152f35b915091508282813d83116200022f575b62000208818362000347565b810103126200022c575051849060008051602062001b8883398151915238620001a9565b80fd5b503d620001fc565b8651903d90823e3d90fd5b634e487b7160e01b84526041600452602484fd5b809250878092503d831162000292575b62000272818362000347565b810103126200028e5762000287829162000381565b386200010d565b8480fd5b503d62000266565b89513d87823e3d90fd5b885162461bcd60e51b815260048101879052601760248201527f496e76616c6964204d656761706f7420616464726573730000000000000000006044820152606490fd5b62461bcd60e51b815260048101879052601760248201527f496e76616c69642045564d4175746820616464726573730000000000000000006044820152606490fd5b8651631e4fbdf760e01b815260006004820152602490fd5b600080fd5b601f909101601f19168101906001600160401b038211908210176200036b57604052565b634e487b7160e01b600052604160045260246000fd5b51906001600160a01b0382168203620003425756fe6080604081815260048036101561001557600080fd5b600092833560e01c90816308e609e914610f22575080631083fa2614610ef95780631d33c95d14610eda578063408dce9414610d6f5780634a74bc6114610cb25780634ce03ddb14610c895780634e43603a14610b3857806350836796146109bc57806363b201171461099d57806368447c93146109765780636bd50cef146108c1578063715018a614610867578063772b09e31461082f57806379502c55146107db5780637dbc4385146106315780638b3efee6146106085780638da5cb5b146105e0578063b9ae5265146105ac578063cb8ebaae14610574578063d6f43949146104b1578063d878c2131461046d578063dd19171914610333578063e21cc6911461022b578063ebd2c7d9146101bf5763f2fde38b1461013657600080fd5b346101bb5760203660031901126101bb5761014f611057565b906101586110b2565b6001600160a01b039182169283156101a557505082546001600160a01b0319811683178455167f8be0079c531659141344cd1fd0a4f28419497f9722a3daafe3b4186f6b6457e08380a380f35b51631e4fbdf760e01b8152908101849052602490fd5b8280fd5b838234610227576020366003190112610227576101da611057565b6101e26110b2565b81546001600160a01b039182166001600160a01b031982168117909355167fc40302e3b5897f6966b131753cb09f65aa712ae82e3f49b189d089d5694256e38380a380f35b5080fd5b50346101bb57826003193601126101bb576002546003548351630904d8fb60e11b81526001600160a01b0392831694602094939192909190811690858486818a5afa9384156103295788946102f6575b508251633169141f60e01b815294868682818b5afa9586156102ec5760a099966102bd575b505416948251968752860152840152151560608301526080820152f35b6102de919650873d89116102e5575b6102d6818361112c565b81019061114e565b94386102a0565b503d6102cc565b84513d8b823e3d90fd5b9093508581813d8311610322575b61030e818361112c565b8101031261031e5751923861027b565b8780fd5b503d610304565b83513d8a823e3d90fd5b50346101bb57826003193601126101bb5761034c6110b2565b60035482516370a0823160e01b815230838201526020916001600160a01b039081168383602481845afa928315610463578793610430575b508261038e578680f35b8654865163a9059cbb60e01b81529083166001600160a01b031695810195865260208601849052948491869182908a90829060400103925af1938415610426577f29b47220e0f063231b4e718e2ce82ee53db05db53afdf5f03b71c46f7d2a519194610409575b508554169351908152a23880808080808680f35b61041f90843d86116102e5576102d6818361112c565b50386103f5565b85513d88823e3d90fd5b9092508381813d831161045c575b610448818361112c565b8101031261045857519138610384565b8680fd5b503d61043e565b86513d89823e3d90fd5b505034610227578160031936011261022757517f00000000000000000000000000000000000000000000000000000000000000006001600160a01b03168152602090f35b50503461022757816003193601126102275761052a9060ff60055416908051916104da83611110565b601083526f26b2b3b0b837ba22bc3a32b739b4b7b760811b6020840152610538825161050581611110565b60058152640312e302e360dc1b60208201528351958695608087526080870190611072565b908582036020870152611072565b7f00000000000000000000000000000000000000000000000000000000000000006001600160a01b031692840192909252151560608301520390f35b5050346102275760203660031901126102275760209181906001600160a01b0361059c611057565b168152600c845220549051908152f35b83346105dd5760803660031901126105dd576105da6105c9611057565b606435906044359060243590611189565b80f35b80fd5b505034610227578160031936011261022757905490516001600160a01b039091168152602090f35b50503461022757816003193601126102275760025490516001600160a01b039091168152602090f35b50346101bb57602090816003193601126107d75761064d611057565b926106566110b2565b6001600160a01b0393841692831561079c57600280546001600160a01b031990811686179091558251637e062a3560e11b815290959082818681895afa90811561079257889161075c575b5016809560035416176003558082518094630904d8fb60e11b825281875afa9081156107525786916106ff575b7fd82a8a2b4dddcc1443e9a3d7cff1b3703580fe0a3fa67062496c2d3910d53b66935082519182524290820152a380f35b80915083813d831161074b575b610716818361112c565b81010312610747577fd82a8a2b4dddcc1443e9a3d7cff1b3703580fe0a3fa67062496c2d3910d53b669251906106ce565b8580fd5b503d61070c565b82513d88823e3d90fd5b90508281813d831161078b575b610773818361112c565b8101031261031e5751818116810361031e57386106a1565b503d610769565b84513d8a823e3d90fd5b905162461bcd60e51b8152918201526017602482015276496e76616c6964204d656761706f74206164647265737360481b6044820152606490fd5b8380fd5b50503461022757816003193601126102275760c09060ff60055416906006549060075460ff600854169060095492600a549481519615158752602087015285015215156060840152608083015260a0820152f35b5050346102275760203660031901126102275760209181906001600160a01b03610857611057565b168152600b845220549051908152f35b83346105dd57806003193601126105dd576108806110b2565b80546001600160a01b03198116825581906001600160a01b03167f8be0079c531659141344cd1fd0a4f28419497f9722a3daafe3b4186f6b6457e08280a380f35b50503461022757816003193601126102275760c09160a082516108e3816110de565b82815282602082015282848201528260608201528260808201520152805161090a816110de565b60ff6005541615159182825260065490602083019182526007549080840191825260ff6008541691606085019215158352600954936080860194855260a0600a5496019586528251968752516020870152519085015251151560608401525160808301525160a0820152f35b50346101bb57826003193601126101bb575490516001600160a01b03909116815260209150f35b505034610227578160031936011261022757602090600e549051908152f35b508290346102275760a0366003190112610227578035908115158092036101bb576024356044356064359182151580930361074757608435936109fd6110b2565b8115610af5578415610ab857848211610a7d57509160a09391877fb1fb5da0e0f5da398fe6c2ee5fe3d3239cea119b32205bb20d23d9e0f6c60885969460ff19806005541660ff88161760055581600655836007556008541660ff851617600855846009558151958652602086015284015260608301526080820152a180f35b606490602089519162461bcd60e51b83528201526015602482015274496e76616c6964207469636b6574206c696d69747360581b6044820152fd5b606490602089519162461bcd60e51b8352820152601760248201527604d6178207469636b657473206d757374206265203e203604c1b6044820152fd5b606490602089519162461bcd60e51b8352820152602060248201527f5469636b65747320706572207075726368617365206d757374206265203e20306044820152fd5b5091903461022757602090816003193601126101bb576001600160a01b039283610b60611057565b168152600b83528181205492600c8152602483832054958281600354168651938480926370a0823160e01b8252308d8301525afa918215610c7f579083918593610c4e575b5060025416855198898092630904d8fb60e11b82525afa918215610c44578392610c0f575b50610c0394959650811515600014610c0757610be69250611341565b905b51938493846040919493926060820195825260208201520152565b0390f35b505090610be8565b90915086813d8311610c3d575b610c26818361112c565b810103126102275794519394859490610c03610bca565b503d610c1c565b84513d85823e3d90fd5b8281939294503d8311610c78575b610c66818361112c565b810103126107d7578290519138610ba5565b503d610c5c565b85513d86823e3d90fd5b5091346105dd5760203660031901126105dd5750610ca96020923561166e565b90519015158152f35b5090346101bb5760203660031901126101bb57826020833593610cd685151561162d565b60035484516323b872dd60e01b81523392810192909252306024830152604482018690529092839160649183916001600160a01b03165af18015610d6557610d47575b50519081527f1186f7c6b9f4703acb7997f857e2f19d445b767d0636f812ec0191780593648a60203392a280f35b610d5e9060203d81116102e5576102d6818361112c565b5038610d19565b82513d86823e3d90fd5b50919034610227576020806003193601126101bb578335610d8e6110b2565b610d9981151561162d565b60035483516370a0823160e01b815230818801526001600160a01b03918216969084816024818b5afa908115610463579084918891610ea9575b5010610e6f578554855163a9059cbb60e01b81529083166001600160a01b0316918101918252602082018490529596949594849186919082908a90829060400103925af1938415610426577f29b47220e0f063231b4e718e2ce82ee53db05db53afdf5f03b71c46f7d2a519194610e52575b508554169351908152a280f35b610e6890843d86116102e5576102d6818361112c565b5038610e45565b845162461bcd60e51b81529081018490526014602482015273496e73756666696369656e742062616c616e636560601b6044820152606490fd5b809250868092503d8311610ed3575b610ec2818361112c565b810103126104585783905138610dd3565b503d610eb8565b505034610227578160031936011261022757602090600d549051908152f35b50503461022757816003193601126102275760035490516001600160a01b039091168152602090f35b9050346107d757836003193601126107d75780600d5493600e5460018060a01b0380600354166370a0823160e01b8552308786015284602460209788935afa938415610329578894611028575b506002548351630904d8fb60e11b815295911681868881845afa9586156102ec578996610ff5575b508190845197888092633169141f60e01b82525afa9586156103295760a09896610fd6575b508251968752860152840152606083015215156080820152f35b81610fee9297503d88116102e5576102d6818361112c565b9438610fbc565b9095508181813d8311611021575b61100d818361112c565b8101031261101d57519481610f97565b8880fd5b503d611003565b9093508481813d8311611050575b611040818361112c565b8101031261031e57519238610f6f565b503d611036565b600435906001600160a01b038216820361106d57565b600080fd5b919082519283825260005b84811061109e575050826000602080949584010152601f8019910116010190565b60208183018101518483018201520161107d565b6000546001600160a01b031633036110c657565b60405163118cdaa760e01b8152336004820152602490fd5b60c0810190811067ffffffffffffffff8211176110fa57604052565b634e487b7160e01b600052604160045260246000fd5b6040810190811067ffffffffffffffff8211176110fa57604052565b90601f8019910116810190811067ffffffffffffffff8211176110fa57604052565b9081602091031261106d5751801515810361106d5790565b9190820180921161117357565b634e487b7160e01b600052601160045260246000fd5b90926001600160a01b0392907f0000000000000000000000000000000000000000000000000000000000000000841633036112e95760ff6005541615801561128c575b611285576007548110611285576111e290611361565b9283156112855782611215857f757baa3c3a61a9decc2f10fe7d9b73dc9ac0a2d337831a5ee739640e67b8c37f95611435565b169283600052600b6020526040600020611230828254611166565b905583600052600c602052604060002061124b838254611166565b905561125981600d54611166565b600d5561126882600e54611166565b600e556040805192835260208301919091524290820152606090a3565b5050505050565b5060046020856002541660405192838092633169141f60e01b82525afa9081156112dd576000916112bf575b50156111cc565b6112d7915060203d81116102e5576102d6818361112c565b386112b8565b6040513d6000823e3d90fd5b60405162461bcd60e51b815260206004820152601e60248201527f4f6e6c792045564d4175746820636f6e74726163742063616e2063616c6c00006044820152606490fd5b8181029291811591840414171561117357565b811561134b570490565b634e487b7160e01b600052601260045260246000fd5b60085460ff161561142c57600254604051630904d8fb60e11b815290602090829060049082906001600160a01b03165afa9081156112dd576000916113fb575b5080156113f457600a820291808304600a14901517156111735760648102908104606403611173576113d291611341565b80156113ec575b6009548082116113e7575090565b905090565b5060016113d9565b5050600090565b906020823d8211611424575b816114146020938361112c565b810103126105dd575051386113a1565b3d9150611407565b506006546113d9565b60025460408051630904d8fb60e11b81526020946001600160a01b039384169391908682600481885afa918215611622576000926115f1575b50611479908261132e565b9382600354169184516370a0823160e01b81523060048201528881602481875afa9081156115e6579089949392916000916115b2575b5087811061157b575b5050845163095ea7b360e01b81526001600160a01b039091166004820152602481018690529190829081600081604481015b03925af180156115705760649287959492600092611553575b508060025416908060045416935197889687956351ab925160e01b8752600487015260248601521660448401525af161153a575050565b8161155092903d106102e5576102d6818361112c565b50565b61156990873d89116102e5576102d6818361112c565b5038611503565b83513d6000823e3d90fd5b61158a92939750819450611341565b9081156115a85761159f88926114ea9461132e565b959192386114b8565b5050505050505050565b9192939482813d83116115df575b6115ca818361112c565b810103126105dd5750908893929151386114af565b503d6115c0565b86513d6000823e3d90fd5b90918782813d831161161b575b611608818361112c565b810103126105dd5750519061147961146e565b503d6115fe565b84513d6000823e3d90fd5b1561163457565b60405162461bcd60e51b81526020600482015260126024820152710416d6f756e74206d757374206265203e20360741b6044820152606490fd5b60ff60055416158015611760575b61175a57600254604051630904d8fb60e11b81526001600160a01b039260209290919083908290600490829088165afa9081156112dd5760009161172b575b50916116ca819260249461132e565b9360035416604051938480926370a0823160e01b82523060048301525afa9081156112dd576000916116ff575b509050101590565b82813d8311611724575b611713818361112c565b810103126105dd57505180386116f7565b503d611709565b908382813d8311611753575b611741818361112c565b810103126105dd5750516116ca6116bb565b503d611737565b50600090565b50600254604051633169141f60e01b815290602090829060049082906001600160a01b03165afa9081156112dd5760009161179d575b501561167c565b6117b5915060203d81116102e5576102d6818361112c565b3861179656fea26469706673582212202af1102beb569da9a973dfd4a57e0c5f8715b61dc24a360e88563c5140a02bcb64736f6c63430008140033d82a8a2b4dddcc1443e9a3d7cff1b3703580fe0a3fa67062496c2d3910d53b66",
  "linkReferences": {},
  "deployedLinkReferences": {}
}