{
  "_format": "hh-sol-artifact-1",
  "contractName": "EVMAuthV2",
  "sourceName": "src/EVMAuthV2.sol",
  "abi": [
    {
      "inputs": [
        {
          "internalType": "string",
          "name": "name",
          "type": "string"
        },
        {
          "internalType": "string",
          "name": "version",
          "type": "string"
        },
        {
          "internalType": "string",
          "name": "uri",
          "type": "string"
        },
        {
          "internalType": "uint48",
          "name": "delay",
          "type": "uint48"
        },
        {
          "internalType": "address",
          "name": "owner",
          "type": "address"
        }
      ],
      "stateMutability": "nonpayable",
      "type": "constructor"
    },
    {
      "inputs": [],
      "name": "AccessControlBadConfirmation",
      "type": "error"
    },
    {
      "inputs": [
        {
          "internalType": "uint48",
          "name": "schedule",
          "type": "uint48"
        }
      ],
      "name": "AccessControlEnforcedDefaultAdminDelay",
      "type": "error"
    },
    {
      "inputs": [],
      "name": "AccessControlEnforcedDefaultAdminRules",
      "type": "error"
    },
    {
      "inputs": [
        {
          "internalType": "address",
          "name": "defaultAdmin",
          "type": "address"
        }
      ],
      "name": "AccessControlInvalidDefaultAdmin",
      "type": "error"
    },
    {
      "inputs": [
        {
          "internalType": "address",
          "name": "account",
          "type": "address"
        },
        {
          "internalType": "bytes32",
          "name": "neededRole",
          "type": "bytes32"
        }
      ],
      "name": "AccessControlUnauthorizedAccount",
      "type": "error"
    },
    {
      "inputs": [
        {
          "internalType": "address",
          "name": "sender",
          "type": "address"
        },
        {
          "internalType": "uint256",
          "name": "balance",
          "type": "uint256"
        },
        {
          "internalType": "uint256",
          "name": "needed",
          "type": "uint256"
        },
        {
          "internalType": "uint256",
          "name": "tokenId",
          "type": "uint256"
        }
      ],
      "name": "ERC1155InsufficientBalance",
      "type": "error"
    },
    {
      "inputs": [
        {
          "internalType": "address",
          "name": "approver",
          "type": "address"
        }
      ],
      "name": "ERC1155InvalidApprover",
      "type": "error"
    },
    {
      "inputs": [
        {
          "internalType": "uint256",
          "name": "idsLength",
          "type": "uint256"
        },
        {
          "internalType": "uint256",
          "name": "valuesLength",
          "type": "uint256"
        }
      ],
      "name": "ERC1155InvalidArrayLength",
      "type": "error"
    },
    {
      "inputs": [
        {
          "internalType": "address",
          "name": "operator",
          "type": "address"
        }
      ],
      "name": "ERC1155InvalidOperator",
      "type": "error"
    },
    {
      "inputs": [
        {
          "internalType": "address",
          "name": "receiver",
          "type": "address"
        }
      ],
      "name": "ERC1155InvalidReceiver",
      "type": "error"
    },
    {
      "inputs": [
        {
          "internalType": "address",
          "name": "sender",
          "type": "address"
        }
      ],
      "name": "ERC1155InvalidSender",
      "type": "error"
    },
    {
      "inputs": [
        {
          "internalType": "address",
          "name": "operator",
          "type": "address"
        },
        {
          "internalType": "address",
          "name": "owner",
          "type": "address"
        }
      ],
      "name": "ERC1155MissingApprovalForAll",
      "type": "error"
    },
    {
      "inputs": [],
      "name": "ReentrancyGuardReentrantCall",
      "type": "error"
    },
    {
      "inputs": [
        {
          "internalType": "uint8",
          "name": "bits",
          "type": "uint8"
        },
        {
          "internalType": "uint256",
          "name": "value",
          "type": "uint256"
        }
      ],
      "name": "SafeCastOverflowedUintDowncast",
      "type": "error"
    },
    {
      "anonymous": false,
      "inputs": [
        {
          "indexed": true,
          "internalType": "address",
          "name": "account",
          "type": "address"
        }
      ],
      "name": "AddedToBlacklist",
      "type": "event"
    },
    {
      "anonymous": false,
      "inputs": [
        {
          "indexed": true,
          "internalType": "address",
          "name": "account",
          "type": "address"
        },
        {
          "indexed": true,
          "internalType": "address",
          "name": "operator",
          "type": "address"
        },
        {
          "indexed": false,
          "internalType": "bool",
          "name": "approved",
          "type": "bool"
        }
      ],
      "name": "ApprovalForAll",
      "type": "event"
    },
    {
      "anonymous": false,
      "inputs": [],
      "name": "DefaultAdminDelayChangeCanceled",
      "type": "event"
    },
    {
      "anonymous": false,
      "inputs": [
        {
          "indexed": false,
          "internalType": "uint48",
          "name": "newDelay",
          "type": "uint48"
        },
        {
          "indexed": false,
          "internalType": "uint48",
          "name": "effectSchedule",
          "type": "uint48"
        }
      ],
      "name": "DefaultAdminDelayChangeScheduled",
      "type": "event"
    },
    {
      "anonymous": false,
      "inputs": [],
      "name": "DefaultAdminTransferCanceled",
      "type": "event"
    },
    {
      "anonymous": false,
      "inputs": [
        {
          "indexed": true,
          "internalType": "address",
          "name": "newAdmin",
          "type": "address"
        },
        {
          "indexed": false,
          "internalType": "uint48",
          "name": "acceptSchedule",
          "type": "uint48"
        }
      ],
      "name": "DefaultAdminTransferScheduled",
      "type": "event"
    },
    {
      "anonymous": false,
      "inputs": [
        {
          "indexed": true,
          "internalType": "address",
          "name": "account",
          "type": "address"
        },
        {
          "indexed": true,
          "internalType": "uint256",
          "name": "id",
          "type": "uint256"
        },
        {
          "indexed": false,
          "internalType": "uint256",
          "name": "amount",
          "type": "uint256"
        }
      ],
      "name": "ExpiredTokensBurned",
      "type": "event"
    },
    {
      "anonymous": false,
      "inputs": [
        {
          "indexed": true,
          "internalType": "bytes32",
          "name": "name",
          "type": "bytes32"
        },
        {
          "indexed": true,
          "internalType": "address",
          "name": "extension",
          "type": "address"
        }
      ],
      "name": "ExtensionRegistered",
      "type": "event"
    },
    {
      "anonymous": false,
      "inputs": [
        {
          "indexed": true,
          "internalType": "bytes32",
          "name": "name",
          "type": "bytes32"
        },
        {
          "indexed": true,
          "internalType": "address",
          "name": "extension",
          "type": "address"
        }
      ],
      "name": "ExtensionRevoked",
      "type": "event"
    },
    {
      "anonymous": false,
      "inputs": [
        {
          "indexed": true,
          "internalType": "address",
          "name": "wallet",
          "type": "address"
        },
        {
          "indexed": false,
          "internalType": "uint256",
          "name": "amount",
          "type": "uint256"
        }
      ],
      "name": "FundsWithdrawn",
      "type": "event"
    },
    {
      "anonymous": false,
      "inputs": [
        {
          "indexed": true,
          "internalType": "address",
          "name": "account",
          "type": "address"
        }
      ],
      "name": "RemovedFromBlacklist",
      "type": "event"
    },
    {
      "anonymous": false,
      "inputs": [
        {
          "indexed": true,
          "internalType": "bytes32",
          "name": "role",
          "type": "bytes32"
        },
        {
          "indexed": true,
          "internalType": "bytes32",
          "name": "previousAdminRole",
          "type": "bytes32"
        },
        {
          "indexed": true,
          "internalType": "bytes32",
          "name": "newAdminRole",
          "type": "bytes32"
        }
      ],
      "name": "RoleAdminChanged",
      "type": "event"
    },
    {
      "anonymous": false,
      "inputs": [
        {
          "indexed": true,
          "internalType": "bytes32",
          "name": "role",
          "type": "bytes32"
        },
        {
          "indexed": true,
          "internalType": "address",
          "name": "account",
          "type": "address"
        },
        {
          "indexed": true,
          "internalType": "address",
          "name": "sender",
          "type": "address"
        }
      ],
      "name": "RoleGranted",
      "type": "event"
    },
    {
      "anonymous": false,
      "inputs": [
        {
          "indexed": true,
          "internalType": "bytes32",
          "name": "role",
          "type": "bytes32"
        },
        {
          "indexed": true,
          "internalType": "address",
          "name": "account",
          "type": "address"
        },
        {
          "indexed": true,
          "internalType": "address",
          "name": "sender",
          "type": "address"
        }
      ],
      "name": "RoleRevoked",
      "type": "event"
    },
    {
      "anonymous": false,
      "inputs": [
        {
          "indexed": true,
          "internalType": "uint256",
          "name": "id",
          "type": "uint256"
        },
        {
          "components": [
            {
              "internalType": "uint256",
              "name": "id",
              "type": "uint256"
            },
            {
              "internalType": "bool",
              "name": "active",
              "type": "bool"
            },
            {
              "internalType": "bool",
              "name": "burnable",
              "type": "bool"
            },
            {
              "internalType": "bool",
              "name": "transferable",
              "type": "bool"
            },
            {
              "internalType": "uint256",
              "name": "price",
              "type": "uint256"
            },
            {
              "internalType": "uint256",
              "name": "ttl",
              "type": "uint256"
            }
          ],
          "indexed": false,
          "internalType": "struct EVMAuthV2.TokenMetadata",
          "name": "metadata",
          "type": "tuple"
        }
      ],
      "name": "TokenMetadataCreated",
      "type": "event"
    },
    {
      "anonymous": false,
      "inputs": [
        {
          "indexed": true,
          "internalType": "uint256",
          "name": "id",
          "type": "uint256"
        },
        {
          "components": [
            {
              "internalType": "uint256",
              "name": "id",
              "type": "uint256"
            },
            {
              "internalType": "bool",
              "name": "active",
              "type": "bool"
            },
            {
              "internalType": "bool",
              "name": "burnable",
              "type": "bool"
            },
            {
              "internalType": "bool",
              "name": "transferable",
              "type": "bool"
            },
            {
              "internalType": "uint256",
              "name": "price",
              "type": "uint256"
            },
            {
              "internalType": "uint256",
              "name": "ttl",
              "type": "uint256"
            }
          ],
          "indexed": false,
          "internalType": "struct EVMAuthV2.TokenMetadata",
          "name": "oldMetadata",
          "type": "tuple"
        },
        {
          "components": [
            {
              "internalType": "uint256",
              "name": "id",
              "type": "uint256"
            },
            {
              "internalType": "bool",
              "name": "active",
              "type": "bool"
            },
            {
              "internalType": "bool",
              "name": "burnable",
              "type": "bool"
            },
            {
              "internalType": "bool",
              "name": "transferable",
              "type": "bool"
            },
            {
              "internalType": "uint256",
              "name": "price",
              "type": "uint256"
            },
            {
              "internalType": "uint256",
              "name": "ttl",
              "type": "uint256"
            }
          ],
          "indexed": false,
          "internalType": "struct EVMAuthV2.TokenMetadata",
          "name": "newMetadata",
          "type": "tuple"
        }
      ],
      "name": "TokenMetadataUpdated",
      "type": "event"
    },
    {
      "anonymous": false,
      "inputs": [
        {
          "indexed": true,
          "internalType": "address",
          "name": "account",
          "type": "address"
        },
        {
          "indexed": true,
          "internalType": "uint256",
          "name": "id",
          "type": "uint256"
        },
        {
          "indexed": false,
          "internalType": "uint256",
          "name": "amount",
          "type": "uint256"
        }
      ],
      "name": "TokenPurchased",
      "type": "event"
    },
    {
      "anonymous": false,
      "inputs": [
        {
          "indexed": true,
          "internalType": "address",
          "name": "operator",
          "type": "address"
        },
        {
          "indexed": true,
          "internalType": "address",
          "name": "from",
          "type": "address"
        },
        {
          "indexed": true,
          "internalType": "address",
          "name": "to",
          "type": "address"
        },
        {
          "indexed": false,
          "internalType": "uint256[]",
          "name": "ids",
          "type": "uint256[]"
        },
        {
          "indexed": false,
          "internalType": "uint256[]",
          "name": "values",
          "type": "uint256[]"
        }
      ],
      "name": "TransferBatch",
      "type": "event"
    },
    {
      "anonymous": false,
      "inputs": [
        {
          "indexed": true,
          "internalType": "address",
          "name": "operator",
          "type": "address"
        },
        {
          "indexed": true,
          "internalType": "address",
          "name": "from",
          "type": "address"
        },
        {
          "indexed": true,
          "internalType": "address",
          "name": "to",
          "type": "address"
        },
        {
          "indexed": false,
          "internalType": "uint256",
          "name": "id",
          "type": "uint256"
        },
        {
          "indexed": false,
          "internalType": "uint256",
          "name": "value",
          "type": "uint256"
        }
      ],
      "name": "TransferSingle",
      "type": "event"
    },
    {
      "anonymous": false,
      "inputs": [
        {
          "indexed": false,
          "internalType": "string",
          "name": "value",
          "type": "string"
        },
        {
          "indexed": true,
          "internalType": "uint256",
          "name": "id",
          "type": "uint256"
        }
      ],
      "name": "URI",
      "type": "event"
    },
    {
      "anonymous": false,
      "inputs": [
        {
          "indexed": true,
          "internalType": "address",
          "name": "oldWallet",
          "type": "address"
        },
        {
          "indexed": true,
          "internalType": "address",
          "name": "newWallet",
          "type": "address"
        }
      ],
      "name": "WalletChanged",
      "type": "event"
    },
    {
      "inputs": [],
      "name": "BLACKLIST_MANAGER_ROLE",
      "outputs": [
        {
          "internalType": "bytes32",
          "name": "",
          "type": "bytes32"
        }
      ],
      "stateMutability": "view",
      "type": "function"
    },
    {
      "inputs": [],
      "name": "DEFAULT_ADMIN_ROLE",
      "outputs": [
        {
          "internalType": "bytes32",
          "name": "",
          "type": "bytes32"
        }
      ],
      "stateMutability": "view",
      "type": "function"
    },
    {
      "inputs": [],
      "name": "FINANCE_MANAGER_ROLE",
      "outputs": [
        {
          "internalType": "bytes32",
          "name": "",
          "type": "bytes32"
        }
      ],
      "stateMutability": "view",
      "type": "function"
    },
    {
      "inputs": [],
      "name": "PROJECT_ID",
      "outputs": [
        {
          "internalType": "bytes32",
          "name": "",
          "type": "bytes32"
        }
      ],
      "stateMutability": "view",
      "type": "function"
    },
    {
      "inputs": [],
      "name": "TOKEN_BURNER_ROLE",
      "outputs": [
        {
          "internalType": "bytes32",
          "name": "",
          "type": "bytes32"
        }
      ],
      "stateMutability": "view",
      "type": "function"
    },
    {
      "inputs": [],
      "name": "TOKEN_MANAGER_ROLE",
      "outputs": [
        {
          "internalType": "bytes32",
          "name": "",
          "type": "bytes32"
        }
      ],
      "stateMutability": "view",
      "type": "function"
    },
    {
      "inputs": [],
      "name": "TOKEN_MINTER_ROLE",
      "outputs": [
        {
          "internalType": "bytes32",
          "name": "",
          "type": "bytes32"
        }
      ],
      "stateMutability": "view",
      "type": "function"
    },
    {
      "inputs": [],
      "name": "acceptDefaultAdminTransfer",
      "outputs": [],
      "stateMutability": "nonpayable",
      "type": "function"
    },
    {
      "inputs": [
        {
          "internalType": "uint256",
          "name": "id",
          "type": "uint256"
        }
      ],
      "name": "active",
      "outputs": [
        {
          "internalType": "bool",
          "name": "",
          "type": "bool"
        }
      ],
      "stateMutability": "view",
      "type": "function"
    },
    {
      "inputs": [
        {
          "internalType": "address[]",
          "name": "accounts",
          "type": "address[]"
        }
      ],
      "name": "addBatchToBlacklist",
      "outputs": [],
      "stateMutability": "nonpayable",
      "type": "function"
    },
    {
      "inputs": [
        {
          "internalType": "address",
          "name": "account",
          "type": "address"
        }
      ],
      "name": "addToBlacklist",
      "outputs": [],
      "stateMutability": "nonpayable",
      "type": "function"
    },
    {
      "inputs": [
        {
          "internalType": "address",
          "name": "",
          "type": "address"
        }
      ],
      "name": "authorizedExtensions",
      "outputs": [
        {
          "internalType": "bool",
          "name": "",
          "type": "bool"
        }
      ],
      "stateMutability": "view",
      "type": "function"
    },
    {
      "inputs": [
        {
          "internalType": "address",
          "name": "account",
          "type": "address"
        },
        {
          "internalType": "uint256",
          "name": "id",
          "type": "uint256"
        }
      ],
      "name": "balanceDetailsOf",
      "outputs": [
        {
          "components": [
            {
              "internalType": "uint256",
              "name": "balance",
              "type": "uint256"
            },
            {
              "internalType": "uint256",
              "name": "expiresAt",
              "type": "uint256"
            }
          ],
          "internalType": "struct EVMAuthExpiringERC1155.Group[]",
          "name": "",
          "type": "tuple[]"
        }
      ],
      "stateMutability": "view",
      "type": "function"
    },
    {
      "inputs": [
        {
          "internalType": "address",
          "name": "account",
          "type": "address"
        }
      ],
      "name": "balanceDetailsOfAll",
      "outputs": [
        {
          "components": [
            {
              "internalType": "uint256",
              "name": "balance",
              "type": "uint256"
            },
            {
              "internalType": "uint256",
              "name": "expiresAt",
              "type": "uint256"
            }
          ],
          "internalType": "struct EVMAuthExpiringERC1155.Group[][]",
          "name": "",
          "type": "tuple[][]"
        }
      ],
      "stateMutability": "view",
      "type": "function"
    },
    {
      "inputs": [
        {
          "internalType": "address[]",
          "name": "accounts",
          "type": "address[]"
        },
        {
          "internalType": "uint256[]",
          "name": "ids",
          "type": "uint256[]"
        }
      ],
      "name": "balanceDetailsOfBatch",
      "outputs": [
        {
          "components": [
            {
              "internalType": "uint256",
              "name": "balance",
              "type": "uint256"
            },
            {
              "internalType": "uint256",
              "name": "expiresAt",
              "type": "uint256"
            }
          ],
          "internalType": "struct EVMAuthExpiringERC1155.Group[][]",
          "name": "result",
          "type": "tuple[][]"
        }
      ],
      "stateMutability": "view",
      "type": "function"
    },
    {
      "inputs": [
        {
          "internalType": "address",
          "name": "account",
          "type": "address"
        },
        {
          "internalType": "uint256",
          "name": "id",
          "type": "uint256"
        }
      ],
      "name": "balanceOf",
      "outputs": [
        {
          "internalType": "uint256",
          "name": "",
          "type": "uint256"
        }
      ],
      "stateMutability": "view",
      "type": "function"
    },
    {
      "inputs": [
        {
          "internalType": "address",
          "name": "account",
          "type": "address"
        }
      ],
      "name": "balanceOfAll",
      "outputs": [
        {
          "internalType": "uint256[]",
          "name": "",
          "type": "uint256[]"
        }
      ],
      "stateMutability": "view",
      "type": "function"
    },
    {
      "inputs": [
        {
          "internalType": "address[]",
          "name": "accounts",
          "type": "address[]"
        },
        {
          "internalType": "uint256[]",
          "name": "ids",
          "type": "uint256[]"
        }
      ],
      "name": "balanceOfBatch",
      "outputs": [
        {
          "internalType": "uint256[]",
          "name": "",
          "type": "uint256[]"
        }
      ],
      "stateMutability": "view",
      "type": "function"
    },
    {
      "inputs": [
        {
          "internalType": "uint256",
          "name": "id",
          "type": "uint256"
        }
      ],
      "name": "baseMetadataOf",
      "outputs": [
        {
          "components": [
            {
              "internalType": "uint256",
              "name": "id",
              "type": "uint256"
            },
            {
              "internalType": "bool",
              "name": "active",
              "type": "bool"
            },
            {
              "internalType": "bool",
              "name": "burnable",
              "type": "bool"
            },
            {
              "internalType": "bool",
              "name": "transferable",
              "type": "bool"
            }
          ],
          "internalType": "struct EVMAuthBaseERC1155.BaseMetadata",
          "name": "",
          "type": "tuple"
        }
      ],
      "stateMutability": "view",
      "type": "function"
    },
    {
      "inputs": [],
      "name": "baseMetadataOfAll",
      "outputs": [
        {
          "components": [
            {
              "internalType": "uint256",
              "name": "id",
              "type": "uint256"
            },
            {
              "internalType": "bool",
              "name": "active",
              "type": "bool"
            },
            {
              "internalType": "bool",
              "name": "burnable",
              "type": "bool"
            },
            {
              "internalType": "bool",
              "name": "transferable",
              "type": "bool"
            }
          ],
          "internalType": "struct EVMAuthBaseERC1155.BaseMetadata[]",
          "name": "",
          "type": "tuple[]"
        }
      ],
      "stateMutability": "view",
      "type": "function"
    },
    {
      "inputs": [
        {
          "internalType": "uint256[]",
          "name": "ids",
          "type": "uint256[]"
        }
      ],
      "name": "baseMetadataOfBatch",
      "outputs": [
        {
          "components": [
            {
              "internalType": "uint256",
              "name": "id",
              "type": "uint256"
            },
            {
              "internalType": "bool",
              "name": "active",
              "type": "bool"
            },
            {
              "internalType": "bool",
              "name": "burnable",
              "type": "bool"
            },
            {
              "internalType": "bool",
              "name": "transferable",
              "type": "bool"
            }
          ],
          "internalType": "struct EVMAuthBaseERC1155.BaseMetadata[]",
          "name": "",
          "type": "tuple[]"
        }
      ],
      "stateMutability": "view",
      "type": "function"
    },
    {
      "inputs": [
        {
          "internalType": "address",
          "name": "newAdmin",
          "type": "address"
        }
      ],
      "name": "beginDefaultAdminTransfer",
      "outputs": [],
      "stateMutability": "nonpayable",
      "type": "function"
    },
    {
      "inputs": [
        {
          "internalType": "address",
          "name": "from",
          "type": "address"
        },
        {
          "internalType": "uint256",
          "name": "id",
          "type": "uint256"
        },
        {
          "internalType": "uint256",
          "name": "amount",
          "type": "uint256"
        }
      ],
      "name": "burn",
      "outputs": [],
      "stateMutability": "nonpayable",
      "type": "function"
    },
    {
      "inputs": [
        {
          "internalType": "address",
          "name": "from",
          "type": "address"
        },
        {
          "internalType": "uint256[]",
          "name": "ids",
          "type": "uint256[]"
        },
        {
          "internalType": "uint256[]",
          "name": "amounts",
          "type": "uint256[]"
        }
      ],
      "name": "burnBatch",
      "outputs": [],
      "stateMutability": "nonpayable",
      "type": "function"
    },
    {
      "inputs": [
        {
          "internalType": "uint256",
          "name": "id",
          "type": "uint256"
        }
      ],
      "name": "burnable",
      "outputs": [
        {
          "internalType": "bool",
          "name": "",
          "type": "bool"
        }
      ],
      "stateMutability": "view",
      "type": "function"
    },
    {
      "inputs": [],
      "name": "cancelDefaultAdminTransfer",
      "outputs": [],
      "stateMutability": "nonpayable",
      "type": "function"
    },
    {
      "inputs": [
        {
          "internalType": "uint48",
          "name": "newDelay",
          "type": "uint48"
        }
      ],
      "name": "changeDefaultAdminDelay",
      "outputs": [],
      "stateMutability": "nonpayable",
      "type": "function"
    },
    {
      "inputs": [],
      "name": "defaultAdmin",
      "outputs": [
        {
          "internalType": "address",
          "name": "",
          "type": "address"
        }
      ],
      "stateMutability": "view",
      "type": "function"
    },
    {
      "inputs": [],
      "name": "defaultAdminDelay",
      "outputs": [
        {
          "internalType": "uint48",
          "name": "",
          "type": "uint48"
        }
      ],
      "stateMutability": "view",
      "type": "function"
    },
    {
      "inputs": [],
      "name": "defaultAdminDelayIncreaseWait",
      "outputs": [
        {
          "internalType": "uint48",
          "name": "",
          "type": "uint48"
        }
      ],
      "stateMutability": "view",
      "type": "function"
    },
    {
      "inputs": [
        {
          "internalType": "uint256",
          "name": "id",
          "type": "uint256"
        }
      ],
      "name": "expirationFor",
      "outputs": [
        {
          "internalType": "uint256",
          "name": "",
          "type": "uint256"
        }
      ],
      "stateMutability": "view",
      "type": "function"
    },
    {
      "inputs": [
        {
          "internalType": "address",
          "name": "from",
          "type": "address"
        },
        {
          "internalType": "uint256",
          "name": "id",
          "type": "uint256"
        },
        {
          "internalType": "uint256",
          "name": "amount",
          "type": "uint256"
        }
      ],
      "name": "extBurn",
      "outputs": [],
      "stateMutability": "nonpayable",
      "type": "function"
    },
    {
      "inputs": [
        {
          "internalType": "address",
          "name": "to",
          "type": "address"
        },
        {
          "internalType": "uint256",
          "name": "id",
          "type": "uint256"
        },
        {
          "internalType": "uint256",
          "name": "amount",
          "type": "uint256"
        },
        {
          "internalType": "bytes",
          "name": "data",
          "type": "bytes"
        }
      ],
      "name": "extMint",
      "outputs": [],
      "stateMutability": "nonpayable",
      "type": "function"
    },
    {
      "inputs": [
        {
          "internalType": "uint256",
          "name": "id",
          "type": "uint256"
        },
        {
          "internalType": "bool",
          "name": "_active",
          "type": "bool"
        },
        {
          "internalType": "bool",
          "name": "_burnable",
          "type": "bool"
        },
        {
          "internalType": "bool",
          "name": "_transferable",
          "type": "bool"
        },
        {
          "internalType": "uint256",
          "name": "_price",
          "type": "uint256"
        },
        {
          "internalType": "uint256",
          "name": "_ttl",
          "type": "uint256"
        }
      ],
      "name": "extSetMetadata",
      "outputs": [],
      "stateMutability": "nonpayable",
      "type": "function"
    },
    {
      "inputs": [
        {
          "internalType": "bytes32",
          "name": "",
          "type": "bytes32"
        }
      ],
      "name": "extensions",
      "outputs": [
        {
          "internalType": "address",
          "name": "",
          "type": "address"
        }
      ],
      "stateMutability": "view",
      "type": "function"
    },
    {
      "inputs": [
        {
          "internalType": "uint256",
          "name": "id",
          "type": "uint256"
        }
      ],
      "name": "forSale",
      "outputs": [
        {
          "internalType": "bool",
          "name": "",
          "type": "bool"
        }
      ],
      "stateMutability": "view",
      "type": "function"
    },
    {
      "inputs": [
        {
          "internalType": "bytes32",
          "name": "role",
          "type": "bytes32"
        }
      ],
      "name": "getRoleAdmin",
      "outputs": [
        {
          "internalType": "bytes32",
          "name": "",
          "type": "bytes32"
        }
      ],
      "stateMutability": "view",
      "type": "function"
    },
    {
      "inputs": [
        {
          "internalType": "bytes32",
          "name": "role",
          "type": "bytes32"
        },
        {
          "internalType": "address",
          "name": "account",
          "type": "address"
        }
      ],
      "name": "grantRole",
      "outputs": [],
      "stateMutability": "nonpayable",
      "type": "function"
    },
    {
      "inputs": [
        {
          "internalType": "bytes32[]",
          "name": "roles",
          "type": "bytes32[]"
        },
        {
          "internalType": "address",
          "name": "account",
          "type": "address"
        }
      ],
      "name": "grantRoles",
      "outputs": [],
      "stateMutability": "nonpayable",
      "type": "function"
    },
    {
      "inputs": [
        {
          "internalType": "bytes32",
          "name": "role",
          "type": "bytes32"
        },
        {
          "internalType": "address",
          "name": "account",
          "type": "address"
        }
      ],
      "name": "hasRole",
      "outputs": [
        {
          "internalType": "bool",
          "name": "",
          "type": "bool"
        }
      ],
      "stateMutability": "view",
      "type": "function"
    },
    {
      "inputs": [
        {
          "internalType": "address",
          "name": "account",
          "type": "address"
        },
        {
          "internalType": "address",
          "name": "operator",
          "type": "address"
        }
      ],
      "name": "isApprovedForAll",
      "outputs": [
        {
          "internalType": "bool",
          "name": "",
          "type": "bool"
        }
      ],
      "stateMutability": "view",
      "type": "function"
    },
    {
      "inputs": [
        {
          "internalType": "address",
          "name": "extension",
          "type": "address"
        }
      ],
      "name": "isAuthorizedExtension",
      "outputs": [
        {
          "internalType": "bool",
          "name": "",
          "type": "bool"
        }
      ],
      "stateMutability": "view",
      "type": "function"
    },
    {
      "inputs": [
        {
          "internalType": "address",
          "name": "account",
          "type": "address"
        }
      ],
      "name": "isBlacklisted",
      "outputs": [
        {
          "internalType": "bool",
          "name": "",
          "type": "bool"
        }
      ],
      "stateMutability": "view",
      "type": "function"
    },
    {
      "inputs": [
        {
          "internalType": "address",
          "name": "to",
          "type": "address"
        },
        {
          "internalType": "uint256",
          "name": "id",
          "type": "uint256"
        },
        {
          "internalType": "uint256",
          "name": "amount",
          "type": "uint256"
        },
        {
          "internalType": "bytes",
          "name": "data",
          "type": "bytes"
        }
      ],
      "name": "issue",
      "outputs": [],
      "stateMutability": "nonpayable",
      "type": "function"
    },
    {
      "inputs": [
        {
          "internalType": "address",
          "name": "to",
          "type": "address"
        },
        {
          "internalType": "uint256[]",
          "name": "ids",
          "type": "uint256[]"
        },
        {
          "internalType": "uint256[]",
          "name": "amounts",
          "type": "uint256[]"
        },
        {
          "internalType": "bytes",
          "name": "data",
          "type": "bytes"
        }
      ],
      "name": "issueBatch",
      "outputs": [],
      "stateMutability": "nonpayable",
      "type": "function"
    },
    {
      "inputs": [
        {
          "internalType": "uint256",
          "name": "id",
          "type": "uint256"
        }
      ],
      "name": "metadataOf",
      "outputs": [
        {
          "components": [
            {
              "internalType": "uint256",
              "name": "id",
              "type": "uint256"
            },
            {
              "internalType": "bool",
              "name": "active",
              "type": "bool"
            },
            {
              "internalType": "bool",
              "name": "burnable",
              "type": "bool"
            },
            {
              "internalType": "bool",
              "name": "transferable",
              "type": "bool"
            },
            {
              "internalType": "uint256",
              "name": "price",
              "type": "uint256"
            },
            {
              "internalType": "uint256",
              "name": "ttl",
              "type": "uint256"
            }
          ],
          "internalType": "struct EVMAuthV2.TokenMetadata",
          "name": "",
          "type": "tuple"
        }
      ],
      "stateMutability": "view",
      "type": "function"
    },
    {
      "inputs": [],
      "name": "metadataOfAll",
      "outputs": [
        {
          "components": [
            {
              "internalType": "uint256",
              "name": "id",
              "type": "uint256"
            },
            {
              "internalType": "bool",
              "name": "active",
              "type": "bool"
            },
            {
              "internalType": "bool",
              "name": "burnable",
              "type": "bool"
            },
            {
              "internalType": "bool",
              "name": "transferable",
              "type": "bool"
            },
            {
              "internalType": "uint256",
              "name": "price",
              "type": "uint256"
            },
            {
              "internalType": "uint256",
              "name": "ttl",
              "type": "uint256"
            }
          ],
          "internalType": "struct EVMAuthV2.TokenMetadata[]",
          "name": "",
          "type": "tuple[]"
        }
      ],
      "stateMutability": "view",
      "type": "function"
    },
    {
      "inputs": [
        {
          "internalType": "uint256[]",
          "name": "ids",
          "type": "uint256[]"
        }
      ],
      "name": "metadataOfBatch",
      "outputs": [
        {
          "components": [
            {
              "internalType": "uint256",
              "name": "id",
              "type": "uint256"
            },
            {
              "internalType": "bool",
              "name": "active",
              "type": "bool"
            },
            {
              "internalType": "bool",
              "name": "burnable",
              "type": "bool"
            },
            {
              "internalType": "bool",
              "name": "transferable",
              "type": "bool"
            },
            {
              "internalType": "uint256",
              "name": "price",
              "type": "uint256"
            },
            {
              "internalType": "uint256",
              "name": "ttl",
              "type": "uint256"
            }
          ],
          "internalType": "struct EVMAuthV2.TokenMetadata[]",
          "name": "",
          "type": "tuple[]"
        }
      ],
      "stateMutability": "view",
      "type": "function"
    },
    {
      "inputs": [],
      "name": "owner",
      "outputs": [
        {
          "internalType": "address",
          "name": "",
          "type": "address"
        }
      ],
      "stateMutability": "view",
      "type": "function"
    },
    {
      "inputs": [],
      "name": "pendingDefaultAdmin",
      "outputs": [
        {
          "internalType": "address",
          "name": "newAdmin",
          "type": "address"
        },
        {
          "internalType": "uint48",
          "name": "schedule",
          "type": "uint48"
        }
      ],
      "stateMutability": "view",
      "type": "function"
    },
    {
      "inputs": [],
      "name": "pendingDefaultAdminDelay",
      "outputs": [
        {
          "internalType": "uint48",
          "name": "newDelay",
          "type": "uint48"
        },
        {
          "internalType": "uint48",
          "name": "schedule",
          "type": "uint48"
        }
      ],
      "stateMutability": "view",
      "type": "function"
    },
    {
      "inputs": [
        {
          "internalType": "uint256",
          "name": "id",
          "type": "uint256"
        }
      ],
      "name": "priceOf",
      "outputs": [
        {
          "internalType": "uint256",
          "name": "",
          "type": "uint256"
        }
      ],
      "stateMutability": "view",
      "type": "function"
    },
    {
      "inputs": [],
      "name": "priceOfAll",
      "outputs": [
        {
          "internalType": "uint256[]",
          "name": "result",
          "type": "uint256[]"
        }
      ],
      "stateMutability": "view",
      "type": "function"
    },
    {
      "inputs": [
        {
          "internalType": "uint256[]",
          "name": "ids",
          "type": "uint256[]"
        }
      ],
      "name": "priceOfBatch",
      "outputs": [
        {
          "internalType": "uint256[]",
          "name": "result",
          "type": "uint256[]"
        }
      ],
      "stateMutability": "view",
      "type": "function"
    },
    {
      "inputs": [
        {
          "internalType": "address",
          "name": "account",
          "type": "address"
        },
        {
          "internalType": "uint256",
          "name": "id",
          "type": "uint256"
        },
        {
          "internalType": "uint256",
          "name": "amount",
          "type": "uint256"
        }
      ],
      "name": "purchase",
      "outputs": [],
      "stateMutability": "payable",
      "type": "function"
    },
    {
      "inputs": [
        {
          "internalType": "bytes32",
          "name": "name",
          "type": "bytes32"
        },
        {
          "internalType": "address",
          "name": "extension",
          "type": "address"
        }
      ],
      "name": "registerExtension",
      "outputs": [],
      "stateMutability": "nonpayable",
      "type": "function"
    },
    {
      "inputs": [
        {
          "internalType": "address[]",
          "name": "accounts",
          "type": "address[]"
        }
      ],
      "name": "removeBatchFromBlacklist",
      "outputs": [],
      "stateMutability": "nonpayable",
      "type": "function"
    },
    {
      "inputs": [
        {
          "internalType": "address",
          "name": "account",
          "type": "address"
        }
      ],
      "name": "removeFromBlacklist",
      "outputs": [],
      "stateMutability": "nonpayable",
      "type": "function"
    },
    {
      "inputs": [
        {
          "internalType": "bytes32",
          "name": "role",
          "type": "bytes32"
        },
        {
          "internalType": "address",
          "name": "account",
          "type": "address"
        }
      ],
      "name": "renounceRole",
      "outputs": [],
      "stateMutability": "nonpayable",
      "type": "function"
    },
    {
      "inputs": [
        {
          "internalType": "bytes32",
          "name": "name",
          "type": "bytes32"
        }
      ],
      "name": "revokeExtension",
      "outputs": [],
      "stateMutability": "nonpayable",
      "type": "function"
    },
    {
      "inputs": [
        {
          "internalType": "bytes32",
          "name": "role",
          "type": "bytes32"
        },
        {
          "internalType": "address",
          "name": "account",
          "type": "address"
        }
      ],
      "name": "revokeRole",
      "outputs": [],
      "stateMutability": "nonpayable",
      "type": "function"
    },
    {
      "inputs": [
        {
          "internalType": "bytes32[]",
          "name": "roles",
          "type": "bytes32[]"
        },
        {
          "internalType": "address",
          "name": "account",
          "type": "address"
        }
      ],
      "name": "revokeRoles",
      "outputs": [],
      "stateMutability": "nonpayable",
      "type": "function"
    },
    {
      "inputs": [],
      "name": "rollbackDefaultAdminDelay",
      "outputs": [],
      "stateMutability": "nonpayable",
      "type": "function"
    },
    {
      "inputs": [
        {
          "internalType": "address",
          "name": "from",
          "type": "address"
        },
        {
          "internalType": "address",
          "name": "to",
          "type": "address"
        },
        {
          "internalType": "uint256[]",
          "name": "ids",
          "type": "uint256[]"
        },
        {
          "internalType": "uint256[]",
          "name": "values",
          "type": "uint256[]"
        },
        {
          "internalType": "bytes",
          "name": "data",
          "type": "bytes"
        }
      ],
      "name": "safeBatchTransferFrom",
      "outputs": [],
      "stateMutability": "nonpayable",
      "type": "function"
    },
    {
      "inputs": [
        {
          "internalType": "address",
          "name": "from",
          "type": "address"
        },
        {
          "internalType": "address",
          "name": "to",
          "type": "address"
        },
        {
          "internalType": "uint256",
          "name": "id",
          "type": "uint256"
        },
        {
          "internalType": "uint256",
          "name": "value",
          "type": "uint256"
        },
        {
          "internalType": "bytes",
          "name": "data",
          "type": "bytes"
        }
      ],
      "name": "safeTransferFrom",
      "outputs": [],
      "stateMutability": "nonpayable",
      "type": "function"
    },
    {
      "inputs": [
        {
          "internalType": "address",
          "name": "operator",
          "type": "address"
        },
        {
          "internalType": "bool",
          "name": "approved",
          "type": "bool"
        }
      ],
      "name": "setApprovalForAll",
      "outputs": [],
      "stateMutability": "nonpayable",
      "type": "function"
    },
    {
      "inputs": [
        {
          "internalType": "uint256",
          "name": "id",
          "type": "uint256"
        },
        {
          "internalType": "bool",
          "name": "_active",
          "type": "bool"
        },
        {
          "internalType": "bool",
          "name": "_burnable",
          "type": "bool"
        },
        {
          "internalType": "bool",
          "name": "_transferable",
          "type": "bool"
        }
      ],
      "name": "setBaseMetadata",
      "outputs": [],
      "stateMutability": "nonpayable",
      "type": "function"
    },
    {
      "inputs": [
        {
          "internalType": "uint256",
          "name": "id",
          "type": "uint256"
        },
        {
          "internalType": "bool",
          "name": "_active",
          "type": "bool"
        },
        {
          "internalType": "bool",
          "name": "_burnable",
          "type": "bool"
        },
        {
          "internalType": "bool",
          "name": "_transferable",
          "type": "bool"
        },
        {
          "internalType": "uint256",
          "name": "_price",
          "type": "uint256"
        },
        {
          "internalType": "uint256",
          "name": "_ttl",
          "type": "uint256"
        }
      ],
      "name": "setMetadata",
      "outputs": [],
      "stateMutability": "nonpayable",
      "type": "function"
    },
    {
      "inputs": [
        {
          "internalType": "uint256",
          "name": "id",
          "type": "uint256"
        },
        {
          "internalType": "uint256",
          "name": "price",
          "type": "uint256"
        }
      ],
      "name": "setPriceOf",
      "outputs": [],
      "stateMutability": "nonpayable",
      "type": "function"
    },
    {
      "inputs": [
        {
          "internalType": "uint256[]",
          "name": "ids",
          "type": "uint256[]"
        },
        {
          "internalType": "uint256[]",
          "name": "prices",
          "type": "uint256[]"
        }
      ],
      "name": "setPriceOfBatch",
      "outputs": [],
      "stateMutability": "nonpayable",
      "type": "function"
    },
    {
      "inputs": [
        {
          "internalType": "uint256",
          "name": "id",
          "type": "uint256"
        },
        {
          "internalType": "uint256",
          "name": "value",
          "type": "uint256"
        }
      ],
      "name": "setTTL",
      "outputs": [],
      "stateMutability": "nonpayable",
      "type": "function"
    },
    {
      "inputs": [
        {
          "internalType": "string",
          "name": "value",
          "type": "string"
        }
      ],
      "name": "setURI",
      "outputs": [],
      "stateMutability": "nonpayable",
      "type": "function"
    },
    {
      "inputs": [
        {
          "internalType": "address",
          "name": "value",
          "type": "address"
        }
      ],
      "name": "setWallet",
      "outputs": [],
      "stateMutability": "nonpayable",
      "type": "function"
    },
    {
      "inputs": [
        {
          "internalType": "bytes4",
          "name": "interfaceId",
          "type": "bytes4"
        }
      ],
      "name": "supportsInterface",
      "outputs": [
        {
          "internalType": "bool",
          "name": "",
          "type": "bool"
        }
      ],
      "stateMutability": "view",
      "type": "function"
    },
    {
      "inputs": [
        {
          "internalType": "uint256",
          "name": "id",
          "type": "uint256"
        }
      ],
      "name": "transferable",
      "outputs": [
        {
          "internalType": "bool",
          "name": "",
          "type": "bool"
        }
      ],
      "stateMutability": "view",
      "type": "function"
    },
    {
      "inputs": [
        {
          "internalType": "uint256",
          "name": "id",
          "type": "uint256"
        }
      ],
      "name": "ttlOf",
      "outputs": [
        {
          "internalType": "uint256",
          "name": "",
          "type": "uint256"
        }
      ],
      "stateMutability": "view",
      "type": "function"
    },
    {
      "inputs": [],
      "name": "ttlOfAll",
      "outputs": [
        {
          "internalType": "uint256[]",
          "name": "",
          "type": "uint256[]"
        }
      ],
      "stateMutability": "view",
      "type": "function"
    },
    {
      "inputs": [
        {
          "internalType": "uint256[]",
          "name": "ids",
          "type": "uint256[]"
        }
      ],
      "name": "ttlOfBatch",
      "outputs": [
        {
          "internalType": "uint256[]",
          "name": "",
          "type": "uint256[]"
        }
      ],
      "stateMutability": "view",
      "type": "function"
    },
    {
      "inputs": [
        {
          "internalType": "uint256",
          "name": "",
          "type": "uint256"
        }
      ],
      "name": "uri",
      "outputs": [
        {
          "internalType": "string",
          "name": "",
          "type": "string"
        }
      ],
      "stateMutability": "view",
      "type": "function"
    },
    {
      "inputs": [],
      "name": "wallet",
      "outputs": [
        {
          "internalType": "address",
          "name": "",
          "type": "address"
        }
      ],
      "stateMutability": "view",
      "type": "function"
    },
    {
      "inputs": [],
      "name": "withdraw",
      "outputs": [],
      "stateMutability": "payable",
      "type": "function"
    }
  ],
  "bytecode": "0x60a060405260006009553480156200001657600080fd5b50604051620065813803806200658183398101604081905262000039916200041c565b8484848484848484848484848484848181818186620000588162000215565b506001600160a01b0381166200008857604051636116401160e11b81526000600482015260240160405180910390fd5b600480546001600160d01b0316600160d01b65ffffffffffff851602179055620000b460008262000227565b505050620000e97ff988e4fb62b8e14f4820fed03192306ddf4d7dbfa215595ba1c6ba4b76b369ee826200022760201b60201c565b5050600160075550604051620001069086908690602001620004ef565b60408051601f1981840301815291905280516020909101206080526200014d7f74f7a545c65c11839a48d7453738b30c295408df2d944516167556759ddc6d068262000227565b506200017a7fb3bb6029312d1001076133d40b75b7eca92ba54e4963b3ce24e1486a3d5a038b8262000227565b50620001a77f02358c16c6ece4d564dd98c8400ef2ce02ec4ed5a3d53421ef64678a57ac51018262000227565b505050505050620001df7f572f022558b687eed59080237cb7778171198110a24741b57d6ed3432df881fc826200022760201b60201c565b50600a80546001600160a01b0319166001600160a01b0392909216919091179055506200067d9c50505050505050505050505050565b6002620002238282620005b1565b5050565b60008262000288576000620002446005546001600160a01b031690565b6001600160a01b0316146200026c57604051631fe1e13d60e11b815260040160405180910390fd5b600580546001600160a01b0319166001600160a01b0384161790555b6200029483836200029d565b90505b92915050565b60008281526003602090815260408083206001600160a01b038516845290915281205460ff16620003465760008381526003602090815260408083206001600160a01b03861684529091529020805460ff19166001179055620002fd3390565b6001600160a01b0316826001600160a01b0316847f2f8788117e7eff1d82e926ec794901d17c78024a50270940304540a733656f0d60405160405180910390a450600162000297565b50600062000297565b634e487b7160e01b600052604160045260246000fd5b60005b838110156200038257818101518382015260200162000368565b50506000910152565b600082601f8301126200039d57600080fd5b81516001600160401b0380821115620003ba57620003ba6200034f565b604051601f8301601f19908116603f01168101908282118183101715620003e557620003e56200034f565b81604052838152866020858801011115620003ff57600080fd5b6200041284602083016020890162000365565b9695505050505050565b600080600080600060a086880312156200043557600080fd5b85516001600160401b03808211156200044d57600080fd5b6200045b89838a016200038b565b965060208801519150808211156200047257600080fd5b6200048089838a016200038b565b955060408801519150808211156200049757600080fd5b50620004a6888289016200038b565b935050606086015165ffffffffffff81168114620004c357600080fd5b60808701519092506001600160a01b0381168114620004e157600080fd5b809150509295509295909350565b600083516200050381846020880162000365565b8351908301906200051981836020880162000365565b01949350505050565b600181811c908216806200053757607f821691505b6020821081036200055857634e487b7160e01b600052602260045260246000fd5b50919050565b601f821115620005ac57600081815260208120601f850160051c81016020861015620005875750805b601f850160051c820191505b81811015620005a85782815560010162000593565b5050505b505050565b81516001600160401b03811115620005cd57620005cd6200034f565b620005e581620005de845462000522565b846200055e565b602080601f8311600181146200061d5760008415620006045750858301515b600019600386901b1c1916600185901b178555620005a8565b600085815260208120601f198616915b828110156200064e578886015182559484019460019091019084016200062d565b50858210156200066d5787850151600019600388901b60f8161c191681555b5050505050600190811b01905550565b608051615ee86200069960003960006108cc0152615ee86000f3fe60806040526004361061047c5760003560e01c80638a780f6511610255578063cefc142911610144578063ea9b5e15116100c1578063fba49e4f11610085578063fba49e4f14610ed5578063fcd7627e14610ef5578063fe575a8714610f15578063fe992c9814610f35578063feb17fda14610f55578063fefbd87514610f6a57600080fd5b8063ea9b5e1514610e1c578063f242432a14610e3c578063f4c3b4d714610e5c578063f5298aca14610e95578063f6ad20e014610eb557600080fd5b8063dc3e82d311610108578063dc3e82d314610d6f578063dd7a346214610d9c578063deaa59df14610dbc578063e6c26d1314610ddc578063e985e9c514610dfc57600080fd5b8063cefc142914610cca578063cf6eefb714610cdf578063d122e68114610d1a578063d547741f14610d3a578063d602b9fd14610d5a57600080fd5b8063a22cb465116101d2578063c19a714711610196578063c19a714714610c49578063c2840e6014610c69578063c345ec3314610c8b578063ca33ec3514610ca0578063cc8463c814610cb557600080fd5b8063a22cb46514610b83578063aaa070ca14610ba3578063b84d73a414610bc3578063b9186d7d14610be3578063bf4f135d14610c1057600080fd5b8063988360a311610219578063988360a314610ada57806398968f1514610afa5780639c407ff014610b0d578063a1eda53c14610b3a578063a217fddf14610b6e57600080fd5b80638a780f6514610a365780638da5cb5b14610a585780638f427f4f14610a6d57806390756fcb14610a9a57806391d1485414610aba57600080fd5b80633e2efecb116103715780635961c8c8116102ee5780636ce81c17116102b25780636ce81c171461098e5780637cfb384d146109ae578063800ed2a3146109ce5780638033d581146109ee57806384ef8ffc14610a2157600080fd5b80635961c8c8146108ee578063634e93da1461090e578063649a5ec71461092e57806364a5e39d1461094e5780636b20c4541461096e57600080fd5b8063512b336d11610335578063512b336d14610829578063521eb2731461084b578063537df3b61461087857806353e26d9e1461089857806356539f39146108ba57600080fd5b80633e2efecb1461076f578063410b2424146107a757806344337ea1146107c95780634e1273f4146107e957806350ba3c4d1461080957600080fd5b80630ef7cc8e116103ff5780632f2ff15d116103c35780632f2ff15d146106d757806336568abe146106f7578063391d8dbe146107175780633ccfd60b146107475780633d40bf361461074f57600080fd5b80630ef7cc8e1461060d5780630f5010591461063a578063248a9ca3146106675780632831f2f4146106975780632eb2c2d6146106b757600080fd5b8063055ef93c11610446578063055ef93c1461054f5780630aa6220b1461057c5780630e3cc22b146105915780630e543d74146105b35780630e89341c146105e057600080fd5b80623b7d5114610481578062fdd58e146104a357806301ffc9a7146104d6578063022d63fb1461050657806302fe53051461052f575b600080fd5b34801561048d57600080fd5b506104a161049c366004614ec5565b610fa0565b005b3480156104af57600080fd5b506104c36104be366004614f5d565b610fef565b6040519081526020015b60405180910390f35b3480156104e257600080fd5b506104f66104f1366004614f9d565b6110a7565b60405190151581526020016104cd565b34801561051257600080fd5b50620697805b60405165ffffffffffff90911681526020016104cd565b34801561053b57600080fd5b506104a161054a366004614fba565b6110b2565b34801561055b57600080fd5b5061056f61056a36600461500a565b6110f2565b6040516104cd919061507e565b34801561058857600080fd5b506104a1611292565b34801561059d57600080fd5b506105a66112a5565b6040516104cd91906150f8565b3480156105bf57600080fd5b506105d36105ce36600461500a565b611395565b6040516104cd9190615175565b3480156105ec57600080fd5b506106006105fb366004615188565b611444565b6040516104cd91906151e7565b34801561061957600080fd5b5061062d610628366004615188565b6114d8565b6040516104cd91906151fa565b34801561064657600080fd5b5061065a610655366004614f5d565b61154f565b6040516104cd9190615243565b34801561067357600080fd5b506104c3610682366004615188565b60009081526003602052604090206001015490565b3480156106a357600080fd5b506104f66106b2366004615188565b611562565b3480156106c357600080fd5b506104a16106d2366004615256565b611593565b3480156106e357600080fd5b506104a16106f23660046152ff565b6115a7565b34801561070357600080fd5b506104a16107123660046152ff565b6115d3565b34801561072357600080fd5b506104f661073236600461532b565b600f6020526000908152604090205460ff1681565b6104a1611685565b34801561075b57600080fd5b506104a161076a366004615356565b6117e2565b34801561077b57600080fd5b506104f661078a366004615188565b600090815260086020526040902060010154610100900460ff1690565b3480156107b357600080fd5b506104c3600080516020615e3383398151915281565b3480156107d557600080fd5b506104a16107e436600461532b565b61190b565b3480156107f557600080fd5b506105d3610804366004615417565b611a2b565b34801561081557600080fd5b506104a161082436600461547a565b611b14565b34801561083557600080fd5b506104c3600080516020615e9383398151915281565b34801561085757600080fd5b50600a5461086b906001600160a01b031681565b6040516104cd91906154c7565b34801561088457600080fd5b506104a161089336600461532b565b611c32565b3480156108a457600080fd5b506104c3600080516020615e5383398151915281565b3480156108c657600080fd5b506104c37f000000000000000000000000000000000000000000000000000000000000000081565b3480156108fa57600080fd5b506104a16109093660046152ff565b611c94565b34801561091a57600080fd5b506104a161092936600461532b565b611d7d565b34801561093a57600080fd5b506104a16109493660046154db565b611d91565b34801561095a57600080fd5b506104a1610969366004615503565b611da5565b34801561097a57600080fd5b506104a1610989366004615557565b611dff565b34801561099a57600080fd5b506105a66109a936600461500a565b611e43565b3480156109ba57600080fd5b506104a16109c93660046155ca565b611f55565b3480156109da57600080fd5b506104c36109e9366004615188565b611fd5565b3480156109fa57600080fd5b506104f6610a09366004615188565b60009081526008602052604090206001015460ff1690565b348015610a2d57600080fd5b5061086b612010565b348015610a4257600080fd5b506104c3600080516020615e7383398151915281565b348015610a6457600080fd5b5061086b61201f565b348015610a7957600080fd5b50610a8d610a88366004615188565b61202e565b6040516104cd91906155fe565b348015610aa657600080fd5b506104a1610ab536600461560c565b61208b565b348015610ac657600080fd5b506104f6610ad53660046152ff565b6120e4565b348015610ae657600080fd5b506104a1610af536600461563f565b61210f565b6104a1610b0836600461560c565b61217f565b348015610b1957600080fd5b50610b2d610b2836600461532b565b6123d4565b6040516104cd91906156e1565b348015610b4657600080fd5b50610b4f61246f565b6040805165ffffffffffff9384168152929091166020830152016104cd565b348015610b7a57600080fd5b506104c3600081565b348015610b8f57600080fd5b506104a1610b9e366004615743565b6124c3565b348015610baf57600080fd5b506104a1610bbe3660046155ca565b61251a565b348015610bcf57600080fd5b50610b2d610bde3660046157b8565b61259a565b348015610bef57600080fd5b506104c3610bfe366004615188565b6000908152600b602052604090205490565b348015610c1c57600080fd5b506104f6610c2b36600461532b565b6001600160a01b03166000908152600f602052604090205460ff1690565b348015610c5557600080fd5b506104a1610c64366004615188565b612695565b348015610c7557600080fd5b506104c3600080516020615e1383398151915281565b348015610c9757600080fd5b506105d3612780565b348015610cac57600080fd5b506105d3612817565b348015610cc157600080fd5b506105186128b0565b348015610cd657600080fd5b506104a161290f565b348015610ceb57600080fd5b50610cf461294f565b604080516001600160a01b03909316835265ffffffffffff9091166020830152016104cd565b348015610d2657600080fd5b506104a1610d35366004615823565b612970565b348015610d4657600080fd5b506104a1610d553660046152ff565b612a2f565b348015610d6657600080fd5b506104a1612a57565b348015610d7b57600080fd5b506104c3610d8a366004615188565b6000908152600d602052604090205490565b348015610da857600080fd5b506104a1610db7366004615356565b612a6a565b348015610dc857600080fd5b506104a1610dd736600461532b565b612af0565b348015610de857600080fd5b506104a1610df7366004615503565b612bc6565b348015610e0857600080fd5b506104f6610e17366004615845565b612bde565b348015610e2857600080fd5b506104a1610e3736600461586f565b612c33565b348015610e4857600080fd5b506104a1610e573660046158a5565b612d47565b348015610e6857600080fd5b506104f6610e77366004615188565b60009081526008602052604090206001015462010000900460ff1690565b348015610ea157600080fd5b506104a1610eb036600461560c565b612d54565b348015610ec157600080fd5b506105d3610ed036600461500a565b612d6c565b348015610ee157600080fd5b506104a1610ef0366004615823565b612e1d565b348015610f0157600080fd5b506104a1610f1036600461563f565b612e89565b348015610f2157600080fd5b506104f6610f3036600461532b565b612f20565b348015610f4157600080fd5b506105d3610f5036600461532b565b612f67565b348015610f6157600080fd5b5061056f612ff7565b348015610f7657600080fd5b5061086b610f85366004615188565b600e602052600090815260409020546001600160a01b031681565b610fb8600080516020615e93833981519152336120e4565b610fdd5760405162461bcd60e51b8152600401610fd490615909565b60405180910390fd5b610fe984848484613195565b50505050565b6001600160a01b0382166000908152600c6020908152604080832084845290915281208161101d85856131cd565b90504260005b835481101561109a578184828154811061103f5761103f615936565b906000526020600020906002020160010154116110885783818154811061106857611068615936565b906000526020600020906002020160000154836110859190615962565b92505b8061109281615975565b915050611023565b5090925050505b92915050565b60006110a1826131f2565b6110ca600080516020615e13833981519152336120e4565b6110e65760405162461bcd60e51b8152600401610fd49061598e565b6110ef81613217565b50565b6060600082516001600160401b0381111561110f5761110f614d7a565b60405190808252806020026020018201604052801561114857816020015b611135614cfb565b81526020019060019003908161112d5790505b509050600061115684611e43565b9050600061116385611395565b9050600061117086612d6c565b905060005b8651811015611287576040518060c0016040528085838151811061119b5761119b615936565b60200260200101516000015181526020018583815181106111be576111be615936565b602002602001015160200151151581526020018583815181106111e3576111e3615936565b6020026020010151604001511515815260200185838151811061120857611208615936565b6020026020010151606001511515815260200184838151811061122d5761122d615936565b6020026020010151815260200183838151811061124c5761124c615936565b602002602001015181525085828151811061126957611269615936565b6020026020010181905250808061127f90615975565b915050611175565b509295945050505050565b600061129d81613223565b6110ef61322d565b606060006009546001600160401b038111156112c3576112c3614d7a565b6040519080825280602002602001820160405280156112fc57816020015b6112e9614d37565b8152602001906001900390816112e15790505b50905060005b60095481101561138f5760008181526008602090815260409182902082516080810184528154815260019091015460ff80821615159383019390935261010081048316151593820193909352620100009092041615156060820152825183908390811061137157611371615936565b6020026020010181905250808061138790615975565b915050611302565b50919050565b606081516001600160401b038111156113b0576113b0614d7a565b6040519080825280602002602001820160405280156113d9578160200160208202803683370190505b50905060005b825181101561138f57600b60008483815181106113fe576113fe615936565b602002602001015181526020019081526020016000205482828151811061142757611427615936565b60209081029190910101528061143c81615975565b9150506113df565b606060028054611453906159c5565b80601f016020809104026020016040519081016040528092919081815260200182805461147f906159c5565b80156114cc5780601f106114a1576101008083540402835291602001916114cc565b820191906000526020600020905b8154815290600101906020018083116114af57829003601f168201915b50505050509050919050565b6114e0614cfb565b60006114eb8361202e565b6000938452600b6020908152604080862054600d83529581902054815160c081018352845181528484015115159381019390935283820151151591830191909152606092830151151592820192909252608081019490945260a08401525090919050565b606061155b8383613238565b9392505050565b60008181526008602052604081206001015460ff1680156110a15750506000908152600b6020526040902054151590565b6115a08585858585613496565b5050505050565b816115c557604051631fe1e13d60e11b815260040160405180910390fd5b6115cf82826134fd565b5050565b811580156115f957506115e4612010565b6001600160a01b0316816001600160a01b0316145b1561167b5760008061160961294f565b90925090506001600160a01b03821615158061162b575065ffffffffffff8116155b8061163e57504265ffffffffffff821610155b15611666576040516319ca5ebb60e01b815265ffffffffffff82166004820152602401610fd4565b50506004805465ffffffffffff60a01b191690555b6115cf8282613522565b61168d613555565b600a546001600160a01b0316806116b65760405162461bcd60e51b8152600401610fd4906159f9565b306001600160a01b038216036116de5760405162461bcd60e51b8152600401610fd4906159f9565b6116f6600080516020615e73833981519152336120e4565b6117125760405162461bcd60e51b8152600401610fd490615a29565b47806117575760405162461bcd60e51b81526020600482015260146024820152734e6f2066756e647320746f20776974686472617760601b6044820152606401610fd4565b600a546040516001600160a01b039091169082156108fc029083906000818181858888f19350505050158015611791573d6000803e3d6000fd5b50600a546040518281526001600160a01b03909116907feaff4b37086828766ad3268786972c0cd24259d4c87a80f9d3963a3c3d999b0d9060200160405180910390a250506117e06001600755565b565b6117fa600080516020615e13833981519152336120e4565b806118145750336000908152600f602052604090205460ff165b6118305760405162461bcd60e51b8152600401610fd49061598e565b600954861061183d614cfb565b811561184f5761184c886114d8565b90505b61185b88888888611b14565b6118658885612e1d565b8515611875576118758884612970565b6000611880896114d8565b905082156118c757887f2bca4855835c92383e0b5e326bda6e6a0563526cc9b2dc1a447ce32ab955547e83836040516118ba929190615a60565b60405180910390a2611900565b887fe543f2a83723d0e2ec9719bacba60a0e9a35f3e9ee224368227c5306b9b9f93d826040516118f791906151fa565b60405180910390a25b505050505050505050565b600080516020615e3383398151915261192381613223565b61193b600080516020615e33833981519152836120e4565b156119885760405162461bcd60e51b815260206004820152601e60248201527f4163636f756e74206973206120626c61636b6c697374206d616e6167657200006044820152606401610fd4565b6001600160a01b0382166119de5760405162461bcd60e51b815260206004820152601b60248201527f4163636f756e7420697320746865207a65726f206164647265737300000000006044820152606401610fd4565b6001600160a01b038216600081815260066020526040808220805460ff19166001179055517ff9b68063b051b82957fa193585681240904fed808db8b30fc5a2d2202c6ed6279190a25050565b60608151835114611a4e5760405162461bcd60e51b8152600401610fd490615a7c565b600083516001600160401b03811115611a6957611a69614d7a565b604051908082528060200260200182016040528015611a92578160200160208202803683370190505b50905060005b8451811015611b0c57611add858281518110611ab657611ab6615936565b6020026020010151858381518110611ad057611ad0615936565b6020026020010151610fef565b828281518110611aef57611aef615936565b602090810291909101015280611b0481615975565b915050611a98565b509392505050565b611b2c600080516020615e13833981519152336120e4565b611b485760405162461bcd60e51b8152600401610fd49061598e565b600954841115611b8d5760405162461bcd60e51b815260206004820152601060248201526f125b9d985b1a59081d1bdad95b88125160821b6044820152606401610fd4565b6040805160808101825285815284151560208083019182528515158385019081528515156060850190815260008a815260089093529490912092518355905160019092018054915193511515620100000262ff0000199415156101000261ff00199415159490941661ffff199093169290921792909217929092169190911790556009548403610fe95760098054906000611c2783615975565b919050555050505050565b600080516020615e33833981519152611c4a81613223565b6001600160a01b038216600081815260066020526040808220805460ff19169055517f2b6bf71b58b3583add364b3d9060ebf8019650f65f5be35f5464b9cb3e4ba2d49190a25050565b611c9f6000336120e4565b611cbb5760405162461bcd60e51b8152600401610fd490615aa5565b6001600160a01b038116611d0d5760405162461bcd60e51b8152602060048201526019602482015278496e76616c696420657874656e73696f6e206164647265737360381b6044820152606401610fd4565b6000828152600e6020908152604080832080546001600160a01b0319166001600160a01b038616908117909155808452600f909252808320805460ff1916600117905551909184917f2b5203544b0fa2eafb37a62519eaa89b30154c251be795b6247d028225ec208d9190a35050565b6000611d8881613223565b6115cf8261357f565b6000611d9c81613223565b6115cf826135f2565b611dbd600080516020615e93833981519152336120e4565b80611dd75750336000908152600f602052604090205460ff165b611df35760405162461bcd60e51b8152600401610fd490615909565b610fe984848484613662565b611e17600080516020615e53833981519152336120e4565b611e335760405162461bcd60e51b8152600401610fd490615ad1565b611e3e8383836136ab565b505050565b6060600082516001600160401b03811115611e6057611e60614d7a565b604051908082528060200260200182016040528015611e9957816020015b611e86614d37565b815260200190600190039081611e7e5790505b50905060005b8351811015611f4e5760086000858381518110611ebe57611ebe615936565b602090810291909101810151825281810192909252604090810160002081516080810183528154815260019091015460ff8082161515948301949094526101008104841615159282019290925262010000909104909116151560608201528251839083908110611f3057611f30615936565b60200260200101819052508080611f4690615975565b915050611e9f565b5092915050565b600080516020615e33833981519152611f6d81613223565b60005b8251811015611e3e57600160066000858481518110611f9157611f91615936565b6020908102919091018101516001600160a01b03168252810191909152604001600020805460ff191691151591909117905580611fcd81615975565b915050611f70565b6000818152600d602052604081205415612007576000828152600d60205260409020546120029042615afe565b6110a1565b60001992915050565b6005546001600160a01b031690565b6000612029612010565b905090565b612036614d37565b5060009081526008602090815260409182902082516080810184528154815260019091015460ff8082161515938301939093526101008104831615159382019390935262010000909204161515606082015290565b6120a3600080516020615e53833981519152336120e4565b806120bd5750336000908152600f602052604090205460ff165b6120d95760405162461bcd60e51b8152600401610fd490615ad1565b611e3e8383836136f1565b60009182526003602090815260408084206001600160a01b0393909316845291905290205460ff1690565b600061211a81613223565b60005b8351811015610fe9576000801b84828151811061213c5761213c615936565b6020026020010151031561216d5761216d84828151811061215f5761215f615936565b602002602001015184612a2f565b8061217781615975565b91505061211d565b612187613555565b8261219181612f20565b156121ae5760405162461bcd60e51b8152600401610fd490615b11565b6121b733612f20565b156121d45760405162461bcd60e51b8152600401610fd490615b41565b826121de81611562565b6122225760405162461bcd60e51b8152602060048201526015602482015274546f6b656e206973206e6f7420666f722073616c6560581b6044820152606401610fd4565b600a546001600160a01b03168061224b5760405162461bcd60e51b8152600401610fd4906159f9565b306001600160a01b038216036122735760405162461bcd60e51b8152600401610fd4906159f9565b6001600160a01b038616612285573395505b6000858152600b602052604081205461229f908690615b70565b9050803410156122e85760405162461bcd60e51b8152602060048201526014602482015273125b9cdd59999a58da595b9d081c185e5b595b9d60621b6044820152606401610fd4565b60006122f48234615962565b9050801561232b57604051339082156108fc029083906000818181858888f19350505050158015612329573d6000803e3d6000fd5b505b600a546040516001600160a01b039091169083156108fc029084906000818181858888f19350505050158015612365573d6000803e3d6000fd5b5061238188888860405180602001604052806000815250613662565b86886001600160a01b03167f3ceffd410054fdaed44f598ff5c1fb450658778e2241892da4aa646979dee617886040516123bd91815260200190565b60405180910390a35050505050611e3e6001600755565b606060006009546001600160401b038111156123f2576123f2614d7a565b60405190808252806020026020018201604052801561242557816020015b60608152602001906001900390816124105790505b50905060005b600954811015611f4e5761243f8482613238565b82828151811061245157612451615936565b6020026020010181905250808061246790615975565b91505061242b565b600554600090600160d01b900465ffffffffffff16801515801561249b57504265ffffffffffff821610155b6124a7576000806124bb565b600554600160a01b900465ffffffffffff16815b915091509091565b816124cd81612f20565b156124ea5760405162461bcd60e51b8152600401610fd490615b11565b6124f333612f20565b156125105760405162461bcd60e51b8152600401610fd490615b41565b611e3e8383613748565b600080516020615e3383398151915261253281613223565b60005b8251811015611e3e5760006006600085848151811061255657612556615936565b6020908102919091018101516001600160a01b03168252810191909152604001600020805460ff19169115159190911790558061259281615975565b915050612535565b60608382146125bb5760405162461bcd60e51b8152600401610fd490615a7c565b836001600160401b038111156125d3576125d3614d7a565b60405190808252806020026020018201604052801561260657816020015b60608152602001906001900390816125f15790505b50905060005b8481101561268c5761265c86868381811061262957612629615936565b905060200201602081019061263e919061532b565b85858481811061265057612650615936565b90506020020135613238565b82828151811061266e5761266e615936565b6020026020010181905250808061268490615975565b91505061260c565b50949350505050565b6126a06000336120e4565b6126bc5760405162461bcd60e51b8152600401610fd490615aa5565b6000818152600e60205260409020546001600160a01b0316806127175760405162461bcd60e51b8152602060048201526013602482015272115e1d195b9cda5bdb881b9bdd08199bdd5b99606a1b6044820152606401610fd4565b6000828152600e6020908152604080832080546001600160a01b03191690556001600160a01b038416808452600f909252808320805460ff1916905551909184917f49c43ed6046de2087d001eeee6b21779a6d28c0f89b5897089487ffd9f40120b9190a35050565b606060006009546001600160401b0381111561279e5761279e614d7a565b6040519080825280602002602001820160405280156127c7578160200160208202803683370190505b50905060005b60095481101561138f576000818152600d602052604090205482518390839081106127fa576127fa615936565b60209081029190910101528061280f81615975565b9150506127cd565b60606009546001600160401b0381111561283357612833614d7a565b60405190808252806020026020018201604052801561285c578160200160208202803683370190505b50905060005b6009548110156128ac576000818152600b6020526040902054825183908390811061288f5761288f615936565b6020908102919091010152806128a481615975565b915050612862565b5090565b600554600090600160d01b900465ffffffffffff1680151580156128db57504265ffffffffffff8216105b6128f657600454600160d01b900465ffffffffffff16612909565b600554600160a01b900465ffffffffffff165b91505090565b600061291961294f565b509050336001600160a01b038216146129475733604051636116401160e11b8152600401610fd491906154c7565b6110ef613753565b6004546001600160a01b03811691600160a01b90910465ffffffffffff1690565b612988600080516020615e13833981519152336120e4565b6129a45760405162461bcd60e51b8152600401610fd49061598e565b600082815260086020526040902060010154610100900460ff16612a1d5760405162461bcd60e51b815260206004820152602a60248201527f546f6b656e206973206e6f74206275726e61626c652c20736f2069742063616e6044820152696e6f742065787069726560b01b6064820152608401610fd4565b6000918252600d602052604090912055565b81612a4d57604051631fe1e13d60e11b815260040160405180910390fd5b6115cf82826137e2565b6000612a6281613223565b6110ef613807565b612a82600080516020615e13833981519152336120e4565b612a9e5760405162461bcd60e51b8152600401610fd49061598e565b6009548610612aab614cfb565b8115612abd57612aba886114d8565b90505b612ac988888888611b14565b612ae1600080516020615e73833981519152336120e4565b15611865576118658885612e1d565b806001600160a01b038116612b175760405162461bcd60e51b8152600401610fd4906159f9565b306001600160a01b03821603612b3f5760405162461bcd60e51b8152600401610fd4906159f9565b612b57600080516020615e73833981519152336120e4565b612b735760405162461bcd60e51b8152600401610fd490615a29565b600a80546001600160a01b038481166001600160a01b0319831681179093556040519116919082907f64cbbd34f3faebfd04eff088ae5832f6d254dbb81820b0055e9d85c534aa700d90600090a3505050565b611dd7600080516020615e93833981519152336120e4565b6000612be983612f20565b80612bf85750612bf882612f20565b15612c05575060006110a1565b6001600160a01b0380841660009081526001602090815260408083209386168352929052205460ff1661155b565b612c3c33612f20565b15612c595760405162461bcd60e51b8152600401610fd490615b41565b612c71600080516020615e73833981519152336120e4565b612c8d5760405162461bcd60e51b8152600401610fd490615a29565b8051825114612cde5760405162461bcd60e51b815260206004820152601a60248201527f4172726179206c656e6774687320646f206e6f74206d617463680000000000006044820152606401610fd4565b60005b8251811015611e3e57818181518110612cfc57612cfc615936565b6020026020010151600b6000858481518110612d1a57612d1a615936565b60200260200101518152602001908152602001600020819055508080612d3f90615975565b915050612ce1565b6115a08585858585613812565b6120bd600080516020615e53833981519152336120e4565b6060600082516001600160401b03811115612d8957612d89614d7a565b604051908082528060200260200182016040528015612db2578160200160208202803683370190505b50905060005b8351811015611f4e57600d6000858381518110612dd757612dd7615936565b6020026020010151815260200190815260200160002054828281518110612e0057612e00615936565b602090810291909101015280612e1581615975565b915050612db8565b612e2633612f20565b15612e435760405162461bcd60e51b8152600401610fd490615b41565b612e5b600080516020615e73833981519152336120e4565b612e775760405162461bcd60e51b8152600401610fd490615a29565b6000918252600b602052604090912055565b6000612e9481613223565b81612e9e81612f20565b15612ebb5760405162461bcd60e51b8152600401610fd490615b11565b60005b84518110156115a0576000801b858281518110612edd57612edd615936565b60200260200101510315612f0e57612f0e858281518110612f0057612f00615936565b6020026020010151856115a7565b80612f1881615975565b915050612ebe565b60006001600160a01b038216612f485750503360009081526006602052604090205460ff1690565b506001600160a01b031660009081526006602052604090205460ff1690565b606060006009546001600160401b03811115612f8557612f85614d7a565b604051908082528060200260200182016040528015612fae578160200160208202803683370190505b50905060005b600954811015611f4e57612fc88482610fef565b828281518110612fda57612fda615936565b602090810291909101015280612fef81615975565b915050612fb4565b606060006009546001600160401b0381111561301557613015614d7a565b60405190808252806020026020018201604052801561304e57816020015b61303b614cfb565b8152602001906001900390816130335790505b509050600061305b6112a5565b90506000613067612817565b90506000613073612780565b905060005b60095481101561318b576040518060c0016040528085838151811061309f5761309f615936565b60200260200101516000015181526020018583815181106130c2576130c2615936565b602002602001015160200151151581526020018583815181106130e7576130e7615936565b6020026020010151604001511515815260200185838151811061310c5761310c615936565b6020026020010151606001511515815260200184838151811061313157613131615936565b6020026020010151815260200183838151811061315057613150615936565b602002602001015181525085828151811061316d5761316d615936565b6020026020010181905250808061318390615975565b915050613078565b5092949350505050565b6001600160a01b0384166131bf576000604051632bfa23e760e11b8152600401610fd491906154c7565b610fe9600085858585613871565b6000908152602081815260408083206001600160a01b03949094168352929052205490565b60006001600160e01b031982166318a4c3c360e11b14806110a157506110a1826138c4565b60026115cf8282615bcd565b6110ef81336138e9565b6117e0600080613922565b6060600061324684846131cd565b90508060000361329657604080516000808252602082019092529061328d565b60408051808201909152600080825260208201528152602001906001900390816132665790505b509150506110a1565b6001600160a01b0384166000908152600c602090815260408083208684529091528120904290805b835481101561334157828482815481106132da576132da615936565b90600052602060002090600202016001015411801561331c5750600084828154811061330857613308615936565b906000526020600020906002020160000154115b1561332f578161332b81615975565b9250505b8061333981615975565b9150506132be565b506000816001600160401b0381111561335c5761335c614d7a565b6040519080825280602002602001820160405280156133a157816020015b604080518082019091526000808252602082015281526020019060019003908161337a5790505b5090506000805b855481101561348857848682815481106133c4576133c4615936565b906000526020600020906002020160010154118015613406575060008682815481106133f2576133f2615936565b906000526020600020906002020160000154115b156134765785818154811061341d5761341d615936565b90600052602060002090600202016040518060400160405290816000820154815260200160018201548152505083838151811061345c5761345c615936565b6020026020010181905250818061347290615975565b9250505b8061348081615975565b9150506133a8565b509098975050505050505050565b336001600160a01b03861681148015906134b757506134b58682612bde565b155b156134e85760405163711bec9160e11b81526001600160a01b03808316600483015287166024820152604401610fd4565b6134f586868686866139e2565b505050505050565b60008281526003602052604090206001015461351881613223565b610fe98383613a42565b6001600160a01b038116331461354b5760405163334bd91960e11b815260040160405180910390fd5b611e3e8282613aa0565b60026007540361357857604051633ee5aeb560e01b815260040160405180910390fd5b6002600755565b60006135896128b0565b61359242613ae8565b61359c9190615c8c565b90506135a88282613b1b565b60405165ffffffffffff821681526001600160a01b038316907f3377dc44241e779dd06afab5b788a35ca5f3b778836e2990bdb26a2a4b2e5ed69060200160405180910390a25050565b60006135fd82613b9a565b61360642613ae8565b6136109190615c8c565b905061361c8282613922565b6040805165ffffffffffff8085168252831660208201527ff1038c18cf84a56e432fdbfaf746924b7ea511dfe03a6506a0ceba4888788d9b910160405180910390a15050565b6001600160a01b03841661368c576000604051632bfa23e760e11b8152600401610fd491906154c7565b6000806136998585613be2565b915091506134f5600087848487613871565b6001600160a01b0383166136d4576000604051626a0d4560e21b8152600401610fd491906154c7565b611e3e836000848460405180602001604052806000815250613871565b6001600160a01b03831661371a576000604051626a0d4560e21b8152600401610fd491906154c7565b6000806137278484613be2565b915091506115a0856000848460405180602001604052806000815250613871565b6115cf338383613c0a565b60008061375e61294f565b915091506137738165ffffffffffff16151590565b158061378757504265ffffffffffff821610155b156137af576040516319ca5ebb60e01b815265ffffffffffff82166004820152602401610fd4565b6137c160006137bc612010565b613aa0565b506137cd600083613a42565b5050600480546001600160d01b031916905550565b6000828152600360205260409020600101546137fd81613223565b610fe98383613aa0565b6117e0600080613b1b565b336001600160a01b038616811480159061383357506138318682612bde565b155b156138645760405163711bec9160e11b81526001600160a01b03808316600483015287166024820152604401610fd4565b6134f58686868686613ca0565b61387d85858585613d1a565b6001600160a01b038416156115a057825133906001036138b657602084810151908401516138af838989858589613df4565b50506134f5565b6134f5818787878787613f06565b60006001600160e01b03198216637965db0b60e01b14806110a157506110a182613fe6565b6138f382826120e4565b6115cf5760405163e2517d3f60e01b81526001600160a01b038216600482015260248101839052604401610fd4565b600554600160d01b900465ffffffffffff1680156139a5574265ffffffffffff8216101561397b57600554600480546001600160d01b0316600160a01b90920465ffffffffffff16600160d01b029190911790556139a5565b6040517f2b1fa2edafe6f7b9e97c1a9e0c3660e645beb2dcaa2d45bdbf9beaf5472e1ec590600090a15b50600580546001600160a01b0316600160a01b65ffffffffffff948516026001600160d01b031617600160d01b9290931691909102919091179055565b6001600160a01b038416613a0c576000604051632bfa23e760e11b8152600401610fd491906154c7565b6001600160a01b038516613a35576000604051626a0d4560e21b8152600401610fd491906154c7565b6115a08585858585613871565b600082613a96576000613a53612010565b6001600160a01b031614613a7a57604051631fe1e13d60e11b815260040160405180910390fd5b600580546001600160a01b0319166001600160a01b0384161790555b61155b8383614036565b600082158015613ac85750613ab3612010565b6001600160a01b0316826001600160a01b0316145b15613ade57600580546001600160a01b03191690555b61155b83836140ca565b600065ffffffffffff8211156128ac576040516306dfcc6560e41b81526030600482015260248101839052604401610fd4565b6000613b2561294f565b6004805465ffffffffffff8616600160a01b026001600160d01b03199091166001600160a01b038816171790559150613b6790508165ffffffffffff16151590565b15611e3e576040517f8886ebfc4259abdbc16601dd8fb5678e54878f47b3c34836cfc51154a960510990600090a1505050565b600080613ba56128b0565b90508065ffffffffffff168365ffffffffffff1611613bcd57613bc88382615cab565b61155b565b61155b65ffffffffffff841662069780614137565b6040805160018082526020820194909452808201938452606081019290925260808201905291565b6001600160a01b038216613c3357600060405162ced3e160e81b8152600401610fd491906154c7565b6001600160a01b03838116600081815260016020908152604080832094871680845294825291829020805460ff191686151590811790915591519182527f17307eab39ab6107e8899845ad3d59bd9653f200f220920489ca2b5937696c31910160405180910390a3505050565b6001600160a01b038416613cca576000604051632bfa23e760e11b8152600401610fd491906154c7565b6001600160a01b038516613cf3576000604051626a0d4560e21b8152600401610fd491906154c7565b600080613d008585613be2565b91509150613d118787848487613871565b50505050505050565b613d2684848484614147565b60005b82518110156115a0576000838281518110613d4657613d46615936565b602002602001015190506000838381518110613d6457613d64615936565b6020026020010151905060006001600160a01b0316876001600160a01b031603613da957856000613d9484611fd5565b9050613da28285858461438c565b5050613ddf565b6001600160a01b038616613dd35786613dc38184846145c3565b613dcd818461470b565b50613ddf565b613ddf878784846148da565b50508080613dec90615975565b915050613d29565b6001600160a01b0384163b156134f55760405163f23a6e6160e01b81526001600160a01b0385169063f23a6e6190613e389089908990889088908890600401615cca565b6020604051808303816000875af1925050508015613e73575060408051601f3d908101601f19168201909252613e7091810190615d0f565b60015b613ed3573d808015613ea1576040519150601f19603f3d011682016040523d82523d6000602084013e613ea6565b606091505b508051600003613ecb5784604051632bfa23e760e11b8152600401610fd491906154c7565b805160208201fd5b6001600160e01b0319811663f23a6e6160e01b14613d115784604051632bfa23e760e11b8152600401610fd491906154c7565b6001600160a01b0384163b156134f55760405163bc197c8160e01b81526001600160a01b0385169063bc197c8190613f4a9089908990889088908890600401615d2c565b6020604051808303816000875af1925050508015613f85575060408051601f3d908101601f19168201909252613f8291810190615d0f565b60015b613fb3573d808015613ea1576040519150601f19603f3d011682016040523d82523d6000602084013e613ea6565b6001600160e01b0319811663bc197c8160e01b14613d115784604051632bfa23e760e11b8152600401610fd491906154c7565b60006001600160e01b03198216636cdb3d1360e11b148061401757506001600160e01b031982166303a24d0760e21b145b806110a157506301ffc9a760e01b6001600160e01b03198316146110a1565b600061404283836120e4565b6140c25760008381526003602090815260408083206001600160a01b03861684529091529020805460ff1916600117905561407a3390565b6001600160a01b0316826001600160a01b0316847f2f8788117e7eff1d82e926ec794901d17c78024a50270940304540a733656f0d60405160405180910390a45060016110a1565b5060006110a1565b60006140d683836120e4565b156140c25760008381526003602090815260408083206001600160a01b0386168085529252808320805460ff1916905551339286917ff6391f5c32d9c69d2a47ea670b442974b53935d1edc7fd64eb21e047a839171b9190a45060016110a1565b600082821882841002821861155b565b8361415181612f20565b1561416e5760405162461bcd60e51b8152600401610fd490615b11565b8361417881612f20565b156141955760405162461bcd60e51b8152600401610fd490615b11565b61419e33612f20565b156141bb5760405162461bcd60e51b8152600401610fd490615b41565b60005b845181101561437f576001600160a01b03871661422b5761420a8582815181106141ea576141ea615936565b602002602001015160009081526008602052604090206001015460ff1690565b6142265760405162461bcd60e51b8152600401610fd490615d8a565b61436d565b6001600160a01b0386166142b85761427485828151811061424e5761424e615936565b602002602001015160009081526008602052604090206001015460ff6101009091041690565b6142265760405162461bcd60e51b8152602060048201526015602482015274546f6b656e206973206e6f74206275726e61626c6560581b6044820152606401610fd4565b6142cd8582815181106141ea576141ea615936565b6142e95760405162461bcd60e51b8152600401610fd490615d8a565b6143258582815181106142fe576142fe615936565b602002602001015160009081526008602052604090206001015460ff620100009091041690565b61436d5760405162461bcd60e51b8152602060048201526019602482015278546f6b656e206973206e6f74207472616e7366657261626c6560381b6044820152606401610fd4565b8061437781615975565b9150506141be565b506134f586868686614ade565b6001600160a01b0384166000908152600c602090815260408083208684529091528120805490915b825481101561446d57838382815481106143d0576143d0615936565b90600052602060002090600202016001015411156143f05780915061446d565b8383828154811061440357614403615936565b9060005260206000209060020201600101540361445b578483828154811061442d5761442d615936565b9060005260206000209060020201600001600082825461444d9190615afe565b90915550610fe99350505050565b8061446581615975565b9150506143b4565b50815481036144b55750604080518082019091528381526020808201848152835460018181018655600095865292909420925160029094029092019283559051910155610fe9565b6040805180820190915260008082526020808301828152855460018181018855878552928420945160029091029094019384555192810192909255835490916144fd91615962565b90505b818111156145745782614514600183615962565b8154811061452457614524615936565b906000526020600020906002020183828154811061454457614544615936565b6000918252602090912082546002909202019081556001918201549101558061456c81615db7565b915050614500565b5060405180604001604052808581526020018481525082828154811061459c5761459c615936565b60009182526020918290208351600290920201908155910151600190910155505050505050565b6001600160a01b0383166000908152600c60209081526040808320858452909152812090429083905b8354811080156145fc5750600082115b15613d11578284828154811061461457614614615936565b9060005260206000209060020201600101541161463d578061463581615975565b9150506145ec565b8184828154811061465057614650615936565b90600052602060002090600202016000015411156146aa578184828154811061467b5761467b615936565b9060005260206000209060020201600001600082825461469b9190615962565b90915550600092506147019050565b8381815481106146bc576146bc615936565b906000526020600020906002020160000154826146d99190615962565b915060008482815481106146ef576146ef615936565b60009182526020909120600290910201555b8061463581615975565b6001600160a01b0382166000908152600c60209081526040808320848452909152812090429080805b845481101561484a5760008086838154811061475257614752615936565b90600052602060002090600202016000015411801561479357508486838154811061477f5761477f615936565b906000526020600020906002020160010154115b90508015614805578382146147f3578582815481106147b4576147b4615936565b90600052602060002090600202018685815481106147d4576147d4615936565b6000918252602090912082546002909202019081556001918201549101555b836147fd81615975565b945050614837565b85828154811061481757614817615936565b906000526020600020906002020160000154836148349190615afe565b92505b508061484281615975565b915050614734565b505b8354821015614888578380548061486557614865615dce565b60008281526020812060026000199093019283020181815560010155905561484c565b80156134f55784866001600160a01b03167f8d8e3659d6fba4144bf2ef4e66100f576035ab5e3e74225d79413f882c32b593836040516148ca91815260200190565b60405180910390a3505050505050565b826001600160a01b0316846001600160a01b031614806148f8575080155b610fe9576001600160a01b0384166000908152600c60209081526040808320858452909152812090429083905b8354811080156149355750600082115b15614ad3578284828154811061494d5761494d615936565b90600052602060002090600202016001015411158061498f575083818154811061497957614979615936565b9060005260206000209060020201600001546000145b614ac157818482815481106149a6576149a6615936565b9060005260206000209060020201600001541115614a2f576149ed8787848785815481106149d6576149d6615936565b90600052602060002090600202016001015461438c565b81848281548110614a0057614a00615936565b90600052602060002090600202016000016000828254614a209190615962565b9091555060009250614ac19050565b614a6a8787868481548110614a4657614a46615936565b9060005260206000209060020201600001548785815481106149d6576149d6615936565b838181548110614a7c57614a7c615936565b90600052602060002090600202016000015482614a999190615962565b91506000848281548110614aaf57614aaf615936565b60009182526020909120600290910201555b80614acb81615975565b915050614925565b50613d11878661470b565b8051825114614b0d5781518151604051635b05999160e01b815260048101929092526024820152604401610fd4565b3360005b8351811015614c1c576020818102858101820151908501909101516001600160a01b03881615614bc4576000828152602081815260408083206001600160a01b038c16845290915290205481811015614b9d576040516303dee4c560e01b81526001600160a01b038a166004820152602481018290526044810183905260648101849052608401610fd4565b6000838152602081815260408083206001600160a01b038d16845290915290209082900390555b6001600160a01b03871615614c09576000828152602081815260408083206001600160a01b038b16845290915281208054839290614c03908490615afe565b90915550505b505080614c1590615975565b9050614b11565b508251600103614c9d5760208301516000906020840151909150856001600160a01b0316876001600160a01b0316846001600160a01b03167fc3d58168c5ae7397731d063d5bbf3d657854427343f4c083240f7aacaa2d0f628585604051614c8e929190918252602082015260400190565b60405180910390a450506115a0565b836001600160a01b0316856001600160a01b0316826001600160a01b03167f4a39dc06d4c0dbc64b70af90fd698a233a518aa5d07e595d983b8c0526c8f7fb8686604051614cec929190615de4565b60405180910390a45050505050565b6040518060c001604052806000815260200160001515815260200160001515815260200160001515815260200160008152602001600081525090565b60408051608081018252600080825260208201819052918101829052606081019190915290565b80356001600160a01b0381168114614d7557600080fd5b919050565b634e487b7160e01b600052604160045260246000fd5b604051601f8201601f191681016001600160401b0381118282101715614db857614db8614d7a565b604052919050565b60006001600160401b03821115614dd957614dd9614d7a565b5060051b60200190565b600082601f830112614df457600080fd5b81356020614e09614e0483614dc0565b614d90565b82815260059290921b84018101918181019086841115614e2857600080fd5b8286015b84811015614e435780358352918301918301614e2c565b509695505050505050565b60006001600160401b03831115614e6757614e67614d7a565b614e7a601f8401601f1916602001614d90565b9050828152838383011115614e8e57600080fd5b828260208301376000602084830101529392505050565b600082601f830112614eb657600080fd5b61155b83833560208501614e4e565b60008060008060808587031215614edb57600080fd5b614ee485614d5e565b935060208501356001600160401b0380821115614f0057600080fd5b614f0c88838901614de3565b94506040870135915080821115614f2257600080fd5b614f2e88838901614de3565b93506060870135915080821115614f4457600080fd5b50614f5187828801614ea5565b91505092959194509250565b60008060408385031215614f7057600080fd5b614f7983614d5e565b946020939093013593505050565b6001600160e01b0319811681146110ef57600080fd5b600060208284031215614faf57600080fd5b813561155b81614f87565b600060208284031215614fcc57600080fd5b81356001600160401b03811115614fe257600080fd5b8201601f81018413614ff357600080fd5b61500284823560208401614e4e565b949350505050565b60006020828403121561501c57600080fd5b81356001600160401b0381111561503257600080fd5b61500284828501614de3565b805182526020810151151560208301526040810151151560408301526060810151151560608301526080810151608083015260a081015160a08301525050565b6020808252825182820181905260009190848201906040850190845b818110156150c0576150ad83855161503e565b9284019260c0929092019160010161509a565b50909695505050505050565b805182526020810151151560208301526040810151151560408301526060810151151560608301525050565b6020808252825182820181905260009190848201906040850190845b818110156150c0576151278385516150cc565b9284019260809290920191600101615114565b600081518084526020808501945080840160005b8381101561516a5781518752958201959082019060010161514e565b509495945050505050565b60208152600061155b602083018461513a565b60006020828403121561519a57600080fd5b5035919050565b6000815180845260005b818110156151c7576020818501810151868301820152016151ab565b506000602082860101526020601f19601f83011685010191505092915050565b60208152600061155b60208301846151a1565b60c081016110a1828461503e565b600081518084526020808501945080840160005b8381101561516a57815180518852830151838801526040909601959082019060010161521c565b60208152600061155b6020830184615208565b600080600080600060a0868803121561526e57600080fd5b61527786614d5e565b945061528560208701614d5e565b935060408601356001600160401b03808211156152a157600080fd5b6152ad89838a01614de3565b945060608801359150808211156152c357600080fd5b6152cf89838a01614de3565b935060808801359150808211156152e557600080fd5b506152f288828901614ea5565b9150509295509295909350565b6000806040838503121561531257600080fd5b8235915061532260208401614d5e565b90509250929050565b60006020828403121561533d57600080fd5b61155b82614d5e565b80358015158114614d7557600080fd5b60008060008060008060c0878903121561536f57600080fd5b8635955061537f60208801615346565b945061538d60408801615346565b935061539b60608801615346565b92506080870135915060a087013590509295509295509295565b600082601f8301126153c657600080fd5b813560206153d6614e0483614dc0565b82815260059290921b840181019181810190868411156153f557600080fd5b8286015b84811015614e435761540a81614d5e565b83529183019183016153f9565b6000806040838503121561542a57600080fd5b82356001600160401b038082111561544157600080fd5b61544d868387016153b5565b9350602085013591508082111561546357600080fd5b5061547085828601614de3565b9150509250929050565b6000806000806080858703121561549057600080fd5b843593506154a060208601615346565b92506154ae60408601615346565b91506154bc60608601615346565b905092959194509250565b6001600160a01b0391909116815260200190565b6000602082840312156154ed57600080fd5b813565ffffffffffff8116811461155b57600080fd5b6000806000806080858703121561551957600080fd5b61552285614d5e565b9350602085013592506040850135915060608501356001600160401b0381111561554b57600080fd5b614f5187828801614ea5565b60008060006060848603121561556c57600080fd5b61557584614d5e565b925060208401356001600160401b038082111561559157600080fd5b61559d87838801614de3565b935060408601359150808211156155b357600080fd5b506155c086828701614de3565b9150509250925092565b6000602082840312156155dc57600080fd5b81356001600160401b038111156155f257600080fd5b615002848285016153b5565b608081016110a182846150cc565b60008060006060848603121561562157600080fd5b61562a84614d5e565b95602085013595506040909401359392505050565b6000806040838503121561565257600080fd5b82356001600160401b0381111561566857600080fd5b8301601f8101851361567957600080fd5b80356020615689614e0483614dc0565b82815260059290921b830181019181810190888411156156a857600080fd5b938201935b838510156156c6578435825293820193908201906156ad565b95506156d59050868201614d5e565b93505050509250929050565b6000602080830181845280855180835260408601915060408160051b870101925083870160005b8281101561573657603f19888603018452615724858351615208565b94509285019290850190600101615708565b5092979650505050505050565b6000806040838503121561575657600080fd5b61575f83614d5e565b915061532260208401615346565b60008083601f84011261577f57600080fd5b5081356001600160401b0381111561579657600080fd5b6020830191508360208260051b85010111156157b157600080fd5b9250929050565b600080600080604085870312156157ce57600080fd5b84356001600160401b03808211156157e557600080fd5b6157f18883890161576d565b9096509450602087013591508082111561580a57600080fd5b506158178782880161576d565b95989497509550505050565b6000806040838503121561583657600080fd5b50508035926020909101359150565b6000806040838503121561585857600080fd5b61586183614d5e565b915061532260208401614d5e565b6000806040838503121561588257600080fd5b82356001600160401b038082111561589957600080fd5b61544d86838701614de3565b600080600080600060a086880312156158bd57600080fd5b6158c686614d5e565b94506158d460208701614d5e565b9350604086013592506060860135915060808601356001600160401b038111156158fd57600080fd5b6152f288828901614ea5565b6020808252601390820152722ab730baba3437b934bd32b21036b4b73a32b960691b604082015260600190565b634e487b7160e01b600052603260045260246000fd5b634e487b7160e01b600052601160045260246000fd5b818103818111156110a1576110a161594c565b6000600182016159875761598761594c565b5060010190565b6020808252601a908201527f556e617574686f72697a656420746f6b656e206d616e61676572000000000000604082015260600190565b600181811c908216806159d957607f821691505b60208210810361138f57634e487b7160e01b600052602260045260246000fd5b602080825260169082015275496e76616c69642077616c6c6574206164647265737360501b604082015260600190565b6020808252601c908201527f556e617574686f72697a65642066696e616e6365206d616e6167657200000000604082015260600190565b6101808101615a6f828561503e565b61155b60c083018461503e565b6020808252600f908201526e098cadccee8d040dad2e6dac2e8c6d608b1b604082015260600190565b6020808252601290820152712ab730baba3437b934bd32b21030b236b4b760711b604082015260600190565b6020808252601390820152722ab730baba3437b934bd32b210313ab93732b960691b604082015260600190565b808201808211156110a1576110a161594c565b6020808252601690820152751058d8dbdd5b9d081a5cc8189b1858dadb1a5cdd195960521b604082015260600190565b60208082526015908201527414d95b99195c881a5cc8189b1858dadb1a5cdd1959605a1b604082015260600190565b80820281158282048414176110a1576110a161594c565b601f821115611e3e57600081815260208120601f850160051c81016020861015615bae5750805b601f850160051c820191505b818110156134f557828155600101615bba565b81516001600160401b03811115615be657615be6614d7a565b615bfa81615bf484546159c5565b84615b87565b602080601f831160018114615c2f5760008415615c175750858301515b600019600386901b1c1916600185901b1785556134f5565b600085815260208120601f198616915b82811015615c5e57888601518255948401946001909101908401615c3f565b5085821015615c7c5787850151600019600388901b60f8161c191681555b5050505050600190811b01905550565b65ffffffffffff818116838216019080821115611f4e57611f4e61594c565b65ffffffffffff828116828216039080821115611f4e57611f4e61594c565b6001600160a01b03868116825285166020820152604081018490526060810183905260a060808201819052600090615d04908301846151a1565b979650505050505050565b600060208284031215615d2157600080fd5b815161155b81614f87565b6001600160a01b0386811682528516602082015260a060408201819052600090615d589083018661513a565b8281036060840152615d6a818661513a565b90508281036080840152615d7e81856151a1565b98975050505050505050565b602080825260139082015272546f6b656e206973206e6f742061637469766560681b604082015260600190565b600081615dc657615dc661594c565b506000190190565b634e487b7160e01b600052603160045260246000fd5b604081526000615df7604083018561513a565b8281036020840152615e09818561513a565b9594505050505056fe74f7a545c65c11839a48d7453738b30c295408df2d944516167556759ddc6d06f988e4fb62b8e14f4820fed03192306ddf4d7dbfa215595ba1c6ba4b76b369ee02358c16c6ece4d564dd98c8400ef2ce02ec4ed5a3d53421ef64678a57ac5101572f022558b687eed59080237cb7778171198110a24741b57d6ed3432df881fcb3bb6029312d1001076133d40b75b7eca92ba54e4963b3ce24e1486a3d5a038ba264697066735822122096ad9cb0fd27482ee5fc6ba8d65757e652771b48b2de6a089032fc305c55e15e64736f6c63430008140033",
  "linkReferences": {},
  "deployedLinkReferences": {}
}