{
  "_format": "hh-sol-artifact-1",
  "contractName": "EVMAuthV2",
  "sourceName": "src/EVMAuthV2.sol",
  "abi": [
    {
      "inputs": [
        {
          "internalType": "string",
          "name": "name",
          "type": "string"
        },
        {
          "internalType": "string",
          "name": "version",
          "type": "string"
        },
        {
          "internalType": "string",
          "name": "uri",
          "type": "string"
        },
        {
          "internalType": "uint48",
          "name": "delay",
          "type": "uint48"
        },
        {
          "internalType": "address",
          "name": "owner",
          "type": "address"
        }
      ],
      "stateMutability": "nonpayable",
      "type": "constructor"
    },
    {
      "inputs": [],
      "name": "AccessControlBadConfirmation",
      "type": "error"
    },
    {
      "inputs": [
        {
          "internalType": "uint48",
          "name": "schedule",
          "type": "uint48"
        }
      ],
      "name": "AccessControlEnforcedDefaultAdminDelay",
      "type": "error"
    },
    {
      "inputs": [],
      "name": "AccessControlEnforcedDefaultAdminRules",
      "type": "error"
    },
    {
      "inputs": [
        {
          "internalType": "address",
          "name": "defaultAdmin",
          "type": "address"
        }
      ],
      "name": "AccessControlInvalidDefaultAdmin",
      "type": "error"
    },
    {
      "inputs": [
        {
          "internalType": "address",
          "name": "account",
          "type": "address"
        },
        {
          "internalType": "bytes32",
          "name": "neededRole",
          "type": "bytes32"
        }
      ],
      "name": "AccessControlUnauthorizedAccount",
      "type": "error"
    },
    {
      "inputs": [
        {
          "internalType": "address",
          "name": "sender",
          "type": "address"
        },
        {
          "internalType": "uint256",
          "name": "balance",
          "type": "uint256"
        },
        {
          "internalType": "uint256",
          "name": "needed",
          "type": "uint256"
        },
        {
          "internalType": "uint256",
          "name": "tokenId",
          "type": "uint256"
        }
      ],
      "name": "ERC1155InsufficientBalance",
      "type": "error"
    },
    {
      "inputs": [
        {
          "internalType": "address",
          "name": "approver",
          "type": "address"
        }
      ],
      "name": "ERC1155InvalidApprover",
      "type": "error"
    },
    {
      "inputs": [
        {
          "internalType": "uint256",
          "name": "idsLength",
          "type": "uint256"
        },
        {
          "internalType": "uint256",
          "name": "valuesLength",
          "type": "uint256"
        }
      ],
      "name": "ERC1155InvalidArrayLength",
      "type": "error"
    },
    {
      "inputs": [
        {
          "internalType": "address",
          "name": "operator",
          "type": "address"
        }
      ],
      "name": "ERC1155InvalidOperator",
      "type": "error"
    },
    {
      "inputs": [
        {
          "internalType": "address",
          "name": "receiver",
          "type": "address"
        }
      ],
      "name": "ERC1155InvalidReceiver",
      "type": "error"
    },
    {
      "inputs": [
        {
          "internalType": "address",
          "name": "sender",
          "type": "address"
        }
      ],
      "name": "ERC1155InvalidSender",
      "type": "error"
    },
    {
      "inputs": [
        {
          "internalType": "address",
          "name": "operator",
          "type": "address"
        },
        {
          "internalType": "address",
          "name": "owner",
          "type": "address"
        }
      ],
      "name": "ERC1155MissingApprovalForAll",
      "type": "error"
    },
    {
      "inputs": [],
      "name": "ReentrancyGuardReentrantCall",
      "type": "error"
    },
    {
      "inputs": [
        {
          "internalType": "uint8",
          "name": "bits",
          "type": "uint8"
        },
        {
          "internalType": "uint256",
          "name": "value",
          "type": "uint256"
        }
      ],
      "name": "SafeCastOverflowedUintDowncast",
      "type": "error"
    },
    {
      "anonymous": false,
      "inputs": [
        {
          "indexed": true,
          "internalType": "address",
          "name": "account",
          "type": "address"
        }
      ],
      "name": "AddedToBlacklist",
      "type": "event"
    },
    {
      "anonymous": false,
      "inputs": [
        {
          "indexed": true,
          "internalType": "address",
          "name": "account",
          "type": "address"
        },
        {
          "indexed": true,
          "internalType": "address",
          "name": "operator",
          "type": "address"
        },
        {
          "indexed": false,
          "internalType": "bool",
          "name": "approved",
          "type": "bool"
        }
      ],
      "name": "ApprovalForAll",
      "type": "event"
    },
    {
      "anonymous": false,
      "inputs": [],
      "name": "DefaultAdminDelayChangeCanceled",
      "type": "event"
    },
    {
      "anonymous": false,
      "inputs": [
        {
          "indexed": false,
          "internalType": "uint48",
          "name": "newDelay",
          "type": "uint48"
        },
        {
          "indexed": false,
          "internalType": "uint48",
          "name": "effectSchedule",
          "type": "uint48"
        }
      ],
      "name": "DefaultAdminDelayChangeScheduled",
      "type": "event"
    },
    {
      "anonymous": false,
      "inputs": [],
      "name": "DefaultAdminTransferCanceled",
      "type": "event"
    },
    {
      "anonymous": false,
      "inputs": [
        {
          "indexed": true,
          "internalType": "address",
          "name": "newAdmin",
          "type": "address"
        },
        {
          "indexed": false,
          "internalType": "uint48",
          "name": "acceptSchedule",
          "type": "uint48"
        }
      ],
      "name": "DefaultAdminTransferScheduled",
      "type": "event"
    },
    {
      "anonymous": false,
      "inputs": [
        {
          "indexed": true,
          "internalType": "address",
          "name": "account",
          "type": "address"
        },
        {
          "indexed": true,
          "internalType": "uint256",
          "name": "id",
          "type": "uint256"
        },
        {
          "indexed": false,
          "internalType": "uint256",
          "name": "amount",
          "type": "uint256"
        }
      ],
      "name": "ExpiredTokensBurned",
      "type": "event"
    },
    {
      "anonymous": false,
      "inputs": [
        {
          "indexed": true,
          "internalType": "bytes32",
          "name": "name",
          "type": "bytes32"
        },
        {
          "indexed": true,
          "internalType": "address",
          "name": "extension",
          "type": "address"
        }
      ],
      "name": "ExtensionRegistered",
      "type": "event"
    },
    {
      "anonymous": false,
      "inputs": [
        {
          "indexed": true,
          "internalType": "bytes32",
          "name": "name",
          "type": "bytes32"
        },
        {
          "indexed": true,
          "internalType": "address",
          "name": "extension",
          "type": "address"
        }
      ],
      "name": "ExtensionRevoked",
      "type": "event"
    },
    {
      "anonymous": false,
      "inputs": [
        {
          "indexed": true,
          "internalType": "address",
          "name": "wallet",
          "type": "address"
        },
        {
          "indexed": false,
          "internalType": "uint256",
          "name": "amount",
          "type": "uint256"
        }
      ],
      "name": "FundsWithdrawn",
      "type": "event"
    },
    {
      "anonymous": false,
      "inputs": [
        {
          "indexed": true,
          "internalType": "address",
          "name": "account",
          "type": "address"
        }
      ],
      "name": "RemovedFromBlacklist",
      "type": "event"
    },
    {
      "anonymous": false,
      "inputs": [
        {
          "indexed": true,
          "internalType": "bytes32",
          "name": "role",
          "type": "bytes32"
        },
        {
          "indexed": true,
          "internalType": "bytes32",
          "name": "previousAdminRole",
          "type": "bytes32"
        },
        {
          "indexed": true,
          "internalType": "bytes32",
          "name": "newAdminRole",
          "type": "bytes32"
        }
      ],
      "name": "RoleAdminChanged",
      "type": "event"
    },
    {
      "anonymous": false,
      "inputs": [
        {
          "indexed": true,
          "internalType": "bytes32",
          "name": "role",
          "type": "bytes32"
        },
        {
          "indexed": true,
          "internalType": "address",
          "name": "account",
          "type": "address"
        },
        {
          "indexed": true,
          "internalType": "address",
          "name": "sender",
          "type": "address"
        }
      ],
      "name": "RoleGranted",
      "type": "event"
    },
    {
      "anonymous": false,
      "inputs": [
        {
          "indexed": true,
          "internalType": "bytes32",
          "name": "role",
          "type": "bytes32"
        },
        {
          "indexed": true,
          "internalType": "address",
          "name": "account",
          "type": "address"
        },
        {
          "indexed": true,
          "internalType": "address",
          "name": "sender",
          "type": "address"
        }
      ],
      "name": "RoleRevoked",
      "type": "event"
    },
    {
      "anonymous": false,
      "inputs": [
        {
          "indexed": true,
          "internalType": "uint256",
          "name": "id",
          "type": "uint256"
        },
        {
          "components": [
            {
              "internalType": "uint256",
              "name": "id",
              "type": "uint256"
            },
            {
              "internalType": "bool",
              "name": "active",
              "type": "bool"
            },
            {
              "internalType": "bool",
              "name": "burnable",
              "type": "bool"
            },
            {
              "internalType": "bool",
              "name": "transferable",
              "type": "bool"
            },
            {
              "internalType": "uint256",
              "name": "price",
              "type": "uint256"
            },
            {
              "internalType": "uint256",
              "name": "ttl",
              "type": "uint256"
            }
          ],
          "indexed": false,
          "internalType": "struct EVMAuthV2.TokenMetadata",
          "name": "metadata",
          "type": "tuple"
        }
      ],
      "name": "TokenMetadataCreated",
      "type": "event"
    },
    {
      "anonymous": false,
      "inputs": [
        {
          "indexed": true,
          "internalType": "uint256",
          "name": "id",
          "type": "uint256"
        },
        {
          "components": [
            {
              "internalType": "uint256",
              "name": "id",
              "type": "uint256"
            },
            {
              "internalType": "bool",
              "name": "active",
              "type": "bool"
            },
            {
              "internalType": "bool",
              "name": "burnable",
              "type": "bool"
            },
            {
              "internalType": "bool",
              "name": "transferable",
              "type": "bool"
            },
            {
              "internalType": "uint256",
              "name": "price",
              "type": "uint256"
            },
            {
              "internalType": "uint256",
              "name": "ttl",
              "type": "uint256"
            }
          ],
          "indexed": false,
          "internalType": "struct EVMAuthV2.TokenMetadata",
          "name": "oldMetadata",
          "type": "tuple"
        },
        {
          "components": [
            {
              "internalType": "uint256",
              "name": "id",
              "type": "uint256"
            },
            {
              "internalType": "bool",
              "name": "active",
              "type": "bool"
            },
            {
              "internalType": "bool",
              "name": "burnable",
              "type": "bool"
            },
            {
              "internalType": "bool",
              "name": "transferable",
              "type": "bool"
            },
            {
              "internalType": "uint256",
              "name": "price",
              "type": "uint256"
            },
            {
              "internalType": "uint256",
              "name": "ttl",
              "type": "uint256"
            }
          ],
          "indexed": false,
          "internalType": "struct EVMAuthV2.TokenMetadata",
          "name": "newMetadata",
          "type": "tuple"
        }
      ],
      "name": "TokenMetadataUpdated",
      "type": "event"
    },
    {
      "anonymous": false,
      "inputs": [
        {
          "indexed": true,
          "internalType": "address",
          "name": "account",
          "type": "address"
        },
        {
          "indexed": true,
          "internalType": "uint256",
          "name": "id",
          "type": "uint256"
        },
        {
          "indexed": false,
          "internalType": "uint256",
          "name": "amount",
          "type": "uint256"
        }
      ],
      "name": "TokenPurchased",
      "type": "event"
    },
    {
      "anonymous": false,
      "inputs": [
        {
          "indexed": true,
          "internalType": "address",
          "name": "operator",
          "type": "address"
        },
        {
          "indexed": true,
          "internalType": "address",
          "name": "from",
          "type": "address"
        },
        {
          "indexed": true,
          "internalType": "address",
          "name": "to",
          "type": "address"
        },
        {
          "indexed": false,
          "internalType": "uint256[]",
          "name": "ids",
          "type": "uint256[]"
        },
        {
          "indexed": false,
          "internalType": "uint256[]",
          "name": "values",
          "type": "uint256[]"
        }
      ],
      "name": "TransferBatch",
      "type": "event"
    },
    {
      "anonymous": false,
      "inputs": [
        {
          "indexed": true,
          "internalType": "address",
          "name": "operator",
          "type": "address"
        },
        {
          "indexed": true,
          "internalType": "address",
          "name": "from",
          "type": "address"
        },
        {
          "indexed": true,
          "internalType": "address",
          "name": "to",
          "type": "address"
        },
        {
          "indexed": false,
          "internalType": "uint256",
          "name": "id",
          "type": "uint256"
        },
        {
          "indexed": false,
          "internalType": "uint256",
          "name": "value",
          "type": "uint256"
        }
      ],
      "name": "TransferSingle",
      "type": "event"
    },
    {
      "anonymous": false,
      "inputs": [
        {
          "indexed": false,
          "internalType": "string",
          "name": "value",
          "type": "string"
        },
        {
          "indexed": true,
          "internalType": "uint256",
          "name": "id",
          "type": "uint256"
        }
      ],
      "name": "URI",
      "type": "event"
    },
    {
      "anonymous": false,
      "inputs": [
        {
          "indexed": true,
          "internalType": "address",
          "name": "oldWallet",
          "type": "address"
        },
        {
          "indexed": true,
          "internalType": "address",
          "name": "newWallet",
          "type": "address"
        }
      ],
      "name": "WalletChanged",
      "type": "event"
    },
    {
      "inputs": [],
      "name": "BLACKLIST_MANAGER_ROLE",
      "outputs": [
        {
          "internalType": "bytes32",
          "name": "",
          "type": "bytes32"
        }
      ],
      "stateMutability": "view",
      "type": "function"
    },
    {
      "inputs": [],
      "name": "DEFAULT_ADMIN_ROLE",
      "outputs": [
        {
          "internalType": "bytes32",
          "name": "",
          "type": "bytes32"
        }
      ],
      "stateMutability": "view",
      "type": "function"
    },
    {
      "inputs": [],
      "name": "FINANCE_MANAGER_ROLE",
      "outputs": [
        {
          "internalType": "bytes32",
          "name": "",
          "type": "bytes32"
        }
      ],
      "stateMutability": "view",
      "type": "function"
    },
    {
      "inputs": [],
      "name": "PROJECT_ID",
      "outputs": [
        {
          "internalType": "bytes32",
          "name": "",
          "type": "bytes32"
        }
      ],
      "stateMutability": "view",
      "type": "function"
    },
    {
      "inputs": [],
      "name": "TOKEN_BURNER_ROLE",
      "outputs": [
        {
          "internalType": "bytes32",
          "name": "",
          "type": "bytes32"
        }
      ],
      "stateMutability": "view",
      "type": "function"
    },
    {
      "inputs": [],
      "name": "TOKEN_MANAGER_ROLE",
      "outputs": [
        {
          "internalType": "bytes32",
          "name": "",
          "type": "bytes32"
        }
      ],
      "stateMutability": "view",
      "type": "function"
    },
    {
      "inputs": [],
      "name": "TOKEN_MINTER_ROLE",
      "outputs": [
        {
          "internalType": "bytes32",
          "name": "",
          "type": "bytes32"
        }
      ],
      "stateMutability": "view",
      "type": "function"
    },
    {
      "inputs": [],
      "name": "acceptDefaultAdminTransfer",
      "outputs": [],
      "stateMutability": "nonpayable",
      "type": "function"
    },
    {
      "inputs": [
        {
          "internalType": "uint256",
          "name": "id",
          "type": "uint256"
        }
      ],
      "name": "active",
      "outputs": [
        {
          "internalType": "bool",
          "name": "",
          "type": "bool"
        }
      ],
      "stateMutability": "view",
      "type": "function"
    },
    {
      "inputs": [
        {
          "internalType": "address[]",
          "name": "accounts",
          "type": "address[]"
        }
      ],
      "name": "addBatchToBlacklist",
      "outputs": [],
      "stateMutability": "nonpayable",
      "type": "function"
    },
    {
      "inputs": [
        {
          "internalType": "address",
          "name": "account",
          "type": "address"
        }
      ],
      "name": "addToBlacklist",
      "outputs": [],
      "stateMutability": "nonpayable",
      "type": "function"
    },
    {
      "inputs": [
        {
          "internalType": "address",
          "name": "",
          "type": "address"
        }
      ],
      "name": "authorizedExtensions",
      "outputs": [
        {
          "internalType": "bool",
          "name": "",
          "type": "bool"
        }
      ],
      "stateMutability": "view",
      "type": "function"
    },
    {
      "inputs": [
        {
          "internalType": "address",
          "name": "account",
          "type": "address"
        },
        {
          "internalType": "uint256",
          "name": "id",
          "type": "uint256"
        }
      ],
      "name": "balanceDetailsOf",
      "outputs": [
        {
          "components": [
            {
              "internalType": "uint256",
              "name": "balance",
              "type": "uint256"
            },
            {
              "internalType": "uint256",
              "name": "expiresAt",
              "type": "uint256"
            }
          ],
          "internalType": "struct EVMAuthExpiringERC1155.Group[]",
          "name": "",
          "type": "tuple[]"
        }
      ],
      "stateMutability": "view",
      "type": "function"
    },
    {
      "inputs": [
        {
          "internalType": "address",
          "name": "account",
          "type": "address"
        }
      ],
      "name": "balanceDetailsOfAll",
      "outputs": [
        {
          "components": [
            {
              "internalType": "uint256",
              "name": "balance",
              "type": "uint256"
            },
            {
              "internalType": "uint256",
              "name": "expiresAt",
              "type": "uint256"
            }
          ],
          "internalType": "struct EVMAuthExpiringERC1155.Group[][]",
          "name": "",
          "type": "tuple[][]"
        }
      ],
      "stateMutability": "view",
      "type": "function"
    },
    {
      "inputs": [
        {
          "internalType": "address[]",
          "name": "accounts",
          "type": "address[]"
        },
        {
          "internalType": "uint256[]",
          "name": "ids",
          "type": "uint256[]"
        }
      ],
      "name": "balanceDetailsOfBatch",
      "outputs": [
        {
          "components": [
            {
              "internalType": "uint256",
              "name": "balance",
              "type": "uint256"
            },
            {
              "internalType": "uint256",
              "name": "expiresAt",
              "type": "uint256"
            }
          ],
          "internalType": "struct EVMAuthExpiringERC1155.Group[][]",
          "name": "result",
          "type": "tuple[][]"
        }
      ],
      "stateMutability": "view",
      "type": "function"
    },
    {
      "inputs": [
        {
          "internalType": "address",
          "name": "account",
          "type": "address"
        },
        {
          "internalType": "uint256",
          "name": "id",
          "type": "uint256"
        }
      ],
      "name": "balanceOf",
      "outputs": [
        {
          "internalType": "uint256",
          "name": "",
          "type": "uint256"
        }
      ],
      "stateMutability": "view",
      "type": "function"
    },
    {
      "inputs": [
        {
          "internalType": "address",
          "name": "account",
          "type": "address"
        }
      ],
      "name": "balanceOfAll",
      "outputs": [
        {
          "internalType": "uint256[]",
          "name": "",
          "type": "uint256[]"
        }
      ],
      "stateMutability": "view",
      "type": "function"
    },
    {
      "inputs": [
        {
          "internalType": "address[]",
          "name": "accounts",
          "type": "address[]"
        },
        {
          "internalType": "uint256[]",
          "name": "ids",
          "type": "uint256[]"
        }
      ],
      "name": "balanceOfBatch",
      "outputs": [
        {
          "internalType": "uint256[]",
          "name": "",
          "type": "uint256[]"
        }
      ],
      "stateMutability": "view",
      "type": "function"
    },
    {
      "inputs": [
        {
          "internalType": "uint256",
          "name": "id",
          "type": "uint256"
        }
      ],
      "name": "baseMetadataOf",
      "outputs": [
        {
          "components": [
            {
              "internalType": "uint256",
              "name": "id",
              "type": "uint256"
            },
            {
              "internalType": "bool",
              "name": "active",
              "type": "bool"
            },
            {
              "internalType": "bool",
              "name": "burnable",
              "type": "bool"
            },
            {
              "internalType": "bool",
              "name": "transferable",
              "type": "bool"
            }
          ],
          "internalType": "struct EVMAuthBaseERC1155.BaseMetadata",
          "name": "",
          "type": "tuple"
        }
      ],
      "stateMutability": "view",
      "type": "function"
    },
    {
      "inputs": [],
      "name": "baseMetadataOfAll",
      "outputs": [
        {
          "components": [
            {
              "internalType": "uint256",
              "name": "id",
              "type": "uint256"
            },
            {
              "internalType": "bool",
              "name": "active",
              "type": "bool"
            },
            {
              "internalType": "bool",
              "name": "burnable",
              "type": "bool"
            },
            {
              "internalType": "bool",
              "name": "transferable",
              "type": "bool"
            }
          ],
          "internalType": "struct EVMAuthBaseERC1155.BaseMetadata[]",
          "name": "",
          "type": "tuple[]"
        }
      ],
      "stateMutability": "view",
      "type": "function"
    },
    {
      "inputs": [
        {
          "internalType": "uint256[]",
          "name": "ids",
          "type": "uint256[]"
        }
      ],
      "name": "baseMetadataOfBatch",
      "outputs": [
        {
          "components": [
            {
              "internalType": "uint256",
              "name": "id",
              "type": "uint256"
            },
            {
              "internalType": "bool",
              "name": "active",
              "type": "bool"
            },
            {
              "internalType": "bool",
              "name": "burnable",
              "type": "bool"
            },
            {
              "internalType": "bool",
              "name": "transferable",
              "type": "bool"
            }
          ],
          "internalType": "struct EVMAuthBaseERC1155.BaseMetadata[]",
          "name": "",
          "type": "tuple[]"
        }
      ],
      "stateMutability": "view",
      "type": "function"
    },
    {
      "inputs": [
        {
          "internalType": "address",
          "name": "newAdmin",
          "type": "address"
        }
      ],
      "name": "beginDefaultAdminTransfer",
      "outputs": [],
      "stateMutability": "nonpayable",
      "type": "function"
    },
    {
      "inputs": [
        {
          "internalType": "address",
          "name": "from",
          "type": "address"
        },
        {
          "internalType": "uint256",
          "name": "id",
          "type": "uint256"
        },
        {
          "internalType": "uint256",
          "name": "amount",
          "type": "uint256"
        }
      ],
      "name": "burn",
      "outputs": [],
      "stateMutability": "nonpayable",
      "type": "function"
    },
    {
      "inputs": [
        {
          "internalType": "address",
          "name": "from",
          "type": "address"
        },
        {
          "internalType": "uint256[]",
          "name": "ids",
          "type": "uint256[]"
        },
        {
          "internalType": "uint256[]",
          "name": "amounts",
          "type": "uint256[]"
        }
      ],
      "name": "burnBatch",
      "outputs": [],
      "stateMutability": "nonpayable",
      "type": "function"
    },
    {
      "inputs": [
        {
          "internalType": "uint256",
          "name": "id",
          "type": "uint256"
        }
      ],
      "name": "burnable",
      "outputs": [
        {
          "internalType": "bool",
          "name": "",
          "type": "bool"
        }
      ],
      "stateMutability": "view",
      "type": "function"
    },
    {
      "inputs": [],
      "name": "cancelDefaultAdminTransfer",
      "outputs": [],
      "stateMutability": "nonpayable",
      "type": "function"
    },
    {
      "inputs": [
        {
          "internalType": "uint48",
          "name": "newDelay",
          "type": "uint48"
        }
      ],
      "name": "changeDefaultAdminDelay",
      "outputs": [],
      "stateMutability": "nonpayable",
      "type": "function"
    },
    {
      "inputs": [],
      "name": "defaultAdmin",
      "outputs": [
        {
          "internalType": "address",
          "name": "",
          "type": "address"
        }
      ],
      "stateMutability": "view",
      "type": "function"
    },
    {
      "inputs": [],
      "name": "defaultAdminDelay",
      "outputs": [
        {
          "internalType": "uint48",
          "name": "",
          "type": "uint48"
        }
      ],
      "stateMutability": "view",
      "type": "function"
    },
    {
      "inputs": [],
      "name": "defaultAdminDelayIncreaseWait",
      "outputs": [
        {
          "internalType": "uint48",
          "name": "",
          "type": "uint48"
        }
      ],
      "stateMutability": "view",
      "type": "function"
    },
    {
      "inputs": [
        {
          "internalType": "uint256",
          "name": "id",
          "type": "uint256"
        }
      ],
      "name": "expirationFor",
      "outputs": [
        {
          "internalType": "uint256",
          "name": "",
          "type": "uint256"
        }
      ],
      "stateMutability": "view",
      "type": "function"
    },
    {
      "inputs": [
        {
          "internalType": "address",
          "name": "from",
          "type": "address"
        },
        {
          "internalType": "uint256",
          "name": "id",
          "type": "uint256"
        },
        {
          "internalType": "uint256",
          "name": "amount",
          "type": "uint256"
        }
      ],
      "name": "extBurn",
      "outputs": [],
      "stateMutability": "nonpayable",
      "type": "function"
    },
    {
      "inputs": [
        {
          "internalType": "address",
          "name": "to",
          "type": "address"
        },
        {
          "internalType": "uint256",
          "name": "id",
          "type": "uint256"
        },
        {
          "internalType": "uint256",
          "name": "amount",
          "type": "uint256"
        },
        {
          "internalType": "bytes",
          "name": "data",
          "type": "bytes"
        }
      ],
      "name": "extMint",
      "outputs": [],
      "stateMutability": "nonpayable",
      "type": "function"
    },
    {
      "inputs": [
        {
          "internalType": "uint256",
          "name": "id",
          "type": "uint256"
        },
        {
          "internalType": "bool",
          "name": "_active",
          "type": "bool"
        },
        {
          "internalType": "bool",
          "name": "_burnable",
          "type": "bool"
        },
        {
          "internalType": "bool",
          "name": "_transferable",
          "type": "bool"
        },
        {
          "internalType": "uint256",
          "name": "_price",
          "type": "uint256"
        },
        {
          "internalType": "uint256",
          "name": "_ttl",
          "type": "uint256"
        }
      ],
      "name": "extSetMetadata",
      "outputs": [],
      "stateMutability": "nonpayable",
      "type": "function"
    },
    {
      "inputs": [
        {
          "internalType": "bytes32",
          "name": "",
          "type": "bytes32"
        }
      ],
      "name": "extensions",
      "outputs": [
        {
          "internalType": "address",
          "name": "",
          "type": "address"
        }
      ],
      "stateMutability": "view",
      "type": "function"
    },
    {
      "inputs": [
        {
          "internalType": "uint256",
          "name": "id",
          "type": "uint256"
        }
      ],
      "name": "forSale",
      "outputs": [
        {
          "internalType": "bool",
          "name": "",
          "type": "bool"
        }
      ],
      "stateMutability": "view",
      "type": "function"
    },
    {
      "inputs": [
        {
          "internalType": "bytes32",
          "name": "role",
          "type": "bytes32"
        }
      ],
      "name": "getRoleAdmin",
      "outputs": [
        {
          "internalType": "bytes32",
          "name": "",
          "type": "bytes32"
        }
      ],
      "stateMutability": "view",
      "type": "function"
    },
    {
      "inputs": [
        {
          "internalType": "bytes32",
          "name": "role",
          "type": "bytes32"
        },
        {
          "internalType": "address",
          "name": "account",
          "type": "address"
        }
      ],
      "name": "grantRole",
      "outputs": [],
      "stateMutability": "nonpayable",
      "type": "function"
    },
    {
      "inputs": [
        {
          "internalType": "bytes32[]",
          "name": "roles",
          "type": "bytes32[]"
        },
        {
          "internalType": "address",
          "name": "account",
          "type": "address"
        }
      ],
      "name": "grantRoles",
      "outputs": [],
      "stateMutability": "nonpayable",
      "type": "function"
    },
    {
      "inputs": [
        {
          "internalType": "bytes32",
          "name": "role",
          "type": "bytes32"
        },
        {
          "internalType": "address",
          "name": "account",
          "type": "address"
        }
      ],
      "name": "hasRole",
      "outputs": [
        {
          "internalType": "bool",
          "name": "",
          "type": "bool"
        }
      ],
      "stateMutability": "view",
      "type": "function"
    },
    {
      "inputs": [
        {
          "internalType": "address",
          "name": "account",
          "type": "address"
        },
        {
          "internalType": "address",
          "name": "operator",
          "type": "address"
        }
      ],
      "name": "isApprovedForAll",
      "outputs": [
        {
          "internalType": "bool",
          "name": "",
          "type": "bool"
        }
      ],
      "stateMutability": "view",
      "type": "function"
    },
    {
      "inputs": [
        {
          "internalType": "address",
          "name": "extension",
          "type": "address"
        }
      ],
      "name": "isAuthorizedExtension",
      "outputs": [
        {
          "internalType": "bool",
          "name": "",
          "type": "bool"
        }
      ],
      "stateMutability": "view",
      "type": "function"
    },
    {
      "inputs": [
        {
          "internalType": "address",
          "name": "account",
          "type": "address"
        }
      ],
      "name": "isBlacklisted",
      "outputs": [
        {
          "internalType": "bool",
          "name": "",
          "type": "bool"
        }
      ],
      "stateMutability": "view",
      "type": "function"
    },
    {
      "inputs": [
        {
          "internalType": "address",
          "name": "to",
          "type": "address"
        },
        {
          "internalType": "uint256",
          "name": "id",
          "type": "uint256"
        },
        {
          "internalType": "uint256",
          "name": "amount",
          "type": "uint256"
        },
        {
          "internalType": "bytes",
          "name": "data",
          "type": "bytes"
        }
      ],
      "name": "issue",
      "outputs": [],
      "stateMutability": "nonpayable",
      "type": "function"
    },
    {
      "inputs": [
        {
          "internalType": "address",
          "name": "to",
          "type": "address"
        },
        {
          "internalType": "uint256[]",
          "name": "ids",
          "type": "uint256[]"
        },
        {
          "internalType": "uint256[]",
          "name": "amounts",
          "type": "uint256[]"
        },
        {
          "internalType": "bytes",
          "name": "data",
          "type": "bytes"
        }
      ],
      "name": "issueBatch",
      "outputs": [],
      "stateMutability": "nonpayable",
      "type": "function"
    },
    {
      "inputs": [
        {
          "internalType": "uint256",
          "name": "id",
          "type": "uint256"
        }
      ],
      "name": "metadataOf",
      "outputs": [
        {
          "components": [
            {
              "internalType": "uint256",
              "name": "id",
              "type": "uint256"
            },
            {
              "internalType": "bool",
              "name": "active",
              "type": "bool"
            },
            {
              "internalType": "bool",
              "name": "burnable",
              "type": "bool"
            },
            {
              "internalType": "bool",
              "name": "transferable",
              "type": "bool"
            },
            {
              "internalType": "uint256",
              "name": "price",
              "type": "uint256"
            },
            {
              "internalType": "uint256",
              "name": "ttl",
              "type": "uint256"
            }
          ],
          "internalType": "struct EVMAuthV2.TokenMetadata",
          "name": "",
          "type": "tuple"
        }
      ],
      "stateMutability": "view",
      "type": "function"
    },
    {
      "inputs": [],
      "name": "metadataOfAll",
      "outputs": [
        {
          "components": [
            {
              "internalType": "uint256",
              "name": "id",
              "type": "uint256"
            },
            {
              "internalType": "bool",
              "name": "active",
              "type": "bool"
            },
            {
              "internalType": "bool",
              "name": "burnable",
              "type": "bool"
            },
            {
              "internalType": "bool",
              "name": "transferable",
              "type": "bool"
            },
            {
              "internalType": "uint256",
              "name": "price",
              "type": "uint256"
            },
            {
              "internalType": "uint256",
              "name": "ttl",
              "type": "uint256"
            }
          ],
          "internalType": "struct EVMAuthV2.TokenMetadata[]",
          "name": "",
          "type": "tuple[]"
        }
      ],
      "stateMutability": "view",
      "type": "function"
    },
    {
      "inputs": [
        {
          "internalType": "uint256[]",
          "name": "ids",
          "type": "uint256[]"
        }
      ],
      "name": "metadataOfBatch",
      "outputs": [
        {
          "components": [
            {
              "internalType": "uint256",
              "name": "id",
              "type": "uint256"
            },
            {
              "internalType": "bool",
              "name": "active",
              "type": "bool"
            },
            {
              "internalType": "bool",
              "name": "burnable",
              "type": "bool"
            },
            {
              "internalType": "bool",
              "name": "transferable",
              "type": "bool"
            },
            {
              "internalType": "uint256",
              "name": "price",
              "type": "uint256"
            },
            {
              "internalType": "uint256",
              "name": "ttl",
              "type": "uint256"
            }
          ],
          "internalType": "struct EVMAuthV2.TokenMetadata[]",
          "name": "",
          "type": "tuple[]"
        }
      ],
      "stateMutability": "view",
      "type": "function"
    },
    {
      "inputs": [],
      "name": "owner",
      "outputs": [
        {
          "internalType": "address",
          "name": "",
          "type": "address"
        }
      ],
      "stateMutability": "view",
      "type": "function"
    },
    {
      "inputs": [],
      "name": "pendingDefaultAdmin",
      "outputs": [
        {
          "internalType": "address",
          "name": "newAdmin",
          "type": "address"
        },
        {
          "internalType": "uint48",
          "name": "schedule",
          "type": "uint48"
        }
      ],
      "stateMutability": "view",
      "type": "function"
    },
    {
      "inputs": [],
      "name": "pendingDefaultAdminDelay",
      "outputs": [
        {
          "internalType": "uint48",
          "name": "newDelay",
          "type": "uint48"
        },
        {
          "internalType": "uint48",
          "name": "schedule",
          "type": "uint48"
        }
      ],
      "stateMutability": "view",
      "type": "function"
    },
    {
      "inputs": [
        {
          "internalType": "uint256",
          "name": "id",
          "type": "uint256"
        }
      ],
      "name": "priceOf",
      "outputs": [
        {
          "internalType": "uint256",
          "name": "",
          "type": "uint256"
        }
      ],
      "stateMutability": "view",
      "type": "function"
    },
    {
      "inputs": [],
      "name": "priceOfAll",
      "outputs": [
        {
          "internalType": "uint256[]",
          "name": "result",
          "type": "uint256[]"
        }
      ],
      "stateMutability": "view",
      "type": "function"
    },
    {
      "inputs": [
        {
          "internalType": "uint256[]",
          "name": "ids",
          "type": "uint256[]"
        }
      ],
      "name": "priceOfBatch",
      "outputs": [
        {
          "internalType": "uint256[]",
          "name": "result",
          "type": "uint256[]"
        }
      ],
      "stateMutability": "view",
      "type": "function"
    },
    {
      "inputs": [
        {
          "internalType": "address",
          "name": "account",
          "type": "address"
        },
        {
          "internalType": "uint256",
          "name": "id",
          "type": "uint256"
        },
        {
          "internalType": "uint256",
          "name": "amount",
          "type": "uint256"
        }
      ],
      "name": "purchase",
      "outputs": [],
      "stateMutability": "payable",
      "type": "function"
    },
    {
      "inputs": [
        {
          "internalType": "address",
          "name": "account",
          "type": "address"
        },
        {
          "internalType": "uint256",
          "name": "id",
          "type": "uint256"
        },
        {
          "internalType": "uint256",
          "name": "amount",
          "type": "uint256"
        }
      ],
      "name": "purchaseWithHooks",
      "outputs": [],
      "stateMutability": "payable",
      "type": "function"
    },
    {
      "inputs": [
        {
          "internalType": "bytes32",
          "name": "name",
          "type": "bytes32"
        },
        {
          "internalType": "address",
          "name": "extension",
          "type": "address"
        }
      ],
      "name": "registerExtension",
      "outputs": [],
      "stateMutability": "nonpayable",
      "type": "function"
    },
    {
      "inputs": [
        {
          "internalType": "address[]",
          "name": "accounts",
          "type": "address[]"
        }
      ],
      "name": "removeBatchFromBlacklist",
      "outputs": [],
      "stateMutability": "nonpayable",
      "type": "function"
    },
    {
      "inputs": [
        {
          "internalType": "address",
          "name": "account",
          "type": "address"
        }
      ],
      "name": "removeFromBlacklist",
      "outputs": [],
      "stateMutability": "nonpayable",
      "type": "function"
    },
    {
      "inputs": [
        {
          "internalType": "bytes32",
          "name": "role",
          "type": "bytes32"
        },
        {
          "internalType": "address",
          "name": "account",
          "type": "address"
        }
      ],
      "name": "renounceRole",
      "outputs": [],
      "stateMutability": "nonpayable",
      "type": "function"
    },
    {
      "inputs": [
        {
          "internalType": "bytes32",
          "name": "name",
          "type": "bytes32"
        }
      ],
      "name": "revokeExtension",
      "outputs": [],
      "stateMutability": "nonpayable",
      "type": "function"
    },
    {
      "inputs": [
        {
          "internalType": "bytes32",
          "name": "role",
          "type": "bytes32"
        },
        {
          "internalType": "address",
          "name": "account",
          "type": "address"
        }
      ],
      "name": "revokeRole",
      "outputs": [],
      "stateMutability": "nonpayable",
      "type": "function"
    },
    {
      "inputs": [
        {
          "internalType": "bytes32[]",
          "name": "roles",
          "type": "bytes32[]"
        },
        {
          "internalType": "address",
          "name": "account",
          "type": "address"
        }
      ],
      "name": "revokeRoles",
      "outputs": [],
      "stateMutability": "nonpayable",
      "type": "function"
    },
    {
      "inputs": [],
      "name": "rollbackDefaultAdminDelay",
      "outputs": [],
      "stateMutability": "nonpayable",
      "type": "function"
    },
    {
      "inputs": [
        {
          "internalType": "address",
          "name": "from",
          "type": "address"
        },
        {
          "internalType": "address",
          "name": "to",
          "type": "address"
        },
        {
          "internalType": "uint256[]",
          "name": "ids",
          "type": "uint256[]"
        },
        {
          "internalType": "uint256[]",
          "name": "values",
          "type": "uint256[]"
        },
        {
          "internalType": "bytes",
          "name": "data",
          "type": "bytes"
        }
      ],
      "name": "safeBatchTransferFrom",
      "outputs": [],
      "stateMutability": "nonpayable",
      "type": "function"
    },
    {
      "inputs": [
        {
          "internalType": "address",
          "name": "from",
          "type": "address"
        },
        {
          "internalType": "address",
          "name": "to",
          "type": "address"
        },
        {
          "internalType": "uint256",
          "name": "id",
          "type": "uint256"
        },
        {
          "internalType": "uint256",
          "name": "value",
          "type": "uint256"
        },
        {
          "internalType": "bytes",
          "name": "data",
          "type": "bytes"
        }
      ],
      "name": "safeTransferFrom",
      "outputs": [],
      "stateMutability": "nonpayable",
      "type": "function"
    },
    {
      "inputs": [
        {
          "internalType": "address",
          "name": "operator",
          "type": "address"
        },
        {
          "internalType": "bool",
          "name": "approved",
          "type": "bool"
        }
      ],
      "name": "setApprovalForAll",
      "outputs": [],
      "stateMutability": "nonpayable",
      "type": "function"
    },
    {
      "inputs": [
        {
          "internalType": "uint256",
          "name": "id",
          "type": "uint256"
        },
        {
          "internalType": "bool",
          "name": "_active",
          "type": "bool"
        },
        {
          "internalType": "bool",
          "name": "_burnable",
          "type": "bool"
        },
        {
          "internalType": "bool",
          "name": "_transferable",
          "type": "bool"
        }
      ],
      "name": "setBaseMetadata",
      "outputs": [],
      "stateMutability": "nonpayable",
      "type": "function"
    },
    {
      "inputs": [
        {
          "internalType": "uint256",
          "name": "id",
          "type": "uint256"
        },
        {
          "internalType": "bool",
          "name": "_active",
          "type": "bool"
        },
        {
          "internalType": "bool",
          "name": "_burnable",
          "type": "bool"
        },
        {
          "internalType": "bool",
          "name": "_transferable",
          "type": "bool"
        },
        {
          "internalType": "uint256",
          "name": "_price",
          "type": "uint256"
        },
        {
          "internalType": "uint256",
          "name": "_ttl",
          "type": "uint256"
        }
      ],
      "name": "setMetadata",
      "outputs": [],
      "stateMutability": "nonpayable",
      "type": "function"
    },
    {
      "inputs": [
        {
          "internalType": "uint256",
          "name": "id",
          "type": "uint256"
        },
        {
          "internalType": "uint256",
          "name": "price",
          "type": "uint256"
        }
      ],
      "name": "setPriceOf",
      "outputs": [],
      "stateMutability": "nonpayable",
      "type": "function"
    },
    {
      "inputs": [
        {
          "internalType": "uint256[]",
          "name": "ids",
          "type": "uint256[]"
        },
        {
          "internalType": "uint256[]",
          "name": "prices",
          "type": "uint256[]"
        }
      ],
      "name": "setPriceOfBatch",
      "outputs": [],
      "stateMutability": "nonpayable",
      "type": "function"
    },
    {
      "inputs": [
        {
          "internalType": "uint256",
          "name": "id",
          "type": "uint256"
        },
        {
          "internalType": "uint256",
          "name": "value",
          "type": "uint256"
        }
      ],
      "name": "setTTL",
      "outputs": [],
      "stateMutability": "nonpayable",
      "type": "function"
    },
    {
      "inputs": [
        {
          "internalType": "string",
          "name": "value",
          "type": "string"
        }
      ],
      "name": "setURI",
      "outputs": [],
      "stateMutability": "nonpayable",
      "type": "function"
    },
    {
      "inputs": [
        {
          "internalType": "address",
          "name": "value",
          "type": "address"
        }
      ],
      "name": "setWallet",
      "outputs": [],
      "stateMutability": "nonpayable",
      "type": "function"
    },
    {
      "inputs": [
        {
          "internalType": "bytes4",
          "name": "interfaceId",
          "type": "bytes4"
        }
      ],
      "name": "supportsInterface",
      "outputs": [
        {
          "internalType": "bool",
          "name": "",
          "type": "bool"
        }
      ],
      "stateMutability": "view",
      "type": "function"
    },
    {
      "inputs": [
        {
          "internalType": "uint256",
          "name": "id",
          "type": "uint256"
        }
      ],
      "name": "transferable",
      "outputs": [
        {
          "internalType": "bool",
          "name": "",
          "type": "bool"
        }
      ],
      "stateMutability": "view",
      "type": "function"
    },
    {
      "inputs": [
        {
          "internalType": "uint256",
          "name": "id",
          "type": "uint256"
        }
      ],
      "name": "ttlOf",
      "outputs": [
        {
          "internalType": "uint256",
          "name": "",
          "type": "uint256"
        }
      ],
      "stateMutability": "view",
      "type": "function"
    },
    {
      "inputs": [],
      "name": "ttlOfAll",
      "outputs": [
        {
          "internalType": "uint256[]",
          "name": "",
          "type": "uint256[]"
        }
      ],
      "stateMutability": "view",
      "type": "function"
    },
    {
      "inputs": [
        {
          "internalType": "uint256[]",
          "name": "ids",
          "type": "uint256[]"
        }
      ],
      "name": "ttlOfBatch",
      "outputs": [
        {
          "internalType": "uint256[]",
          "name": "",
          "type": "uint256[]"
        }
      ],
      "stateMutability": "view",
      "type": "function"
    },
    {
      "inputs": [
        {
          "internalType": "uint256",
          "name": "",
          "type": "uint256"
        }
      ],
      "name": "uri",
      "outputs": [
        {
          "internalType": "string",
          "name": "",
          "type": "string"
        }
      ],
      "stateMutability": "view",
      "type": "function"
    },
    {
      "inputs": [],
      "name": "wallet",
      "outputs": [
        {
          "internalType": "address",
          "name": "",
          "type": "address"
        }
      ],
      "stateMutability": "view",
      "type": "function"
    },
    {
      "inputs": [],
      "name": "withdraw",
      "outputs": [],
      "stateMutability": "payable",
      "type": "function"
    }
  ],
  "bytecode": "0x60a0604090808252346200034b576200615a803803809162000022828562000350565b833981019060a0818303126200034b5780516001600160401b0392908381116200034b57816200005491840162000399565b602091828401518581116200034b57816200007191860162000399565b9086850151908682116200034b576200008c91860162000399565b9260608501519465ffffffffffff861686036200034b57608001519360018060a01b0395868616978887036200034b57825190811162000335576002546001938482811c921680156200032a575b86831014620003145781601f849311620002bb575b508590601f8311600114620002515760009262000245575b5050600019600383901b1c191690831b176002555b87156200022d57600480546001600160d01b031660d09290921b6001600160d01b0319169190911790556005549586166200021c576001600160a01b03199586168717600555620001fc94939291620001cc916200017a86620003f4565b50620001868662000475565b5060075560006009558851809382620001a9818401978881519384920162000374565b8201620001bf8251809386808501910162000374565b0103808452018262000350565b519020608052620001dd8162000518565b50620001e981620005b6565b50620001f58162000654565b50620006f2565b50600a541617600a55516159a9908162000791823960805181611a640152f35b8751631fe1e13d60e11b8152600490fd5b8851636116401160e11b815260006004820152602490fd5b01519050388062000107565b90859350601f198316916002600052876000209260005b89828210620002a457505084116200028a575b505050811b016002556200011c565b015160001960f88460031b161c191690553880806200027b565b838501518655899790950194938401930162000268565b909150600260005285600020601f840160051c81019187851062000309575b84939291601f88920160051c01915b828110620002f9575050620000ef565b60008155859450879101620002e9565b9091508190620002da565b634e487b7160e01b600052602260045260246000fd5b91607f1691620000da565b634e487b7160e01b600052604160045260246000fd5b600080fd5b601f909101601f19168101906001600160401b038211908210176200033557604052565b60005b838110620003885750506000910152565b818101518382015260200162000377565b81601f820112156200034b5780516001600160401b038111620003355760405192620003d0601f8301601f19166020018562000350565b818452602082840101116200034b57620003f1916020808501910162000374565b90565b6001600160a01b031660008181527f3617319a054d772f909f7c479a2cebe5066e836a939412e32403c99029b92eff602052604081205490919060ff16620004715781805260036020526040822081835260205260408220600160ff1982541617905533916000805160206200613a8339815191528180a4600190565b5090565b6001600160a01b031660008181527f27869b03d97f61c857c7dfd10dbf3620fa30d8bb89bb221d094b39e07105269e60205260408120549091907ff988e4fb62b8e14f4820fed03192306ddf4d7dbfa215595ba1c6ba4b76b369ee9060ff16620005135780835260036020526040832082845260205260408320600160ff198254161790556000805160206200613a833981519152339380a4600190565b505090565b6001600160a01b031660008181527f066524a10daac0b3974093068bb2bc712e20a33461d4e22217863cdad751f2ab60205260408120549091907f74f7a545c65c11839a48d7453738b30c295408df2d944516167556759ddc6d069060ff16620005135780835260036020526040832082845260205260408320600160ff198254161790556000805160206200613a833981519152339380a4600190565b6001600160a01b031660008181527f9409729698b8f308a2af83e5557cf603f852e9adbc3a7847d7b55aa10527eebf60205260408120549091907fb3bb6029312d1001076133d40b75b7eca92ba54e4963b3ce24e1486a3d5a038b9060ff16620005135780835260036020526040832082845260205260408320600160ff198254161790556000805160206200613a833981519152339380a4600190565b6001600160a01b031660008181527fd865b7f358b61ebb88423346dbdd313fbd9dc67840adf461aa755702d67a4e8160205260408120549091907f02358c16c6ece4d564dd98c8400ef2ce02ec4ed5a3d53421ef64678a57ac51019060ff16620005135780835260036020526040832082845260205260408320600160ff198254161790556000805160206200613a833981519152339380a4600190565b6001600160a01b031660008181527ff0f8f76d6ce591be902d66c475263e0a57264353432317d51742b939d2e393c060205260408120549091907f572f022558b687eed59080237cb7778171198110a24741b57d6ed3432df881fc9060ff16620005135780835260036020526040832082845260205260408320600160ff198254161790556000805160206200613a833981519152339380a460019056fe6080604052600436101561001257600080fd5b60003560e01c80623b7d511461052b578062fdd58e1461052657806301ffc9a714610521578063022d63fb1461051c57806302fe530514610517578063055ef93c146105125780630aa6220b1461050d5780630e3cc22b146105085780630e543d74146105035780630e89341c146104fe5780630ef7cc8e146104f95780630f501059146104f45780631bf8b28a146104ef578063248a9ca3146104ea5780632831f2f4146104e55780632eb2c2d6146104e05780632f2ff15d146104db57806336568abe146104d6578063391d8dbe146104225780633ccfd60b146104d15780633d40bf36146104cc5780633e2efecb146104c7578063410b2424146104c257806344337ea1146104bd5780634e1273f4146104b857806350ba3c4d146104b3578063512b336d146104ae578063521eb273146104a9578063537df3b6146104a457806353e26d9e1461049f57806356539f391461049a5780635961c8c814610495578063634e93da14610490578063649a5ec71461048b57806364a5e39d146104865780636b20c454146104815780636ce81c171461047c5780637cfb384d14610477578063800ed2a3146104725780638033d5811461046d57806384ef8ffc146104635780638a780f65146104685780638da5cb5b146104635780638f427f4f1461045e57806390756fcb1461045957806391d1485414610454578063988360a31461044f57806398968f151461044a5780639c407ff014610445578063a1eda53c14610440578063a217fddf1461043b578063a22cb46514610436578063aaa070ca14610431578063b84d73a41461042c578063b9186d7d14610427578063bf4f135d14610422578063c19a71471461041d578063c2840e6014610418578063c345ec3314610413578063ca33ec351461040e578063cc8463c814610409578063cefc142914610404578063cf6eefb7146103ff578063d122e681146103fa578063d547741f146103f5578063d602b9fd146103f0578063dc3e82d3146103eb578063dd7a3462146103e6578063deaa59df146103e1578063e6c26d13146103dc578063e985e9c5146103d7578063ea9b5e15146103d2578063f242432a146103cd578063f4c3b4d7146103c8578063f5298aca146103c3578063f6ad20e0146103be578063fba49e4f146103b9578063fcd7627e146103b4578063fe575a87146103af578063fe992c98146103aa578063feb17fda146103a55763fefbd875146103a057600080fd5b6130c8565b613066565b613009565b612fe2565b612f86565b612f1e565b612f05565b612ead565b612e7a565b612da1565b612c84565b612c50565b612bf5565b612b43565b612a60565b612a34565b6129cf565b6129a7565b612988565b61294d565b61288b565b612860565b612844565b612828565b6127ff565b6126fe565b611384565b6126d2565b61261e565b612595565b6124d3565b6124b7565b612453565b6123e9565b61220d565b6121b8565b6120ee565b612086565b612037565b611fe5565b61200e565b611fb5565b611f97565b611f3b565b611ef8565b611e13565b611dab565b611c84565b611ba7565b611a87565b611a4c565b611a23565b6119b7565b61198e565b611965565b611927565b611869565b6116df565b6116b6565b611683565b61152a565b6113c6565b61129e565b611276565b61115a565b611132565b611103565b610f96565b610f33565b610ec7565b610dfd565b610d7f565b610d12565b610c0d565b610afc565b6108fe565b6108e0565b61083e565b6107f9565b610709565b6001600160a01b0381160361054157565b600080fd5b6024359061055382610530565b565b634e487b7160e01b600052604160045260246000fd5b608081019081106001600160401b0382111761058657604052565b610555565b604081019081106001600160401b0382111761058657604052565b60c081019081106001600160401b0382111761058657604052565b602081019081106001600160401b0382111761058657604052565b90601f801991011681019081106001600160401b0382111761058657604052565b60405190610553826105a6565b604051906105538261056b565b604051906105538261058b565b6001600160401b0381116105865760051b60200190565b81601f820112156105415780359161065283610624565b9261066060405194856105dc565b808452602092838086019260051b820101928311610541578301905b82821061068a575050505090565b8135815290830190830161067c565b6001600160401b03811161058657601f01601f191660200190565b9291926106c082610699565b916106ce60405193846105dc565b829481845281830111610541578281602093846000960137010152565b9080601f8301121561054157816020610706933591016106b4565b90565b346105415760803660031901126105415760043561072681610530565b6001600160401b036024358181116105415761074690369060040161063b565b906044358181116105415761075f90369060040161063b565b90606435908111610541576107789036906004016106eb565b6000805160206159548339815191526000526003602052916107c660ff6107bf337f9409729698b8f308a2af83e5557cf603f852e9adbc3a7847d7b55aa10527eebf61136d565b54166138e0565b6001600160a01b038416156107e0576107de93613a72565b005b604051632bfa23e760e11b815260006004820152602490fd5b3461054157604036600319011261054157602061082460043561081b81610530565b60243590614757565b604051908152f35b6001600160e01b031981160361054157565b3461054157602036600319011261054157602060043561085d8161082c565b63ffffffff60e01b166318a4c3c360e11b8114908115610883575b506040519015158152f35b637965db0b60e01b81149150811561089d575b5038610878565b636cdb3d1360e11b8114915081156108cf575b81156108be575b5038610896565b6301ffc9a760e01b149050386108b7565b6303a24d0760e21b811491506108b0565b34610541576000366003190112610541576020604051620697808152f35b3461054157602080600319360112610541576001600160401b03906004358281116105415736602382011215610541576109429036906024816004013591016106b4565b9160009160008051602061587483398151915283526003815261097460ff61096d336040872061136d565b541661380b565b8351918211610586576109918261098c60025461361c565b61388c565b80601f83116001146109cb575082938293926109c0575b50508160011b916000199060031b1c19161760025580f35b0151905038806109a8565b6002600052601f198316947f405787fa12a823e0f2b7631cc41b3ba8828b3321ca811111fa75cd3aa3bb5ace929185905b878210610a35575050836001959610610a1c575b505050811b0160025580f35b015160001960f88460031b161c19169055388080610a10565b806001859682949686015181550195019301906109fc565b602060031982011261054157600435906001600160401b038211610541576107069160040161063b565b60a0809180518452602081015115156020850152604081015115156040850152606081015115156060850152608081015160808501520151910152565b6020908160408183019282815285518094520193019160005b828110610adb575050505090565b909192938260c082610af06001948951610a77565b01950193929101610acd565b3461054157610b0a36610a4d565b610b14815161377d565b90610b1e81614561565b610b278261570f565b90610b31836149e0565b60005b8451811015610bfb5780610b4b610bf692856137f2565b5151602084610bd18885610bc88a610b6f87610b6785846137f2565b510151151590565b610bbf604091610ba986610ba281610b9c610b8e88610b67848c6137f2565b98610b6760609c8d926137f2565b9a6137f2565b519a6137f2565b5199610bb36105fd565b9b8c528b019015159052565b88019015159052565b85019015159052565b608083015260a0820152610be582896137f2565b52610bf081886137f2565b506137cd565b610b34565b60405180610c098882610ab4565b0390f35b3461054157600080600319360112610ca357610c2761313b565b6005548060d01c80610c47575b600580546001600160a01b031690558280f35b421115610c7957600480546001600160d01b031660309290921b6001600160d01b0319169190911790555b3880610c34565b507f2b1fa2edafe6f7b9e97c1a9e0c3660e645beb2dcaa2d45bdbf9beaf5472e1ec58180a1610c72565b80fd5b6020908160408183019282815285518094520193019160005b828110610ccd575050505090565b9091929382608082610d066001948951606080918051845260208101511515602085015260408101511515604085015201511515910152565b01950193929101610cbf565b3461054157600036600319011261054157610c09610d2e6144e7565b60405191829182610ca6565b90815180825260208080930193019160005b828110610d5a575050505090565b835185529381019392810192600101610d4c565b906020610706928181520190610d3a565b3461054157610c09610d98610d9336610a4d565b61570f565b604051918291602083526020830190610d3a565b919082519283825260005b848110610dd8575050826000602080949584010152601f8019910116010190565b602081830181015184830182015201610db7565b906020610706928181520190610dac565b346105415760208060031936011261054157604051600091600254610e218161361c565b80845290600190818116908115610e975750600114610e57575b610c0984610e4b818803826105dc565b60405191829182610dec565b919350600260005283600020916000925b828410610e845750505081610c0993610e4b9282010193610e3b565b8054858501870152928501928101610e68565b60ff1916858501525050151560051b8201019150610e4b81610c09610e3b565b60c0810192916105539190610a77565b346105415760203660031901126105415760c0610ee560043561370b565b610ef26040518092610a77565bf35b90815180825260208080930193019160005b828110610f14575050505090565b8351805186528201518583015260409094019392810192600101610f06565b3461054157604036600319011261054157610c09610f5f600435610f5681610530565b60243590615579565b604051918291602083526020830190610ef4565b606090600319011261054157600435610f8b81610530565b906024359060443590565b610f9f36610f73565b9091610fa9614245565b610fbb610fb5826143e7565b156140c8565b610fcd610fc7336143e7565b1561410d565b6001600160a01b03808216156110fb575b610fef610fea856156a2565b614151565b6110188361100786600052600b602052604060002090565b54611013811515614192565b6141d3565b91611025833410156141e6565b61102f8334614238565b801580156110d5575b5050600080808086611063611057611057600a5460018060a01b031690565b6001600160a01b031690565b8282156110cc575bf1156110c7576110b17f3ceffd410054fdaed44f598ff5c1fb450658778e2241892da4aa646979dee617936110a96110a1613d9a565b878986613922565b85878461428c565b6040519384521691602090a36107de6001600755565b613d8e565b506108fc61106b565b6000808093819382906110f2575b3390f1156110c7573880611038565b506108fc6110e3565b339150610fde565b346105415760203660031901126105415760043560005260036020526020600160406000200154604051908152f35b346105415760203660031901126105415760206111506004356156a2565b6040519015158152f35b346105415760a0366003190112610541576004803561117881610530565b60243561118481610530565b6001600160401b0390604435828111610541576111a4903690860161063b565b90606435838111610541576111bc903690870161063b565b92608435908111610541576111d490369087016106eb565b936001600160a01b03808216903382141580611265575b6112345783161561121c5715611205576107de9550613b6b565b604051626a0d4560e21b8152600081880152602490fd5b604051632bfa23e760e11b8152600081890152602490fd5b6040805163711bec9160e11b815233818b019081526001600160a01b038616602082015290918291010390fd5b0390fd5b5061127033846145b3565b156111eb565b34610541576040366003190112610541576107de60243561129681610530565b6004356130fc565b34610541576040366003190112610541576004356024356112be81610530565b811580611356575b6112d4575b6107de91613236565b6112dc6134f0565b92906001600160a01b031615801590611346575b8015611334575b611314576004805465ffffffffffff60a01b1916905591506112cb565b6040516319ca5ebb60e01b815265ffffffffffff84166004820152602490fd5b504265ffffffffffff841610156112f7565b5065ffffffffffff8316156112f0565b506005546001600160a01b038281169116146112c6565b9060018060a01b0316600052602052604060002090565b34610541576020366003190112610541576004356113a181610530565b60018060a01b0316600052600f602052602060ff604060002054166040519015158152f35b600080600319360112610ca3576113db614245565b600a546001600160a01b03166113f2811515615752565b6113fe30821415615752565b6000805160206159348339815191528252600360205261142d60ff611426336040862061136d565b54166157e7565b4790811561149e5782808084819482f1156110c757600a547feaff4b37086828766ad3268786972c0cd24259d4c87a80f9d3963a3c3d999b0d9061148e9061147d906001600160a01b0316611057565b604051938452929081906020820190565b0390a261149b6001600755565b80f35b60405162461bcd60e51b81526020600482015260146024820152734e6f2066756e647320746f20776974686472617760601b6044820152606490fd5b60243590811515820361054157565b60c090600319011261054157600435906024358015158103610541579060443580151581036105415790606435801515810361054157906084359060a43590565b3461054157611538366114e9565b60008051602061587483398151915260005260036020529193929061157561156e3360008051602061589483398151915261136d565b5460ff1690565b801561165f575b6115859061380b565b60095486109485946115956136c9565b9561163f575b6115b19291846115ab928a614658565b86615797565b61162f575b506115c08361370b565b91156115fd57907f2bca4855835c92383e0b5e326bda6e6a0563526cc9b2dc1a447ce32ab955547e916115f860405192839283613857565b0390a2005b506115f87fe543f2a83723d0e2ec9719bacba60a0e9a35f3e9ee224368227c5306b9b9f93d9160405191829182610eb7565b61163990846148e0565b386115b6565b9450906115ab6115b192846116538a61370b565b9792505091925061159b565b50336000908152600f602052604090206115859061167c9061156e565b905061157c565b34610541576020366003190112610541576020611150600435600052600860205260ff60016040600020015460081c1690565b346105415760003660031901126105415760206040516000805160206158b48339815191528152f35b34610541576020366003190112610541576004356116fc81610530565b611704613186565b6000805160206158b4833981519152600090815260036020529060ff61174a827f27869b03d97f61c857c7dfd10dbf3620fa30d8bb89bb221d094b39e07105269e61136d565b54166117bc576001600160a01b03811690611795906117889061176e84151561439b565b6001600160a01b0316600090815260066020526040902090565b805460ff19166001179055565b7ff9b68063b051b82957fa193585681240904fed808db8b30fc5a2d2202c6ed6278280a280f35b60405162461bcd60e51b815260206004820152601e60248201527f4163636f756e74206973206120626c61636b6c697374206d616e6167657200006044820152606490fd5b81601f820112156105415780359161181883610624565b9261182660405194856105dc565b808452602092838086019260051b820101928311610541578301905b828210611850575050505090565b838091833561185e81610530565b815201910190611842565b34610541576040366003190112610541576001600160401b036004358181116105415761189a903690600401611801565b90602435908111610541576118b390369060040161063b565b906118c18151835114614811565b6118cb81516147df565b9160005b825181101561191957611914906119046001600160a01b036118f183876137f2565b51166118fd83866137f2565b5190614757565b61190e82876137f2565b526137cd565b6118cf565b60405180610c098682610d6e565b34610541576080366003190112610541576119406114da565b604435801515810361054157606435908115158203610541576107de92600435614658565b346105415760003660031901126105415760206040516000805160206159548339815191528152f35b3461054157600036600319011261054157600a546040516001600160a01b039091168152602090f35b34610541576020366003190112610541576004356119d481610530565b6119dc613186565b6001600160a01b03166000818152600660205260408120805460ff19169055907f2b6bf71b58b3583add364b3d9060ebf8019650f65f5be35f5464b9cb3e4ba2d48280a280f35b346105415760003660031901126105415760206040516000805160206158f48339815191528152f35b346105415760003660031901126105415760206040517f00000000000000000000000000000000000000000000000000000000000000008152f35b3461054157604036600319011261054157600435602435611aa781610530565b6000808052600360205291611ad660ff611acf3360008051602061591483398151915261136d565b5416613688565b6001600160a01b038216918215611b665761178881611b25611b3f93611b0686600052600e602052604060002090565b80546001600160a01b0319166001600160a01b03909216919091179055565b6001600160a01b03166000908152600f6020526040902090565b7f2b5203544b0fa2eafb37a62519eaa89b30154c251be795b6247d028225ec208d8380a380f35b60405162461bcd60e51b8152602060048201526019602482015278496e76616c696420657874656e73696f6e206164647265737360381b6044820152606490fd5b3461054157602036600319011261054157600435611bc481610530565b611bcc61313b565b7f3377dc44241e779dd06afab5b788a35ca5f3b778836e2990bdb26a2a4b2e5ed66020611c09611bfb42613656565b611c0361350f565b9061355e565b611c116134f0565b600480546001600160d01b0319166001600160a01b0390971696871760a085901b65ffffffffffff60a01b1617905565ffffffffffff91508116611c5a575b60405191168152a2005b7f8886ebfc4259abdbc16601dd8fb5678e54878f47b3c34836cfc51154a9605109600080a1611c50565b346105415760203660031901126105415765ffffffffffff6004358181169182820361054157611cb261313b565b611cbb42613656565b9281611cc561350f565b1680821115611d32575092611d0a917ff1038c18cf84a56e432fdbfaf746924b7ea511dfe03a6506a0ceba4888788d9b9462069780908180821091180218169061355e565b90611d158282613578565b6040805165ffffffffffff928316815292909116602083015290a1005b03908111611d66577ff1038c18cf84a56e432fdbfaf746924b7ea511dfe03a6506a0ceba4888788d9b92611d0a919061355e565b613548565b90608060031983011261054157600435611d8481610530565b916024359160443591606435906001600160401b03821161054157610706916004016106eb565b346105415761149b611dbc36611d6b565b91600094936000805160206159548339815191528652600360205260ff611de6336040892061136d565b54168015611dfd575b611df8906138e0565b613922565b50338652600f602052604086205460ff16611def565b3461054157606036600319011261054157600435611e3081610530565b6001600160401b0360243581811161054157611e5090369060040161063b565b9060443590811161054157611e6990369060040161063b565b6000805160206158f48339815191526000908152600360205291611eb960ff611eb2337fd865b7f358b61ebb88423346dbdd313fbd9dc67840adf461aa755702d67a4e8161136d565b541661405a565b6001600160a01b03841615611ee057829361149b93604051611eda816105c1565b52613948565b604051626a0d4560e21b815260048101849052602490fd5b3461054157610c09610d2e611f0c36610a4d565b614561565b602060031982011261054157600435906001600160401b0382116105415761070691600401611801565b3461054157611f4936611f11565b611f51613186565b60005b81518110156107de57611f92906001600160a01b03611f7382856137f2565b511660005260066020526040600020600160ff198254161790556137cd565b611f54565b346105415760203660031901126105415760206108246004356148b6565b34610541576020366003190112610541576020611150600435600052600860205260ff6001604060002001541690565b34610541576000366003190112610541576005546040516001600160a01b039091168152602090f35b346105415760003660031901126105415760206040516000805160206159348339815191528152f35b34610541576020366003190112610541576080612055600435614445565b610ef26040518092606080918051845260208101511515602085015260408101511515604085015201511515910152565b346105415761149b61209736610f73565b90600093926000805160206158f48339815191528552600360205260ff6120c1336040882061136d565b541680156120d8575b6120d39061405a565b61409c565b50338552600f602052604085205460ff166120ca565b3461054157604036600319011261054157602060ff61212660243561211281610530565b60043560005260038452604060002061136d565b54166040519015158152f35b6040600319820112610541576004356001600160401b03811161054157816023820112156105415780600401359161216983610624565b9261217760405194856105dc565b80845260209260248486019260051b82010192831161054157602401905b8282106121a9575050505090610706610546565b81358152908301908301612195565b34610541576121c636612132565b906121cf61313b565b60005b81518110156107de57806121e961220892846137f2565b511561220357612203846121fd83866137f2565b5161320c565b6137cd565b6121d2565b61221636610f73565b9091612220614245565b61222c610fb5826143e7565b612238610fc7336143e7565b612241836156a2565b1561234a57600a546001600160a01b039061226b908216612263811515615752565b301415615752565b80821615612342575b6122928361228c86600052600b602052604060002090565b546141d3565b61229e813410156141e6565b6122a88134614238565b8015801561231c575b50506000808080936122d0611057611057600a5460018060a01b031690565b828215612313575bf1156110c7577f3ceffd410054fdaed44f598ff5c1fb450658778e2241892da4aa646979dee617916110b161230b613d9a565b858784613922565b506108fc6122d8565b600080809381938290612339575b3390f1156110c75738806122b1565b506108fc61232a565b339150612274565b60405162461bcd60e51b8152602060048201526015602482015274546f6b656e206973206e6f7420666f722073616c6560581b6044820152606490fd5b602080820190808352835180925260408301928160408460051b8301019501936000915b8483106123bb5750505050505090565b90919293949584806123d9600193603f198682030187528a51610ef4565b98019301930191949392906123ab565b346105415760203660031901126105415760043561240681610530565b6009546124128161484f565b9160005b82811061242b5760405180610c098682612387565b8061243961244e9284615579565b61244382876137f2565b52610bf081866137f2565b612416565b3461054157600080600319360112610ca3576005548060d01c91821515806124ad575b156124a4575060a01c65ffffffffffff165b6040805165ffffffffffff928316815292909116602083015290f35b91505080612488565b5042831015612476565b3461054157600036600319011261054157602060405160008152f35b34610541576040366003190112610541576004356124f081610530565b6124f86114da565b612504610fb5836143e7565b612510610fc7336143e7565b6001600160a01b03821691821561257d578161253c61254d92336000526001602052604060002061136d565b9060ff801983541691151516179055565b60405190151581527f17307eab39ab6107e8899845ad3d59bd9653f200f220920489ca2b5937696c3160203392a3005b60405162ced3e160e81b815260006004820152602490fd5b34610541576125a336611f11565b6125ab613186565b60005b81518110156107de576125e9906001600160a01b036125cd82856137f2565b51166000526006602052604060002060ff1981541690556137cd565b6125ae565b9181601f84011215610541578235916001600160401b038311610541576020808501948460051b01011161054157565b34610541576040366003190112610541576001600160401b036004358181116105415761264f9036906004016125ee565b91602435908111610541576126689036906004016125ee565b612673818514614811565b61267c8461484f565b9360005b8181106126955760405180610c098882612387565b806126c36126a76126cd938589614899565b356126b181610530565b6126bc838789614899565b3590615579565b610be582896137f2565b612680565b3461054157602036600319011261054157600435600052600b6020526020604060002054604051908152f35b34610541576020366003190112610541576000808052600360205260043561273960ff611acf3360008051602061591483398151915261136d565b808252600e60205260408220546001600160a01b03169081156127c45761277d61276d82600052600e602052604060002090565b80546001600160a01b0319169055565b6001600160a01b0382166000908152600f60205260409020805460ff191690557f49c43ed6046de2087d001eeee6b21779a6d28c0f89b5897089487ffd9f40120b8380a380f35b60405162461bcd60e51b8152602060048201526013602482015272115e1d195b9cda5bdb881b9bdd08199bdd5b99606a1b6044820152606490fd5b346105415760003660031901126105415760206040516000805160206158748339815191528152f35b3461054157600036600319011261054157610c09610d986149a0565b3461054157600036600319011261054157610c09610d986156cf565b3461054157600036600319011261054157602061287b61350f565b65ffffffffffff60405191168152f35b34610541576000366003190112610541576128a46134f0565b506001600160a01b03163303612935576128bc6134f0565b65ffffffffffff8116801590811561292a575b50612908576005546128f59083906128ef906001600160a01b031661338d565b50613262565b50600480546001600160d01b0319169055005b6040516319ca5ebb60e01b815265ffffffffffff919091166004820152602490fd5b9050421115386128cf565b604051636116401160e11b8152336004820152602490fd5b3461054157600036600319011261054157604065ffffffffffff61296f6134f0565b83516001600160a01b0390921682529091166020820152f35b34610541576040366003190112610541576107de6024356004356148e0565b34610541576040366003190112610541576107de6024356129c781610530565b60043561320c565b3461054157600080600319360112610ca3576129e961313b565b65ffffffffffff6129f86134f0565b90508160d01b6004541660045516612a0d5780f35b7f8886ebfc4259abdbc16601dd8fb5678e54878f47b3c34836cfc51154a96051098180a180f35b3461054157602036600319011261054157600435600052600d6020526020604060002054604051908152f35b3461054157612a6e366114e9565b600080516020615874833981519152600052600360205291939290612aac612aa761156e3360008051602061589483398151915261136d565b61380b565b6009548610948594612abc6136c9565b95612b29575b9083612ace9289614658565b6000805160206159348339815191526000526003602052612b0561156e336000805160206158d483398151915261136d565b61136d565b612b19575b5061162f57506115c08361370b565b612b239086615797565b38612b0a565b9450612ace9083612b398961370b565b9691925050612ac2565b3461054157602036600319011261054157600435612b6081610530565b6001600160a01b03908116612b76811515615752565b612b8230821415615752565b6000805160206159348339815191526000908152600360205291612bb960ff611426336000805160206158d483398151915261136d565b600a80546001600160a01b031981168417909155167f64cbbd34f3faebfd04eff088ae5832f6d254dbb81820b0055e9d85c534aa700d8380a380f35b34610541576107de612c0636611d6b565b600080516020615954833981519152600052600360205292909190611df860ff6107bf337f9409729698b8f308a2af83e5557cf603f852e9adbc3a7847d7b55aa10527eebf61136d565b34610541576040366003190112610541576020611150600435612c7281610530565b60243590612c7f82610530565b6145b3565b34610541576040366003190112610541576001600160401b0360043581811161054157612cb590369060040161063b565b9060243590811161054157612cce90369060040161063b565b90612cdb610fc7336143e7565b6000805160206159348339815191526000526003602052612d0f60ff611426336000805160206158d483398151915261136d565b8051825103612d5c5760005b81518110156107de5780612d32612d5792856137f2565b51612d51612d4083866137f2565b51600052600b602052604060002090565b556137cd565b612d1b565b60405162461bcd60e51b815260206004820152601a60248201527f4172726179206c656e6774687320646f206e6f74206d617463680000000000006044820152606490fd5b346105415760a036600319011261054157600435612dbe81610530565b602435612dca81610530565b6084356001600160401b03811161054157612de99036906004016106eb565b906001600160a01b03838116903382141580612e69575b612e42578216156107e05715612e2a576107de92612e22606435604435613cf0565b929091613b6b565b604051626a0d4560e21b815260006004820152602490fd5b60405163711bec9160e11b81523360048201526001600160a01b0386166024820152604490fd5b50612e7433866145b3565b15612e00565b34610541576020366003190112610541576020611150600435600052600860205260ff60016040600020015460101c1690565b34610541576107de612ebe36610f73565b6000805160206158f48339815191526000526003602052916120d360ff611eb2337fd865b7f358b61ebb88423346dbdd313fbd9dc67840adf461aa755702d67a4e8161136d565b3461054157610c09610d98612f1936610a4d565b6149e0565b3461054157604036600319011261054157612f3b610fc7336143e7565b60008051602061593483398151915260009081526003602052612f7160ff611426336000805160206158d483398151915261136d565b6004358152600b602052602435604082205580f35b3461054157612f9436612132565b90612f9d61313b565b612fa9610fb5836143e7565b60005b81518110156107de5780612fc3612fdd92846137f2565b51156122035761220384612fd783866137f2565b516130fc565b612fac565b3461054157602036600319011261054157602061115060043561300481610530565b6143e7565b346105415760203660031901126105415760043561302681610530565b600954613032816147df565b9160005b8281106130535760405160208082528190610c0990820187610d3a565b806119046130619284614757565b613036565b34610541576000366003190112610541576009546130838161377d565b9061308c6144e7565b6130946156cf565b9061309d6149a0565b60005b8481106130b55760405180610c098882610ab4565b80610b4b6130c392856137f2565b6130a0565b3461054157602036600319011261054157600435600052600e602052602060018060a01b0360406000205416604051908152f35b90811561312957816131269260005260036020526131216001604060002001546131f3565b613312565b50565b604051631fe1e13d60e11b8152600490fd5b60008052600360205260ff61315e3360008051602061591483398151915261136d565b54161561316757565b60405163e2517d3f60e01b815233600482015260006024820152604490fd5b6000805160206158b48339815191526000819052600360205260ff6131cb337f27869b03d97f61c857c7dfd10dbf3620fa30d8bb89bb221d094b39e07105269e61136d565b5416156131d55750565b6044906040519063e2517d3f60e01b82523360048301526024820152fd5b80600052600360205260ff6131cb33604060002061136d565b90811561312957816131269260005260036020526132316001604060002001546131f3565b6133c2565b90336001600160a01b0382160361325057613126916133c2565b60405163334bd91960e11b8152600490fd5b6005546001600160a01b039190828116613129576001600160a01b03191691811691909117600555610706906000808052600360205260ff6132b28360008051602061591483398151915261136d565b541661330d5780805260036020526132cd826040832061136d565b805460ff1916600117905533916001600160a01b0316907f2f8788117e7eff1d82e926ec794901d17c78024a50270940304540a733656f0d8180a4600190565b905090565b600090808252600360205260ff61332c846040852061136d565b5416613387578082526003602052613347836040842061136d565b805460ff1916600117905533926001600160a01b0316917f2f8788117e7eff1d82e926ec794901d17c78024a50270940304540a733656f0d9080a4600190565b50905090565b60055461070691906001600160a01b03808316908216146133af575b50613400565b6001600160a01b031916600555386133a9565b90610706918015806133e9575b1561347d57600580546001600160a01b031916905561347d565b506005546001600160a01b038381169116146133cf565b6000808052600360205260ff6134248360008051602061591483398151915261136d565b54161561330d578080526003602052613440826040832061136d565b805460ff1916905533916001600160a01b0316907ff6391f5c32d9c69d2a47ea670b442974b53935d1edc7fd64eb21e047a839171b8180a4600190565b600090808252600360205260ff613497846040852061136d565b5416156133875780825260036020526134b3836040842061136d565b805460ff1916905533926001600160a01b0316917ff6391f5c32d9c69d2a47ea670b442974b53935d1edc7fd64eb21e047a839171b9080a4600190565b6004546001600160a01b0381169160a09190911c65ffffffffffff1690565b6005548060d01c801515908161353e575b50156135345760a01c65ffffffffffff1690565b5060045460d01c90565b9050421138613520565b634e487b7160e01b600052601160045260246000fd5b91909165ffffffffffff80809416911601918211611d6657565b906005548060d01c806135bf575b5050600580546001600160a01b031660a09390931b65ffffffffffff60a01b169290921760d09190911b6001600160d01b031916179055565b4211156135f157600480546001600160d01b031660309290921b6001600160d01b0319169190911790555b3880613586565b507f2b1fa2edafe6f7b9e97c1a9e0c3660e645beb2dcaa2d45bdbf9beaf5472e1ec5600080a16135ea565b90600182811c9216801561364c575b602083101461363657565b634e487b7160e01b600052602260045260246000fd5b91607f169161362b565b65ffffffffffff90818111613669571690565b604490604051906306dfcc6560e41b8252603060048301526024820152fd5b1561368f57565b60405162461bcd60e51b81526020600482015260126024820152712ab730baba3437b934bd32b21030b236b4b760711b6044820152606490fd5b6040519060c082018281106001600160401b03821117610586576040528160a06000918281528260208201528260408201528260608201528260808201520152565b6137136136c9565b5061371d81614445565b90600052600b602052604060002054600d6020526040600020549082519260208101511515906060604082015115159101511515916040519561375f876105a6565b8652602086015260408501526060840152608083015260a082015290565b9061378782610624565b61379460405191826105dc565b82815280926137a5601f1991610624565b019060005b8281106137b657505050565b6020906137c16136c9565b828285010152016137aa565b6000198114611d665760010190565b634e487b7160e01b600052603260045260246000fd5b80518210156138065760209160051b010190565b6137dc565b1561381257565b60405162461bcd60e51b815260206004820152601a60248201527f556e617574686f72697a656420746f6b656e206d616e616765720000000000006044820152606490fd5b9160c061055392949361386f81610180810197610a77565b0190610a77565b634e487b7160e01b600052600060045260246000fd5b601f8111613898575050565b6000906002825260208220906020601f850160051c830194106138d6575b601f0160051c01915b8281106138cb57505050565b8181556001016138bf565b90925082906138b6565b156138e757565b60405162461bcd60e51b81526020600482015260136024820152722ab730baba3437b934bd32b21036b4b73a32b960691b6044820152606490fd5b919291906001600160a01b038216156107e0576105539361394291613cf0565b91613a72565b9092613956610fb5836143e7565b613971610fb533600052600660205260ff6040600020541690565b61397d610fc7336143e7565b60005b84518110156139fd576139c8906001600160a01b0384166139cd576122036139c36139ab83896137f2565b51600052600860205260ff6001604060002001541690565b614a2a565b613980565b6122036139f86139dd83896137f2565b51600052600860205260ff60016040600020015460081c1690565b614ab4565b5091613a0a818584614b1d565b60005b8451811015613a6b5780613a24613a5292876137f2565b51613a2f82856137f2565b51906001600160a01b038616613a575761220391613a4c826148b6565b916152dd565b613a0d565b613a65612203928288614edc565b8561501e565b5050509050565b90939291613a91610fb533600052600660205260ff6040600020541690565b613a9d610fb5836143e7565b613aa9610fc7336143e7565b60005b8551811015613ace57806122036139c36139ab613ac9948a6137f2565b613aac565b50909192613add828685614c71565b60005b8551811015613b1b5780612203613afa613b1693896137f2565b51613b0583876137f2565b51613b0f826148b6565b918861541d565b613ae0565b50939192916001600160a01b038416613b35575b50505050565b8051600103613b5c5790602080613b53959301519101519133613ddd565b38808080613b2f565b613b669333613fee565b613b53565b929493909194613b7d610fb5856143e7565b613b89610fb5846143e7565b613b95610fc7336143e7565b60005b8651811015613c2057613bc5906001600160a01b03868116613bca57506122036139c36139ab838b6137f2565b613b98565b8516613be0576122036139f86139dd838b6137f2565b613bf06139c36139ab838b6137f2565b612203613c1b613c00838b6137f2565b51600052600860205260ff60016040600020015460101c1690565b614a6c565b509093613c2f82878587614d6c565b60005b8651811015613c9e5780613c49613c7392896137f2565b51613c5482866137f2565b516001600160a01b03888116613c7857509061220391613b0f826148b6565b613c32565b8716613c935790613c8d61220392828a614edc565b8761501e565b612203918789615144565b50949392916001600160a01b038116613cb9575b5050505050565b8451600103613cdf57602080613cd59601519201519233613ed7565b3880808080613cb2565b613ceb94919233614023565b613cd5565b9160405192600184526020840152604083019160018352606084015260808301604052565b9081602091031261054157516107068161082c565b909260a0926107069594600180861b0316835260006020840152604083015260608201528160808201520190610dac565b919261070695949160a094600180871b038092168552166020840152604083015260608201528160808201520190610dac565b6040513d6000823e3d90fd5b60405190613da7826105c1565b60008252565b3d15613dd8573d90613dbe82610699565b91613dcc60405193846105dc565b82523d6000602084013e565b606090565b9293919093843b613def575050505050565b602091613e12604051948593849363f23a6e6160e01b9889865260048601613d2a565b038160006001600160a01b0388165af160009181613ea7575b50613e6a5782613e39613dad565b8051919082613e6357604051632bfa23e760e11b81526001600160a01b0383166004820152602490fd5b6020915001fd5b6001600160e01b03191603613e8457503880808080613cb2565b604051632bfa23e760e11b81526001600160a01b03919091166004820152602490fd5b613ec991925060203d8111613ed0575b613ec181836105dc565b810190613d15565b9038613e2b565b503d613eb7565b939290949194853b613eec575b505050505050565b613f0f602093604051958694859463f23a6e6160e01b998a875260048701613d5b565b038160006001600160a01b0388165af160009181613f51575b50613f365782613e39613dad565b6001600160e01b03191603613e845750388080808080613ee4565b613f6a91925060203d8111613ed057613ec181836105dc565b9038613f28565b92613fa06107069593613fae9360018060a01b031686526000602087015260a0604087015260a0860190610d3a565b908482036060860152610d3a565b916080818403910152610dac565b93906107069593613fa091613fae9460018060a01b03809216885216602087015260a0604087015260a0860190610d3a565b9293919093843b614000575050505050565b602091613e12604051948593849363bc197c8160e01b9889865260048601613f71565b939290949194853b61403757505050505050565b613f0f602093604051958694859463bc197c8160e01b998a875260048701613fbc565b1561406157565b60405162461bcd60e51b81526020600482015260136024820152722ab730baba3437b934bd32b210313ab93732b960691b6044820152606490fd5b906001600160a01b03821615612e2a57610553926140b991613cf0565b916000604051611eda816105c1565b156140cf57565b60405162461bcd60e51b81526020600482015260166024820152751058d8dbdd5b9d081a5cc8189b1858dadb1a5cdd195960521b6044820152606490fd5b1561411457565b60405162461bcd60e51b815260206004820152601560248201527414d95b99195c881a5cc8189b1858dadb1a5cdd1959605a1b6044820152606490fd5b1561415857565b60405162461bcd60e51b8152602060048201526012602482015271546f6b656e206e6f7420666f722073616c6560701b6044820152606490fd5b1561419957565b60405162461bcd60e51b8152602060048201526012602482015271546f6b656e20686173206e6f20707269636560701b6044820152606490fd5b81810292918115918404141715611d6657565b156141ed57565b60405162461bcd60e51b8152602060048201526014602482015273125b9cdd59999a58da595b9d081c185e5b595b9d60621b6044820152606490fd5b600019810191908211611d6657565b91908203918211611d6657565b600260075414614256576002600755565b604051633ee5aeb560e01b8152600490fd5b90949392606092608083019660018060a01b03168352602083015260408201520152565b92906142b36142c192604051948593602085019763b9ae526560e01b895260248601614268565b03601f1981018352826105dc565b7f9ea7c227479a2b8a76245ee635dafb0a22e7d33dc65fea966382e44786615e9a6000908152600e6020527fb936018311cfaa67e41f88b18066e39f60c83ba992d360f054181aba6669d2765490926001600160a01b03918490831680614381575b507f2b9a3e491cc6e781461af6c8ee3b2cf01aa84d293731bc8d11978c1bc55a6ab49052600e60205260408420546001600160a01b03169182166143675750505050565b83809351925af150614377613dad565b5038808080613b2f565b819083828751925af150614393613dad565b508338614323565b156143a257565b60405162461bcd60e51b815260206004820152601b60248201527f4163636f756e7420697320746865207a65726f206164647265737300000000006044820152606490fd5b6001600160a01b0316801561440a57600052600660205260ff6040600020541690565b5033600052600660205260ff6040600020541690565b6040519061442d8261056b565b60006060838281528260208201528260408201520152565b61444d614420565b506000526008602052604060002060ff60016040519261446c8461056b565b80548452015481811615156020840152818160081c161515604084015260101c161515606082015290565b906144a182610624565b6144ae60405191826105dc565b82815280926144bf601f1991610624565b019060005b8281106144d057505050565b6020906144db614420565b828285010152016144c4565b6009546144f381614497565b906000805b8281106145055750505090565b8061455c91835260086020908082526040918286209260018151946145298661056b565b805486520154918260ff9485928383161515908801521c1615159084015260101c161515606082015261244382876137f2565b6144f8565b61456b8151614497565b90600090815b81518110156145ad57806145886145a892846137f2565b51845260086020908082526040918287209260018151946145298661056b565b614571565b50505090565b6145bc816143e7565b80156145f6575b6145ef576001600160a01b0316600090815260016020526040902060ff916145ea9161136d565b541690565b5050600090565b50614600826143e7565b6145c3565b60019082518155019061462a60208201511515839060ff801983541691151516179055565b604081015115159061ff0062ff000060608554930151151560101b169260081b169062ffff00191617179055565b6000805160206158748339815191526000526003602052929161468e60ff61096d3360008051602061589483398151915261136d565b6009548411614703576146e5926146c36146cc926146ba6146ad61060a565b8881529515156020870152565b15156040850152565b15156060830152565b6146e0836000526008602052604060002090565b614605565b6009548091146146f25750565b6146fe610553916137cd565b600955565b60405162461bcd60e51b815260206004820152601060248201526f125b9d985b1a59081d1bdad95b88125160821b6044820152606490fd5b80548210156138065760005260206000209060011b0190600090565b60009160018060a01b0382168352600c602052604083209083526020526147896040832091836020526040842061136d565b5491908054915b82811061479d5750505090565b6147a7818361473b565b5060014291015411156147c3575b6147be906137cd565b614790565b926147ce848361473b565b50548103908111611d6657926147b5565b906147e982610624565b6147f660405191826105dc565b8281528092614807601f1991610624565b0190602036910137565b1561481857565b60405162461bcd60e51b815260206004820152600f60248201526e098cadccee8d040dad2e6dac2e8c6d608b1b6044820152606490fd5b9061485982610624565b61486660405191826105dc565b8281528092614877601f1991610624565b019060005b82811061488857505050565b80606060208093850101520161487c565b91908110156138065760051b0190565b91908201809211611d6657565b600052600d60205260406000205480156000146148d4575060001990565b4201804211611d665790565b600080516020615874833981519152600052600360205261491460ff61096d3360008051602061589483398151915261136d565b80600052600860205260ff60016040600020015460081c16156149485761494590600052600d602052604060002090565b55565b60405162461bcd60e51b815260206004820152602a60248201527f546f6b656e206973206e6f74206275726e61626c652c20736f2069742063616e6044820152696e6f742065787069726560b01b6064820152608490fd5b600954906149ad826147df565b600092835b8181106149c0575090925050565b806149db918652600d602052604086205461190e82866137f2565b6149b2565b906149eb82516147df565b600092835b8151811015614a235780614a07614a1e92846137f2565b518652600d602052604086205461190e82866137f2565b6149f0565b5090925050565b15614a3157565b60405162461bcd60e51b8152602060048201526013602482015272546f6b656e206973206e6f742061637469766560681b6044820152606490fd5b15614a7357565b60405162461bcd60e51b8152602060048201526019602482015278546f6b656e206973206e6f74207472616e7366657261626c6560381b6044820152606490fd5b15614abb57565b60405162461bcd60e51b8152602060048201526015602482015274546f6b656e206973206e6f74206275726e61626c6560581b6044820152606490fd5b9091614b0f61070693604084526040840190610d3a565b916020818403910152610d3a565b9291908051825190818103614c4f57505060005b8151811015614bd357600581901b82810160209081015191850101516001600160a01b038716614b6c575b5050614b67906137cd565b614b31565b614b8487612b00846000526000602052604060002090565b54818110614bb45787612b00614b67959493614bac9303936000526000602052604060002090565b559038614b5c565b8761126184846040519485946303dee4c560e01b865260048601614268565b5090600092939160018151148414614c22576020908101519181015160408051938452918301526001600160a01b0390921691339160008051602061585483398151915291819081015b0390a4565b6040516001600160a01b03909316923392600080516020615834833981519152928291614c1d9183614af8565b604051635b05999160e01b815260048101919091526024810191909152604490fd5b9190918251825190818103614c4f57505060005b8351811015614cf157600581901b8481016020908101519185010151614cbf929184906001600160a01b038216614cc4575b5050506137cd565b614c85565b614ce791612b00614cdf926000526000602052604060002090565b9182546148a9565b9055388381614cb7565b50916001815114600014614d3f576020908101519181015160408051938452918301526001600160a01b03909216916000913391600080516020615854833981519152919081908101614c1d565b600080516020615834833981519152614c1d6000939460405191829160018060a01b031696339583614af8565b9392918051835190818103614c4f57505060005b8151811015614e5b57600581901b82810160209081015191860101516001600160a01b0392918590898516614dec575b614dc2948216614dc7575050506137cd565b614d80565b614de291612b00614cdf926000526000602052604060002090565b9055388481614cb7565b9192939050614e0989612b00846000526000602052604060002090565b54838110614e3c5791869184614dc296959403614e348c612b00856000526000602052604060002090565b559450614db0565b8961126184866040519485946303dee4c560e01b865260048601614268565b508051939493919291600103614eab576020908101519181015160408051938452918301526001600160a01b03928316939092169133916000805160206158548339815191529181908101614c1d565b6040516001600160a01b0393841694909316923392600080516020615834833981519152928291614c1d9183614af8565b6001600160a01b03166000908152600c60205260409020919291614f0b91905b90600052602052604060002090565b9160009081905b8454821080614fb2575b15613a6b57614f2b828661473b565b506001429101541115614fa25780614f43838761473b565b50541115614f7657614f61614f58838761473b565b50918254614238565b9055614f6d82916137cd565b925b9290614f12565b614f8f614f6d91614f87848861473b565b505490614238565b9183614f9b828861473b565b50556137cd565b90614fac906137cd565b92614f6f565b50801515614f1c565b9190614fdb57808203614fcc575050565b60018181925484550154910155565b613876565b80548015615008576000190190614ff7828261473b565b614fdb576001816000809355015555565b634e487b7160e01b600052603160045260246000fd5b9061503f81614efc8460018060a01b0316600052600c602052604060002090565b906000908190825b84548410156150df5761505a848661473b565b50541515806150c7575b156150a65761507c81615082928603615088576137cd565b936137cd565b92615047565b612203615095878961473b565b506150a0838a61473b565b90614fbb565b92916150c1615082916150b9858861473b565b5054906148a9565b926137cd565b506150d2848661473b565b5060014291015411615064565b9093949192505b80855411156150fd576150f885614fe0565b6150e6565b50909192508161510c57505050565b6040519182526001600160a01b0316907f8d8e3659d6fba4144bf2ef4e66100f576035ab5e3e74225d79413f882c32b59390602090a3565b929391906001600160a01b03808516908216148015615289575b615282576001600160a01b0384166000908152600c60205260409020615185908390614efc565b949160009384935b8754851080615279575b15615269576151a6858961473b565b50600190814291015411801590615256575b61524b5788826151c8888361473b565b5054111561520857906151de876151e99361473b565b50015482858761541d565b6151f6614f58868a61473b565b905561520285946137cd565b9361518d565b916152358361523f9361522a8a615222816152029961473b565b50549361473b565b50015490878961541d565b614f87878b61473b565b9486614f9b828b61473b565b5093615202906137cd565b50615261868a61473b565b5054156151b8565b509550925050506105539161501e565b50801515615197565b5050915050565b50841561515e565b9190614fdb576020816001925184550151910155565b80549190600160401b83101561058657826152ca9160016105539501815561473b565b90615291565b8015611d66576000190190565b60008052600c602052919291615313907f13649b2456f1b42fef0f0040b3aaeabcd21a76a0f3f5defd4f583839455116e8614efc565b92835460005b8554811015615416578261532d828861473b565b5081600180920154116000146153d75750509050905b845482146153bb57615367615356610617565b6000815260006020820152866152a7565b6153718554614229565b82811161539857509061055393946152ca9261538b610617565b948552602085015261473b565b806153b16150956153ab6153b694614229565b8961473b565b6152d0565b615371565b610553939491506153ca610617565b92835260208301526152a7565b6153e1838961473b565b500154146153f7576153f2906137cd565b615319565b9050615409915061541292939461473b565b509182546148a9565b9055565b5090615343565b6001600160a01b03166000908152600c602052604090209293926154419190614efc565b92835460005b85548110156154e0578261545b828861473b565b5081600180920154116000146154c05750509050905b845482146153bb57615484615356610617565b61548e8554614229565b8281116154a857509061055393946152ca9261538b610617565b806153b16150956153ab6154bb94614229565b61548e565b6154ca838961473b565b500154146153f7576154db906137cd565b615447565b5090615471565b6040516154f3816105c1565b6000815290565b9061550482610624565b604090615513825191826105dc565b8381528093615524601f1991610624565b0191600090815b848110615539575050505050565b60209082516155478161058b565b84815282858183015282870101520161552b565b906040516155688161058b565b602060018294805484520154910152565b9061559282612b00836000526000602052604060002090565b541561569857614efc6155b79260018060a01b0316600052600c602052604060002090565b80546000805b82811061564457506155ce906154fa565b91600090815b8381106155e2575050505090565b6155ec818361473b565b506001429101541180615630575b61560d575b615608906137cd565b6155d4565b91615628615608916126c3615622868661473b565b5061555b565b9290506155ff565b5061563b818361473b565b505415156155fa565b61564e818561473b565b506001429101541180615684575b61566f575b61566a906137cd565b6155bd565b9061567c61566a916137cd565b919050615661565b5061568f818561473b565b5054151561565c565b50506107066154e7565b600052600860205260ff60016040600020015416806156be5790565b50600b602052604060002054151590565b600954906156dc826147df565b600092835b8181106156ef575090925050565b8061570a918652600b602052604086205461190e82866137f2565b6156e1565b9061571a82516147df565b600092835b8151811015614a23578061573661574d92846137f2565b518652600b602052604086205461190e82866137f2565b61571f565b1561575957565b60405162461bcd60e51b8152602060048201526016602482015275496e76616c69642077616c6c6574206164647265737360501b6044820152606490fd5b6157a3610fc7336143e7565b60008051602061593483398151915260005260036020526157d760ff611426336000805160206158d483398151915261136d565b600052600b602052604060002055565b156157ee57565b60405162461bcd60e51b815260206004820152601c60248201527f556e617574686f72697a65642066696e616e6365206d616e61676572000000006044820152606490fdfe4a39dc06d4c0dbc64b70af90fd698a233a518aa5d07e595d983b8c0526c8f7fbc3d58168c5ae7397731d063d5bbf3d657854427343f4c083240f7aacaa2d0f6274f7a545c65c11839a48d7453738b30c295408df2d944516167556759ddc6d06066524a10daac0b3974093068bb2bc712e20a33461d4e22217863cdad751f2abf988e4fb62b8e14f4820fed03192306ddf4d7dbfa215595ba1c6ba4b76b369eef0f8f76d6ce591be902d66c475263e0a57264353432317d51742b939d2e393c002358c16c6ece4d564dd98c8400ef2ce02ec4ed5a3d53421ef64678a57ac51013617319a054d772f909f7c479a2cebe5066e836a939412e32403c99029b92eff572f022558b687eed59080237cb7778171198110a24741b57d6ed3432df881fcb3bb6029312d1001076133d40b75b7eca92ba54e4963b3ce24e1486a3d5a038ba264697066735822122069069e6bf7b33c1eeeb1ca3d2f6ac919069e0c098753ccf76e9b1b7cefd0250f64736f6c634300081400332f8788117e7eff1d82e926ec794901d17c78024a50270940304540a733656f0d",
  "linkReferences": {},
  "deployedLinkReferences": {}
}